{
  "contractName": "BaseRabbit",
  "abi": [
    {
      "constant": true,
      "inputs": [],
      "name": "getPrivAddress",
      "outputs": [
        {
          "name": "",
          "type": "address"
        }
      ],
      "payable": false,
      "stateMutability": "view",
      "type": "function"
    },
    {
      "constant": false,
      "inputs": [
        {
          "name": "add",
          "type": "address"
        }
      ],
      "name": "transferOwnershipServer",
      "outputs": [],
      "payable": false,
      "stateMutability": "nonpayable",
      "type": "function"
    },
    {
      "constant": true,
      "inputs": [
        {
          "name": "",
          "type": "uint32"
        },
        {
          "name": "",
          "type": "uint256"
        }
      ],
      "name": "rabbitMother",
      "outputs": [
        {
          "name": "",
          "type": "uint32"
        }
      ],
      "payable": false,
      "stateMutability": "view",
      "type": "function"
    },
    {
      "constant": true,
      "inputs": [
        {
          "name": "",
          "type": "uint32"
        }
      ],
      "name": "rabbitToOwner",
      "outputs": [
        {
          "name": "",
          "type": "address"
        }
      ],
      "payable": false,
      "stateMutability": "view",
      "type": "function"
    },
    {
      "constant": true,
      "inputs": [
        {
          "name": "",
          "type": "uint256"
        },
        {
          "name": "",
          "type": "uint256"
        }
      ],
      "name": "sireGenom",
      "outputs": [
        {
          "name": "",
          "type": "uint32"
        }
      ],
      "payable": false,
      "stateMutability": "view",
      "type": "function"
    },
    {
      "constant": true,
      "inputs": [],
      "name": "timeRangeCreateGen0",
      "outputs": [
        {
          "name": "",
          "type": "uint256"
        }
      ],
      "payable": false,
      "stateMutability": "view",
      "type": "function"
    },
    {
      "constant": true,
      "inputs": [
        {
          "name": "",
          "type": "uint256"
        }
      ],
      "name": "rabbits",
      "outputs": [
        {
          "name": "mother",
          "type": "uint32"
        },
        {
          "name": "sire",
          "type": "uint32"
        },
        {
          "name": "birthblock",
          "type": "uint256"
        },
        {
          "name": "birthCount",
          "type": "uint256"
        },
        {
          "name": "birthLastTime",
          "type": "uint256"
        },
        {
          "name": "role",
          "type": "uint256"
        },
        {
          "name": "genome",
          "type": "uint256"
        }
      ],
      "payable": false,
      "stateMutability": "view",
      "type": "function"
    },
    {
      "constant": true,
      "inputs": [],
      "name": "getOwnerMoney",
      "outputs": [
        {
          "name": "",
          "type": "address"
        }
      ],
      "payable": false,
      "stateMutability": "view",
      "type": "function"
    },
    {
      "constant": true,
      "inputs": [
        {
          "name": "",
          "type": "uint32"
        }
      ],
      "name": "totalSalaryBunny",
      "outputs": [
        {
          "name": "",
          "type": "uint256"
        }
      ],
      "payable": false,
      "stateMutability": "view",
      "type": "function"
    },
    {
      "constant": true,
      "inputs": [],
      "name": "promoGen0",
      "outputs": [
        {
          "name": "",
          "type": "uint256"
        }
      ],
      "payable": false,
      "stateMutability": "view",
      "type": "function"
    },
    {
      "constant": true,
      "inputs": [],
      "name": "totalGen0",
      "outputs": [
        {
          "name": "",
          "type": "uint256"
        }
      ],
      "payable": false,
      "stateMutability": "view",
      "type": "function"
    },
    {
      "constant": true,
      "inputs": [],
      "name": "lastIdGen0",
      "outputs": [
        {
          "name": "",
          "type": "uint32"
        }
      ],
      "payable": false,
      "stateMutability": "view",
      "type": "function"
    },
    {
      "constant": true,
      "inputs": [],
      "name": "lastTimeGen0",
      "outputs": [
        {
          "name": "",
          "type": "uint256"
        }
      ],
      "payable": false,
      "stateMutability": "view",
      "type": "function"
    },
    {
      "constant": false,
      "inputs": [
        {
          "name": "add",
          "type": "address"
        }
      ],
      "name": "transferOwnershipTechnical",
      "outputs": [],
      "payable": false,
      "stateMutability": "nonpayable",
      "type": "function"
    },
    {
      "constant": true,
      "inputs": [
        {
          "name": "",
          "type": "uint256"
        }
      ],
      "name": "cooldowns",
      "outputs": [
        {
          "name": "",
          "type": "uint32"
        }
      ],
      "payable": false,
      "stateMutability": "view",
      "type": "function"
    },
    {
      "constant": true,
      "inputs": [],
      "name": "promoMoney",
      "outputs": [
        {
          "name": "",
          "type": "uint256"
        }
      ],
      "payable": false,
      "stateMutability": "view",
      "type": "function"
    },
    {
      "constant": true,
      "inputs": [],
      "name": "ownerCEO",
      "outputs": [
        {
          "name": "",
          "type": "address"
        }
      ],
      "payable": false,
      "stateMutability": "view",
      "type": "function"
    },
    {
      "constant": true,
      "inputs": [],
      "name": "getOwnerTech",
      "outputs": [
        {
          "name": "",
          "type": "address"
        }
      ],
      "payable": false,
      "stateMutability": "view",
      "type": "function"
    },
    {
      "constant": true,
      "inputs": [
        {
          "name": "",
          "type": "address"
        },
        {
          "name": "",
          "type": "uint256"
        }
      ],
      "name": "ownerBunnies",
      "outputs": [
        {
          "name": "",
          "type": "uint32"
        }
      ],
      "payable": false,
      "stateMutability": "view",
      "type": "function"
    },
    {
      "constant": false,
      "inputs": [
        {
          "name": "add",
          "type": "address"
        }
      ],
      "name": "transferOwnership",
      "outputs": [],
      "payable": false,
      "stateMutability": "nonpayable",
      "type": "function"
    },
    {
      "constant": true,
      "inputs": [],
      "name": "getOwnerServer",
      "outputs": [
        {
          "name": "",
          "type": "address"
        }
      ],
      "payable": false,
      "stateMutability": "view",
      "type": "function"
    },
    {
      "constant": false,
      "inputs": [
        {
          "name": "_ownerMoney",
          "type": "address"
        }
      ],
      "name": "transferOwnerMoney",
      "outputs": [],
      "payable": false,
      "stateMutability": "nonpayable",
      "type": "function"
    },
    {
      "constant": false,
      "inputs": [
        {
          "name": "_promoGen0",
          "type": "uint256"
        }
      ],
      "name": "setPromoGen0",
      "outputs": [],
      "payable": false,
      "stateMutability": "nonpayable",
      "type": "function"
    },
    {
      "constant": false,
      "inputs": [
        {
          "name": "_promoMoney",
          "type": "uint256"
        }
      ],
      "name": "setPromoMoney",
      "outputs": [],
      "payable": false,
      "stateMutability": "nonpayable",
      "type": "function"
    }
  ],
  "bytecode": "0x6004805460a060020a60ff0219169055655af3107a40006005819055600060075560016009556109c4600a55600b55610260604052603c6080908152607860a05260f060c0526101e060e08190526103c06101005261078061012052610e1061014052611c2061016052613840610180526170806101a05261e1006101c0526201518090526202a30061020052620546006102205262093a80610240526100aa90601190600f6100ef565b5060008054600160a060020a033316600160a060020a0319918216811790925560028054821683179055600380548216831790556001805490911690911790556101af565b60028301918390821561017b5791602002820160005b8382111561014957835183826101000a81548163ffffffff021916908363ffffffff1602179055509260200192600401602081600301049283019260010302610105565b80156101795782816101000a81549063ffffffff0219169055600401602081600301049283019260010302610149565b505b5061018792915061018b565b5090565b6101ac91905b8082111561018757805463ffffffff19168155600101610191565b90565b610808806101be6000396000f30060806040526004361061013d5763ffffffff7c010000000000000000000000000000000000000000000000000000000060003504166303602e9e811461014257806305caca6c1461017357806312448c321461019657806314c588de146101d057806314f1cf0c146101e85780632573751f146102065780633c9ff0121461022157806359dc2eec14610248578063625101d5146102a15780636b533057146102b657806370d4d7b4146102d45780637230ef7f146102e9578063731f49b7146102fe5780638231ee98146103135780638638fc3c146103285780639d6fac6f14610349578063ad5a157d14610361578063c17c045614610376578063c7191bc71461038b578063d00dbcb0146103a0578063eea23d8a146103c4578063f2fde38b146103dc578063f3cee129146103fd578063fdaacf1b14610412575b600080fd5b34801561014e57600080fd5b50610157610433565b60408051600160a060020a039092168252519081900360200190f35b34801561017f57600080fd5b50610194600160a060020a036004351661045f565b005b3480156101a257600080fd5b506101b763ffffffff600435166024356104b5565b6040805163ffffffff9092168252519081900360200190f35b3480156101dc57600080fd5b506101946004356104fd565b3480156101f457600080fd5b5061015763ffffffff6004351661051d565b34801561021257600080fd5b506101b7600435602435610538565b34801561022d57600080fd5b50610236610553565b60408051918252519081900360200190f35b34801561025457600080fd5b50610260600435610559565b6040805163ffffffff9889168152969097166020870152858701949094526060850192909252608084015260a083015260c082015290519081900360e00190f35b3480156102ad57600080fd5b506101576105b3565b3480156102c257600080fd5b5061023663ffffffff600435166105df565b3480156102e057600080fd5b506102366105f1565b3480156102f557600080fd5b506102366105f7565b34801561030a57600080fd5b506101b76105fd565b34801561031f57600080fd5b50610236610609565b34801561033457600080fd5b50610194600160a060020a036004351661060f565b34801561035557600080fd5b506101b7600435610666565b34801561036d57600080fd5b50610236610693565b34801561038257600080fd5b50610157610699565b34801561039757600080fd5b506101576106a8565b3480156103ac57600080fd5b506101b7600160a060020a03600435166024356106d4565b3480156103d057600080fd5b506101946004356106ef565b3480156103e857600080fd5b50610194600160a060020a036004351661070f565b34801561040957600080fd5b50610157610766565b34801561041e57600080fd5b50610194600160a060020a0360043516610792565b6000805433600160a060020a0390811691161461044f57600080fd5b50600454600160a060020a031690565b60005433600160a060020a0390811691161461047a57600080fd5b600160a060020a038116156104b2576003805473ffffffffffffffffffffffffffffffffffffffff1916600160a060020a0383161790555b50565b600d602052816000526040600020818154811015156104d057fe5b9060005260206000209060089182820401919006600402915091509054906101000a900463ffffffff1681565b60005433600160a060020a0390811691161461051857600080fd5b600a55565b601460205260009081526040902054600160a060020a031681565b600f602052816000526040600020818154811015156104d057fe5b60095481565b601380548290811061056757fe5b600091825260209091206006909102018054600182015460028301546003840154600485015460059095015463ffffffff80861697506401000000009095049094169492939192909187565b6000805433600160a060020a039081169116146105cf57600080fd5b50600154600160a060020a031690565b600c6020526000908152604090205481565b600a5481565b60075481565b60065463ffffffff1681565b60085481565b60005433600160a060020a0390811691161461062a57600080fd5b600160a060020a038116156104b25760028054600160a060020a03831673ffffffffffffffffffffffffffffffffffffffff1990911617905550565b601181600f811061067357fe5b60089182820401919006600402915054906101000a900463ffffffff1681565b600b5481565b600054600160a060020a031681565b6000805433600160a060020a039081169116146106c457600080fd5b50600254600160a060020a031690565b6015602052816000526040600020818154811015156104d057fe5b60005433600160a060020a0390811691161461070a57600080fd5b600b55565b60005433600160a060020a0390811691161461072a57600080fd5b600160a060020a038116156104b25760008054600160a060020a03831673ffffffffffffffffffffffffffffffffffffffff1990911617905550565b6000805433600160a060020a0390811691161461078257600080fd5b50600354600160a060020a031690565b60005433600160a060020a039081169116146107ad57600080fd5b6001805473ffffffffffffffffffffffffffffffffffffffff1916600160a060020a03929092169190911790555600a165627a7a723058205f95cfc4f13592155294ca9a36b6e614732ac3fafb960398277f214ab94433b30029",
  "source": "pragma solidity ^0.4.23;\n\nimport \"./Ownable.sol\";\n\n\n\n/**\n * @title SafeMath\n * @dev Math operations with safety checks that throw on error\n */\nlibrary SafeMath {\n    \n    function mul(uint256 a, uint256 b) internal pure returns (uint256) {\n        if (a == 0) {\n            return 0;\n        }\n        uint c = a * b;\n        assert(c / a == b);\n        return c;\n    }\n\n    function div(uint256 a, uint256 b) internal pure returns (uint256) {\n        // assert(b > 0); // Solidity automatically throws when dividing by 0\n        uint256 c = a / b;\n        // assert(a == b * c + a % b); // There is no case in which this doesn't hold\n        return c;\n    }\n\n    function sub(uint256 a, uint256 b) internal pure returns (uint256) {\n        assert(b <= a);\n        return a - b;\n    }\n\n    function add(uint256 a, uint256 b) internal pure returns (uint256) {\n        uint256 c = a + b;\n        assert(c >= a);\n        return c;\n    }\n  \n}\n \n\ncontract BaseRabbit  is Ownable {\n       \n    using SafeMath for uint256;\n    bool pauseSave = false;\n    uint256 bigPrice = 0.0001 ether;\n     \n    // ID the last seal\n    uint32 public lastIdGen0;\n    uint public totalGen0 = 0;\n    // ID the last seal\n    uint public lastTimeGen0;\n    \n    // ID the last seal\n  //  uint public timeRangeCreateGen0 = 1800;\n    uint public timeRangeCreateGen0 = 1;\n\n    uint public promoGen0 = 2500;\n    uint public promoMoney = 1*bigPrice;\n\n\n    function setPromoGen0(uint _promoGen0) public onlyOwner {\n        promoGen0 = _promoGen0;\n    }\n\n    function setPromoMoney(uint _promoMoney) public onlyOwner {\n        promoMoney = _promoMoney;\n    }\n\n\n\n    modifier timeRange() {\n        require((lastTimeGen0+timeRangeCreateGen0) < now);\n        _;\n    } \n\n    mapping(uint32 => uint) public totalSalaryBunny;\n    // reward chain \n    mapping(uint32 => uint32[]) public rabbitMother;\n\n\n    mapping(uint32 => uint) rabbitSirePrice;\n    mapping(uint => uint32[]) public sireGenom;\n \n  //  mapping(uint32 => uint) public rabbitRole; \n\n\n\n    \n    mapping (uint32 => uint) mapDNK;\n   \n    uint32[15] public cooldowns = [\n        uint32(1 minutes),\n        uint32(2 minutes),\n        uint32(4 minutes),\n        uint32(8 minutes),\n        uint32(16 minutes),\n        uint32(32 minutes),\n        uint32(1 hours),\n        uint32(2 hours),\n        uint32(4 hours),\n        uint32(8 hours),\n        uint32(16 hours),\n        uint32(1 days),\n        uint32(2 days),\n        uint32(4 days),\n        uint32(7 days)\n    ];\n\n\n    struct Rabbit { \n         // родители\n        uint32 mother;\n        uint32 sire; \n         \n        // блок в котором родился кролик\n        uint birthblock;\n         // количество родов или сколько раз было потомство\n        uint birthCount;\n         // Время когда последний раз рожал Кролик\n        uint birthLastTime;\n        // текущая роль кролика\n        uint role;\n        //indexGenome   \n        uint genome;\n    }\n    /**\n    * Там где будем хранить информацию о кроликах\n    */\n    Rabbit[]  public rabbits;\n     \n    /**\n    * кому принадлежит кролик\n    */\n    mapping (uint32 => address) public rabbitToOwner; \n    mapping(address => uint32[]) public ownerBunnies;\n    //mapping (address => uint) ownerRabbitCount;\n    mapping (uint32 => string) rabbitDescription;\n    mapping (uint32 => string) rabbitName; \n}\n",
  "sourcePath": "/home/koras/contracts/publicRabbit/pub/contracts/BaseRabbit.sol",
  "compiler": {
    "name": "solc",
    "version": "0.4.23+commit.124ca40d.Emscripten.clang"
  },
  "schemaVersion": "2.0.0",
  "updatedAt": "2018-05-17T19:34:26.761Z"
}