{
  "contractName": "BaseRabbit",
  "abi": [
    {
      "constant": true,
      "inputs": [],
      "name": "getPrivAddress",
      "outputs": [
        {
          "name": "",
          "type": "address"
        }
      ],
      "payable": false,
      "stateMutability": "view",
      "type": "function"
    },
    {
      "constant": false,
      "inputs": [
        {
          "name": "add",
          "type": "address"
        }
      ],
      "name": "transferOwnershipServer",
      "outputs": [],
      "payable": false,
      "stateMutability": "nonpayable",
      "type": "function"
    },
    {
      "constant": true,
      "inputs": [
        {
          "name": "",
          "type": "uint32"
        }
      ],
      "name": "rabbitSirePrice",
      "outputs": [
        {
          "name": "",
          "type": "uint256"
        }
      ],
      "payable": false,
      "stateMutability": "view",
      "type": "function"
    },
    {
      "constant": true,
      "inputs": [],
      "name": "promoPause",
      "outputs": [
        {
          "name": "",
          "type": "bool"
        }
      ],
      "payable": false,
      "stateMutability": "view",
      "type": "function"
    },
    {
      "constant": true,
      "inputs": [
        {
          "name": "",
          "type": "uint32"
        },
        {
          "name": "",
          "type": "uint256"
        }
      ],
      "name": "rabbitMother",
      "outputs": [
        {
          "name": "",
          "type": "uint32"
        }
      ],
      "payable": false,
      "stateMutability": "view",
      "type": "function"
    },
    {
      "constant": true,
      "inputs": [
        {
          "name": "",
          "type": "uint32"
        }
      ],
      "name": "motherCount",
      "outputs": [
        {
          "name": "",
          "type": "uint256"
        }
      ],
      "payable": false,
      "stateMutability": "view",
      "type": "function"
    },
    {
      "constant": true,
      "inputs": [
        {
          "name": "",
          "type": "uint32"
        }
      ],
      "name": "rabbitToOwner",
      "outputs": [
        {
          "name": "",
          "type": "address"
        }
      ],
      "payable": false,
      "stateMutability": "view",
      "type": "function"
    },
    {
      "constant": true,
      "inputs": [],
      "name": "myAddr_test",
      "outputs": [
        {
          "name": "",
          "type": "address"
        }
      ],
      "payable": false,
      "stateMutability": "view",
      "type": "function"
    },
    {
      "constant": true,
      "inputs": [
        {
          "name": "",
          "type": "uint256"
        },
        {
          "name": "",
          "type": "uint256"
        }
      ],
      "name": "sireGenom",
      "outputs": [
        {
          "name": "",
          "type": "uint32"
        }
      ],
      "payable": false,
      "stateMutability": "view",
      "type": "function"
    },
    {
      "constant": true,
      "inputs": [],
      "name": "timeRangeCreateGen0",
      "outputs": [
        {
          "name": "",
          "type": "uint256"
        }
      ],
      "payable": false,
      "stateMutability": "view",
      "type": "function"
    },
    {
      "constant": true,
      "inputs": [
        {
          "name": "",
          "type": "uint256"
        }
      ],
      "name": "rabbits",
      "outputs": [
        {
          "name": "mother",
          "type": "uint32"
        },
        {
          "name": "sire",
          "type": "uint32"
        },
        {
          "name": "birthblock",
          "type": "uint256"
        },
        {
          "name": "birthCount",
          "type": "uint256"
        },
        {
          "name": "birthLastTime",
          "type": "uint256"
        },
        {
          "name": "role",
          "type": "uint256"
        },
        {
          "name": "genome",
          "type": "uint256"
        }
      ],
      "payable": false,
      "stateMutability": "view",
      "type": "function"
    },
    {
      "constant": true,
      "inputs": [],
      "name": "getOwnerMoney",
      "outputs": [
        {
          "name": "",
          "type": "address"
        }
      ],
      "payable": false,
      "stateMutability": "view",
      "type": "function"
    },
    {
      "constant": true,
      "inputs": [
        {
          "name": "",
          "type": "uint32"
        }
      ],
      "name": "totalSalaryBunny",
      "outputs": [
        {
          "name": "",
          "type": "uint256"
        }
      ],
      "payable": false,
      "stateMutability": "view",
      "type": "function"
    },
    {
      "constant": true,
      "inputs": [],
      "name": "promoGen0",
      "outputs": [
        {
          "name": "",
          "type": "uint256"
        }
      ],
      "payable": false,
      "stateMutability": "view",
      "type": "function"
    },
    {
      "constant": true,
      "inputs": [],
      "name": "totalGen0",
      "outputs": [
        {
          "name": "",
          "type": "uint256"
        }
      ],
      "payable": false,
      "stateMutability": "view",
      "type": "function"
    },
    {
      "constant": true,
      "inputs": [],
      "name": "lastIdGen0",
      "outputs": [
        {
          "name": "",
          "type": "uint32"
        }
      ],
      "payable": false,
      "stateMutability": "view",
      "type": "function"
    },
    {
      "constant": true,
      "inputs": [
        {
          "name": "",
          "type": "uint32"
        }
      ],
      "name": "rabbitBreedCount",
      "outputs": [
        {
          "name": "",
          "type": "uint256"
        }
      ],
      "payable": false,
      "stateMutability": "view",
      "type": "function"
    },
    {
      "constant": true,
      "inputs": [],
      "name": "lastTimeGen0",
      "outputs": [
        {
          "name": "",
          "type": "uint256"
        }
      ],
      "payable": false,
      "stateMutability": "view",
      "type": "function"
    },
    {
      "constant": true,
      "inputs": [
        {
          "name": "",
          "type": "uint256"
        }
      ],
      "name": "cooldowns",
      "outputs": [
        {
          "name": "",
          "type": "uint32"
        }
      ],
      "payable": false,
      "stateMutability": "view",
      "type": "function"
    },
    {
      "constant": true,
      "inputs": [],
      "name": "promoMoney",
      "outputs": [
        {
          "name": "",
          "type": "uint256"
        }
      ],
      "payable": false,
      "stateMutability": "view",
      "type": "function"
    },
    {
      "constant": true,
      "inputs": [],
      "name": "ownerCEO",
      "outputs": [
        {
          "name": "",
          "type": "address"
        }
      ],
      "payable": false,
      "stateMutability": "view",
      "type": "function"
    },
    {
      "constant": true,
      "inputs": [
        {
          "name": "",
          "type": "address"
        },
        {
          "name": "",
          "type": "uint256"
        }
      ],
      "name": "ownerBunnies",
      "outputs": [
        {
          "name": "",
          "type": "uint32"
        }
      ],
      "payable": false,
      "stateMutability": "view",
      "type": "function"
    },
    {
      "constant": false,
      "inputs": [
        {
          "name": "add",
          "type": "address"
        }
      ],
      "name": "transferOwnership",
      "outputs": [],
      "payable": false,
      "stateMutability": "nonpayable",
      "type": "function"
    },
    {
      "constant": true,
      "inputs": [],
      "name": "getOwnerServer",
      "outputs": [
        {
          "name": "",
          "type": "address"
        }
      ],
      "payable": false,
      "stateMutability": "view",
      "type": "function"
    },
    {
      "constant": true,
      "inputs": [],
      "name": "commission_system",
      "outputs": [
        {
          "name": "",
          "type": "uint256"
        }
      ],
      "payable": false,
      "stateMutability": "view",
      "type": "function"
    },
    {
      "constant": false,
      "inputs": [
        {
          "name": "_ownerMoney",
          "type": "address"
        }
      ],
      "name": "transferOwnerMoney",
      "outputs": [],
      "payable": false,
      "stateMutability": "nonpayable",
      "type": "function"
    },
    {
      "anonymous": false,
      "inputs": [
        {
          "indexed": false,
          "name": "newOwnerBunny",
          "type": "address"
        },
        {
          "indexed": false,
          "name": "bunnyId",
          "type": "uint32"
        }
      ],
      "name": "SendBunny",
      "type": "event"
    },
    {
      "anonymous": false,
      "inputs": [
        {
          "indexed": false,
          "name": "bunnyId",
          "type": "uint32"
        }
      ],
      "name": "StopMarket",
      "type": "event"
    },
    {
      "anonymous": false,
      "inputs": [
        {
          "indexed": false,
          "name": "bunnyId",
          "type": "uint32"
        },
        {
          "indexed": false,
          "name": "money",
          "type": "uint256"
        }
      ],
      "name": "StartMarket",
      "type": "event"
    },
    {
      "anonymous": false,
      "inputs": [
        {
          "indexed": false,
          "name": "bunnyId",
          "type": "uint32"
        },
        {
          "indexed": false,
          "name": "money",
          "type": "uint256"
        }
      ],
      "name": "BunnyBuy",
      "type": "event"
    },
    {
      "anonymous": false,
      "inputs": [
        {
          "indexed": false,
          "name": "mother",
          "type": "uint32"
        },
        {
          "indexed": false,
          "name": "summ",
          "type": "uint256"
        }
      ],
      "name": "EmotherCount",
      "type": "event"
    },
    {
      "anonymous": false,
      "inputs": [
        {
          "indexed": false,
          "name": "bunnyId",
          "type": "uint32"
        },
        {
          "indexed": false,
          "name": "dnk",
          "type": "uint256"
        },
        {
          "indexed": false,
          "name": "blocknumber",
          "type": "uint256"
        },
        {
          "indexed": false,
          "name": "breed",
          "type": "uint256"
        }
      ],
      "name": "NewBunny",
      "type": "event"
    },
    {
      "anonymous": false,
      "inputs": [
        {
          "indexed": false,
          "name": "bunnyId",
          "type": "uint32"
        },
        {
          "indexed": false,
          "name": "sex",
          "type": "bool"
        },
        {
          "indexed": false,
          "name": "price",
          "type": "uint256"
        }
      ],
      "name": "ChengeSex",
      "type": "event"
    },
    {
      "anonymous": false,
      "inputs": [
        {
          "indexed": false,
          "name": "bunnyId",
          "type": "uint32"
        },
        {
          "indexed": false,
          "name": "cost",
          "type": "uint256"
        }
      ],
      "name": "SalaryBunny",
      "type": "event"
    },
    {
      "anonymous": false,
      "inputs": [
        {
          "indexed": false,
          "name": "matron",
          "type": "uint32"
        },
        {
          "indexed": false,
          "name": "sire",
          "type": "uint32"
        },
        {
          "indexed": false,
          "name": "child",
          "type": "uint32"
        }
      ],
      "name": "CreateChildren",
      "type": "event"
    },
    {
      "anonymous": false,
      "inputs": [
        {
          "indexed": false,
          "name": "bunnyId",
          "type": "uint32"
        },
        {
          "indexed": false,
          "name": "name",
          "type": "string"
        }
      ],
      "name": "BunnyName",
      "type": "event"
    },
    {
      "anonymous": false,
      "inputs": [
        {
          "indexed": false,
          "name": "bunnyId",
          "type": "uint32"
        },
        {
          "indexed": false,
          "name": "name",
          "type": "string"
        }
      ],
      "name": "BunnyDescription",
      "type": "event"
    },
    {
      "anonymous": false,
      "inputs": [
        {
          "indexed": false,
          "name": "bunnyId",
          "type": "uint32"
        },
        {
          "indexed": false,
          "name": "num",
          "type": "uint256"
        }
      ],
      "name": "CoolduwnMother",
      "type": "event"
    },
    {
      "anonymous": false,
      "inputs": [
        {
          "indexed": false,
          "name": "from",
          "type": "address"
        },
        {
          "indexed": false,
          "name": "to",
          "type": "address"
        },
        {
          "indexed": false,
          "name": "tokenId",
          "type": "uint32"
        }
      ],
      "name": "Transfer",
      "type": "event"
    },
    {
      "anonymous": false,
      "inputs": [
        {
          "indexed": false,
          "name": "owner",
          "type": "address"
        },
        {
          "indexed": false,
          "name": "approved",
          "type": "address"
        },
        {
          "indexed": false,
          "name": "tokenId",
          "type": "uint32"
        }
      ],
      "name": "Approval",
      "type": "event"
    },
    {
      "anonymous": false,
      "inputs": [
        {
          "indexed": false,
          "name": "owner",
          "type": "address"
        },
        {
          "indexed": false,
          "name": "tokenId",
          "type": "uint32"
        }
      ],
      "name": "OwnerBunnies",
      "type": "event"
    },
    {
      "constant": false,
      "inputs": [
        {
          "name": "_promoGen0",
          "type": "uint256"
        }
      ],
      "name": "setPromoGen0",
      "outputs": [],
      "payable": false,
      "stateMutability": "nonpayable",
      "type": "function"
    },
    {
      "constant": false,
      "inputs": [],
      "name": "setPromoPause",
      "outputs": [],
      "payable": false,
      "stateMutability": "nonpayable",
      "type": "function"
    },
    {
      "constant": false,
      "inputs": [
        {
          "name": "_promoMoney",
          "type": "uint256"
        }
      ],
      "name": "setPromoMoney",
      "outputs": [],
      "payable": false,
      "stateMutability": "nonpayable",
      "type": "function"
    }
  ],
  "bytecode": "0x608060405273982a49414fd95e3268d3559540a67b03e40acd64600460006101000a81548173ffffffffffffffffffffffffffffffffffffffff021916908373ffffffffffffffffffffffffffffffffffffffff1602179055506000600460146101000a81548160ff0219169083151502179055506601c6bf52634000600555600560065560006008556001600a556109c4600b55600554600102600c556000600d60006101000a81548160ff02191690831515021790555061018060405190810160405280603c63ffffffff1663ffffffff168152602001607863ffffffff1663ffffffff16815260200160f063ffffffff1663ffffffff1681526020016101e063ffffffff1663ffffffff1681526020016103c063ffffffff1663ffffffff16815260200161078063ffffffff1663ffffffff168152602001610e1063ffffffff1663ffffffff168152602001611c2063ffffffff1663ffffffff16815260200161384063ffffffff1663ffffffff16815260200161708063ffffffff1663ffffffff16815260200161e10063ffffffff1663ffffffff1681526020016201518063ffffffff1663ffffffff16815250601590600c6101c1929190610289565b50336000806101000a81548173ffffffffffffffffffffffffffffffffffffffff021916908373ffffffffffffffffffffffffffffffffffffffff16021790555033600260006101000a81548173ffffffffffffffffffffffffffffffffffffffff021916908373ffffffffffffffffffffffffffffffffffffffff16021790555033600160006101000a81548173ffffffffffffffffffffffffffffffffffffffff021916908373ffffffffffffffffffffffffffffffffffffffff16021790555061035f565b82600c60070160089004810192821561031b5791602002820160005b838211156102e957835183826101000a81548163ffffffff021916908363ffffffff16021790555092602001926004016020816003010492830192600103026102a5565b80156103195782816101000a81549063ffffffff02191690556004016020816003010492830192600103026102e9565b505b509050610328919061032c565b5090565b61035c91905b8082111561035857600081816101000a81549063ffffffff021916905550600101610332565b5090565b90565b611175806200036f6000396000f300608060405260043610610175576000357c0100000000000000000000000000000000000000000000000000000000900463ffffffff16806303602e9e1461017a57806305caca6c146101d15780630847c7a21461021457806309828a471461025b57806312448c321461028a578063146c1b5e146102e757806314c588de1461032e57806314f1cf0c1461035b5780631e923f1b146103ce5780632573751f146104255780633c9ff0121461047c57806359dc2eec146104a7578063625101d51461052a5780636b5330571461058157806370d4d7b4146105c85780637230ef7f146105f3578063731f49b71461061e5780637759187f146106555780638231ee981461069c5780639d6fac6f146106c7578063ad5a157d14610714578063c17c04561461073f578063d00dbcb014610796578063eea23d8a14610803578063f2fde38b14610830578063f3cee12914610873578063f6288422146108ca578063fae8c29e146108f5578063fdaacf1b1461090c575b600080fd5b34801561018657600080fd5b5061018f61094f565b604051808273ffffffffffffffffffffffffffffffffffffffff1673ffffffffffffffffffffffffffffffffffffffff16815260200191505060405180910390f35b3480156101dd57600080fd5b50610212600480360381019080803573ffffffffffffffffffffffffffffffffffffffff1690602001909291905050506109d4565b005b34801561022057600080fd5b50610245600480360381019080803563ffffffff169060200190929190505050610aaa565b6040518082815260200191505060405180910390f35b34801561026757600080fd5b50610270610ac2565b604051808215151515815260200191505060405180910390f35b34801561029657600080fd5b506102c5600480360381019080803563ffffffff16906020019092919080359060200190929190505050610ad5565b604051808263ffffffff1663ffffffff16815260200191505060405180910390f35b3480156102f357600080fd5b50610318600480360381019080803563ffffffff169060200190929190505050610b13565b6040518082815260200191505060405180910390f35b34801561033a57600080fd5b5061035960048036038101908080359060200190929190505050610b2b565b005b34801561036757600080fd5b5061038c600480360381019080803563ffffffff169060200190929190505050610b90565b604051808273ffffffffffffffffffffffffffffffffffffffff1673ffffffffffffffffffffffffffffffffffffffff16815260200191505060405180910390f35b3480156103da57600080fd5b506103e3610bc3565b604051808273ffffffffffffffffffffffffffffffffffffffff1673ffffffffffffffffffffffffffffffffffffffff16815260200191505060405180910390f35b34801561043157600080fd5b5061045a6004803603810190808035906020019092919080359060200190929190505050610be9565b604051808263ffffffff1663ffffffff16815260200191505060405180910390f35b34801561048857600080fd5b50610491610c31565b6040518082815260200191505060405180910390f35b3480156104b357600080fd5b506104d260048036038101908080359060200190929190505050610c37565b604051808863ffffffff1663ffffffff1681526020018763ffffffff1663ffffffff16815260200186815260200185815260200184815260200183815260200182815260200197505050505050505060405180910390f35b34801561053657600080fd5b5061053f610ca8565b604051808273ffffffffffffffffffffffffffffffffffffffff1673ffffffffffffffffffffffffffffffffffffffff16815260200191505060405180910390f35b34801561058d57600080fd5b506105b2600480360381019080803563ffffffff169060200190929190505050610d2d565b6040518082815260200191505060405180910390f35b3480156105d457600080fd5b506105dd610d45565b6040518082815260200191505060405180910390f35b3480156105ff57600080fd5b50610608610d4b565b6040518082815260200191505060405180910390f35b34801561062a57600080fd5b50610633610d51565b604051808263ffffffff1663ffffffff16815260200191505060405180910390f35b34801561066157600080fd5b50610686600480360381019080803563ffffffff169060200190929190505050610d67565b6040518082815260200191505060405180910390f35b3480156106a857600080fd5b506106b1610d7f565b6040518082815260200191505060405180910390f35b3480156106d357600080fd5b506106f260048036038101908080359060200190929190505050610d85565b604051808263ffffffff1663ffffffff16815260200191505060405180910390f35b34801561072057600080fd5b50610729610db4565b6040518082815260200191505060405180910390f35b34801561074b57600080fd5b50610754610dba565b604051808273ffffffffffffffffffffffffffffffffffffffff1673ffffffffffffffffffffffffffffffffffffffff16815260200191505060405180910390f35b3480156107a257600080fd5b506107e1600480360381019080803573ffffffffffffffffffffffffffffffffffffffff16906020019092919080359060200190929190505050610ddf565b604051808263ffffffff1663ffffffff16815260200191505060405180910390f35b34801561080f57600080fd5b5061082e60048036038101908080359060200190929190505050610e27565b005b34801561083c57600080fd5b50610871600480360381019080803573ffffffffffffffffffffffffffffffffffffffff169060200190929190505050610e8c565b005b34801561087f57600080fd5b50610888610f61565b604051808273ffffffffffffffffffffffffffffffffffffffff1673ffffffffffffffffffffffffffffffffffffffff16815260200191505060405180910390f35b3480156108d657600080fd5b506108df610fe6565b6040518082815260200191505060405180910390f35b34801561090157600080fd5b5061090a610fec565b005b34801561091857600080fd5b5061094d600480360381019080803573ffffffffffffffffffffffffffffffffffffffff169060200190929190505050611073565b005b60008060009054906101000a900473ffffffffffffffffffffffffffffffffffffffff1673ffffffffffffffffffffffffffffffffffffffff163373ffffffffffffffffffffffffffffffffffffffff161415156109ac57600080fd5b600360009054906101000a900473ffffffffffffffffffffffffffffffffffffffff16905090565b6000809054906101000a900473ffffffffffffffffffffffffffffffffffffffff1673ffffffffffffffffffffffffffffffffffffffff163373ffffffffffffffffffffffffffffffffffffffff16141515610a2f57600080fd5b600073ffffffffffffffffffffffffffffffffffffffff168173ffffffffffffffffffffffffffffffffffffffff16141515610aa75780600260006101000a81548173ffffffffffffffffffffffffffffffffffffffff021916908373ffffffffffffffffffffffffffffffffffffffff1602179055505b50565b60126020528060005260406000206000915090505481565b600d60009054906101000a900460ff1681565b600f60205281600052604060002081600581101515610af057fe5b60089182820401919006600402915091509054906101000a900463ffffffff1681565b60106020528060005260406000206000915090505481565b6000809054906101000a900473ffffffffffffffffffffffffffffffffffffffff1673ffffffffffffffffffffffffffffffffffffffff163373ffffffffffffffffffffffffffffffffffffffff16141515610b8657600080fd5b80600b8190555050565b60186020528060005260406000206000915054906101000a900473ffffffffffffffffffffffffffffffffffffffff1681565b600460009054906101000a900473ffffffffffffffffffffffffffffffffffffffff1681565b601360205281600052604060002081815481101515610c0457fe5b9060005260206000209060089182820401919006600402915091509054906101000a900463ffffffff1681565b600a5481565b601781815481101515610c4657fe5b90600052602060002090600602016000915090508060000160009054906101000a900463ffffffff16908060000160049054906101000a900463ffffffff16908060010154908060020154908060030154908060040154908060050154905087565b60008060009054906101000a900473ffffffffffffffffffffffffffffffffffffffff1673ffffffffffffffffffffffffffffffffffffffff163373ffffffffffffffffffffffffffffffffffffffff16141515610d0557600080fd5b600160009054906101000a900473ffffffffffffffffffffffffffffffffffffffff16905090565b600e6020528060005260406000206000915090505481565b600b5481565b60085481565b600760009054906101000a900463ffffffff1681565b60116020528060005260406000206000915090505481565b60095481565b601581600c81101515610d9457fe5b60089182820401919006600402915054906101000a900463ffffffff1681565b600c5481565b6000809054906101000a900473ffffffffffffffffffffffffffffffffffffffff1681565b601960205281600052604060002081815481101515610dfa57fe5b9060005260206000209060089182820401919006600402915091509054906101000a900463ffffffff1681565b6000809054906101000a900473ffffffffffffffffffffffffffffffffffffffff1673ffffffffffffffffffffffffffffffffffffffff163373ffffffffffffffffffffffffffffffffffffffff16141515610e8257600080fd5b80600c8190555050565b6000809054906101000a900473ffffffffffffffffffffffffffffffffffffffff1673ffffffffffffffffffffffffffffffffffffffff163373ffffffffffffffffffffffffffffffffffffffff16141515610ee757600080fd5b600073ffffffffffffffffffffffffffffffffffffffff168173ffffffffffffffffffffffffffffffffffffffff16141515610f5e57806000806101000a81548173ffffffffffffffffffffffffffffffffffffffff021916908373ffffffffffffffffffffffffffffffffffffffff1602179055505b50565b60008060009054906101000a900473ffffffffffffffffffffffffffffffffffffffff1673ffffffffffffffffffffffffffffffffffffffff163373ffffffffffffffffffffffffffffffffffffffff16141515610fbe57600080fd5b600260009054906101000a900473ffffffffffffffffffffffffffffffffffffffff16905090565b60065481565b6000809054906101000a900473ffffffffffffffffffffffffffffffffffffffff1673ffffffffffffffffffffffffffffffffffffffff163373ffffffffffffffffffffffffffffffffffffffff1614151561104757600080fd5b600d60009054906101000a900460ff1615600d60006101000a81548160ff021916908315150217905550565b6000809054906101000a900473ffffffffffffffffffffffffffffffffffffffff1673ffffffffffffffffffffffffffffffffffffffff163373ffffffffffffffffffffffffffffffffffffffff161415156110ce57600080fd5b600073ffffffffffffffffffffffffffffffffffffffff168173ffffffffffffffffffffffffffffffffffffffff161415156111465780600160006101000a81548173ffffffffffffffffffffffffffffffffffffffff021916908373ffffffffffffffffffffffffffffffffffffffff1602179055505b505600a165627a7a723058204daedd49e6f907ed822977101344e6a960787ef28935f4f4fbd032d791daac050029",
  "source": "pragma solidity ^0.4.23;\n\nimport \"./Ownable.sol\";\n\n\n\n/**\n * @title SafeMath\n * @dev Math operations with safety checks that throw on error\n */\nlibrary SafeMath {\n    \n    function mul(uint256 a, uint256 b) internal pure returns (uint256) {\n        if (a == 0) {\n            return 0;\n        }\n        uint c = a * b;\n        assert(c / a == b);\n        return c;\n    }\n\n    function div(uint256 a, uint256 b) internal pure returns (uint256) {\n        // assert(b > 0); // Solidity automatically throws when dividing by 0\n        uint256 c = a / b;\n        // assert(a == b * c + a % b); // There is no case in which this doesn't hold\n        return c;\n    }\n\n    function sub(uint256 a, uint256 b) internal pure returns (uint256) {\n        assert(b <= a);\n        return a - b;\n    }\n\n    function add(uint256 a, uint256 b) internal pure returns (uint256) {\n        uint256 c = a + b;\n        assert(c >= a);\n        return c;\n    }\n  \n}\n \n\ncontract BaseRabbit  is Ownable {\n       \n\n\n    event SendBunny(address newOwnerBunny, uint32 bunnyId);\n    event StopMarket(uint32 bunnyId);\n    event StartMarket(uint32 bunnyId, uint money);\n    event BunnyBuy(uint32 bunnyId, uint money);  \n    event EmotherCount(uint32 mother, uint summ);\n    event NewBunny(uint32 bunnyId, uint dnk, uint256 blocknumber, uint breed );\n    event ChengeSex(uint32 bunnyId, bool sex, uint256 price);\n    event SalaryBunny(uint32 bunnyId, uint cost);\n    event CreateChildren(uint32 matron, uint32 sire, uint32 child);\n    event BunnyName(uint32 bunnyId, string name);\n    event BunnyDescription(uint32 bunnyId, string name);\n    event CoolduwnMother(uint32 bunnyId, uint num);\n\n\n    event Transfer(address from, address to, uint32 tokenId);\n    event Approval(address owner, address approved, uint32 tokenId);\n    event OwnerBunnies(address owner, uint32  tokenId);\n\n \n\n    address public  myAddr_test = 0x982a49414fD95e3268D3559540A67B03e40AcD64;\n\n    using SafeMath for uint256;\n    bool pauseSave = false;\n    uint256 bigPrice = 0.0005 ether;\n    \n    uint public commission_system = 5;\n     \n    // ID the last seal\n    uint32 public lastIdGen0;\n    uint public totalGen0 = 0;\n    // ID the last seal\n    uint public lastTimeGen0;\n    \n    // ID the last seal\n  //  uint public timeRangeCreateGen0 = 1800;\n    uint public timeRangeCreateGen0 = 1;\n\n    uint public promoGen0 = 2500;\n    uint public promoMoney = 1*bigPrice;\n    bool public promoPause = false;\n\n\n    function setPromoGen0(uint _promoGen0) public onlyOwner {\n        promoGen0 = _promoGen0;\n    }\n\n    function setPromoPause() public onlyOwner {\n        promoPause = !promoPause;\n    }\n\n\n\n    function setPromoMoney(uint _promoMoney) public onlyOwner {\n        promoMoney = _promoMoney;\n    }\n    modifier timeRange() {\n        require((lastTimeGen0+timeRangeCreateGen0) < now);\n        _;\n    } \n\n    mapping(uint32 => uint) public totalSalaryBunny;\n    mapping(uint32 => uint32[5]) public rabbitMother;\n    \n    mapping(uint32 => uint) public motherCount;\n    \n    // how many times did the rabbit cross\n    mapping(uint32 => uint) public rabbitBreedCount;\n\n    mapping(uint32 => uint)  public rabbitSirePrice;\n    mapping(uint => uint32[]) public sireGenom;\n    mapping (uint32 => uint) mapDNK;\n   \n    uint32[12] public cooldowns = [\n        uint32(1 minutes),\n        uint32(2 minutes),\n        uint32(4 minutes),\n        uint32(8 minutes),\n        uint32(16 minutes),\n        uint32(32 minutes),\n        uint32(1 hours),\n        uint32(2 hours),\n        uint32(4 hours),\n        uint32(8 hours),\n        uint32(16 hours),\n        uint32(1 days)\n    ];\n\n\n    struct Rabbit { \n         // родители\n        uint32 mother;\n        uint32 sire; \n        // блок в котором родился кролик\n        uint birthblock;\n         // количество родов или сколько раз было потомство\n        uint birthCount;\n         // Время когда последний раз рожал Кролик\n        uint birthLastTime;\n        // текущая роль кролика\n        uint role;\n        //indexGenome   \n        uint genome;\n    }\n    /**\n    * Там где будем хранить информацию о кроликах\n    */\n    Rabbit[]  public rabbits;\n     \n    /**\n    * кому принадлежит кролик\n    */\n    mapping (uint32 => address) public rabbitToOwner; \n    mapping(address => uint32[]) public ownerBunnies;\n    //mapping (address => uint) ownerRabbitCount;\n    mapping (uint32 => string) rabbitDescription;\n    mapping (uint32 => string) rabbitName; \n\n    //giff \n    mapping (uint32 => bool) giffblock; \n    mapping (address => bool) ownerGennezise;\n\n}\n",
  "sourcePath": "/home/koras/contracts/publicRabbit/pub/contracts/BaseRabbit.sol",
  "compiler": {
    "name": "solc",
    "version": "0.4.23+commit.124ca40d.Emscripten.clang"
  },
  "schemaVersion": "2.0.0",
  "updatedAt": "2018-08-18T15:23:04.983Z"
}