{
  "contractName": "BaseRabbit",
  "abi": [
    {
      "constant": true,
      "inputs": [],
      "name": "getPrivAddress",
      "outputs": [
        {
          "name": "",
          "type": "address"
        }
      ],
      "payable": false,
      "stateMutability": "view",
      "type": "function"
    },
    {
      "constant": false,
      "inputs": [
        {
          "name": "add",
          "type": "address"
        }
      ],
      "name": "transferOwnershipServer",
      "outputs": [],
      "payable": false,
      "stateMutability": "nonpayable",
      "type": "function"
    },
    {
      "constant": true,
      "inputs": [
        {
          "name": "",
          "type": "uint32"
        }
      ],
      "name": "rabbitSirePrice",
      "outputs": [
        {
          "name": "",
          "type": "uint256"
        }
      ],
      "payable": false,
      "stateMutability": "view",
      "type": "function"
    },
    {
      "constant": true,
      "inputs": [],
      "name": "promoPause",
      "outputs": [
        {
          "name": "",
          "type": "bool"
        }
      ],
      "payable": false,
      "stateMutability": "view",
      "type": "function"
    },
    {
      "constant": true,
      "inputs": [
        {
          "name": "",
          "type": "uint32"
        },
        {
          "name": "",
          "type": "uint256"
        }
      ],
      "name": "rabbitMother",
      "outputs": [
        {
          "name": "",
          "type": "uint32"
        }
      ],
      "payable": false,
      "stateMutability": "view",
      "type": "function"
    },
    {
      "constant": true,
      "inputs": [
        {
          "name": "",
          "type": "uint32"
        }
      ],
      "name": "motherCount",
      "outputs": [
        {
          "name": "",
          "type": "uint256"
        }
      ],
      "payable": false,
      "stateMutability": "view",
      "type": "function"
    },
    {
      "constant": true,
      "inputs": [
        {
          "name": "",
          "type": "uint32"
        }
      ],
      "name": "rabbitToOwner",
      "outputs": [
        {
          "name": "",
          "type": "address"
        }
      ],
      "payable": false,
      "stateMutability": "view",
      "type": "function"
    },
    {
      "constant": true,
      "inputs": [],
      "name": "myAddr_test",
      "outputs": [
        {
          "name": "",
          "type": "address"
        }
      ],
      "payable": false,
      "stateMutability": "view",
      "type": "function"
    },
    {
      "constant": true,
      "inputs": [
        {
          "name": "",
          "type": "uint256"
        },
        {
          "name": "",
          "type": "uint256"
        }
      ],
      "name": "sireGenom",
      "outputs": [
        {
          "name": "",
          "type": "uint32"
        }
      ],
      "payable": false,
      "stateMutability": "view",
      "type": "function"
    },
    {
      "constant": true,
      "inputs": [],
      "name": "timeRangeCreateGen0",
      "outputs": [
        {
          "name": "",
          "type": "uint256"
        }
      ],
      "payable": false,
      "stateMutability": "view",
      "type": "function"
    },
    {
      "constant": true,
      "inputs": [
        {
          "name": "",
          "type": "uint256"
        }
      ],
      "name": "rabbits",
      "outputs": [
        {
          "name": "mother",
          "type": "uint32"
        },
        {
          "name": "sire",
          "type": "uint32"
        },
        {
          "name": "birthblock",
          "type": "uint256"
        },
        {
          "name": "birthCount",
          "type": "uint256"
        },
        {
          "name": "birthLastTime",
          "type": "uint256"
        },
        {
          "name": "role",
          "type": "uint256"
        },
        {
          "name": "genome",
          "type": "uint256"
        }
      ],
      "payable": false,
      "stateMutability": "view",
      "type": "function"
    },
    {
      "constant": true,
      "inputs": [],
      "name": "getOwnerMoney",
      "outputs": [
        {
          "name": "",
          "type": "address"
        }
      ],
      "payable": false,
      "stateMutability": "view",
      "type": "function"
    },
    {
      "constant": true,
      "inputs": [
        {
          "name": "",
          "type": "uint32"
        }
      ],
      "name": "totalSalaryBunny",
      "outputs": [
        {
          "name": "",
          "type": "uint256"
        }
      ],
      "payable": false,
      "stateMutability": "view",
      "type": "function"
    },
    {
      "constant": true,
      "inputs": [],
      "name": "promoGen0",
      "outputs": [
        {
          "name": "",
          "type": "uint256"
        }
      ],
      "payable": false,
      "stateMutability": "view",
      "type": "function"
    },
    {
      "constant": true,
      "inputs": [],
      "name": "totalGen0",
      "outputs": [
        {
          "name": "",
          "type": "uint256"
        }
      ],
      "payable": false,
      "stateMutability": "view",
      "type": "function"
    },
    {
      "constant": true,
      "inputs": [],
      "name": "lastIdGen0",
      "outputs": [
        {
          "name": "",
          "type": "uint32"
        }
      ],
      "payable": false,
      "stateMutability": "view",
      "type": "function"
    },
    {
      "constant": true,
      "inputs": [
        {
          "name": "",
          "type": "uint32"
        }
      ],
      "name": "rabbitBreedCount",
      "outputs": [
        {
          "name": "",
          "type": "uint256"
        }
      ],
      "payable": false,
      "stateMutability": "view",
      "type": "function"
    },
    {
      "constant": true,
      "inputs": [],
      "name": "lastTimeGen0",
      "outputs": [
        {
          "name": "",
          "type": "uint256"
        }
      ],
      "payable": false,
      "stateMutability": "view",
      "type": "function"
    },
    {
      "constant": false,
      "inputs": [
        {
          "name": "add",
          "type": "address"
        }
      ],
      "name": "transferOwnershipTechnical",
      "outputs": [],
      "payable": false,
      "stateMutability": "nonpayable",
      "type": "function"
    },
    {
      "constant": true,
      "inputs": [
        {
          "name": "",
          "type": "uint256"
        }
      ],
      "name": "cooldowns",
      "outputs": [
        {
          "name": "",
          "type": "uint32"
        }
      ],
      "payable": false,
      "stateMutability": "view",
      "type": "function"
    },
    {
      "constant": true,
      "inputs": [],
      "name": "promoMoney",
      "outputs": [
        {
          "name": "",
          "type": "uint256"
        }
      ],
      "payable": false,
      "stateMutability": "view",
      "type": "function"
    },
    {
      "constant": true,
      "inputs": [],
      "name": "ownerCEO",
      "outputs": [
        {
          "name": "",
          "type": "address"
        }
      ],
      "payable": false,
      "stateMutability": "view",
      "type": "function"
    },
    {
      "constant": true,
      "inputs": [],
      "name": "getOwnerTech",
      "outputs": [
        {
          "name": "",
          "type": "address"
        }
      ],
      "payable": false,
      "stateMutability": "view",
      "type": "function"
    },
    {
      "constant": true,
      "inputs": [
        {
          "name": "",
          "type": "address"
        },
        {
          "name": "",
          "type": "uint256"
        }
      ],
      "name": "ownerBunnies",
      "outputs": [
        {
          "name": "",
          "type": "uint32"
        }
      ],
      "payable": false,
      "stateMutability": "view",
      "type": "function"
    },
    {
      "constant": false,
      "inputs": [
        {
          "name": "add",
          "type": "address"
        }
      ],
      "name": "transferOwnership",
      "outputs": [],
      "payable": false,
      "stateMutability": "nonpayable",
      "type": "function"
    },
    {
      "constant": true,
      "inputs": [],
      "name": "getOwnerServer",
      "outputs": [
        {
          "name": "",
          "type": "address"
        }
      ],
      "payable": false,
      "stateMutability": "view",
      "type": "function"
    },
    {
      "constant": true,
      "inputs": [],
      "name": "commission_system",
      "outputs": [
        {
          "name": "",
          "type": "uint256"
        }
      ],
      "payable": false,
      "stateMutability": "view",
      "type": "function"
    },
    {
      "constant": false,
      "inputs": [
        {
          "name": "_ownerMoney",
          "type": "address"
        }
      ],
      "name": "transferOwnerMoney",
      "outputs": [],
      "payable": false,
      "stateMutability": "nonpayable",
      "type": "function"
    },
    {
      "constant": false,
      "inputs": [
        {
          "name": "_promoGen0",
          "type": "uint256"
        }
      ],
      "name": "setPromoGen0",
      "outputs": [],
      "payable": false,
      "stateMutability": "nonpayable",
      "type": "function"
    },
    {
      "constant": false,
      "inputs": [],
      "name": "setPromoPause",
      "outputs": [],
      "payable": false,
      "stateMutability": "nonpayable",
      "type": "function"
    },
    {
      "constant": false,
      "inputs": [
        {
          "name": "_promoMoney",
          "type": "uint256"
        }
      ],
      "name": "setPromoMoney",
      "outputs": [],
      "payable": false,
      "stateMutability": "nonpayable",
      "type": "function"
    }
  ],
  "bytecode": "0x6005805460a060020a60ff0219600160a060020a0319909116733dd39b55fcaae9067a3383d3c065b3c71ed4477b171681556601c6bf52634000600681905560079190915560006009556001600b556109c4600c55600d55600e805460ff19169055610260604052603c6080908152607860a05260f060c0526101e060e08190526103c06101005261078061012052610e1061014052611c2061016052613840610180526170806101a05261e1006101c0526201518090526202a30061020052620546006102205262093a80610240526100dd90601690600f610122565b5060008054600160a060020a033316600160a060020a0319918216811790925560028054821683179055600380548216831790556001805490911690911790556101e2565b6002830191839082156101ae5791602002820160005b8382111561017c57835183826101000a81548163ffffffff021916908363ffffffff1602179055509260200192600401602081600301049283019260010302610138565b80156101ac5782816101000a81549063ffffffff021916905560040160208160030104928301926001030261017c565b505b506101ba9291506101be565b5090565b6101df91905b808211156101ba57805463ffffffff191681556001016101c4565b90565b6109bb806101f16000396000f30060806040526004361061018a5763ffffffff7c010000000000000000000000000000000000000000000000000000000060003504166303602e9e811461018f57806305caca6c146101c05780630847c7a2146101e357806309828a471461021357806312448c321461023c578063146c1b5e1461027657806314c588de1461029457806314f1cf0c146102ac5780631e923f1b146102ca5780632573751f146102df5780633c9ff012146102fa57806359dc2eec1461030f578063625101d5146103685780636b5330571461037d57806370d4d7b41461039b5780637230ef7f146103b0578063731f49b7146103c55780637759187f146103da5780638231ee98146103f85780638638fc3c1461040d5780639d6fac6f1461042e578063ad5a157d14610446578063c17c04561461045b578063c7191bc714610470578063d00dbcb014610485578063eea23d8a146104a9578063f2fde38b146104c1578063f3cee129146104e2578063f6288422146104f7578063fae8c29e1461050c578063fdaacf1b14610521575b600080fd5b34801561019b57600080fd5b506101a4610542565b60408051600160a060020a039092168252519081900360200190f35b3480156101cc57600080fd5b506101e1600160a060020a036004351661056e565b005b3480156101ef57600080fd5b5061020163ffffffff600435166105c4565b60408051918252519081900360200190f35b34801561021f57600080fd5b506102286105d6565b604080519115158252519081900360200190f35b34801561024857600080fd5b5061025d63ffffffff600435166024356105df565b6040805163ffffffff9092168252519081900360200190f35b34801561028257600080fd5b5061020163ffffffff6004351661061b565b3480156102a057600080fd5b506101e160043561062d565b3480156102b857600080fd5b506101a463ffffffff6004351661064d565b3480156102d657600080fd5b506101a4610668565b3480156102eb57600080fd5b5061025d600435602435610677565b34801561030657600080fd5b506102016106bf565b34801561031b57600080fd5b506103276004356106c5565b6040805163ffffffff9889168152969097166020870152858701949094526060850192909252608084015260a083015260c082015290519081900360e00190f35b34801561037457600080fd5b506101a461071f565b34801561038957600080fd5b5061020163ffffffff6004351661074b565b3480156103a757600080fd5b5061020161075d565b3480156103bc57600080fd5b50610201610763565b3480156103d157600080fd5b5061025d610769565b3480156103e657600080fd5b5061020163ffffffff60043516610775565b34801561040457600080fd5b50610201610787565b34801561041957600080fd5b506101e1600160a060020a036004351661078d565b34801561043a57600080fd5b5061025d6004356107e4565b34801561045257600080fd5b50610201610811565b34801561046757600080fd5b506101a4610817565b34801561047c57600080fd5b506101a4610826565b34801561049157600080fd5b5061025d600160a060020a0360043516602435610852565b3480156104b557600080fd5b506101e160043561086d565b3480156104cd57600080fd5b506101e1600160a060020a036004351661088d565b3480156104ee57600080fd5b506101a46108e4565b34801561050357600080fd5b50610201610910565b34801561051857600080fd5b506101e1610916565b34801561052d57600080fd5b506101e1600160a060020a0360043516610945565b6000805433600160a060020a0390811691161461055e57600080fd5b50600454600160a060020a031690565b60005433600160a060020a0390811691161461058957600080fd5b600160a060020a038116156105c1576003805473ffffffffffffffffffffffffffffffffffffffff1916600160a060020a0383161790555b50565b60136020526000908152604090205481565b600e5460ff1681565b601060205260008281526040902081600581106105f857fe5b60089182820401919006600402915091509054906101000a900463ffffffff1681565b60116020526000908152604090205481565b60005433600160a060020a0390811691161461064857600080fd5b600c55565b601960205260009081526040902054600160a060020a031681565b600554600160a060020a031681565b60146020528160005260406000208181548110151561069257fe5b9060005260206000209060089182820401919006600402915091509054906101000a900463ffffffff1681565b600b5481565b60188054829081106106d357fe5b600091825260209091206006909102018054600182015460028301546003840154600485015460059095015463ffffffff80861697506401000000009095049094169492939192909187565b6000805433600160a060020a0390811691161461073b57600080fd5b50600154600160a060020a031690565b600f6020526000908152604090205481565b600c5481565b60095481565b60085463ffffffff1681565b60126020526000908152604090205481565b600a5481565b60005433600160a060020a039081169116146107a857600080fd5b600160a060020a038116156105c15760028054600160a060020a03831673ffffffffffffffffffffffffffffffffffffffff1990911617905550565b601681600f81106107f157fe5b60089182820401919006600402915054906101000a900463ffffffff1681565b600d5481565b600054600160a060020a031681565b6000805433600160a060020a0390811691161461084257600080fd5b50600254600160a060020a031690565b601a6020528160005260406000208181548110151561069257fe5b60005433600160a060020a0390811691161461088857600080fd5b600d55565b60005433600160a060020a039081169116146108a857600080fd5b600160a060020a038116156105c15760008054600160a060020a03831673ffffffffffffffffffffffffffffffffffffffff1990911617905550565b6000805433600160a060020a0390811691161461090057600080fd5b50600354600160a060020a031690565b60075481565b60005433600160a060020a0390811691161461093157600080fd5b600e805460ff19811660ff90911615179055565b60005433600160a060020a0390811691161461096057600080fd5b6001805473ffffffffffffffffffffffffffffffffffffffff1916600160a060020a03929092169190911790555600a165627a7a723058201a2c0bc645cca9980ea04432152332e1c57b9d1931a72e6f106277477ea5cafc0029",
  "source": "pragma solidity ^0.4.23;\n\nimport \"./Ownable.sol\";\n\n\n\n/**\n * @title SafeMath\n * @dev Math operations with safety checks that throw on error\n */\nlibrary SafeMath {\n    \n    function mul(uint256 a, uint256 b) internal pure returns (uint256) {\n        if (a == 0) {\n            return 0;\n        }\n        uint c = a * b;\n        assert(c / a == b);\n        return c;\n    }\n\n    function div(uint256 a, uint256 b) internal pure returns (uint256) {\n        // assert(b > 0); // Solidity automatically throws when dividing by 0\n        uint256 c = a / b;\n        // assert(a == b * c + a % b); // There is no case in which this doesn't hold\n        return c;\n    }\n\n    function sub(uint256 a, uint256 b) internal pure returns (uint256) {\n        assert(b <= a);\n        return a - b;\n    }\n\n    function add(uint256 a, uint256 b) internal pure returns (uint256) {\n        uint256 c = a + b;\n        assert(c >= a);\n        return c;\n    }\n  \n}\n \n\ncontract BaseRabbit  is Ownable {\n       \n\n    address public  myAddr_test = 0x3DD39B55FCAAe9067A3383D3c065b3c71ED4477b;\n    \n    using SafeMath for uint256;\n    bool pauseSave = false;\n    uint256 bigPrice = 0.0005 ether;\n    \n    uint public commission_system = 5;\n     \n    // ID the last seal\n    uint32 public lastIdGen0;\n    uint public totalGen0 = 0;\n    // ID the last seal\n    uint public lastTimeGen0;\n    \n    // ID the last seal\n  //  uint public timeRangeCreateGen0 = 1800;\n    uint public timeRangeCreateGen0 = 1;\n\n    uint public promoGen0 = 2500;\n    uint public promoMoney = 1*bigPrice;\n    bool public promoPause = false;\n\n\n    function setPromoGen0(uint _promoGen0) public onlyOwner {\n        promoGen0 = _promoGen0;\n    }\n\n    function setPromoPause() public onlyOwner {\n        promoPause = !promoPause;\n    }\n\n\n\n    function setPromoMoney(uint _promoMoney) public onlyOwner {\n        promoMoney = _promoMoney;\n    }\n    modifier timeRange() {\n        require((lastTimeGen0+timeRangeCreateGen0) < now);\n        _;\n    } \n\n    mapping(uint32 => uint) public totalSalaryBunny;\n    mapping(uint32 => uint32[5]) public rabbitMother;\n    \n    mapping(uint32 => uint) public motherCount;\n    \n    // how many times did the rabbit cross\n    mapping(uint32 => uint) public rabbitBreedCount;\n\n    mapping(uint32 => uint)  public rabbitSirePrice;\n    mapping(uint => uint32[]) public sireGenom;\n    mapping (uint32 => uint) mapDNK;\n   \n    uint32[15] public cooldowns = [\n        uint32(1 minutes),\n        uint32(2 minutes),\n        uint32(4 minutes),\n        uint32(8 minutes),\n        uint32(16 minutes),\n        uint32(32 minutes),\n        uint32(1 hours),\n        uint32(2 hours),\n        uint32(4 hours),\n        uint32(8 hours),\n        uint32(16 hours),\n        uint32(1 days),\n        uint32(2 days),\n        uint32(4 days),\n        uint32(7 days)\n    ];\n\n\n    struct Rabbit { \n         // родители\n        uint32 mother;\n        uint32 sire; \n        // блок в котором родился кролик\n        uint birthblock;\n         // количество родов или сколько раз было потомство\n        uint birthCount;\n         // Время когда последний раз рожал Кролик\n        uint birthLastTime;\n        // текущая роль кролика\n        uint role;\n        //indexGenome   \n        uint genome;\n    }\n    /**\n    * Там где будем хранить информацию о кроликах\n    */\n    Rabbit[]  public rabbits;\n     \n    /**\n    * кому принадлежит кролик\n    */\n    mapping (uint32 => address) public rabbitToOwner; \n    mapping(address => uint32[]) public ownerBunnies;\n    //mapping (address => uint) ownerRabbitCount;\n    mapping (uint32 => string) rabbitDescription;\n    mapping (uint32 => string) rabbitName; \n\n    //giff \n    mapping (uint32 => bool) giffblock; \n    mapping (address => bool) ownerGennezise;\n\n}\n",
  "sourcePath": "/home/koras/contracts/publicRabbit/pub/contracts/BaseRabbit.sol",
  "compiler": {
    "name": "solc",
    "version": "0.4.23+commit.124ca40d.Emscripten.clang"
  },
  "schemaVersion": "2.0.0",
  "updatedAt": "2018-06-28T21:33:24.522Z"
}