{
  "contractName": "BaseRabbit",
  "abi": [
    {
      "constant": true,
      "inputs": [],
      "name": "getPrivAddress",
      "outputs": [
        {
          "name": "",
          "type": "address"
        }
      ],
      "payable": false,
      "stateMutability": "view",
      "type": "function"
    },
    {
      "constant": false,
      "inputs": [
        {
          "name": "add",
          "type": "address"
        }
      ],
      "name": "transferOwnershipServer",
      "outputs": [],
      "payable": false,
      "stateMutability": "nonpayable",
      "type": "function"
    },
    {
      "constant": true,
      "inputs": [],
      "name": "ownerTech",
      "outputs": [
        {
          "name": "",
          "type": "address"
        }
      ],
      "payable": false,
      "stateMutability": "view",
      "type": "function"
    },
    {
      "constant": true,
      "inputs": [
        {
          "name": "",
          "type": "uint32"
        },
        {
          "name": "",
          "type": "uint256"
        }
      ],
      "name": "rabbitMother",
      "outputs": [
        {
          "name": "",
          "type": "uint32"
        }
      ],
      "payable": false,
      "stateMutability": "view",
      "type": "function"
    },
    {
      "constant": true,
      "inputs": [
        {
          "name": "",
          "type": "uint32"
        }
      ],
      "name": "rabbitToOwner",
      "outputs": [
        {
          "name": "",
          "type": "address"
        }
      ],
      "payable": false,
      "stateMutability": "view",
      "type": "function"
    },
    {
      "constant": true,
      "inputs": [
        {
          "name": "",
          "type": "uint32"
        }
      ],
      "name": "rabbitRole",
      "outputs": [
        {
          "name": "",
          "type": "uint256"
        }
      ],
      "payable": false,
      "stateMutability": "view",
      "type": "function"
    },
    {
      "constant": true,
      "inputs": [
        {
          "name": "",
          "type": "uint32"
        }
      ],
      "name": "rabbitDescription",
      "outputs": [
        {
          "name": "",
          "type": "string"
        }
      ],
      "payable": false,
      "stateMutability": "view",
      "type": "function"
    },
    {
      "constant": true,
      "inputs": [],
      "name": "timeRangeCreateGen0",
      "outputs": [
        {
          "name": "",
          "type": "uint256"
        }
      ],
      "payable": false,
      "stateMutability": "view",
      "type": "function"
    },
    {
      "constant": true,
      "inputs": [
        {
          "name": "",
          "type": "uint256"
        }
      ],
      "name": "rabbits",
      "outputs": [
        {
          "name": "mother",
          "type": "uint32"
        },
        {
          "name": "sire",
          "type": "uint32"
        },
        {
          "name": "birthblock",
          "type": "uint256"
        },
        {
          "name": "birthCount",
          "type": "uint256"
        },
        {
          "name": "birthLastTime",
          "type": "uint256"
        }
      ],
      "payable": false,
      "stateMutability": "view",
      "type": "function"
    },
    {
      "constant": true,
      "inputs": [],
      "name": "getOwnerMoney",
      "outputs": [
        {
          "name": "",
          "type": "address"
        }
      ],
      "payable": false,
      "stateMutability": "view",
      "type": "function"
    },
    {
      "constant": true,
      "inputs": [
        {
          "name": "",
          "type": "uint32"
        }
      ],
      "name": "totalSalaryBunny",
      "outputs": [
        {
          "name": "",
          "type": "uint256"
        }
      ],
      "payable": false,
      "stateMutability": "view",
      "type": "function"
    },
    {
      "constant": true,
      "inputs": [],
      "name": "promoGen0",
      "outputs": [
        {
          "name": "",
          "type": "uint256"
        }
      ],
      "payable": false,
      "stateMutability": "view",
      "type": "function"
    },
    {
      "constant": true,
      "inputs": [],
      "name": "totalGen0",
      "outputs": [
        {
          "name": "",
          "type": "uint256"
        }
      ],
      "payable": false,
      "stateMutability": "view",
      "type": "function"
    },
    {
      "constant": true,
      "inputs": [],
      "name": "lastIdGen0",
      "outputs": [
        {
          "name": "",
          "type": "uint32"
        }
      ],
      "payable": false,
      "stateMutability": "view",
      "type": "function"
    },
    {
      "constant": true,
      "inputs": [],
      "name": "ownerMoney",
      "outputs": [
        {
          "name": "",
          "type": "address"
        }
      ],
      "payable": false,
      "stateMutability": "view",
      "type": "function"
    },
    {
      "constant": true,
      "inputs": [],
      "name": "lastTimeGen0",
      "outputs": [
        {
          "name": "",
          "type": "uint256"
        }
      ],
      "payable": false,
      "stateMutability": "view",
      "type": "function"
    },
    {
      "constant": false,
      "inputs": [
        {
          "name": "add",
          "type": "address"
        }
      ],
      "name": "transferOwnershipTechnical",
      "outputs": [],
      "payable": false,
      "stateMutability": "nonpayable",
      "type": "function"
    },
    {
      "constant": true,
      "inputs": [
        {
          "name": "",
          "type": "uint256"
        }
      ],
      "name": "cooldowns",
      "outputs": [
        {
          "name": "",
          "type": "uint32"
        }
      ],
      "payable": false,
      "stateMutability": "view",
      "type": "function"
    },
    {
      "constant": true,
      "inputs": [],
      "name": "privAddress",
      "outputs": [
        {
          "name": "",
          "type": "address"
        }
      ],
      "payable": false,
      "stateMutability": "view",
      "type": "function"
    },
    {
      "constant": true,
      "inputs": [],
      "name": "promoMoney",
      "outputs": [
        {
          "name": "",
          "type": "uint256"
        }
      ],
      "payable": false,
      "stateMutability": "view",
      "type": "function"
    },
    {
      "constant": true,
      "inputs": [],
      "name": "ownerCEO",
      "outputs": [
        {
          "name": "",
          "type": "address"
        }
      ],
      "payable": false,
      "stateMutability": "view",
      "type": "function"
    },
    {
      "constant": true,
      "inputs": [],
      "name": "getOwnerTech",
      "outputs": [
        {
          "name": "",
          "type": "address"
        }
      ],
      "payable": false,
      "stateMutability": "view",
      "type": "function"
    },
    {
      "constant": true,
      "inputs": [
        {
          "name": "",
          "type": "address"
        },
        {
          "name": "",
          "type": "uint256"
        }
      ],
      "name": "ownerBunnies",
      "outputs": [
        {
          "name": "",
          "type": "uint32"
        }
      ],
      "payable": false,
      "stateMutability": "view",
      "type": "function"
    },
    {
      "constant": true,
      "inputs": [],
      "name": "ownerServer",
      "outputs": [
        {
          "name": "",
          "type": "address"
        }
      ],
      "payable": false,
      "stateMutability": "view",
      "type": "function"
    },
    {
      "constant": false,
      "inputs": [
        {
          "name": "add",
          "type": "address"
        }
      ],
      "name": "transferOwnership",
      "outputs": [],
      "payable": false,
      "stateMutability": "nonpayable",
      "type": "function"
    },
    {
      "constant": true,
      "inputs": [],
      "name": "getOwnerServer",
      "outputs": [
        {
          "name": "",
          "type": "address"
        }
      ],
      "payable": false,
      "stateMutability": "view",
      "type": "function"
    },
    {
      "constant": true,
      "inputs": [
        {
          "name": "",
          "type": "uint32"
        }
      ],
      "name": "rabbitName",
      "outputs": [
        {
          "name": "",
          "type": "string"
        }
      ],
      "payable": false,
      "stateMutability": "view",
      "type": "function"
    },
    {
      "constant": false,
      "inputs": [
        {
          "name": "_ownerMoney",
          "type": "address"
        }
      ],
      "name": "transferOwnerMoney",
      "outputs": [],
      "payable": false,
      "stateMutability": "nonpayable",
      "type": "function"
    },
    {
      "constant": false,
      "inputs": [
        {
          "name": "_promoGen0",
          "type": "uint256"
        }
      ],
      "name": "setPromoGen0",
      "outputs": [],
      "payable": false,
      "stateMutability": "nonpayable",
      "type": "function"
    },
    {
      "constant": false,
      "inputs": [
        {
          "name": "_promoMoney",
          "type": "uint256"
        }
      ],
      "name": "setPromoMoney",
      "outputs": [],
      "payable": false,
      "stateMutability": "nonpayable",
      "type": "function"
    }
  ],
  "bytecode": "0x6004805460a060020a60ff0219169055655af3107a4000600555600060075560016009556109c4600a55633b9aca00600b55610260604052603c6080908152607860a05260f060c0526101e060e08190526103c06101005261078061012052610e1061014052611c2061016052613840610180526170806101a05261e1006101c0526201518090526202a30061020052620546006102205262093a80610240526100ad90601090600f6100f2565b5060008054600160a060020a033316600160a060020a0319918216811790925560028054821683179055600380548216831790556001805490911690911790556101b2565b60028301918390821561017e5791602002820160005b8382111561014c57835183826101000a81548163ffffffff021916908363ffffffff1602179055509260200192600401602081600301049283019260010302610108565b801561017c5782816101000a81549063ffffffff021916905560040160208160030104928301926001030261014c565b505b5061018a92915061018e565b5090565b6101af91905b8082111561018a57805463ffffffff19168155600101610194565b90565b610a6d806101c16000396000f30060806040526004361061017f5763ffffffff7c010000000000000000000000000000000000000000000000000000000060003504166303602e9e811461018457806305caca6c146101b55780630b336eab146101d857806312448c32146101ed57806314c588de1461022757806314f1cf0c1461023f5780633721026c1461025d5780633b23f9c01461028d5780633c9ff0121461032057806359dc2eec14610335578063625101d5146103815780636b5330571461039657806370d4d7b4146103b45780637230ef7f146103c9578063731f49b7146103de57806381310d09146103f35780638231ee98146104085780638638fc3c1461041d5780639d6fac6f1461043e578063a94beee214610456578063ad5a157d1461046b578063c17c045614610480578063c7191bc714610495578063d00dbcb0146104aa578063de3bb654146104ce578063eea23d8a146104e3578063f2fde38b146104fb578063f3cee1291461051c578063f46b888e14610531578063fdaacf1b1461054f575b600080fd5b34801561019057600080fd5b50610199610570565b60408051600160a060020a039092168252519081900360200190f35b3480156101c157600080fd5b506101d6600160a060020a036004351661059c565b005b3480156101e457600080fd5b506101996105f2565b3480156101f957600080fd5b5061020e63ffffffff60043516602435610601565b6040805163ffffffff9092168252519081900360200190f35b34801561023357600080fd5b506101d6600435610649565b34801561024b57600080fd5b5061019963ffffffff60043516610669565b34801561026957600080fd5b5061027b63ffffffff60043516610684565b60408051918252519081900360200190f35b34801561029957600080fd5b506102ab63ffffffff60043516610696565b6040805160208082528351818301528351919283929083019185019080838360005b838110156102e55781810151838201526020016102cd565b50505050905090810190601f1680156103125780820380516001836020036101000a031916815260200191505b509250505060405180910390f35b34801561032c57600080fd5b5061027b610731565b34801561034157600080fd5b5061034d600435610737565b6040805163ffffffff9687168152949095166020850152838501929092526060830152608082015290519081900360a00190f35b34801561038d57600080fd5b50610199610783565b3480156103a257600080fd5b5061027b63ffffffff600435166107af565b3480156103c057600080fd5b5061027b6107c1565b3480156103d557600080fd5b5061027b6107c7565b3480156103ea57600080fd5b5061020e6107cd565b3480156103ff57600080fd5b506101996107d9565b34801561041457600080fd5b5061027b6107e8565b34801561042957600080fd5b506101d6600160a060020a03600435166107ee565b34801561044a57600080fd5b5061020e600435610845565b34801561046257600080fd5b50610199610872565b34801561047757600080fd5b5061027b610881565b34801561048c57600080fd5b50610199610887565b3480156104a157600080fd5b50610199610896565b3480156104b657600080fd5b5061020e600160a060020a03600435166024356108c2565b3480156104da57600080fd5b506101996108dd565b3480156104ef57600080fd5b506101d66004356108ec565b34801561050757600080fd5b506101d6600160a060020a036004351661090c565b34801561052857600080fd5b50610199610963565b34801561053d57600080fd5b506102ab63ffffffff6004351661098f565b34801561055b57600080fd5b506101d6600160a060020a03600435166109f7565b6000805433600160a060020a0390811691161461058c57600080fd5b50600454600160a060020a031690565b60005433600160a060020a039081169116146105b757600080fd5b600160a060020a038116156105ef576003805473ffffffffffffffffffffffffffffffffffffffff1916600160a060020a0383161790555b50565b600254600160a060020a031681565b600d6020528160005260406000208181548110151561061c57fe5b9060005260206000209060089182820401919006600402915091509054906101000a900463ffffffff1681565b60005433600160a060020a0390811691161461066457600080fd5b600a55565b601360205260009081526040902054600160a060020a031681565b600e6020526000908152604090205481565b60156020908152600091825260409182902080548351601f6002600019610100600186161502019093169290920491820184900484028101840190945280845290918301828280156107295780601f106106fe57610100808354040283529160200191610729565b820191906000526020600020905b81548152906001019060200180831161070c57829003601f168201915b505050505081565b60095481565b601280548290811061074557fe5b6000918252602090912060049091020180546001820154600283015460039093015463ffffffff808416955064010000000090930490921692909185565b6000805433600160a060020a0390811691161461079f57600080fd5b50600154600160a060020a031690565b600c6020526000908152604090205481565b600a5481565b60075481565b60065463ffffffff1681565b600154600160a060020a031681565b60085481565b60005433600160a060020a0390811691161461080957600080fd5b600160a060020a038116156105ef5760028054600160a060020a03831673ffffffffffffffffffffffffffffffffffffffff1990911617905550565b601081600f811061085257fe5b60089182820401919006600402915054906101000a900463ffffffff1681565b600454600160a060020a031681565b600b5481565b600054600160a060020a031681565b6000805433600160a060020a039081169116146108b257600080fd5b50600254600160a060020a031690565b60146020528160005260406000208181548110151561061c57fe5b600354600160a060020a031681565b60005433600160a060020a0390811691161461090757600080fd5b600b55565b60005433600160a060020a0390811691161461092757600080fd5b600160a060020a038116156105ef5760008054600160a060020a03831673ffffffffffffffffffffffffffffffffffffffff1990911617905550565b6000805433600160a060020a0390811691161461097f57600080fd5b50600354600160a060020a031690565b60166020908152600091825260409182902080548351601f6002600019610100600186161502019093169290920491820184900484028101840190945280845290918301828280156107295780601f106106fe57610100808354040283529160200191610729565b60005433600160a060020a03908116911614610a1257600080fd5b6001805473ffffffffffffffffffffffffffffffffffffffff1916600160a060020a03929092169190911790555600a165627a7a72305820371f13210426c04c79caa5c44433310c79b4fa781b24c14b1bf35f51a74ca1a20029",
  "source": "pragma solidity ^0.4.23;\n\nimport \"./Ownable.sol\";\n\n\n\n/**\n * @title SafeMath\n * @dev Math operations with safety checks that throw on error\n */\nlibrary SafeMath {\n    \n    function mul(uint256 a, uint256 b) internal pure returns (uint256) {\n        uint256 c = a * b;\n        assert(a == 0 || c / a == b);\n        return c;\n    }\n\n    function div(uint256 a, uint256 b) internal pure returns (uint256) {\n        // assert(b > 0); // Solidity automatically throws when dividing by 0\n        uint256 c = a / b;\n        // assert(a == b * c + a % b); // There is no case in which this doesn't hold\n        return c;\n    }\n\n    function sub(uint256 a, uint256 b) internal pure returns (uint256) {\n        assert(b <= a);\n        return a - b;\n    }\n\n    function add(uint256 a, uint256 b) internal pure returns (uint256) {\n        uint256 c = a + b;\n        assert(c >= a);\n        return c;\n    }\n  \n}\n \n\ncontract BaseRabbit  is Ownable {\n       \n    using SafeMath for uint256;\n    \n    bool pauseSave = false;\n    \n    uint256 bigPrice = 0.0001 ether;\n     \n    // ID the last seal\n    uint32 public lastIdGen0;\n    uint public totalGen0 = 0;\n    // ID the last seal\n    uint public lastTimeGen0;\n    \n    // ID the last seal\n  //  uint public timeRangeCreateGen0 = 1800;\n    uint public timeRangeCreateGen0 = 1;\n\n    uint public promoGen0 = 2500;\n    uint public promoMoney = 1000000000;\n\n\n    function setPromoGen0(uint _promoGen0) public onlyOwner {\n        promoGen0 = _promoGen0;\n    }\n\n    function setPromoMoney(uint _promoMoney) public onlyOwner {\n        promoMoney = _promoMoney;\n    }\n\n\n\n    modifier timeRange() {\n        require((lastTimeGen0+timeRangeCreateGen0) < now);\n        _;\n    } \n\n    mapping(uint32 => uint) public totalSalaryBunny;\n\n    // reward chain \n    mapping(uint32 => uint32[]) public rabbitMother;\n    \n\n\n\n \n    mapping(uint32 => uint) public rabbitRole; \n\n\n\n    \n    mapping (uint32 => uint) mapDNK;\n   \n    uint32[15] public cooldowns = [\n        uint32(1 minutes),\n        uint32(2 minutes),\n        uint32(4 minutes),\n        uint32(8 minutes),\n        uint32(16 minutes),\n        uint32(32 minutes),\n        uint32(1 hours),\n        uint32(2 hours),\n        uint32(4 hours),\n        uint32(8 hours),\n        uint32(16 hours),\n        uint32(1 days),\n        uint32(2 days),\n        uint32(4 days),\n        uint32(7 days)\n    ];\n\n\n    struct Rabbit { \n         // родители\n        uint32 mother;\n        uint32 sire;\n        //indexGenome   \n        // блок в котором родился кролик\n        uint birthblock;\n         // количество родов\n        uint birthCount;\n         // Время когда последний раз рожал Кролик\n        uint birthLastTime;\n    }\n    /**\n    * Там где будем хранить информацию о кроликах\n    */\n    Rabbit[]  public rabbits;\n     \n     \n    /**\n    * кому принадлежит кролик\n    */\n    mapping (uint32 => address) public rabbitToOwner; \n    mapping(address => uint32[]) public ownerBunnies;\n    //mapping (address => uint) ownerRabbitCount;\n    mapping (uint32 => string) public rabbitDescription;\n    mapping (uint32 => string) public rabbitName; \n}\n",
  "sourcePath": "/home/koras/contracts/publicRabbit/pub/contracts/BaseRabbit.sol",
  "compiler": {
    "name": "solc",
    "version": "0.4.23+commit.124ca40d.Emscripten.clang"
  },
  "schemaVersion": "2.0.0",
  "updatedAt": "2018-05-14T17:15:42.041Z"
}