{
  "contractName": "BodyRabbit",
  "abi": [
    {
      "constant": true,
      "inputs": [],
      "name": "getPrivAddress",
      "outputs": [
        {
          "name": "",
          "type": "address"
        }
      ],
      "payable": false,
      "stateMutability": "view",
      "type": "function"
    },
    {
      "constant": false,
      "inputs": [
        {
          "name": "add",
          "type": "address"
        }
      ],
      "name": "transferOwnershipServer",
      "outputs": [],
      "payable": false,
      "stateMutability": "nonpayable",
      "type": "function"
    },
    {
      "constant": true,
      "inputs": [],
      "name": "name",
      "outputs": [
        {
          "name": "",
          "type": "string"
        }
      ],
      "payable": false,
      "stateMutability": "view",
      "type": "function"
    },
    {
      "constant": true,
      "inputs": [
        {
          "name": "",
          "type": "uint32"
        }
      ],
      "name": "rabbitSirePrice",
      "outputs": [
        {
          "name": "",
          "type": "uint256"
        }
      ],
      "payable": false,
      "stateMutability": "view",
      "type": "function"
    },
    {
      "constant": true,
      "inputs": [],
      "name": "promoPause",
      "outputs": [
        {
          "name": "",
          "type": "bool"
        }
      ],
      "payable": false,
      "stateMutability": "view",
      "type": "function"
    },
    {
      "constant": true,
      "inputs": [
        {
          "name": "",
          "type": "uint32"
        },
        {
          "name": "",
          "type": "uint256"
        }
      ],
      "name": "rabbitMother",
      "outputs": [
        {
          "name": "",
          "type": "uint32"
        }
      ],
      "payable": false,
      "stateMutability": "view",
      "type": "function"
    },
    {
      "constant": true,
      "inputs": [
        {
          "name": "",
          "type": "uint32"
        }
      ],
      "name": "motherCount",
      "outputs": [
        {
          "name": "",
          "type": "uint256"
        }
      ],
      "payable": false,
      "stateMutability": "view",
      "type": "function"
    },
    {
      "constant": false,
      "inputs": [
        {
          "name": "_promoGen0",
          "type": "uint256"
        }
      ],
      "name": "setPromoGen0",
      "outputs": [],
      "payable": false,
      "stateMutability": "nonpayable",
      "type": "function"
    },
    {
      "constant": true,
      "inputs": [
        {
          "name": "",
          "type": "uint32"
        }
      ],
      "name": "rabbitToOwner",
      "outputs": [
        {
          "name": "",
          "type": "address"
        }
      ],
      "payable": false,
      "stateMutability": "view",
      "type": "function"
    },
    {
      "constant": true,
      "inputs": [],
      "name": "myAddr_test",
      "outputs": [
        {
          "name": "",
          "type": "address"
        }
      ],
      "payable": false,
      "stateMutability": "view",
      "type": "function"
    },
    {
      "constant": true,
      "inputs": [
        {
          "name": "",
          "type": "uint256"
        },
        {
          "name": "",
          "type": "uint256"
        }
      ],
      "name": "sireGenom",
      "outputs": [
        {
          "name": "",
          "type": "uint32"
        }
      ],
      "payable": false,
      "stateMutability": "view",
      "type": "function"
    },
    {
      "constant": true,
      "inputs": [],
      "name": "timeRangeCreateGen0",
      "outputs": [
        {
          "name": "",
          "type": "uint256"
        }
      ],
      "payable": false,
      "stateMutability": "view",
      "type": "function"
    },
    {
      "constant": true,
      "inputs": [
        {
          "name": "",
          "type": "uint256"
        }
      ],
      "name": "rabbits",
      "outputs": [
        {
          "name": "mother",
          "type": "uint32"
        },
        {
          "name": "sire",
          "type": "uint32"
        },
        {
          "name": "birthblock",
          "type": "uint256"
        },
        {
          "name": "birthCount",
          "type": "uint256"
        },
        {
          "name": "birthLastTime",
          "type": "uint256"
        },
        {
          "name": "role",
          "type": "uint256"
        },
        {
          "name": "genome",
          "type": "uint256"
        }
      ],
      "payable": false,
      "stateMutability": "view",
      "type": "function"
    },
    {
      "constant": true,
      "inputs": [],
      "name": "getOwnerMoney",
      "outputs": [
        {
          "name": "",
          "type": "address"
        }
      ],
      "payable": false,
      "stateMutability": "view",
      "type": "function"
    },
    {
      "constant": true,
      "inputs": [
        {
          "name": "",
          "type": "uint32"
        }
      ],
      "name": "totalSalaryBunny",
      "outputs": [
        {
          "name": "",
          "type": "uint256"
        }
      ],
      "payable": false,
      "stateMutability": "view",
      "type": "function"
    },
    {
      "constant": true,
      "inputs": [],
      "name": "promoGen0",
      "outputs": [
        {
          "name": "",
          "type": "uint256"
        }
      ],
      "payable": false,
      "stateMutability": "view",
      "type": "function"
    },
    {
      "constant": true,
      "inputs": [],
      "name": "totalGen0",
      "outputs": [
        {
          "name": "",
          "type": "uint256"
        }
      ],
      "payable": false,
      "stateMutability": "view",
      "type": "function"
    },
    {
      "constant": true,
      "inputs": [],
      "name": "lastIdGen0",
      "outputs": [
        {
          "name": "",
          "type": "uint32"
        }
      ],
      "payable": false,
      "stateMutability": "view",
      "type": "function"
    },
    {
      "constant": true,
      "inputs": [],
      "name": "fcontr",
      "outputs": [
        {
          "name": "",
          "type": "bool"
        }
      ],
      "payable": false,
      "stateMutability": "view",
      "type": "function"
    },
    {
      "constant": true,
      "inputs": [
        {
          "name": "",
          "type": "uint32"
        }
      ],
      "name": "rabbitBreedCount",
      "outputs": [
        {
          "name": "",
          "type": "uint256"
        }
      ],
      "payable": false,
      "stateMutability": "view",
      "type": "function"
    },
    {
      "constant": true,
      "inputs": [],
      "name": "lastTimeGen0",
      "outputs": [
        {
          "name": "",
          "type": "uint256"
        }
      ],
      "payable": false,
      "stateMutability": "view",
      "type": "function"
    },
    {
      "constant": true,
      "inputs": [],
      "name": "totalBunny",
      "outputs": [
        {
          "name": "",
          "type": "uint256"
        }
      ],
      "payable": false,
      "stateMutability": "view",
      "type": "function"
    },
    {
      "constant": true,
      "inputs": [],
      "name": "symbol",
      "outputs": [
        {
          "name": "",
          "type": "string"
        }
      ],
      "payable": false,
      "stateMutability": "view",
      "type": "function"
    },
    {
      "constant": true,
      "inputs": [
        {
          "name": "",
          "type": "uint256"
        }
      ],
      "name": "cooldowns",
      "outputs": [
        {
          "name": "",
          "type": "uint32"
        }
      ],
      "payable": false,
      "stateMutability": "view",
      "type": "function"
    },
    {
      "constant": true,
      "inputs": [],
      "name": "promoMoney",
      "outputs": [
        {
          "name": "",
          "type": "uint256"
        }
      ],
      "payable": false,
      "stateMutability": "view",
      "type": "function"
    },
    {
      "constant": true,
      "inputs": [],
      "name": "ownerCEO",
      "outputs": [
        {
          "name": "",
          "type": "address"
        }
      ],
      "payable": false,
      "stateMutability": "view",
      "type": "function"
    },
    {
      "constant": true,
      "inputs": [
        {
          "name": "",
          "type": "address"
        },
        {
          "name": "",
          "type": "uint256"
        }
      ],
      "name": "ownerBunnies",
      "outputs": [
        {
          "name": "",
          "type": "uint32"
        }
      ],
      "payable": false,
      "stateMutability": "view",
      "type": "function"
    },
    {
      "constant": false,
      "inputs": [
        {
          "name": "_promoMoney",
          "type": "uint256"
        }
      ],
      "name": "setPromoMoney",
      "outputs": [],
      "payable": false,
      "stateMutability": "nonpayable",
      "type": "function"
    },
    {
      "constant": false,
      "inputs": [
        {
          "name": "add",
          "type": "address"
        }
      ],
      "name": "transferOwnership",
      "outputs": [],
      "payable": false,
      "stateMutability": "nonpayable",
      "type": "function"
    },
    {
      "constant": true,
      "inputs": [],
      "name": "getOwnerServer",
      "outputs": [
        {
          "name": "",
          "type": "address"
        }
      ],
      "payable": false,
      "stateMutability": "view",
      "type": "function"
    },
    {
      "constant": true,
      "inputs": [],
      "name": "commission_system",
      "outputs": [
        {
          "name": "",
          "type": "uint256"
        }
      ],
      "payable": false,
      "stateMutability": "view",
      "type": "function"
    },
    {
      "constant": false,
      "inputs": [],
      "name": "setPromoPause",
      "outputs": [],
      "payable": false,
      "stateMutability": "nonpayable",
      "type": "function"
    },
    {
      "constant": false,
      "inputs": [
        {
          "name": "_ownerMoney",
          "type": "address"
        }
      ],
      "name": "transferOwnerMoney",
      "outputs": [],
      "payable": false,
      "stateMutability": "nonpayable",
      "type": "function"
    },
    {
      "inputs": [],
      "payable": false,
      "stateMutability": "nonpayable",
      "type": "constructor"
    },
    {
      "anonymous": false,
      "inputs": [
        {
          "indexed": false,
          "name": "newOwnerBunny",
          "type": "address"
        },
        {
          "indexed": false,
          "name": "bunnyId",
          "type": "uint32"
        }
      ],
      "name": "SendBunny",
      "type": "event"
    },
    {
      "anonymous": false,
      "inputs": [
        {
          "indexed": false,
          "name": "bunnyId",
          "type": "uint32"
        }
      ],
      "name": "StopMarket",
      "type": "event"
    },
    {
      "anonymous": false,
      "inputs": [
        {
          "indexed": false,
          "name": "bunnyId",
          "type": "uint32"
        },
        {
          "indexed": false,
          "name": "money",
          "type": "uint256"
        }
      ],
      "name": "StartMarket",
      "type": "event"
    },
    {
      "anonymous": false,
      "inputs": [
        {
          "indexed": false,
          "name": "bunnyId",
          "type": "uint32"
        },
        {
          "indexed": false,
          "name": "money",
          "type": "uint256"
        }
      ],
      "name": "BunnyBuy",
      "type": "event"
    },
    {
      "anonymous": false,
      "inputs": [
        {
          "indexed": false,
          "name": "mother",
          "type": "uint32"
        },
        {
          "indexed": false,
          "name": "summ",
          "type": "uint256"
        }
      ],
      "name": "EmotherCount",
      "type": "event"
    },
    {
      "anonymous": false,
      "inputs": [
        {
          "indexed": false,
          "name": "bunnyId",
          "type": "uint32"
        },
        {
          "indexed": false,
          "name": "dnk",
          "type": "uint256"
        },
        {
          "indexed": false,
          "name": "blocknumber",
          "type": "uint256"
        },
        {
          "indexed": false,
          "name": "breed",
          "type": "uint256"
        }
      ],
      "name": "NewBunny",
      "type": "event"
    },
    {
      "anonymous": false,
      "inputs": [
        {
          "indexed": false,
          "name": "bunnyId",
          "type": "uint32"
        },
        {
          "indexed": false,
          "name": "sex",
          "type": "bool"
        },
        {
          "indexed": false,
          "name": "price",
          "type": "uint256"
        }
      ],
      "name": "ChengeSex",
      "type": "event"
    },
    {
      "anonymous": false,
      "inputs": [
        {
          "indexed": false,
          "name": "bunnyId",
          "type": "uint32"
        },
        {
          "indexed": false,
          "name": "cost",
          "type": "uint256"
        }
      ],
      "name": "SalaryBunny",
      "type": "event"
    },
    {
      "anonymous": false,
      "inputs": [
        {
          "indexed": false,
          "name": "matron",
          "type": "uint32"
        },
        {
          "indexed": false,
          "name": "sire",
          "type": "uint32"
        },
        {
          "indexed": false,
          "name": "child",
          "type": "uint32"
        }
      ],
      "name": "CreateChildren",
      "type": "event"
    },
    {
      "anonymous": false,
      "inputs": [
        {
          "indexed": false,
          "name": "bunnyId",
          "type": "uint32"
        },
        {
          "indexed": false,
          "name": "name",
          "type": "string"
        }
      ],
      "name": "BunnyName",
      "type": "event"
    },
    {
      "anonymous": false,
      "inputs": [
        {
          "indexed": false,
          "name": "bunnyId",
          "type": "uint32"
        },
        {
          "indexed": false,
          "name": "name",
          "type": "string"
        }
      ],
      "name": "BunnyDescription",
      "type": "event"
    },
    {
      "anonymous": false,
      "inputs": [
        {
          "indexed": false,
          "name": "bunnyId",
          "type": "uint32"
        },
        {
          "indexed": false,
          "name": "num",
          "type": "uint256"
        }
      ],
      "name": "CoolduwnMother",
      "type": "event"
    },
    {
      "anonymous": false,
      "inputs": [
        {
          "indexed": false,
          "name": "from",
          "type": "address"
        },
        {
          "indexed": false,
          "name": "to",
          "type": "address"
        },
        {
          "indexed": false,
          "name": "tokenId",
          "type": "uint32"
        }
      ],
      "name": "Transfer",
      "type": "event"
    },
    {
      "anonymous": false,
      "inputs": [
        {
          "indexed": false,
          "name": "owner",
          "type": "address"
        },
        {
          "indexed": false,
          "name": "approved",
          "type": "address"
        },
        {
          "indexed": false,
          "name": "tokenId",
          "type": "uint32"
        }
      ],
      "name": "Approval",
      "type": "event"
    },
    {
      "anonymous": false,
      "inputs": [
        {
          "indexed": false,
          "name": "owner",
          "type": "address"
        },
        {
          "indexed": false,
          "name": "tokenId",
          "type": "uint32"
        }
      ],
      "name": "OwnerBunnies",
      "type": "event"
    },
    {
      "constant": false,
      "inputs": [
        {
          "name": "_privAddress",
          "type": "address"
        }
      ],
      "name": "setPriv",
      "outputs": [
        {
          "name": "",
          "type": "bool"
        }
      ],
      "payable": false,
      "stateMutability": "nonpayable",
      "type": "function"
    },
    {
      "constant": true,
      "inputs": [],
      "name": "isPriv",
      "outputs": [
        {
          "name": "",
          "type": "bool"
        }
      ],
      "payable": false,
      "stateMutability": "view",
      "type": "function"
    },
    {
      "constant": true,
      "inputs": [
        {
          "name": "_tokenId",
          "type": "uint32"
        }
      ],
      "name": "ownerOf",
      "outputs": [
        {
          "name": "owner",
          "type": "address"
        }
      ],
      "payable": false,
      "stateMutability": "view",
      "type": "function"
    },
    {
      "constant": false,
      "inputs": [
        {
          "name": "_to",
          "type": "address"
        },
        {
          "name": "_tokenId",
          "type": "uint32"
        }
      ],
      "name": "approve",
      "outputs": [
        {
          "name": "",
          "type": "bool"
        }
      ],
      "payable": false,
      "stateMutability": "nonpayable",
      "type": "function"
    },
    {
      "constant": true,
      "inputs": [
        {
          "name": "_tokenId",
          "type": "uint32"
        }
      ],
      "name": "getSirePrice",
      "outputs": [
        {
          "name": "",
          "type": "uint256"
        }
      ],
      "payable": false,
      "stateMutability": "view",
      "type": "function"
    },
    {
      "constant": false,
      "inputs": [
        {
          "name": "_to",
          "type": "address"
        },
        {
          "name": "_tokenId",
          "type": "uint32"
        }
      ],
      "name": "transfer",
      "outputs": [],
      "payable": false,
      "stateMutability": "nonpayable",
      "type": "function"
    },
    {
      "constant": false,
      "inputs": [
        {
          "name": "_from",
          "type": "address"
        },
        {
          "name": "_to",
          "type": "address"
        },
        {
          "name": "_tokenId",
          "type": "uint32"
        }
      ],
      "name": "transferFrom",
      "outputs": [
        {
          "name": "",
          "type": "bool"
        }
      ],
      "payable": false,
      "stateMutability": "nonpayable",
      "type": "function"
    },
    {
      "constant": false,
      "inputs": [
        {
          "name": "_sec",
          "type": "uint256"
        }
      ],
      "name": "setTimeRangeGen0",
      "outputs": [],
      "payable": false,
      "stateMutability": "nonpayable",
      "type": "function"
    },
    {
      "constant": true,
      "inputs": [],
      "name": "isPauseSave",
      "outputs": [
        {
          "name": "",
          "type": "bool"
        }
      ],
      "payable": false,
      "stateMutability": "view",
      "type": "function"
    },
    {
      "constant": true,
      "inputs": [],
      "name": "isPromoPause",
      "outputs": [
        {
          "name": "",
          "type": "bool"
        }
      ],
      "payable": false,
      "stateMutability": "view",
      "type": "function"
    },
    {
      "constant": false,
      "inputs": [],
      "name": "setPauseSave",
      "outputs": [
        {
          "name": "",
          "type": "bool"
        }
      ],
      "payable": false,
      "stateMutability": "nonpayable",
      "type": "function"
    },
    {
      "constant": true,
      "inputs": [],
      "name": "isUIntPublic",
      "outputs": [
        {
          "name": "",
          "type": "bool"
        }
      ],
      "payable": false,
      "stateMutability": "pure",
      "type": "function"
    },
    {
      "constant": true,
      "inputs": [
        {
          "name": "owner",
          "type": "address"
        }
      ],
      "name": "getTokenOwner",
      "outputs": [
        {
          "name": "total",
          "type": "uint256"
        },
        {
          "name": "list",
          "type": "uint32[]"
        }
      ],
      "payable": false,
      "stateMutability": "view",
      "type": "function"
    },
    {
      "constant": true,
      "inputs": [
        {
          "name": "_mother",
          "type": "uint32"
        }
      ],
      "name": "getMotherCount",
      "outputs": [
        {
          "name": "",
          "type": "uint256"
        }
      ],
      "payable": false,
      "stateMutability": "view",
      "type": "function"
    },
    {
      "constant": true,
      "inputs": [
        {
          "name": "_bunny",
          "type": "uint32"
        }
      ],
      "name": "getTotalSalaryBunny",
      "outputs": [
        {
          "name": "",
          "type": "uint256"
        }
      ],
      "payable": false,
      "stateMutability": "view",
      "type": "function"
    },
    {
      "constant": true,
      "inputs": [
        {
          "name": "mother",
          "type": "uint32"
        }
      ],
      "name": "getRabbitMother",
      "outputs": [
        {
          "name": "",
          "type": "uint32[5]"
        }
      ],
      "payable": false,
      "stateMutability": "view",
      "type": "function"
    },
    {
      "constant": true,
      "inputs": [
        {
          "name": "mother",
          "type": "uint32"
        }
      ],
      "name": "getRabbitMotherSumm",
      "outputs": [
        {
          "name": "count",
          "type": "uint256"
        }
      ],
      "payable": false,
      "stateMutability": "view",
      "type": "function"
    },
    {
      "constant": true,
      "inputs": [
        {
          "name": "bunnyid",
          "type": "uint32"
        }
      ],
      "name": "getRabbitDNK",
      "outputs": [
        {
          "name": "",
          "type": "uint256"
        }
      ],
      "payable": false,
      "stateMutability": "view",
      "type": "function"
    },
    {
      "constant": true,
      "inputs": [],
      "name": "totalSupply",
      "outputs": [
        {
          "name": "total",
          "type": "uint256"
        }
      ],
      "payable": false,
      "stateMutability": "view",
      "type": "function"
    },
    {
      "constant": true,
      "inputs": [
        {
          "name": "_owner",
          "type": "address"
        }
      ],
      "name": "balanceOf",
      "outputs": [
        {
          "name": "",
          "type": "uint256"
        }
      ],
      "payable": false,
      "stateMutability": "view",
      "type": "function"
    },
    {
      "constant": true,
      "inputs": [
        {
          "name": "_bunnyid",
          "type": "uint32"
        }
      ],
      "name": "getGiffBlock",
      "outputs": [
        {
          "name": "",
          "type": "bool"
        }
      ],
      "payable": false,
      "stateMutability": "view",
      "type": "function"
    },
    {
      "constant": true,
      "inputs": [
        {
          "name": "_to",
          "type": "address"
        }
      ],
      "name": "getOwnerGennezise",
      "outputs": [
        {
          "name": "",
          "type": "bool"
        }
      ],
      "payable": false,
      "stateMutability": "view",
      "type": "function"
    },
    {
      "constant": true,
      "inputs": [
        {
          "name": "_bunny",
          "type": "uint32"
        }
      ],
      "name": "getBunny",
      "outputs": [
        {
          "name": "mother",
          "type": "uint32"
        },
        {
          "name": "sire",
          "type": "uint32"
        },
        {
          "name": "birthblock",
          "type": "uint256"
        },
        {
          "name": "birthCount",
          "type": "uint256"
        },
        {
          "name": "birthLastTime",
          "type": "uint256"
        },
        {
          "name": "role",
          "type": "uint256"
        },
        {
          "name": "genome",
          "type": "uint256"
        },
        {
          "name": "interbreed",
          "type": "bool"
        },
        {
          "name": "leftTime",
          "type": "uint256"
        },
        {
          "name": "lastTime",
          "type": "uint256"
        },
        {
          "name": "price",
          "type": "uint256"
        },
        {
          "name": "motherSumm",
          "type": "uint256"
        }
      ],
      "payable": false,
      "stateMutability": "view",
      "type": "function"
    },
    {
      "constant": true,
      "inputs": [
        {
          "name": "_bunny",
          "type": "uint32"
        }
      ],
      "name": "getBreed",
      "outputs": [
        {
          "name": "interbreed",
          "type": "bool"
        }
      ],
      "payable": false,
      "stateMutability": "view",
      "type": "function"
    },
    {
      "constant": true,
      "inputs": [
        {
          "name": "_mother",
          "type": "uint32"
        }
      ],
      "name": "getcoolduwn",
      "outputs": [
        {
          "name": "lastTime",
          "type": "uint256"
        },
        {
          "name": "cd",
          "type": "uint256"
        },
        {
          "name": "lefttime",
          "type": "uint256"
        }
      ],
      "payable": false,
      "stateMutability": "view",
      "type": "function"
    }
  ],
  "bytecode": "0x608060405273982a49414fd95e3268d3559540a67b03e40acd64600460006101000a81548173ffffffffffffffffffffffffffffffffffffffff021916908373ffffffffffffffffffffffffffffffffffffffff1602179055506000600460146101000a81548160ff0219169083151502179055506601c6bf52634000600555600560065560006008556001600a556109c4600b55600554600102600c556000600d60006101000a81548160ff02191690831515021790555061018060405190810160405280603c63ffffffff1663ffffffff168152602001607863ffffffff1663ffffffff16815260200160f063ffffffff1663ffffffff1681526020016101e063ffffffff1663ffffffff1681526020016103c063ffffffff1663ffffffff16815260200161078063ffffffff1663ffffffff168152602001610e1063ffffffff1663ffffffff168152602001611c2063ffffffff1663ffffffff16815260200161384063ffffffff1663ffffffff16815260200161708063ffffffff1663ffffffff16815260200161e10063ffffffff1663ffffffff1681526020016201518063ffffffff1663ffffffff16815250601590600c620001c39291906200039b565b506000601e556000601f60146101000a81548160ff021916908315150217905550348015620001f157600080fd5b50336000806101000a81548173ffffffffffffffffffffffffffffffffffffffff021916908373ffffffffffffffffffffffffffffffffffffffff16021790555033600260006101000a81548173ffffffffffffffffffffffffffffffffffffffff021916908373ffffffffffffffffffffffffffffffffffffffff16021790555033600160006101000a81548173ffffffffffffffffffffffffffffffffffffffff021916908373ffffffffffffffffffffffffffffffffffffffff160217905550620002f0600460009054906101000a900473ffffffffffffffffffffffffffffffffffffffff1662000312640100000000026401000000009004565b506001601f60146101000a81548160ff0219169083151502179055506200047b565b600081600360006101000a81548173ffffffffffffffffffffffffffffffffffffffff021916908373ffffffffffffffffffffffffffffffffffffffff16021790555081601f60006101000a81548173ffffffffffffffffffffffffffffffffffffffff021916908373ffffffffffffffffffffffffffffffffffffffff160217905550919050565b82600c600701600890048101928215620004325791602002820160005b83821115620003fe57835183826101000a81548163ffffffff021916908363ffffffff1602179055509260200192600401602081600301049283019260010302620003b8565b8015620004305782816101000a81549063ffffffff0219169055600401602081600301049283019260010302620003fe565b505b50905062000441919062000445565b5090565b6200047891905b808211156200047457600081816101000a81549063ffffffff0219169055506001016200044c565b5090565b90565b6131f3806200048b6000396000f3006080604052600436106102b4576000357c0100000000000000000000000000000000000000000000000000000000900463ffffffff16806303602e9e146102b957806305caca6c14610310578063068734181461035357806306fdde03146103a85780630847c7a21461043857806309828a471461047f57806312448c32146104ae578063146c1b5e1461050b57806314c588de1461055257806314f1cf0c1461057f57806318160ddd146105f2578063193d5b771461061d5780631e923f1b146106685780631ee55080146106bf57806323b7ec3b146107065780632573751f1461077957806327904ee0146107d05780632a335c1714610817578063335061151461085e5780633c9ff0121461088d5780633ec27c4a146108b8578063433bd924146108e55780634b72bbaf146109305780634e2fd44e146109775780634fd839c6146109d257806359dc2eec14610a195780635ceb8bc814610a9c578063625101d514610acb5780636b53305714610b2257806370a0823114610b6957806370a7e2dd14610bc057806370d4d7b414610c705780637214d6c314610c9b5780637230ef7f14610cca578063731f49b714610cf557806374479db014610d2c5780637759187f14610d5b5780637878b66a14610da25780637cbd544414610dd15780637ea2bbac14610e005780638009748414610e5b5780638231ee9814610eae57806384269ed914610ed9578063847ec2de14610f6457806395d89b4114610f8f5780639d6fac6f1461101f578063a7e945421461106c578063ad5a157d146110d7578063c17c045614611102578063d00dbcb014611159578063dc17c9ca146111c6578063df4b297014611265578063eea23d8a146112d4578063f2fde38b14611301578063f3cee12914611344578063f62884221461139b578063fae8c29e146113c6578063fdaacf1b146113dd575b600080fd5b3480156102c557600080fd5b506102ce611420565b604051808273ffffffffffffffffffffffffffffffffffffffff1673ffffffffffffffffffffffffffffffffffffffff16815260200191505060405180910390f35b34801561031c57600080fd5b50610351600480360381019080803573ffffffffffffffffffffffffffffffffffffffff1690602001909291905050506114a5565b005b34801561035f57600080fd5b50610384600480360381019080803563ffffffff16906020019092919050505061157b565b60405180848152602001838152602001828152602001935050505060405180910390f35b3480156103b457600080fd5b506103bd61163d565b6040518080602001828103825283818151815260200191508051906020019080838360005b838110156103fd5780820151818401526020810190506103e2565b50505050905090810190601f16801561042a5780820380516001836020036101000a031916815260200191505b509250505060405180910390f35b34801561044457600080fd5b50610469600480360381019080803563ffffffff169060200190929190505050611676565b6040518082815260200191505060405180910390f35b34801561048b57600080fd5b5061049461168e565b604051808215151515815260200191505060405180910390f35b3480156104ba57600080fd5b506104e9600480360381019080803563ffffffff169060200190929190803590602001909291905050506116a1565b604051808263ffffffff1663ffffffff16815260200191505060405180910390f35b34801561051757600080fd5b5061053c600480360381019080803563ffffffff1690602001909291905050506116df565b6040518082815260200191505060405180910390f35b34801561055e57600080fd5b5061057d600480360381019080803590602001909291905050506116f7565b005b34801561058b57600080fd5b506105b0600480360381019080803563ffffffff16906020019092919050505061175c565b604051808273ffffffffffffffffffffffffffffffffffffffff1673ffffffffffffffffffffffffffffffffffffffff16815260200191505060405180910390f35b3480156105fe57600080fd5b5061060761178f565b6040518082815260200191505060405180910390f35b34801561062957600080fd5b5061064e600480360381019080803563ffffffff169060200190929190505050611799565b604051808215151515815260200191505060405180910390f35b34801561067457600080fd5b5061067d6117d0565b604051808273ffffffffffffffffffffffffffffffffffffffff1673ffffffffffffffffffffffffffffffffffffffff16815260200191505060405180910390f35b3480156106cb57600080fd5b506106f0600480360381019080803563ffffffff1690602001909291905050506117f6565b6040518082815260200191505060405180910390f35b34801561071257600080fd5b50610737600480360381019080803563ffffffff16906020019092919050505061181f565b604051808273ffffffffffffffffffffffffffffffffffffffff1673ffffffffffffffffffffffffffffffffffffffff16815260200191505060405180910390f35b34801561078557600080fd5b506107ae6004803603810190808035906020019092919080359060200190929190505050611868565b604051808263ffffffff1663ffffffff16815260200191505060405180910390f35b3480156107dc57600080fd5b50610801600480360381019080803563ffffffff1690602001909291905050506118b0565b6040518082815260200191505060405180910390f35b34801561082357600080fd5b50610848600480360381019080803563ffffffff169060200190929190505050611934565b6040518082815260200191505060405180910390f35b34801561086a57600080fd5b5061087361195d565b604051808215151515815260200191505060405180910390f35b34801561089957600080fd5b506108a26119e8565b6040518082815260200191505060405180910390f35b3480156108c457600080fd5b506108e3600480360381019080803590602001909291905050506119ee565b005b3480156108f157600080fd5b50610916600480360381019080803563ffffffff169060200190929190505050611a53565b604051808215151515815260200191505060405180910390f35b34801561093c57600080fd5b50610961600480360381019080803563ffffffff169060200190929190505050611b56565b6040518082815260200191505060405180910390f35b34801561098357600080fd5b506109b8600480360381019080803573ffffffffffffffffffffffffffffffffffffffff169060200190929190505050611c44565b604051808215151515815260200191505060405180910390f35b3480156109de57600080fd5b50610a03600480360381019080803563ffffffff169060200190929190505050611ccd565b6040518082815260200191505060405180910390f35b348015610a2557600080fd5b50610a4460048036038101908080359060200190929190505050611cf6565b604051808863ffffffff1663ffffffff1681526020018763ffffffff1663ffffffff16815260200186815260200185815260200184815260200183815260200182815260200197505050505050505060405180910390f35b348015610aa857600080fd5b50610ab1611d67565b604051808215151515815260200191505060405180910390f35b348015610ad757600080fd5b50610ae0611e36565b604051808273ffffffffffffffffffffffffffffffffffffffff1673ffffffffffffffffffffffffffffffffffffffff16815260200191505060405180910390f35b348015610b2e57600080fd5b50610b53600480360381019080803563ffffffff169060200190929190505050611ebb565b6040518082815260200191505060405180910390f35b348015610b7557600080fd5b50610baa600480360381019080803573ffffffffffffffffffffffffffffffffffffffff169060200190929190505050611ed3565b6040518082815260200191505060405180910390f35b348015610bcc57600080fd5b50610bf1600480360381019080803563ffffffff169060200190929190505050611f1f565b604051808d63ffffffff1663ffffffff1681526020018c63ffffffff1663ffffffff1681526020018b81526020018a8152602001898152602001888152602001878152602001861515151581526020018581526020018481526020018381526020018281526020019c5050505050505050505050505060405180910390f35b348015610c7c57600080fd5b50610c85612130565b6040518082815260200191505060405180910390f35b348015610ca757600080fd5b50610cb0612136565b604051808215151515815260200191505060405180910390f35b348015610cd657600080fd5b50610cdf61213f565b6040518082815260200191505060405180910390f35b348015610d0157600080fd5b50610d0a612145565b604051808263ffffffff1663ffffffff16815260200191505060405180910390f35b348015610d3857600080fd5b50610d4161215b565b604051808215151515815260200191505060405180910390f35b348015610d6757600080fd5b50610d8c600480360381019080803563ffffffff16906020019092919050505061216e565b6040518082815260200191505060405180910390f35b348015610dae57600080fd5b50610db7612186565b604051808215151515815260200191505060405180910390f35b348015610ddd57600080fd5b50610de661219e565b604051808215151515815260200191505060405180910390f35b348015610e0c57600080fd5b50610e41600480360381019080803573ffffffffffffffffffffffffffffffffffffffff169060200190929190505050612266565b604051808215151515815260200191505060405180910390f35b348015610e6757600080fd5b50610eac600480360381019080803573ffffffffffffffffffffffffffffffffffffffff169060200190929190803563ffffffff1690602001909291905050506122bc565b005b348015610eba57600080fd5b50610ec36124b9565b6040518082815260200191505060405180910390f35b348015610ee557600080fd5b50610f4a600480360381019080803573ffffffffffffffffffffffffffffffffffffffff169060200190929190803573ffffffffffffffffffffffffffffffffffffffff169060200190929190803563ffffffff1690602001909291905050506124bf565b604051808215151515815260200191505060405180910390f35b348015610f7057600080fd5b50610f79612680565b6040518082815260200191505060405180910390f35b348015610f9b57600080fd5b50610fa4612686565b6040518080602001828103825283818151815260200191508051906020019080838360005b83811015610fe4578082015181840152602081019050610fc9565b50505050905090810190601f1680156110115780820380516001836020036101000a031916815260200191505b509250505060405180910390f35b34801561102b57600080fd5b5061104a600480360381019080803590602001909291905050506126bf565b604051808263ffffffff1663ffffffff16815260200191505060405180910390f35b34801561107857600080fd5b506110bd600480360381019080803573ffffffffffffffffffffffffffffffffffffffff169060200190929190803563ffffffff1690602001909291905050506126ee565b604051808215151515815260200191505060405180910390f35b3480156110e357600080fd5b506110ec6126f9565b6040518082815260200191505060405180910390f35b34801561110e57600080fd5b506111176126ff565b604051808273ffffffffffffffffffffffffffffffffffffffff1673ffffffffffffffffffffffffffffffffffffffff16815260200191505060405180910390f35b34801561116557600080fd5b506111a4600480360381019080803573ffffffffffffffffffffffffffffffffffffffff16906020019092919080359060200190929190505050612724565b604051808263ffffffff1663ffffffff16815260200191505060405180910390f35b3480156111d257600080fd5b50611207600480360381019080803573ffffffffffffffffffffffffffffffffffffffff16906020019092919050505061276c565b6040518083815260200180602001828103825283818151815260200191508051906020019060200280838360005b83811015611250578082015181840152602081019050611235565b50505050905001935050505060405180910390f35b34801561127157600080fd5b50611296600480360381019080803563ffffffff169060200190929190505050612876565b6040518082600560200280838360005b838110156112c15780820151818401526020810190506112a6565b5050505090500191505060405180910390f35b3480156112e057600080fd5b506112ff6004803603810190808035906020019092919050505061290c565b005b34801561130d57600080fd5b50611342600480360381019080803573ffffffffffffffffffffffffffffffffffffffff169060200190929190505050612971565b005b34801561135057600080fd5b50611359612a46565b604051808273ffffffffffffffffffffffffffffffffffffffff1673ffffffffffffffffffffffffffffffffffffffff16815260200191505060405180910390f35b3480156113a757600080fd5b506113b0612acb565b6040518082815260200191505060405180910390f35b3480156113d257600080fd5b506113db612ad1565b005b3480156113e957600080fd5b5061141e600480360381019080803573ffffffffffffffffffffffffffffffffffffffff169060200190929190505050612b58565b005b60008060009054906101000a900473ffffffffffffffffffffffffffffffffffffffff1673ffffffffffffffffffffffffffffffffffffffff163373ffffffffffffffffffffffffffffffffffffffff1614151561147d57600080fd5b600360009054906101000a900473ffffffffffffffffffffffffffffffffffffffff16905090565b6000809054906101000a900473ffffffffffffffffffffffffffffffffffffffff1673ffffffffffffffffffffffffffffffffffffffff163373ffffffffffffffffffffffffffffffffffffffff1614151561150057600080fd5b600073ffffffffffffffffffffffffffffffffffffffff168173ffffffffffffffffffffffffffffffffffffffff161415156115785780600260006101000a81548173ffffffffffffffffffffffffffffffffffffffff021916908373ffffffffffffffffffffffffffffffffffffffff1602179055505b50565b600080600060176001850363ffffffff1681548110151561159857fe5b9060005260206000209060060201600201549150600e8211156115ba57600e91505b60176001850363ffffffff168154811015156115d257fe5b906000526020600020906006020160030154601583600c811015156115f357fe5b600891828204019190066004029054906101000a900463ffffffff1663ffffffff1601925042831115611636576116334284612c2e90919063ffffffff16565b90505b9193909250565b6040805190810160405280600d81526020017f43727970746f526162626974730000000000000000000000000000000000000081525081565b60126020528060005260406000206000915090505481565b600d60009054906101000a900460ff1681565b600f602052816000526040600020816005811015156116bc57fe5b60089182820401919006600402915091509054906101000a900463ffffffff1681565b60106020528060005260406000206000915090505481565b6000809054906101000a900473ffffffffffffffffffffffffffffffffffffffff1673ffffffffffffffffffffffffffffffffffffffff163373ffffffffffffffffffffffffffffffffffffffff1614151561175257600080fd5b80600b8190555050565b60186020528060005260406000206000915054906101000a900473ffffffffffffffffffffffffffffffffffffffff1681565b6000601e54905090565b6000601c60008363ffffffff1663ffffffff16815260200190815260200160002060009054906101000a900460ff16159050919050565b600460009054906101000a900473ffffffffffffffffffffffffffffffffffffffff1681565b6000601060008363ffffffff1663ffffffff168152602001908152602001600020549050919050565b6000601860008363ffffffff1663ffffffff16815260200190815260200160002060009054906101000a900473ffffffffffffffffffffffffffffffffffffffff169050919050565b60136020528160005260406000208181548110151561188357fe5b9060005260206000209060089182820401919006600402915091509054906101000a900463ffffffff1681565b600080600090505b600581101561192e576000600f60008563ffffffff1663ffffffff168152602001908152602001600020826005811015156118ef57fe5b600891828204019190066004029054906101000a900463ffffffff1663ffffffff161415156119215781806001019250505b80806001019150506118b8565b50919050565b6000600e60008363ffffffff1663ffffffff168152602001908152602001600020549050919050565b60008060009054906101000a900473ffffffffffffffffffffffffffffffffffffffff1673ffffffffffffffffffffffffffffffffffffffff163373ffffffffffffffffffffffffffffffffffffffff161415156119ba57600080fd5b600460149054906101000a900460ff1615600460146101000a81548160ff0219169083151502179055905090565b600a5481565b6000809054906101000a900473ffffffffffffffffffffffffffffffffffffffff1673ffffffffffffffffffffffffffffffffffffffff163373ffffffffffffffffffffffffffffffffffffffff16141515611a4957600080fd5b80600a8190555050565b60008060008060018503945060008563ffffffff161415611a7357611b4e565b60178563ffffffff16815481101515611a8857fe5b906000526020600020906006020160030154925060178563ffffffff16815481101515611ab157fe5b9060005260206000209060060201600201549150601582600c81101515611ad457fe5b600891828204019190066004029054906101000a900463ffffffff1663ffffffff169050611b0b8382612c4790919063ffffffff16565b9050428111158015611b435750600060178663ffffffff16815481101515611b2f57fe5b906000526020600020906006020160040154145b15611b4d57600193505b5b505050919050565b600080600080600160176001870363ffffffff16815481101515611b7657fe5b9060005260206000209060060201600401541415611c37576064601260008763ffffffff1663ffffffff16815260200190815260200160002054811515611bb957fe5b049250611bd0601984612c6590919063ffffffff16565b9150611be760065484612c6590919063ffffffff16565b9050611c1b601260008763ffffffff1663ffffffff1681526020019081526020016000205483612c4790919063ffffffff16565b9150611c308183612c4790919063ffffffff16565b9350611c3c565b600093505b505050919050565b600081600360006101000a81548173ffffffffffffffffffffffffffffffffffffffff021916908373ffffffffffffffffffffffffffffffffffffffff16021790555081601f60006101000a81548173ffffffffffffffffffffffffffffffffffffffff021916908373ffffffffffffffffffffffffffffffffffffffff160217905550919050565b6000601460008363ffffffff1663ffffffff168152602001908152602001600020549050919050565b601781815481101515611d0557fe5b90600052602060002090600602016000915090508060000160009054906101000a900463ffffffff16908060000160049054906101000a900463ffffffff16908060010154908060020154908060030154908060040154908060050154905087565b6000600260009054906101000a900473ffffffffffffffffffffffffffffffffffffffff1673ffffffffffffffffffffffffffffffffffffffff163373ffffffffffffffffffffffffffffffffffffffff161480611e1157506000809054906101000a900473ffffffffffffffffffffffffffffffffffffffff1673ffffffffffffffffffffffffffffffffffffffff163373ffffffffffffffffffffffffffffffffffffffff16145b15611e1f5760019050611e33565b600d60009054906101000a900460ff161590505b90565b60008060009054906101000a900473ffffffffffffffffffffffffffffffffffffffff1673ffffffffffffffffffffffffffffffffffffffff163373ffffffffffffffffffffffffffffffffffffffff16141515611e9357600080fd5b600160009054906101000a900473ffffffffffffffffffffffffffffffffffffffff16905090565b600e6020528060005260406000206000915090505481565b6000601960008373ffffffffffffffffffffffffffffffffffffffff1673ffffffffffffffffffffffffffffffffffffffff168152602001908152602001600020805490509050919050565b600080600080600080600080600080600080611f3a8d611b56565b915060018d039c5060178d63ffffffff16815481101515611f5757fe5b906000526020600020906006020160000160009054906101000a900463ffffffff169b5060178d63ffffffff16815481101515611f9057fe5b906000526020600020906006020160000160049054906101000a900463ffffffff169a5060178d63ffffffff16815481101515611fc957fe5b906000526020600020906006020160010154995060178d63ffffffff16815481101515611ff257fe5b906000526020600020906006020160020154985060178d63ffffffff1681548110151561201b57fe5b906000526020600020906006020160030154975060178d63ffffffff1681548110151561204457fe5b906000526020600020906006020160040154965060178d63ffffffff1681548110151561206d57fe5b9060005260206000209060060201600501549550600e89111561208f57600e98505b601060008e63ffffffff1663ffffffff168152602001908152602001600020549050601589600c811015156120c057fe5b600891828204019190066004029054906101000a900463ffffffff1663ffffffff1692506120f78884612c4790919063ffffffff16565b9250428311151561210b5760019450612121565b61211e4284612c2e90919063ffffffff16565b93505b91939597999b5091939597999b565b600b5481565b60006001905090565b60085481565b600760009054906101000a900463ffffffff1681565b601f60149054906101000a900460ff1681565b60116020528060005260406000206000915090505481565b6000600460149054906101000a900460ff1615905090565b6000601f60009054906101000a900473ffffffffffffffffffffffffffffffffffffffff1673ffffffffffffffffffffffffffffffffffffffff1663ccb0893d6040518163ffffffff167c0100000000000000000000000000000000000000000000000000000000028152600401602060405180830381600087803b15801561222657600080fd5b505af115801561223a573d6000803e3d6000fd5b505050506040513d602081101561225057600080fd5b8101908080519060200190929190505050905090565b6000601d60008373ffffffffffffffffffffffffffffffffffffffff1673ffffffffffffffffffffffffffffffffffffffff16815260200190815260200160002060009054906101000a900460ff169050919050565b600080339150601860008463ffffffff1663ffffffff16815260200190815260200160002060009054906101000a900473ffffffffffffffffffffffffffffffffffffffff1690503373ffffffffffffffffffffffffffffffffffffffff16601860008563ffffffff1663ffffffff16815260200190815260200160002060009054906101000a900473ffffffffffffffffffffffffffffffffffffffff1673ffffffffffffffffffffffffffffffffffffffff1614151561237d57600080fd5b8373ffffffffffffffffffffffffffffffffffffffff168273ffffffffffffffffffffffffffffffffffffffff16141515156123b857600080fd5b600073ffffffffffffffffffffffffffffffffffffffff168473ffffffffffffffffffffffffffffffffffffffff16141515156123f457600080fd5b6123fe8184612ca0565b6124088484612fde565b7f0daf680c3f528a8760b5142fe1f6f80d5f4ea18bb76f347a7a44a2d565c2b7dc818585604051808473ffffffffffffffffffffffffffffffffffffffff1673ffffffffffffffffffffffffffffffffffffffff1681526020018373ffffffffffffffffffffffffffffffffffffffff1673ffffffffffffffffffffffffffffffffffffffff1681526020018263ffffffff1663ffffffff168152602001935050505060405180910390a150505050565b60095481565b600080601860008463ffffffff1663ffffffff16815260200190815260200160002060009054906101000a900473ffffffffffffffffffffffffffffffffffffffff1690508473ffffffffffffffffffffffffffffffffffffffff168173ffffffffffffffffffffffffffffffffffffffff1614151561253e57600080fd5b8373ffffffffffffffffffffffffffffffffffffffff168173ffffffffffffffffffffffffffffffffffffffff161415151561257957600080fd5b600073ffffffffffffffffffffffffffffffffffffffff168473ffffffffffffffffffffffffffffffffffffffff16141515156125b557600080fd5b6125bf8184612ca0565b6125c98484612fde565b7f0daf680c3f528a8760b5142fe1f6f80d5f4ea18bb76f347a7a44a2d565c2b7dc818585604051808473ffffffffffffffffffffffffffffffffffffffff1673ffffffffffffffffffffffffffffffffffffffff1681526020018373ffffffffffffffffffffffffffffffffffffffff1673ffffffffffffffffffffffffffffffffffffffff1681526020018263ffffffff1663ffffffff168152602001935050505060405180910390a160019150509392505050565b601e5481565b6040805190810160405280600381526020017f435242000000000000000000000000000000000000000000000000000000000081525081565b601581600c811015156126ce57fe5b60089182820401919006600402915054906101000a900463ffffffff1681565b600080905092915050565b600c5481565b6000809054906101000a900473ffffffffffffffffffffffffffffffffffffffff1681565b60196020528160005260406000208181548110151561273f57fe5b9060005260206000209060089182820401919006600402915091509054906101000a900463ffffffff1681565b60006060601960008473ffffffffffffffffffffffffffffffffffffffff1673ffffffffffffffffffffffffffffffffffffffff168152602001908152602001600020805490509150601960008473ffffffffffffffffffffffffffffffffffffffff1673ffffffffffffffffffffffffffffffffffffffff16815260200190815260200160002080548060200260200160405190810160405280929190818152602001828054801561286a57602002820191906000526020600020906000905b82829054906101000a900463ffffffff1663ffffffff168152602001906004019060208260030104928301926001038202915080841161282d5790505b50505050509050915091565b61287e613145565b600f60008363ffffffff1663ffffffff168152602001908152602001600020600580602002604051908101604052809291908260058015612900576020028201916000905b82829054906101000a900463ffffffff1663ffffffff16815260200190600401906020826003010492830192600103820291508084116128c35790505b50505050509050919050565b6000809054906101000a900473ffffffffffffffffffffffffffffffffffffffff1673ffffffffffffffffffffffffffffffffffffffff163373ffffffffffffffffffffffffffffffffffffffff1614151561296757600080fd5b80600c8190555050565b6000809054906101000a900473ffffffffffffffffffffffffffffffffffffffff1673ffffffffffffffffffffffffffffffffffffffff163373ffffffffffffffffffffffffffffffffffffffff161415156129cc57600080fd5b600073ffffffffffffffffffffffffffffffffffffffff168173ffffffffffffffffffffffffffffffffffffffff16141515612a4357806000806101000a81548173ffffffffffffffffffffffffffffffffffffffff021916908373ffffffffffffffffffffffffffffffffffffffff1602179055505b50565b60008060009054906101000a900473ffffffffffffffffffffffffffffffffffffffff1673ffffffffffffffffffffffffffffffffffffffff163373ffffffffffffffffffffffffffffffffffffffff16141515612aa357600080fd5b600260009054906101000a900473ffffffffffffffffffffffffffffffffffffffff16905090565b60065481565b6000809054906101000a900473ffffffffffffffffffffffffffffffffffffffff1673ffffffffffffffffffffffffffffffffffffffff163373ffffffffffffffffffffffffffffffffffffffff16141515612b2c57600080fd5b600d60009054906101000a900460ff1615600d60006101000a81548160ff021916908315150217905550565b6000809054906101000a900473ffffffffffffffffffffffffffffffffffffffff1673ffffffffffffffffffffffffffffffffffffffff163373ffffffffffffffffffffffffffffffffffffffff16141515612bb357600080fd5b600073ffffffffffffffffffffffffffffffffffffffff168173ffffffffffffffffffffffffffffffffffffffff16141515612c2b5780600160006101000a81548173ffffffffffffffffffffffffffffffffffffffff021916908373ffffffffffffffffffffffffffffffffffffffff1602179055505b50565b6000828211151515612c3c57fe5b818303905092915050565b6000808284019050838110151515612c5b57fe5b8091505092915050565b6000806000841415612c7a5760009150612c99565b8284029050828482811515612c8b57fe5b04141515612c9557fe5b8091505b5092915050565b600080601960008573ffffffffffffffffffffffffffffffffffffffff1673ffffffffffffffffffffffffffffffffffffffff168152602001908152602001600020805490509150600090505b81811015612fd7578263ffffffff16601960008673ffffffffffffffffffffffffffffffffffffffff1673ffffffffffffffffffffffffffffffffffffffff16815260200190815260200160002082815481101515612d4857fe5b90600052602060002090600891828204019190066004029054906101000a900463ffffffff1663ffffffff161415612fca57601960008573ffffffffffffffffffffffffffffffffffffffff1673ffffffffffffffffffffffffffffffffffffffff16815260200190815260200160002081815481101515612dc657fe5b90600052602060002090600891828204019190066004026101000a81549063ffffffff0219169055600082118015612e015750600181038214155b15612f7257601960008573ffffffffffffffffffffffffffffffffffffffff1673ffffffffffffffffffffffffffffffffffffffff16815260200190815260200160002060018303815481101515612e5557fe5b90600052602060002090600891828204019190066004029054906101000a900463ffffffff16601960008673ffffffffffffffffffffffffffffffffffffffff1673ffffffffffffffffffffffffffffffffffffffff16815260200190815260200160002082815481101515612ec757fe5b90600052602060002090600891828204019190066004026101000a81548163ffffffff021916908363ffffffff160217905550601960008573ffffffffffffffffffffffffffffffffffffffff1673ffffffffffffffffffffffffffffffffffffffff16815260200190815260200160002060018303815481101515612f4957fe5b90600052602060002090600891828204019190066004026101000a81549063ffffffff02191690555b601960008573ffffffffffffffffffffffffffffffffffffffff1673ffffffffffffffffffffffffffffffffffffffff168152602001908152602001600020805480919060019003612fc49190613168565b50612fd8565b8080600101915050612ced565b5b50505050565b601960008373ffffffffffffffffffffffffffffffffffffffff1673ffffffffffffffffffffffffffffffffffffffff16815260200190815260200160002081908060018154018082558091505090600182039060005260206000209060089182820401919006600402909192909190916101000a81548163ffffffff021916908363ffffffff160217905550507ffa8e2129ea92b2ced664f0497f946a9596ced2af4bd0950bfccd6c6e2078103a8282604051808373ffffffffffffffffffffffffffffffffffffffff1673ffffffffffffffffffffffffffffffffffffffff1681526020018263ffffffff1663ffffffff1681526020019250505060405180910390a181601860008363ffffffff1663ffffffff16815260200190815260200160002060006101000a81548173ffffffffffffffffffffffffffffffffffffffff021916908373ffffffffffffffffffffffffffffffffffffffff1602179055505050565b60a060405190810160405280600590602082028038833980820191505090505090565b81548183558181111561319d57600701600890048160070160089004836000526020600020918201910161319c91906131a2565b5b505050565b6131c491905b808211156131c05760008160009055506001016131a8565b5090565b905600a165627a7a72305820f87de1739dbbd620c680de2eadcf88a94c4ba6c5132f191048f911de8bfb516a0029",
  "source": "pragma solidity ^0.4.23;\n \nimport \"./BaseRabbit.sol\"; \n\n\n/// @title Interface for contracts conforming to ERC-721: Non-Fungible Tokens\n/// @author Dieter Shirley <dete@axiomzen.co> (https://github.com/dete)\ncontract ERC721 {\n    // Required methods \n \n\n    function ownerOf(uint32 _tokenId) public view returns (address owner);\n    function approve(address _to, uint32 _tokenId) public returns (bool success);\n    function transfer(address _to, uint32 _tokenId) public;\n    function transferFrom(address _from, address _to, uint32 _tokenId) public returns (bool);\n    function totalSupply() public view returns (uint total);\n    function balanceOf(address _owner) public view returns (uint balance);\n\n}\n\n/// @title Interface new rabbits address\ncontract PrivateRabbitInterface {\n    function getNewRabbit(address from)  public view returns (uint);\n    function mixDNK(uint dnkmother, uint dnksire, uint genome)  public view returns (uint);\n    function isUIntPrivate() public pure returns (bool);\n    \n  //  function mixGenesRabbits(uint256 genes1, uint256 genes2, uint256 targetBlock) public returns (uint256);\n}\n\n\n\n\ncontract BodyRabbit is BaseRabbit, ERC721 {\n     \n    uint public totalBunny = 0;\n    string public constant name = \"CryptoRabbits\";\n    string public constant symbol = \"CRB\";\n\n\n    PrivateRabbitInterface privateContract;\n\n    /**\n    * @dev setting up a new address for a private contract\n    */\n    function setPriv(address _privAddress) public returns(bool) {\n        privAddress = _privAddress;\n        privateContract = PrivateRabbitInterface(_privAddress);\n    } \n\n    bool public fcontr = false;\n \n    \n    constructor() public { \n        setPriv(myAddr_test);\n        fcontr = true;\n    }\n\n    function isPriv() public view returns(bool) {\n        return privateContract.isUIntPrivate();\n    }\n\n    modifier checkPrivate() {\n        require(isPriv());\n        _;\n    }\n\n    function ownerOf(uint32 _tokenId) public view returns (address owner) {\n        return rabbitToOwner[_tokenId];\n    }\n\n    function approve(address _to, uint32 _tokenId) public returns (bool) { \n        _to;\n        _tokenId;\n        return false;\n    }\n\n\n    function removeTokenList(address _owner, uint32 _tokenId) internal { \n        uint count = ownerBunnies[_owner].length;\n        for (uint256 i = 0; i < count; i++) {\n            if(ownerBunnies[_owner][i] == _tokenId)\n            { \n                delete ownerBunnies[_owner][i];\n                if(count > 0 && count != (i-1)){\n                    ownerBunnies[_owner][i] = ownerBunnies[_owner][(count-1)];\n                    delete ownerBunnies[_owner][(count-1)];\n                } \n                ownerBunnies[_owner].length--;\n                return;\n            } \n        }\n    }\n    /**\n    * Get the cost of the reward for pairing\n    * @param _tokenId - rabbit that mates\n     */\n    function getSirePrice(uint32 _tokenId) public view returns(uint) {\n        if(rabbits[(_tokenId-1)].role == 1){\n            uint procent = (rabbitSirePrice[_tokenId] / 100);\n            uint res = procent.mul(25);\n            uint system  = procent.mul(commission_system);\n\n            res = res.add(rabbitSirePrice[_tokenId]);\n            return res.add(system); \n        } else {\n            return 0;\n        }\n    }\n\n \n    function addTokenList(address owner,  uint32 _tokenId) internal {\n        ownerBunnies[owner].push( _tokenId);\n        emit OwnerBunnies(owner, _tokenId);\n        rabbitToOwner[_tokenId] = owner; \n    }\n \n\n    function transfer(address _to, uint32 _tokenId) public {\n        address currentOwner = msg.sender;\n        address oldOwner = rabbitToOwner[_tokenId];\n        require(rabbitToOwner[_tokenId] == msg.sender);\n        require(currentOwner != _to);\n        require(_to != address(0));\n        removeTokenList(oldOwner, _tokenId);\n        addTokenList(_to, _tokenId);\n        emit Transfer(oldOwner, _to, _tokenId);\n    }\n\n    function transferFrom(address _from, address _to, uint32 _tokenId) public returns(bool) {\n        address oldOwner = rabbitToOwner[_tokenId];\n        require(oldOwner == _from);\n        require(oldOwner != _to);\n        require(_to != address(0));\n        removeTokenList(oldOwner, _tokenId);\n        addTokenList(_to, _tokenId); \n        emit Transfer (oldOwner, _to, _tokenId);\n        return true;\n    }  \n    \n    function setTimeRangeGen0(uint _sec) public onlyOwner {\n        timeRangeCreateGen0 = _sec;\n    }\n\n\n    function isPauseSave() public view returns(bool) {\n        return !pauseSave;\n    }\n    function isPromoPause() public view returns(bool) {\n        if(msg.sender == ownerServer || msg.sender == ownerCEO){\n            return true;\n        }else{\n            return !promoPause;\n        } \n    }\n\n    function setPauseSave() public onlyOwner  returns(bool) {\n        return pauseSave = !pauseSave;\n    }\n\n    /**\n    * for check\n    *\n    */\n    function isUIntPublic() public pure returns(bool) {\n        return true;\n    }\n\n\n    function getTokenOwner(address owner) public view returns(uint total, uint32[] list) {\n        total = ownerBunnies[owner].length;\n        list = ownerBunnies[owner];\n    } \n\n\n\n    function setRabbitMother(uint32 children, uint32 mother) internal { \n        require(children != mother);\n        if (mother == 0 )\n        {\n            return;\n        }\n        uint32[11] memory pullMother;\n        uint start = 0;\n        for (uint i = 0; i < 5; i++) {\n            if (rabbitMother[mother][i] != 0) {\n              pullMother[start] = uint32(rabbitMother[mother][i]);\n              rabbitMother[mother][i] = 0;\n              start++;\n            } \n        }\n        pullMother[start] = mother;\n        start++;\n        for (uint m = 0; m < 5; m++) {\n             if(start >  5){\n                    rabbitMother[children][m] = pullMother[(m+1)];\n             }else{\n                    rabbitMother[children][m] = pullMother[m];\n             }\n        } \n        setMotherCount(mother);\n    }\n\n      \n\n    function setMotherCount(uint32 _mother) internal returns(uint)  { //internal\n        motherCount[_mother] = motherCount[_mother].add(1);\n        emit EmotherCount(_mother, motherCount[_mother]);\n        return motherCount[_mother];\n    }\n\n\n     function getMotherCount(uint32 _mother) public view returns(uint) { //internal\n        return  motherCount[_mother];\n    }\n\n\n     function getTotalSalaryBunny(uint32 _bunny) public view returns(uint) { //internal\n        return  totalSalaryBunny[_bunny];\n    }\n \n \n    function getRabbitMother( uint32 mother) public view returns(uint32[5]){\n        return rabbitMother[mother];\n    }\n\n     function getRabbitMotherSumm(uint32 mother) public view returns(uint count) { //internal\n        for (uint m = 0; m < 5 ; m++) {\n            if(rabbitMother[mother][m] != 0 ) { \n                count++;\n            }\n        }\n    }\n\n\n\n    function getRabbitDNK(uint32 bunnyid) public view returns(uint) { \n        return mapDNK[bunnyid];\n    }\n     \n    function bytes32ToString(bytes32 x)internal pure returns (string) {\n        bytes memory bytesString = new bytes(32);\n        uint charCount = 0;\n        for (uint j = 0; j < 32; j++) {\n            byte char = byte(bytes32(uint(x) * 2 ** (8 * j)));\n            if (char != 0) {\n                bytesString[charCount] = char;\n                charCount++;\n            }\n        }\n        bytes memory bytesStringTrimmed = new bytes(charCount);\n        for (j = 0; j < charCount; j++) {\n            bytesStringTrimmed[j] = bytesString[j];\n        }\n        return string(bytesStringTrimmed);\n    }\n    \n    function uintToBytes(uint v) internal pure returns (bytes32 ret) {\n        if (v == 0) {\n            ret = '0';\n        } else {\n        while (v > 0) {\n                ret = bytes32(uint(ret) / (2 ** 8));\n                ret |= bytes32(((v % 10) + 48) * 2 ** (8 * 31));\n                v /= 10;\n            }\n        }\n        return ret;\n    }\n\n    function totalSupply() public view returns (uint total) {\n        return totalBunny;\n    }\n\n    function balanceOf(address _owner) public view returns (uint) {\n      //  _owner;\n        return ownerBunnies[_owner].length;\n    }\n\n    function sendMoney(address _to, uint256 _money) internal { \n        _to.transfer((_money/100)*95);\n        ownerMoney.transfer((_money/100)*5); \n    }\n\n    function getGiffBlock(uint32 _bunnyid) public view returns(bool) { \n        return !giffblock[_bunnyid];\n    }\n\n    function getOwnerGennezise(address _to) public view returns(bool) { \n        return ownerGennezise[_to];\n    }\n    \n\n    function getBunny(uint32 _bunny) public view returns(\n        uint32 mother,\n        uint32 sire,\n        uint birthblock,\n        uint birthCount,\n        uint birthLastTime,\n        uint role, \n        uint genome,\n        bool interbreed,\n        uint leftTime,\n        uint lastTime,\n        uint price,\n        uint motherSumm\n        )\n        {\n            price = getSirePrice(_bunny);\n            _bunny = _bunny - 1;\n\n            mother = rabbits[_bunny].mother;\n            sire = rabbits[_bunny].sire;\n            birthblock = rabbits[_bunny].birthblock;\n            birthCount = rabbits[_bunny].birthCount;\n            birthLastTime = rabbits[_bunny].birthLastTime;\n            role = rabbits[_bunny].role;\n            genome = rabbits[_bunny].genome;\n                     \n            if(birthCount > 14) {\n                birthCount = 14;\n            }\n\n            motherSumm = motherCount[_bunny];\n\n            lastTime = uint(cooldowns[birthCount]);\n            lastTime = lastTime.add(birthLastTime);\n            if(lastTime <= now) {\n                interbreed = true;\n            } else {\n                leftTime = lastTime.sub(now);\n            }\n    }\n\n\n    function getBreed(uint32 _bunny) public view returns(\n        bool interbreed\n        )\n        {\n        _bunny = _bunny - 1;\n        if(_bunny == 0) {\n            return;\n        }\n        uint birtTime = rabbits[_bunny].birthLastTime;\n        uint birthCount = rabbits[_bunny].birthCount;\n\n        uint  lastTime = uint(cooldowns[birthCount]);\n        lastTime = lastTime.add(birtTime);\n\n        if(lastTime <= now && rabbits[_bunny].role == 0 ) {\n            interbreed = true;\n        } \n    }\n    /**\n     *  we get cooldown\n     */\n    function getcoolduwn(uint32 _mother) public view returns(uint lastTime, uint cd, uint lefttime) {\n        cd = rabbits[(_mother-1)].birthCount;\n        if(cd > 14) {\n            cd = 14;\n        }\n        // time when I can give birth\n        lastTime = (cooldowns[cd] + rabbits[(_mother-1)].birthLastTime);\n        if(lastTime > now) {\n            // I can not give birth, it remains until delivery\n            lefttime = lastTime.sub(now);\n        }\n    }\n\n}",
  "sourcePath": "/home/koras/contracts/publicRabbit/pub/contracts/BodyRabbit.sol",
  "compiler": {
    "name": "solc",
    "version": "0.4.23+commit.124ca40d.Emscripten.clang"
  },
  "schemaVersion": "2.0.0",
  "updatedAt": "2018-08-18T15:23:05.003Z"
}