{
  "contractName": "BunnyPages",
  "abi": [
    {
      "constant": false,
      "inputs": [
        {
          "name": "rabbitid",
          "type": "uint32"
        },
        {
          "name": "description",
          "type": "string"
        }
      ],
      "name": "setDescriptionRabbit",
      "outputs": [],
      "payable": false,
      "stateMutability": "nonpayable",
      "type": "function"
    },
    {
      "constant": true,
      "inputs": [],
      "name": "getPrivAddress",
      "outputs": [
        {
          "name": "",
          "type": "address"
        }
      ],
      "payable": false,
      "stateMutability": "view",
      "type": "function"
    },
    {
      "constant": true,
      "inputs": [
        {
          "name": "_rabbitid",
          "type": "uint32"
        }
      ],
      "name": "getDescriptionRabbit",
      "outputs": [
        {
          "name": "",
          "type": "string"
        }
      ],
      "payable": false,
      "stateMutability": "view",
      "type": "function"
    },
    {
      "constant": false,
      "inputs": [
        {
          "name": "add",
          "type": "address"
        }
      ],
      "name": "transferOwnershipServer",
      "outputs": [],
      "payable": false,
      "stateMutability": "nonpayable",
      "type": "function"
    },
    {
      "constant": true,
      "inputs": [
        {
          "name": "_mother",
          "type": "uint32"
        }
      ],
      "name": "getcoolduwn",
      "outputs": [
        {
          "name": "lastTime",
          "type": "uint256"
        },
        {
          "name": "cd",
          "type": "uint256"
        },
        {
          "name": "lefttime",
          "type": "uint256"
        }
      ],
      "payable": false,
      "stateMutability": "view",
      "type": "function"
    },
    {
      "constant": true,
      "inputs": [],
      "name": "name",
      "outputs": [
        {
          "name": "",
          "type": "string"
        }
      ],
      "payable": false,
      "stateMutability": "view",
      "type": "function"
    },
    {
      "constant": true,
      "inputs": [
        {
          "name": "",
          "type": "uint32"
        }
      ],
      "name": "rabbitSirePrice",
      "outputs": [
        {
          "name": "",
          "type": "uint256"
        }
      ],
      "payable": false,
      "stateMutability": "view",
      "type": "function"
    },
    {
      "constant": true,
      "inputs": [],
      "name": "promoPause",
      "outputs": [
        {
          "name": "",
          "type": "bool"
        }
      ],
      "payable": false,
      "stateMutability": "view",
      "type": "function"
    },
    {
      "constant": true,
      "inputs": [
        {
          "name": "",
          "type": "uint32"
        },
        {
          "name": "",
          "type": "uint256"
        }
      ],
      "name": "rabbitMother",
      "outputs": [
        {
          "name": "",
          "type": "uint32"
        }
      ],
      "payable": false,
      "stateMutability": "view",
      "type": "function"
    },
    {
      "constant": true,
      "inputs": [
        {
          "name": "",
          "type": "uint32"
        }
      ],
      "name": "motherCount",
      "outputs": [
        {
          "name": "",
          "type": "uint256"
        }
      ],
      "payable": false,
      "stateMutability": "view",
      "type": "function"
    },
    {
      "constant": false,
      "inputs": [
        {
          "name": "_promoGen0",
          "type": "uint256"
        }
      ],
      "name": "setPromoGen0",
      "outputs": [],
      "payable": false,
      "stateMutability": "nonpayable",
      "type": "function"
    },
    {
      "constant": true,
      "inputs": [
        {
          "name": "",
          "type": "uint32"
        }
      ],
      "name": "rabbitToOwner",
      "outputs": [
        {
          "name": "",
          "type": "address"
        }
      ],
      "payable": false,
      "stateMutability": "view",
      "type": "function"
    },
    {
      "constant": false,
      "inputs": [
        {
          "name": "rabbitid",
          "type": "uint32"
        },
        {
          "name": "name",
          "type": "string"
        }
      ],
      "name": "setNameRabbit",
      "outputs": [],
      "payable": false,
      "stateMutability": "nonpayable",
      "type": "function"
    },
    {
      "constant": true,
      "inputs": [],
      "name": "totalSupply",
      "outputs": [
        {
          "name": "total",
          "type": "uint256"
        }
      ],
      "payable": false,
      "stateMutability": "view",
      "type": "function"
    },
    {
      "constant": true,
      "inputs": [
        {
          "name": "_bunnyid",
          "type": "uint32"
        }
      ],
      "name": "getGiffBlock",
      "outputs": [
        {
          "name": "",
          "type": "bool"
        }
      ],
      "payable": false,
      "stateMutability": "view",
      "type": "function"
    },
    {
      "constant": true,
      "inputs": [],
      "name": "myAddr_test",
      "outputs": [
        {
          "name": "",
          "type": "address"
        }
      ],
      "payable": false,
      "stateMutability": "view",
      "type": "function"
    },
    {
      "constant": true,
      "inputs": [
        {
          "name": "_mother",
          "type": "uint32"
        }
      ],
      "name": "getMotherCount",
      "outputs": [
        {
          "name": "",
          "type": "uint256"
        }
      ],
      "payable": false,
      "stateMutability": "view",
      "type": "function"
    },
    {
      "constant": true,
      "inputs": [
        {
          "name": "_tokenId",
          "type": "uint32"
        }
      ],
      "name": "ownerOf",
      "outputs": [
        {
          "name": "owner",
          "type": "address"
        }
      ],
      "payable": false,
      "stateMutability": "view",
      "type": "function"
    },
    {
      "constant": true,
      "inputs": [
        {
          "name": "",
          "type": "uint256"
        },
        {
          "name": "",
          "type": "uint256"
        }
      ],
      "name": "sireGenom",
      "outputs": [
        {
          "name": "",
          "type": "uint32"
        }
      ],
      "payable": false,
      "stateMutability": "view",
      "type": "function"
    },
    {
      "constant": true,
      "inputs": [
        {
          "name": "mother",
          "type": "uint32"
        }
      ],
      "name": "getRabbitMotherSumm",
      "outputs": [
        {
          "name": "count",
          "type": "uint256"
        }
      ],
      "payable": false,
      "stateMutability": "view",
      "type": "function"
    },
    {
      "constant": true,
      "inputs": [
        {
          "name": "_bunny",
          "type": "uint32"
        }
      ],
      "name": "getTotalSalaryBunny",
      "outputs": [
        {
          "name": "",
          "type": "uint256"
        }
      ],
      "payable": false,
      "stateMutability": "view",
      "type": "function"
    },
    {
      "constant": true,
      "inputs": [
        {
          "name": "_bunnyid",
          "type": "uint32"
        }
      ],
      "name": "currentPrice",
      "outputs": [
        {
          "name": "",
          "type": "uint256"
        }
      ],
      "payable": false,
      "stateMutability": "view",
      "type": "function"
    },
    {
      "constant": false,
      "inputs": [
        {
          "name": "_value",
          "type": "uint256"
        }
      ],
      "name": "getMoney",
      "outputs": [],
      "payable": false,
      "stateMutability": "nonpayable",
      "type": "function"
    },
    {
      "constant": false,
      "inputs": [],
      "name": "setPauseSave",
      "outputs": [
        {
          "name": "",
          "type": "bool"
        }
      ],
      "payable": false,
      "stateMutability": "nonpayable",
      "type": "function"
    },
    {
      "constant": true,
      "inputs": [],
      "name": "timeRangeCreateGen0",
      "outputs": [
        {
          "name": "",
          "type": "uint256"
        }
      ],
      "payable": false,
      "stateMutability": "view",
      "type": "function"
    },
    {
      "constant": false,
      "inputs": [
        {
          "name": "_sec",
          "type": "uint256"
        }
      ],
      "name": "setTimeRangeGen0",
      "outputs": [],
      "payable": false,
      "stateMutability": "nonpayable",
      "type": "function"
    },
    {
      "constant": true,
      "inputs": [
        {
          "name": "rabbitid",
          "type": "uint32"
        }
      ],
      "name": "getNameRabbit",
      "outputs": [
        {
          "name": "",
          "type": "string"
        }
      ],
      "payable": false,
      "stateMutability": "view",
      "type": "function"
    },
    {
      "constant": true,
      "inputs": [
        {
          "name": "_bunny",
          "type": "uint32"
        }
      ],
      "name": "getBreed",
      "outputs": [
        {
          "name": "interbreed",
          "type": "bool"
        }
      ],
      "payable": false,
      "stateMutability": "view",
      "type": "function"
    },
    {
      "constant": false,
      "inputs": [
        {
          "name": "_rabbitid",
          "type": "uint32"
        },
        {
          "name": "price",
          "type": "uint256"
        }
      ],
      "name": "setRabbitSirePrice",
      "outputs": [
        {
          "name": "",
          "type": "bool"
        }
      ],
      "payable": false,
      "stateMutability": "nonpayable",
      "type": "function"
    },
    {
      "constant": true,
      "inputs": [
        {
          "name": "_tokenId",
          "type": "uint32"
        }
      ],
      "name": "getSirePrice",
      "outputs": [
        {
          "name": "",
          "type": "uint256"
        }
      ],
      "payable": false,
      "stateMutability": "view",
      "type": "function"
    },
    {
      "constant": false,
      "inputs": [
        {
          "name": "_privAddress",
          "type": "address"
        }
      ],
      "name": "setPriv",
      "outputs": [
        {
          "name": "",
          "type": "bool"
        }
      ],
      "payable": false,
      "stateMutability": "nonpayable",
      "type": "function"
    },
    {
      "constant": true,
      "inputs": [
        {
          "name": "bunnyid",
          "type": "uint32"
        }
      ],
      "name": "getRabbitDNK",
      "outputs": [
        {
          "name": "",
          "type": "uint256"
        }
      ],
      "payable": false,
      "stateMutability": "view",
      "type": "function"
    },
    {
      "constant": false,
      "inputs": [
        {
          "name": "_money",
          "type": "uint256"
        }
      ],
      "name": "setMoneyRange",
      "outputs": [],
      "payable": false,
      "stateMutability": "nonpayable",
      "type": "function"
    },
    {
      "constant": true,
      "inputs": [
        {
          "name": "",
          "type": "uint256"
        }
      ],
      "name": "rabbits",
      "outputs": [
        {
          "name": "mother",
          "type": "uint32"
        },
        {
          "name": "sire",
          "type": "uint32"
        },
        {
          "name": "birthblock",
          "type": "uint256"
        },
        {
          "name": "birthCount",
          "type": "uint256"
        },
        {
          "name": "birthLastTime",
          "type": "uint256"
        },
        {
          "name": "role",
          "type": "uint256"
        },
        {
          "name": "genome",
          "type": "uint256"
        }
      ],
      "payable": false,
      "stateMutability": "view",
      "type": "function"
    },
    {
      "constant": false,
      "inputs": [
        {
          "name": "_bunnyid",
          "type": "uint32"
        },
        {
          "name": "_money",
          "type": "uint256"
        }
      ],
      "name": "startMarket",
      "outputs": [
        {
          "name": "",
          "type": "uint256"
        }
      ],
      "payable": false,
      "stateMutability": "nonpayable",
      "type": "function"
    },
    {
      "constant": true,
      "inputs": [],
      "name": "isPromoPause",
      "outputs": [
        {
          "name": "",
          "type": "bool"
        }
      ],
      "payable": false,
      "stateMutability": "view",
      "type": "function"
    },
    {
      "constant": false,
      "inputs": [
        {
          "name": "bunnyid",
          "type": "uint32"
        },
        {
          "name": "add",
          "type": "address"
        }
      ],
      "name": "giff",
      "outputs": [],
      "payable": false,
      "stateMutability": "nonpayable",
      "type": "function"
    },
    {
      "constant": true,
      "inputs": [],
      "name": "getOwnerMoney",
      "outputs": [
        {
          "name": "",
          "type": "address"
        }
      ],
      "payable": false,
      "stateMutability": "view",
      "type": "function"
    },
    {
      "constant": true,
      "inputs": [
        {
          "name": "_matron",
          "type": "uint32"
        },
        {
          "name": "_sire",
          "type": "uint32"
        }
      ],
      "name": "getGenomeChildren",
      "outputs": [
        {
          "name": "",
          "type": "uint256"
        }
      ],
      "payable": false,
      "stateMutability": "view",
      "type": "function"
    },
    {
      "constant": true,
      "inputs": [
        {
          "name": "",
          "type": "uint32"
        }
      ],
      "name": "totalSalaryBunny",
      "outputs": [
        {
          "name": "",
          "type": "uint256"
        }
      ],
      "payable": false,
      "stateMutability": "view",
      "type": "function"
    },
    {
      "constant": true,
      "inputs": [
        {
          "name": "_owner",
          "type": "address"
        }
      ],
      "name": "balanceOf",
      "outputs": [
        {
          "name": "",
          "type": "uint256"
        }
      ],
      "payable": false,
      "stateMutability": "view",
      "type": "function"
    },
    {
      "constant": true,
      "inputs": [
        {
          "name": "_bunny",
          "type": "uint32"
        }
      ],
      "name": "getBunny",
      "outputs": [
        {
          "name": "mother",
          "type": "uint32"
        },
        {
          "name": "sire",
          "type": "uint32"
        },
        {
          "name": "birthblock",
          "type": "uint256"
        },
        {
          "name": "birthCount",
          "type": "uint256"
        },
        {
          "name": "birthLastTime",
          "type": "uint256"
        },
        {
          "name": "role",
          "type": "uint256"
        },
        {
          "name": "genome",
          "type": "uint256"
        },
        {
          "name": "interbreed",
          "type": "bool"
        },
        {
          "name": "leftTime",
          "type": "uint256"
        },
        {
          "name": "lastTime",
          "type": "uint256"
        },
        {
          "name": "price",
          "type": "uint256"
        },
        {
          "name": "motherSumm",
          "type": "uint256"
        }
      ],
      "payable": false,
      "stateMutability": "view",
      "type": "function"
    },
    {
      "constant": true,
      "inputs": [],
      "name": "promoGen0",
      "outputs": [
        {
          "name": "",
          "type": "uint256"
        }
      ],
      "payable": false,
      "stateMutability": "view",
      "type": "function"
    },
    {
      "constant": true,
      "inputs": [],
      "name": "isUIntPublic",
      "outputs": [
        {
          "name": "",
          "type": "bool"
        }
      ],
      "payable": false,
      "stateMutability": "pure",
      "type": "function"
    },
    {
      "constant": true,
      "inputs": [],
      "name": "totalGen0",
      "outputs": [
        {
          "name": "",
          "type": "uint256"
        }
      ],
      "payable": false,
      "stateMutability": "view",
      "type": "function"
    },
    {
      "constant": true,
      "inputs": [],
      "name": "lastIdGen0",
      "outputs": [
        {
          "name": "",
          "type": "uint32"
        }
      ],
      "payable": false,
      "stateMutability": "view",
      "type": "function"
    },
    {
      "constant": true,
      "inputs": [],
      "name": "fcontr",
      "outputs": [
        {
          "name": "",
          "type": "bool"
        }
      ],
      "payable": false,
      "stateMutability": "view",
      "type": "function"
    },
    {
      "constant": true,
      "inputs": [
        {
          "name": "",
          "type": "uint32"
        }
      ],
      "name": "rabbitBreedCount",
      "outputs": [
        {
          "name": "",
          "type": "uint256"
        }
      ],
      "payable": false,
      "stateMutability": "view",
      "type": "function"
    },
    {
      "constant": true,
      "inputs": [],
      "name": "isPauseSave",
      "outputs": [
        {
          "name": "",
          "type": "bool"
        }
      ],
      "payable": false,
      "stateMutability": "view",
      "type": "function"
    },
    {
      "constant": true,
      "inputs": [],
      "name": "isPriv",
      "outputs": [
        {
          "name": "",
          "type": "bool"
        }
      ],
      "payable": false,
      "stateMutability": "view",
      "type": "function"
    },
    {
      "constant": true,
      "inputs": [
        {
          "name": "_to",
          "type": "address"
        }
      ],
      "name": "getOwnerGennezise",
      "outputs": [
        {
          "name": "",
          "type": "bool"
        }
      ],
      "payable": false,
      "stateMutability": "view",
      "type": "function"
    },
    {
      "constant": false,
      "inputs": [
        {
          "name": "_to",
          "type": "address"
        },
        {
          "name": "_tokenId",
          "type": "uint32"
        }
      ],
      "name": "transfer",
      "outputs": [],
      "payable": false,
      "stateMutability": "nonpayable",
      "type": "function"
    },
    {
      "constant": true,
      "inputs": [],
      "name": "lastTimeGen0",
      "outputs": [
        {
          "name": "",
          "type": "uint256"
        }
      ],
      "payable": false,
      "stateMutability": "view",
      "type": "function"
    },
    {
      "constant": false,
      "inputs": [
        {
          "name": "_from",
          "type": "address"
        },
        {
          "name": "_to",
          "type": "address"
        },
        {
          "name": "_tokenId",
          "type": "uint32"
        }
      ],
      "name": "transferFrom",
      "outputs": [
        {
          "name": "",
          "type": "bool"
        }
      ],
      "payable": false,
      "stateMutability": "nonpayable",
      "type": "function"
    },
    {
      "constant": true,
      "inputs": [],
      "name": "totalBunny",
      "outputs": [
        {
          "name": "",
          "type": "uint256"
        }
      ],
      "payable": false,
      "stateMutability": "view",
      "type": "function"
    },
    {
      "constant": true,
      "inputs": [
        {
          "name": "rabbitid",
          "type": "uint256"
        }
      ],
      "name": "deleteRabbitMarket",
      "outputs": [],
      "payable": false,
      "stateMutability": "pure",
      "type": "function"
    },
    {
      "constant": false,
      "inputs": [
        {
          "name": "add",
          "type": "address"
        }
      ],
      "name": "transferOwnershipTechnical",
      "outputs": [],
      "payable": false,
      "stateMutability": "nonpayable",
      "type": "function"
    },
    {
      "constant": true,
      "inputs": [],
      "name": "symbol",
      "outputs": [
        {
          "name": "",
          "type": "string"
        }
      ],
      "payable": false,
      "stateMutability": "view",
      "type": "function"
    },
    {
      "constant": true,
      "inputs": [
        {
          "name": "",
          "type": "uint256"
        }
      ],
      "name": "cooldowns",
      "outputs": [
        {
          "name": "",
          "type": "uint32"
        }
      ],
      "payable": false,
      "stateMutability": "view",
      "type": "function"
    },
    {
      "constant": true,
      "inputs": [
        {
          "name": "rabbitid",
          "type": "uint32"
        },
        {
          "name": "step",
          "type": "uint256"
        }
      ],
      "name": "bidMarket",
      "outputs": [],
      "payable": false,
      "stateMutability": "view",
      "type": "function"
    },
    {
      "constant": false,
      "inputs": [
        {
          "name": "_matron",
          "type": "uint32"
        },
        {
          "name": "_sire",
          "type": "uint32"
        }
      ],
      "name": "createChildren",
      "outputs": [
        {
          "name": "",
          "type": "uint32"
        }
      ],
      "payable": true,
      "stateMutability": "payable",
      "type": "function"
    },
    {
      "constant": false,
      "inputs": [
        {
          "name": "_bunnyid",
          "type": "uint32"
        }
      ],
      "name": "buyBunny",
      "outputs": [],
      "payable": true,
      "stateMutability": "payable",
      "type": "function"
    },
    {
      "constant": false,
      "inputs": [
        {
          "name": "_rabbitid",
          "type": "uint32"
        }
      ],
      "name": "setSireStop",
      "outputs": [
        {
          "name": "",
          "type": "bool"
        }
      ],
      "payable": false,
      "stateMutability": "nonpayable",
      "type": "function"
    },
    {
      "constant": false,
      "inputs": [
        {
          "name": "_to",
          "type": "address"
        },
        {
          "name": "_tokenId",
          "type": "uint32"
        }
      ],
      "name": "approve",
      "outputs": [
        {
          "name": "",
          "type": "bool"
        }
      ],
      "payable": false,
      "stateMutability": "nonpayable",
      "type": "function"
    },
    {
      "constant": true,
      "inputs": [],
      "name": "promoMoney",
      "outputs": [
        {
          "name": "",
          "type": "uint256"
        }
      ],
      "payable": false,
      "stateMutability": "view",
      "type": "function"
    },
    {
      "constant": true,
      "inputs": [],
      "name": "ownerCEO",
      "outputs": [
        {
          "name": "",
          "type": "address"
        }
      ],
      "payable": false,
      "stateMutability": "view",
      "type": "function"
    },
    {
      "constant": true,
      "inputs": [],
      "name": "getOwnerTech",
      "outputs": [
        {
          "name": "",
          "type": "address"
        }
      ],
      "payable": false,
      "stateMutability": "view",
      "type": "function"
    },
    {
      "constant": true,
      "inputs": [
        {
          "name": "",
          "type": "address"
        },
        {
          "name": "",
          "type": "uint256"
        }
      ],
      "name": "ownerBunnies",
      "outputs": [
        {
          "name": "",
          "type": "uint32"
        }
      ],
      "payable": false,
      "stateMutability": "view",
      "type": "function"
    },
    {
      "constant": true,
      "inputs": [
        {
          "name": "owner",
          "type": "address"
        }
      ],
      "name": "getTokenOwner",
      "outputs": [
        {
          "name": "total",
          "type": "uint256"
        },
        {
          "name": "list",
          "type": "uint32[]"
        }
      ],
      "payable": false,
      "stateMutability": "view",
      "type": "function"
    },
    {
      "constant": true,
      "inputs": [
        {
          "name": "mother",
          "type": "uint32"
        }
      ],
      "name": "getRabbitMother",
      "outputs": [
        {
          "name": "",
          "type": "uint32[5]"
        }
      ],
      "payable": false,
      "stateMutability": "view",
      "type": "function"
    },
    {
      "constant": false,
      "inputs": [
        {
          "name": "period",
          "type": "uint256"
        }
      ],
      "name": "setDayPeriod",
      "outputs": [
        {
          "name": "",
          "type": "uint256"
        }
      ],
      "payable": false,
      "stateMutability": "nonpayable",
      "type": "function"
    },
    {
      "constant": false,
      "inputs": [
        {
          "name": "_promoMoney",
          "type": "uint256"
        }
      ],
      "name": "setPromoMoney",
      "outputs": [],
      "payable": false,
      "stateMutability": "nonpayable",
      "type": "function"
    },
    {
      "constant": false,
      "inputs": [
        {
          "name": "money",
          "type": "uint256"
        }
      ],
      "name": "setStepMoney",
      "outputs": [],
      "payable": false,
      "stateMutability": "nonpayable",
      "type": "function"
    },
    {
      "constant": false,
      "inputs": [
        {
          "name": "add",
          "type": "address"
        }
      ],
      "name": "transferOwnership",
      "outputs": [],
      "payable": false,
      "stateMutability": "nonpayable",
      "type": "function"
    },
    {
      "constant": true,
      "inputs": [],
      "name": "getOwnerServer",
      "outputs": [
        {
          "name": "",
          "type": "address"
        }
      ],
      "payable": false,
      "stateMutability": "view",
      "type": "function"
    },
    {
      "constant": true,
      "inputs": [],
      "name": "commission_system",
      "outputs": [
        {
          "name": "",
          "type": "uint256"
        }
      ],
      "payable": false,
      "stateMutability": "view",
      "type": "function"
    },
    {
      "constant": true,
      "inputs": [],
      "name": "totalClosedBID",
      "outputs": [
        {
          "name": "",
          "type": "uint256"
        }
      ],
      "payable": false,
      "stateMutability": "view",
      "type": "function"
    },
    {
      "constant": false,
      "inputs": [],
      "name": "setPromoPause",
      "outputs": [],
      "payable": false,
      "stateMutability": "nonpayable",
      "type": "function"
    },
    {
      "constant": false,
      "inputs": [
        {
          "name": "_bunnyid",
          "type": "uint32"
        }
      ],
      "name": "stopMarket",
      "outputs": [
        {
          "name": "",
          "type": "uint256"
        }
      ],
      "payable": false,
      "stateMutability": "nonpayable",
      "type": "function"
    },
    {
      "constant": false,
      "inputs": [
        {
          "name": "_matron",
          "type": "uint32"
        }
      ],
      "name": "createGennezise",
      "outputs": [],
      "payable": false,
      "stateMutability": "nonpayable",
      "type": "function"
    },
    {
      "constant": true,
      "inputs": [],
      "name": "getMarketCount",
      "outputs": [
        {
          "name": "",
          "type": "uint256"
        }
      ],
      "payable": false,
      "stateMutability": "view",
      "type": "function"
    },
    {
      "constant": false,
      "inputs": [
        {
          "name": "_ownerMoney",
          "type": "address"
        }
      ],
      "name": "transferOwnerMoney",
      "outputs": [],
      "payable": false,
      "stateMutability": "nonpayable",
      "type": "function"
    },
    {
      "anonymous": false,
      "inputs": [
        {
          "indexed": false,
          "name": "bunnyid",
          "type": "uint32"
        },
        {
          "indexed": false,
          "name": "dnk",
          "type": "uint256"
        },
        {
          "indexed": false,
          "name": "blocknumber",
          "type": "uint256"
        },
        {
          "indexed": false,
          "name": "breed",
          "type": "uint256"
        }
      ],
      "name": "NewBunny",
      "type": "event"
    },
    {
      "anonymous": false,
      "inputs": [
        {
          "indexed": false,
          "name": "bunnyid",
          "type": "uint32"
        },
        {
          "indexed": false,
          "name": "sex",
          "type": "bool"
        }
      ],
      "name": "ChengeSex",
      "type": "event"
    },
    {
      "anonymous": false,
      "inputs": [
        {
          "indexed": false,
          "name": "bunnyid",
          "type": "uint32"
        },
        {
          "indexed": false,
          "name": "cost",
          "type": "uint256"
        }
      ],
      "name": "SalaryBunny",
      "type": "event"
    },
    {
      "anonymous": false,
      "inputs": [
        {
          "indexed": false,
          "name": "matron",
          "type": "uint32"
        },
        {
          "indexed": false,
          "name": "sire",
          "type": "uint32"
        },
        {
          "indexed": false,
          "name": "child",
          "type": "uint32"
        }
      ],
      "name": "CreateChildren",
      "type": "event"
    },
    {
      "anonymous": false,
      "inputs": [
        {
          "indexed": false,
          "name": "newOwnerBunny",
          "type": "address"
        },
        {
          "indexed": false,
          "name": "bunnyId",
          "type": "uint32"
        }
      ],
      "name": "SendBunny",
      "type": "event"
    },
    {
      "anonymous": false,
      "inputs": [
        {
          "indexed": false,
          "name": "bunnyId",
          "type": "uint32"
        }
      ],
      "name": "StopMarket",
      "type": "event"
    },
    {
      "anonymous": false,
      "inputs": [
        {
          "indexed": false,
          "name": "bunnyId",
          "type": "uint32"
        },
        {
          "indexed": false,
          "name": "money",
          "type": "uint256"
        }
      ],
      "name": "StartMarket",
      "type": "event"
    },
    {
      "anonymous": false,
      "inputs": [
        {
          "indexed": false,
          "name": "bunnyId",
          "type": "uint32"
        },
        {
          "indexed": false,
          "name": "money",
          "type": "uint256"
        }
      ],
      "name": "BunnyBuy",
      "type": "event"
    },
    {
      "anonymous": false,
      "inputs": [
        {
          "indexed": false,
          "name": "_mother",
          "type": "uint32"
        },
        {
          "indexed": false,
          "name": "summ",
          "type": "uint256"
        }
      ],
      "name": "EmotherCount",
      "type": "event"
    },
    {
      "anonymous": false,
      "inputs": [
        {
          "indexed": false,
          "name": "from",
          "type": "address"
        },
        {
          "indexed": false,
          "name": "to",
          "type": "address"
        },
        {
          "indexed": false,
          "name": "tokenId",
          "type": "uint32"
        }
      ],
      "name": "Transfer",
      "type": "event"
    },
    {
      "anonymous": false,
      "inputs": [
        {
          "indexed": false,
          "name": "owner",
          "type": "address"
        },
        {
          "indexed": false,
          "name": "approved",
          "type": "address"
        },
        {
          "indexed": false,
          "name": "tokenId",
          "type": "uint32"
        }
      ],
      "name": "Approval",
      "type": "event"
    },
    {
      "anonymous": false,
      "inputs": [
        {
          "indexed": false,
          "name": "owner",
          "type": "address"
        },
        {
          "indexed": false,
          "name": "tokenId",
          "type": "uint32"
        }
      ],
      "name": "OwnerBunnies",
      "type": "event"
    }
  ],
  "bytecode": "0x6005805460a060020a60ff0219600160a060020a0319909116733dd39b55fcaae9067a3383d3c065b3c71ed4477b171681556601c6bf52634000600681905560079190915560006009556001600b556109c4600c55600d55600e805460ff19169055610260604052603c6080908152607860a05260f060c0526101e060e08190526103c06101005261078061012052610e1061014052611c2061016052613840610180526170806101a05261e1006101c0526201518090526202a30061020052620546006102205262093a8061024052620000df90601690600f620001e0565b506000601f8190556020805460a060020a60ff0219169055611c2060215560228190556001602381905560248190556025805460ff1916601417905560288190556029829055602b829055602d8290558154600160a060020a03338116600160a060020a03199283168117909455600280548316851790556003805483168517905582549091169092179055600554620001839116640100000000620001b1810204565b506020805460a060020a60ff02191674010000000000000000000000000000000000000000179055620002aa565b60048054600160a060020a03909216600160a060020a0319928316811790915560208054909216179055600090565b600283019183908215620002715791602002820160005b838211156200023d57835183826101000a81548163ffffffff021916908363ffffffff1602179055509260200192600401602081600301049283019260010302620001f7565b80156200026f5782816101000a81549063ffffffff02191690556004016020816003010492830192600103026200023d565b505b506200027f92915062000283565b5090565b620002a791905b808211156200027f57805463ffffffff191681556001016200028a565b90565b613dc380620002ba6000396000f3006080604052600436106103bb5763ffffffff7c0100000000000000000000000000000000000000000000000000000000600035041663030f72dd81146103c057806303602e9e146104265780630374c6541461045757806305caca6c146104ea578063068734181461050b57806306fdde03146105475780630847c7a21461055c57806309828a471461058c57806312448c32146105b5578063146c1b5e146105ef57806314c588de1461060d57806314f1cf0c1461062557806317265e191461064357806318160ddd146106a7578063193d5b77146106bc5780631e923f1b146106da5780631ee55080146106ef57806323b7ec3b1461070d5780632573751f1461072b57806327904ee0146107465780632a335c1714610764578063308c0065146107825780633262fd9a146107a057806333506115146107b85780633c9ff012146107cd5780633ec27c4a146107e25780634038ec37146107fa578063433bd92414610818578063462a8e05146108365780634b72bbaf146108575780634e2fd44e146108755780634fd839c614610896578063553fd043146108b457806359dc2eec146108cc57806359e4eec9146109255780635ceb8bc81461094657806362075af41461095b578063625101d51461098557806363991a361461099a5780636b533057146109be57806370a08231146109dc57806370a7e2dd146109fd57806370d4d7b414610a855780637214d6c314610a9a5780637230ef7f14610aaf578063731f49b714610ac457806374479db014610ad95780637759187f14610aee5780637878b66a14610b0c5780637cbd544414610b215780637ea2bbac14610b365780638009748414610b575780638231ee9814610b8157806384269ed914610b96578063847ec2de14610bc657806384fcfb3414610bdb5780638638fc3c14610bf357806395d89b4114610c145780639d6fac6f14610c295780639fa0fe1014610c41578063a13a7cee14610c62578063a210a67614610c79578063a22ec47614610c8a578063a7e9454214610ca8578063ad5a157d14610cd2578063c17c045614610ce7578063c7191bc714610cfc578063d00dbcb014610d11578063dc17c9ca14610d35578063df4b297014610db1578063e8defac714610e07578063eea23d8a14610e1f578063ef229dc714610e37578063f2fde38b14610e4f578063f3cee12914610e70578063f628842214610e85578063f65045df14610e9a578063fae8c29e14610eaf578063fb6c2b6f14610ec4578063fd5c669414610ee2578063fd69f3c214610f00578063fdaacf1b14610f15575b600080fd5b3480156103cc57600080fd5b5060408051602060046024803582810135601f810185900485028601850190965285855261042495833563ffffffff16953695604494919390910191908190840183828082843750949750610f369650505050505050565b005b34801561043257600080fd5b5061043b610fbb565b60408051600160a060020a039092168252519081900360200190f35b34801561046357600080fd5b5061047563ffffffff60043516610fe8565b6040805160208082528351818301528351919283929083019185019080838360005b838110156104af578181015183820152602001610497565b50505050905090810190601f1680156104dc5780820380516001836020036101000a031916815260200191505b509250505060405180910390f35b3480156104f657600080fd5b50610424600160a060020a0360043516611090565b34801561051757600080fd5b5061052963ffffffff600435166110e6565b60408051938452602084019290925282820152519081900360600190f35b34801561055357600080fd5b506104756111a5565b34801561056857600080fd5b5061057a63ffffffff600435166111dc565b60408051918252519081900360200190f35b34801561059857600080fd5b506105a16111ee565b604080519115158252519081900360200190f35b3480156105c157600080fd5b506105d663ffffffff600435166024356111f7565b6040805163ffffffff9092168252519081900360200190f35b3480156105fb57600080fd5b5061057a63ffffffff60043516611233565b34801561061957600080fd5b50610424600435611245565b34801561063157600080fd5b5061043b63ffffffff60043516611265565b34801561064f57600080fd5b5060408051602060046024803582810135601f810185900485028601850190965285855261042495833563ffffffff169536956044949193909101919081908401838280828437509497506112809650505050505050565b3480156106b357600080fd5b5061057a6112ff565b3480156106c857600080fd5b506105a163ffffffff60043516611305565b3480156106e657600080fd5b5061043b611321565b3480156106fb57600080fd5b5061057a63ffffffff60043516611330565b34801561071957600080fd5b5061043b63ffffffff60043516611348565b34801561073757600080fd5b506105d6600435602435611369565b34801561075257600080fd5b5061057a63ffffffff600435166113b1565b34801561077057600080fd5b5061057a63ffffffff60043516611415565b34801561078e57600080fd5b5061057a63ffffffff6004351661142d565b3480156107ac57600080fd5b5061042460043561148c565b3480156107c457600080fd5b506105a16114f8565b3480156107d957600080fd5b5061057a61155a565b3480156107ee57600080fd5b50610424600435611560565b34801561080657600080fd5b5061047563ffffffff6004351661159b565b34801561082457600080fd5b506105a163ffffffff6004351661160c565b34801561084257600080fd5b506105a163ffffffff60043516602435611707565b34801561086357600080fd5b5061057a63ffffffff600435166118d5565b34801561088157600080fd5b506105a1600160a060020a0360043516611999565b3480156108a257600080fd5b5061057a63ffffffff600435166119d5565b3480156108c057600080fd5b506104246004356119ed565b3480156108d857600080fd5b506108e4600435611a28565b6040805163ffffffff9889168152969097166020870152858701949094526060850192909252608084015260a083015260c082015290519081900360e00190f35b34801561093157600080fd5b5061057a63ffffffff60043516602435611a82565b34801561095257600080fd5b506105a1611b38565b34801561096757600080fd5b5061042463ffffffff60043516600160a060020a0360243516611b80565b34801561099157600080fd5b5061043b611bdc565b3480156109a657600080fd5b5061057a63ffffffff60043581169060243516611c08565b3480156109ca57600080fd5b5061057a63ffffffff60043516611cdf565b3480156109e857600080fd5b5061057a600160a060020a0360043516611cf1565b348015610a0957600080fd5b50610a1b63ffffffff60043516611d0c565b6040805163ffffffff9d8e1681529b909c1660208c01528a8c019990995260608a0197909752608089019590955260a088019390935260c0870191909152151560e08601526101008501526101208401526101408301526101608201529051908190036101800190f35b348015610a9157600080fd5b5061057a611ef9565b348015610aa657600080fd5b506105a1611eff565b348015610abb57600080fd5b5061057a611f04565b348015610ad057600080fd5b506105d6611f0a565b348015610ae557600080fd5b506105a1611f16565b348015610afa57600080fd5b5061057a63ffffffff60043516611f37565b348015610b1857600080fd5b506105a1611f49565b348015610b2d57600080fd5b506105a1611f6b565b348015610b4257600080fd5b506105a1600160a060020a0360043516611ffa565b348015610b6357600080fd5b50610424600160a060020a036004351663ffffffff60243516612018565b348015610b8d57600080fd5b5061057a6120e0565b348015610ba257600080fd5b506105a1600160a060020a036004358116906024351663ffffffff604435166120e6565b348015610bd257600080fd5b5061057a6121b1565b348015610be757600080fd5b506104246004356110e3565b348015610bff57600080fd5b50610424600160a060020a03600435166121b7565b348015610c2057600080fd5b5061047561220e565b348015610c3557600080fd5b506105d6600435612245565b348015610c4d57600080fd5b5061042463ffffffff60043516602435612272565b6105d663ffffffff60043581169060243516612285565b61042463ffffffff600435166126ae565b348015610c9657600080fd5b506105a163ffffffff6004351661280c565b348015610cb457600080fd5b506105a1600160a060020a036004351663ffffffff602435166128a7565b348015610cde57600080fd5b5061057a6128af565b348015610cf357600080fd5b5061043b6128b5565b348015610d0857600080fd5b5061043b6128c4565b348015610d1d57600080fd5b506105d6600160a060020a03600435166024356128f0565b348015610d4157600080fd5b50610d56600160a060020a036004351661290b565b6040518083815260200180602001828103825283818151815260200191508051906020019060200280838360005b83811015610d9c578181015183820152602001610d84565b50505050905001935050505060405180910390f35b348015610dbd57600080fd5b50610dcf63ffffffff600435166129a8565b604051808260a080838360005b83811015610df4578181015183820152602001610ddc565b5050505090500191505060405180910390f35b348015610e1357600080fd5b5061057a600435612a21565b348015610e2b57600080fd5b50610424600435612a6d565b348015610e4357600080fd5b50610424600435612a8d565b348015610e5b57600080fd5b50610424600160a060020a0360043516612ac8565b348015610e7c57600080fd5b5061043b612b1f565b348015610e9157600080fd5b5061057a612b4b565b348015610ea657600080fd5b5061057a612b51565b348015610ebb57600080fd5b50610424612b57565b348015610ed057600080fd5b5061057a63ffffffff60043516612b86565b348015610eee57600080fd5b5061042463ffffffff60043516612c27565b348015610f0c57600080fd5b5061057a612fa8565b348015610f2157600080fd5b50610424600160a060020a0360043516612fae565b610f3e611f49565b1515610f4957600080fd5b63ffffffff821660009081526019602052604090205433600160a060020a03908116911614610f7757600080fd5b6101008151108015610f8a575060008151115b15610fb75763ffffffff82166000908152601b602090815260409091208251610fb592840190613c42565b505b5050565b6000805433600160a060020a03908116911614610fd757600080fd5b50600454600160a060020a03165b90565b63ffffffff81166000908152601b602090815260409182902080548351601f60026000196101006001861615020190931692909204918201849004840281018401909452808452606093928301828280156110845780601f1061105957610100808354040283529160200191611084565b820191906000526020600020905b81548152906001019060200180831161106757829003601f168201915b50505050509050919050565b60005433600160a060020a039081169116146110ab57600080fd5b600160a060020a038116156110e3576003805473ffffffffffffffffffffffffffffffffffffffff1916600160a060020a0383161790555b50565b600080600060186001850363ffffffff1681548110151561110357fe5b9060005260206000209060060201600201549150600e82111561112557600e91505b6018805463ffffffff60001987011690811061113d57fe5b906000526020600020906006020160030154601683600f8110151561115e57fe5b600891828204019190066004029054906101000a900463ffffffff1663ffffffff160192504283111561119e5761119b834263ffffffff612ff816565b90505b9193909250565b60408051808201909152600d81527f43727970746f5261626269747300000000000000000000000000000000000000602082015281565b60136020526000908152604090205481565b600e5460ff1681565b6010602052600082815260409020816005811061121057fe5b60089182820401919006600402915091509054906101000a900463ffffffff1681565b60116020526000908152604090205481565b60005433600160a060020a0390811691161461126057600080fd5b600c55565b601960205260009081526040902054600160a060020a031681565b611288611f49565b151561129357600080fd5b63ffffffff821660009081526019602052604090205433600160a060020a039081169116146112c157600080fd5b61010081511080156112d4575060008151115b15610fb75763ffffffff82166000908152601c602090815260409091208251610fb592840190613c42565b601f5490565b63ffffffff166000908152601d602052604090205460ff161590565b600554600160a060020a031681565b63ffffffff1660009081526011602052604090205490565b63ffffffff16600090815260196020526040902054600160a060020a031690565b60146020528160005260406000208181548110151561138457fe5b9060005260206000209060089182820401919006600402915091509054906101000a900463ffffffff1681565b6000805b600581101561140f5763ffffffff8316600090815260106020526040902081600581106113de57fe5b60088104919091015460079091166004026101000a900463ffffffff1615611407576001909101905b6001016113b5565b50919050565b63ffffffff166000908152600f602052604090205490565b63ffffffff81166000908152602e602052604081205481808211156114855761145d82606463ffffffff61300a16565b905061147081600563ffffffff61302116565b9050611482828263ffffffff61305316565b92505b5050919050565b60005433600160a060020a039081169116146114a757600080fd5b600160a060020a033016318111156114be57600080fd5b600154604051600160a060020a039091169082156108fc029083906000818181858888f19350505050158015610fb7573d6000803e3d6000fd5b6000805433600160a060020a0390811691161461151457600080fd5b506005805474ff0000000000000000000000000000000000000000198116740100000000000000000000000000000000000000009182900460ff16159182021790915590565b600b5481565b60025433600160a060020a039081169116148061158b575060005433600160a060020a039081169116145b151561159657600080fd5b600b55565b63ffffffff81166000908152601c602090815260409182902080548351601f60026000196101006001861615020190931692909204918201849004840281018401909452808452606093928301828280156110845780601f1061105957610100808354040283529160200191611084565b60001901600080808063ffffffff85161515611627576116ff565b6018805463ffffffff871690811061163b57fe5b906000526020600020906006020160030154925060188563ffffffff1681548110151561166457fe5b9060005260206000209060060201600201549150601682600f8110151561168757fe5b600891828204019190066004029054906101000a900463ffffffff1663ffffffff1690506116be838261305390919063ffffffff16565b90504281111580156116f557506018805463ffffffff87169081106116df57fe5b9060005260206000209060060201600401546000145b156116ff57600193505b505050919050565b6000806000611714611f49565b151561171f57600080fd5b63ffffffff851660009081526019602052604090205433600160a060020a0390811691161461174d57600080fd5b600654841161175b57600080fd5b611764856110e6565b50909250504282111561177657600080fd5b6018805463ffffffff60001988011690811061178e57fe5b90600052602060002090600602016004015460011480156117c3575063ffffffff851660009081526013602052604090205484145b156117d157600092506118cd565b600160186001870363ffffffff168154811015156117eb57fe5b600091825260208083206004600690930201919091019290925563ffffffff808816825260139092526040902085905560188054909160001988011690811061183057fe5b6000918252602080832060056006909302019190910154808352601482526040808420805460018181018355918652948490206008860401805463ffffffff808d1660046007909916989098026101000a88810291021990911617905581519485529284019290925281519093507f3e1fc7a8e1885056ea6a5c72b5eb3e3531efc8d859e6e81a4875255dbb3cfcc89281900390910190a1600192505b505092915050565b60008060008060186001860363ffffffff168154811015156118f357fe5b906000526020600020906006020160040154600114156119905763ffffffff851660009081526013602052604090205460649004925061193a83601963ffffffff61302116565b91506119516007548461302190919063ffffffff16565b63ffffffff80871660009081526013602052604090205491925061197791849161305316565b9150611989828263ffffffff61305316565b93506116ff565b600093506116ff565b60048054600160a060020a0390921673ffffffffffffffffffffffffffffffffffffffff19928316811790915560208054909216179055600090565b63ffffffff1660009081526015602052604090205490565b60025433600160a060020a0390811691161480611a18575060005433600160a060020a039081169116145b1515611a2357600080fd5b602a55565b6018805482908110611a3657fe5b600091825260209091206006909102018054600182015460028301546003840154600485015460059095015463ffffffff80861697506401000000009095049094169492939192909187565b6000611a8c611f49565b1515611a9757600080fd5b600654821015611aa657600080fd5b63ffffffff831660009081526019602052604090205433600160a060020a03908116911614611ad457600080fd5b63ffffffff83166000818152602e60209081526040918290208590558151928352820184905280517fae8365010d3a77defa2d2909289a7792338a008a7be42c339b0162045093a9629281900390910190a150602280546001810190915592915050565b60035460009033600160a060020a0390811691161480611b66575060005433600160a060020a039081169116145b15611b7357506001610fe5565b50600e5460ff1615610fe5565b63ffffffff821660009081526019602052604090205433600160a060020a03908116911614611bae57600080fd5b63ffffffff82166000908152601d602052604090205460ff1615611bd157600080fd5b610fb53382846120e6565b6000805433600160a060020a03908116911614611bf857600080fd5b50600154600160a060020a031690565b60008060186001840363ffffffff16815481101515611c2357fe5b90600052602060002090600602016005015460186001860363ffffffff16815481101515611c4d57fe5b906000526020600020906006020160050154101515611c97576018805463ffffffff600019870116908110611c7e57fe5b9060005260206000209060060201600501549050611cc4565b6018805463ffffffff600019860116908110611caf57fe5b90600052602060002090600602016005015490505b611cd581600163ffffffff61305316565b91505b5092915050565b600f6020526000908152604090205481565b600160a060020a03166000908152601a602052604090205490565b600080600080600080600080600080600080611d278d6118d5565b915060018d039c5060188d63ffffffff16815481101515611d4457fe5b60009182526020909120600690910201546018805463ffffffff9283169e5090918f16908110611d7057fe5b60009182526020909120600690910201546018805463ffffffff64010000000090930483169d5090918f16908110611da457fe5b906000526020600020906006020160010154995060188d63ffffffff16815481101515611dcd57fe5b906000526020600020906006020160020154985060188d63ffffffff16815481101515611df657fe5b906000526020600020906006020160030154975060188d63ffffffff16815481101515611e1f57fe5b906000526020600020906006020160040154965060188d63ffffffff16815481101515611e4857fe5b9060005260206000209060060201600501549550600e891115611e6a57600e98505b5063ffffffff8c16600090815260116020526040902054601689600f8110611e8e57fe5b600891828204019190066004029054906101000a900463ffffffff1663ffffffff169250611ec5888461305390919063ffffffff16565b9250428311611ed75760019450611eea565b611ee7834263ffffffff612ff816565b93505b91939597999b5091939597999b565b600c5481565b600190565b60095481565b60085463ffffffff1681565b60205474010000000000000000000000000000000000000000900460ff1681565b60126020526000908152604090205481565b60055474010000000000000000000000000000000000000000900460ff161590565b60208054604080517fccb0893d0000000000000000000000000000000000000000000000000000000081529051600093600160a060020a039093169263ccb0893d926004808201939182900301818787803b158015611fc957600080fd5b505af1158015611fdd573d6000803e3d6000fd5b505050506040513d6020811015611ff357600080fd5b5051905090565b600160a060020a03166000908152601e602052604090205460ff1690565b63ffffffff81166000908152601960205260409020543390600160a060020a03908116908216811461204957600080fd5b600160a060020a03828116908516141561206257600080fd5b600160a060020a038416151561207757600080fd5b6120818184613062565b61208b848461328e565b60408051600160a060020a0380841682528616602082015263ffffffff85168183015290517f0daf680c3f528a8760b5142fe1f6f80d5f4ea18bb76f347a7a44a2d565c2b7dc9181900360600190a150505050565b600a5481565b63ffffffff8116600090815260196020526040812054600160a060020a03908116908516811461211557600080fd5b600160a060020a03818116908516141561212e57600080fd5b600160a060020a038416151561214357600080fd5b61214d8184613062565b612157848461328e565b60408051600160a060020a0380841682528616602082015263ffffffff85168183015290517f0daf680c3f528a8760b5142fe1f6f80d5f4ea18bb76f347a7a44a2d565c2b7dc9181900360600190a1506001949350505050565b601f5481565b60005433600160a060020a039081169116146121d257600080fd5b600160a060020a038116156110e35760028054600160a060020a03831673ffffffffffffffffffffffffffffffffffffffff1990911617905550565b60408051808201909152600381527f4352420000000000000000000000000000000000000000000000000000000000602082015281565b601681600f811061225257fe5b60089182820401919006600402915054906101000a900463ffffffff1681565b61227a611f49565b1515610fb757600080fd5b6000806000612292613cc0565b600080600061229f611f6b565b15156122aa57600080fd5b6122b2611f49565b15156122bd57600080fd5b63ffffffff891660009081526019602052604090205433600160a060020a039081169116146122eb57600080fd5b6018805463ffffffff6000198b011690811061230357fe5b906000526020600020906006020160040154600114151561232357600080fd5b63ffffffff898116908916141561233957600080fd5b6123428961160c565b151561234d57600080fd5b612356886118d5565b34101561236257600080fd5b61236c8989611c08565b6020805463ffffffff808d16600090815260158452604080822054928e1682528082205481517f27c5e534000000000000000000000000000000000000000000000000000000008152600481019490945260248401526044830186905251949a50600160a060020a03909216936327c5e5349360648084019491938390030190829087803b1580156123fd57600080fd5b505af1158015612411573d6000803e3d6000fd5b505050506040513d602081101561242757600080fd5b8101908080519060200190929190505050945060e0604051908101604052808a63ffffffff1681526020018963ffffffff1681526020014381526020016000815260200160008152602001600081526020018781525093506018849080600181540180825580915050906001820390600052602060002090600602016000909192909190915060008201518160000160006101000a81548163ffffffff021916908363ffffffff16021790555060208201518160000160046101000a81548163ffffffff021916908363ffffffff16021790555060408201518160010155606082015181600201556080820151816003015560a0820151816004015560c082015181600501555050925084601560008563ffffffff1663ffffffff168152602001908152602001600020819055506125886004601360008b63ffffffff1663ffffffff1681526020019081526020016000205461300a90919063ffffffff16565b9150612594898361335b565b63ffffffff88166000908152601960209081526040808320546013909252808320549051600160a060020a039092169281156108fc029290818181858888f193505050501580156125e9573d6000803e3d6000fd5b5063ffffffff80891660009081526013602052604090205461260e9160649061300a16565b90506126256007548261302190919063ffffffff16565b600154604051919250600160a060020a03169082156108fc029083906000818181858888f19350505050158015612660573d6000803e3d6000fd5b5061266a89613504565b63ffffffff891660009081526019602052604090205461269790600160a060020a03168487898d8d6135b2565b6126a1838a613682565b5090979650505050505050565b60006126b8611f49565b15156126c357600080fd5b63ffffffff821660009081526019602052604090205433600160a060020a03908116911614156126f257600080fd5b6126fb8261142d565b905080341015801561270c57508015155b151561271757600080fd5b602d8054600101905563ffffffff821660009081526019602052604090205461274990600160a060020a0316346138ea565b63ffffffff821660009081526019602052604090205461277390600160a060020a031633846120e6565b5061277d82612b86565b506040805163ffffffff841681526020810183905281517faa8b4456e402faf0f19bd69217f4f33657a1be47890a1c1130fba16e233d04c0929181900390910190a160408051600160a060020a033316815263ffffffff8416602082015281517fbe094b3f5b6f49f63819500ee3f9149336c47d4b6d3c809583c9ed3b5a458b3e929181900390910190a15050565b6000612816611f49565b151561282157600080fd5b63ffffffff821660009081526019602052604090205433600160a060020a0390811691161461284f57600080fd5b600060186001840363ffffffff1681548110151561286957fe5b600091825260208083206004600690930201919091019290925563ffffffff841681526013909152604081205561289f82613965565b506001919050565b600092915050565b600d5481565b600054600160a060020a031681565b6000805433600160a060020a039081169116146128e057600080fd5b50600254600160a060020a031690565b601a6020528160005260406000208181548110151561138457fe5b600160a060020a0381166000908152601a6020908152604091829020805483518184028101840190945280845292606092909190849083018282801561299c57602002820191906000526020600020906000905b82829054906101000a900463ffffffff1663ffffffff168152602001906004019060208260030104928301926001038202915080841161295f5790505b50505050509050915091565b6129b0613d0a565b63ffffffff8216600090815260106020526040808220815160a08101928390529290916005918390855b82829054906101000a900463ffffffff1663ffffffff16815260200190600401906020826003010492830192600103820291508084116129da575094979650505050505050565b60025460009033600160a060020a0390811691161480612a4f575060005433600160a060020a039081169116145b1515612a5a57600080fd5b5060238190556201518002602481905590565b60005433600160a060020a03908116911614612a8857600080fd5b600d55565b60025433600160a060020a0390811691161480612ab8575060005433600160a060020a039081169116145b1515612ac357600080fd5b602155565b60005433600160a060020a03908116911614612ae357600080fd5b600160a060020a038116156110e35760008054600160a060020a03831673ffffffffffffffffffffffffffffffffffffffff1990911617905550565b6000805433600160a060020a03908116911614612b3b57600080fd5b50600354600160a060020a031690565b60075481565b602d5481565b60005433600160a060020a03908116911614612b7257600080fd5b600e805460ff19811660ff90911615179055565b6000612b90611f49565b1515612b9b57600080fd5b63ffffffff821660009081526019602052604090205433600160a060020a03908116911614612bc957600080fd5b63ffffffff82166000818152602e6020908152604080832092909255815192835290517ff58a4f70d4c7b287095adb658be31ce93550932214806e2535581c2c4d7f30bd9281900390910190a1505060228054600019810190915590565b600080612c32613cc0565b6000809350612c3f611f6b565b1515612c4a57600080fd5b612c52611f49565b1515612c5d57600080fd5b612c65611b38565b1515612c7057600080fd5b600c546009541115612cb75760035433600160a060020a0390811691161480612ca7575060005433600160a060020a039081169116145b1515612cb257600080fd5b612d37565b60035433600160a060020a0390811691161480612ce2575060005433600160a060020a039081169116145b1515612d3757600160a060020a0333166000908152601e602052604090205460ff1615612d0e57600080fd5b600160a060020a0333166000908152601e60205260409020805460ff1916600190811790915593505b60208054604080517fd6cfc2920000000000000000000000000000000000000000000000000000000081529051600160a060020a039092169263d6cfc292926004808401938290030181600087803b158015612d9257600080fd5b505af1158015612da6573d6000803e3d6000fd5b505050506040513d6020811015612dbc57600080fd5b50516040805160e0810182526000808252602080830182815243848601908152606085018481526080860185815260a0870186815260c088018781526018805460018101808355918a528a517fb13d2d76d1f4b7be834882e410b3e3a8afaf69f83600ae24db354391d2378d2e60069092029182018054995163ffffffff19909a1663ffffffff9283161767ffffffff0000000019166401000000009a83169a909a029990991790985595517fb13d2d76d1f4b7be834882e410b3e3a8afaf69f83600ae24db354391d2378d2f87015593517fb13d2d76d1f4b7be834882e410b3e3a8afaf69f83600ae24db354391d2378d3086015591517fb13d2d76d1f4b7be834882e410b3e3a8afaf69f83600ae24db354391d2378d31850155517fb13d2d76d1f4b7be834882e410b3e3a8afaf69f83600ae24db354391d2378d32840155517fb13d2d76d1f4b7be834882e410b3e3a8afaf69f83600ae24db354391d2378d33909201919091559081168352601590915292812084905592955093509150612f4e9033908390869080806135b2565b42602c556008805463ffffffff191663ffffffff8316179055600980546001019055612f7a8186613682565b8315612fa15763ffffffff81166000908152601d60205260409020805460ff191660011790555b5050505050565b60225490565b60005433600160a060020a03908116911614612fc957600080fd5b6001805473ffffffffffffffffffffffffffffffffffffffff1916600160a060020a0392909216919091179055565b60008282111561300457fe5b50900390565b600080828481151561301857fe5b04949350505050565b6000808315156130345760009150611cd8565b5082820282848281151561304457fe5b041461304c57fe5b9392505050565b60008282018381101561304c57fe5b600160a060020a0382166000908152601a6020526040812054905b8181101561328857600160a060020a0384166000908152601a60205260409020805463ffffffff85169190839081106130b257fe5b6000918252602090912060088204015460079091166004026101000a900463ffffffff16141561328057600160a060020a0384166000908152601a6020526040902080548290811061310057fe5b90600052602060002090600891828204019190066004026101000a81549063ffffffff021916905560008211801561313b5750600181038214155b1561325157600160a060020a0384166000908152601a602052604090208054600019840190811061316857fe5b90600052602060002090600891828204019190066004029054906101000a900463ffffffff16601a600086600160a060020a0316600160a060020a03168152602001908152602001600020828154811015156131c057fe5b90600052602060002090600891828204019190066004026101000a81548163ffffffff021916908363ffffffff160217905550601a600085600160a060020a0316600160a060020a031681526020019081526020016000206001830381548110151561322857fe5b90600052602060002090600891828204019190066004026101000a81549063ffffffff02191690555b600160a060020a0384166000908152601a6020526040902080549061327a906000198301613d29565b50613288565b60010161307d565b50505050565b600160a060020a0382166000818152601a602090815260408083208054600181018255908452928290206008840401805463ffffffff80881660046007909716969096026101000a86810291021990911617905580519384529083019190915280517ffa8e2129ea92b2ced664f0497f946a9596ced2af4bd0950bfccd6c6e2078103a9281900390910190a163ffffffff166000908152601960205260409020805473ffffffffffffffffffffffffffffffffffffffff1916600160a060020a0392909216919091179055565b600080600080613369611f49565b151561337457600080fd5b6000851161338157600080fd5b600061338c876113b1565b11156134fc5761339b866113b1565b858115156133a557fe5b049350600092505b6133b6866113b1565b8310156134fc5763ffffffff8616600090815260106020526040902083600581106133dd57fe5b60088104919091015460079091166004026101000a900463ffffffff16156134f15763ffffffff86166000908152601060205260409020836005811061341f57fe5b60088104919091015460079091166004026101000a900463ffffffff16600081815260196020526040902054909250600160a060020a0316905061346282613bae565b5063ffffffff82166000818152600f6020908152604091829020805488019081905582519384529083015280517f55ac5b34ed9f8bb24a85585c9449a48c9041c752861ed362c3c7fa3ae0028ec79281900390910190a1604051600160a060020a0382169085156108fc029086906000818181858888f193505050501580156134ef573d6000803e3d6000fd5b505b6001909201916133ad565b505050505050565b61350c611f49565b151561351757600080fd5b613554600160186001840363ffffffff1681548110151561353457fe5b90600052602060002090600602016002015461305390919063ffffffff16565b6018805463ffffffff60001985011690811061356c57fe5b9060005260206000209060060201600201819055504260186001830363ffffffff1681548110151561359a57fe5b90600052602060002090600602016003018190555050565b6040805163ffffffff871681526020810186905243818301526060810185905290517f5b59c418dc477a7fca624bdf95d9fb49f4218046f0f3ffb05443a1d67b41ff9c9181900360800190a16040805163ffffffff8085168252808416602083015287168183015290517fe207bb77a36191c152d0b5aae045371d330a437a5bf5bd80e530f643c9dc31079181900360600190a1613650868661328e565b5050505063ffffffff166000908152600f60209081526040808320839055601190915281205550601f80546001019055565b61368a613d5d565b6000808063ffffffff86811690861614156136a457600080fd5b63ffffffff851615156136b6576134fc565b60009250600091505b60058210156137c25763ffffffff8516600090815260106020526040902082600581106136e857fe5b60088104919091015460079091166004026101000a900463ffffffff16156137b75763ffffffff85166000908152601060205260409020826005811061372a57fe5b600891828204019190066004029054906101000a900463ffffffff168484600b8110151561375457fe5b63ffffffff928316602091820292909201919091529086166000908152601090915260408120836005811061378557fe5b600891828204019190066004026101000a81548163ffffffff021916908363ffffffff16021790555082806001019350505b6001909101906136bf565b848484600b81106137cf57fe5b63ffffffff90921660209290920201525060019091019060005b60058110156138d8576005831115613869578360018201600b811061380a57fe5b6020020151601060008863ffffffff1663ffffffff1681526020019081526020016000208260058110151561383b57fe5b600891828204019190066004026101000a81548163ffffffff021916908363ffffffff1602179055506138d0565b8381600b811061387557fe5b6020020151601060008863ffffffff1663ffffffff168152602001908152602001600020826005811015156138a657fe5b600891828204019190066004026101000a81548163ffffffff021916908363ffffffff1602179055505b6001016137e9565b6138e185613bae565b50505050505050565b604051600160a060020a03831690605f606484040280156108fc02916000818181858888f19350505050158015613925573d6000803e3d6000fd5b50600154604051600160a060020a03909116906005606484040280156108fc02916000818181858888f19350505050158015610fb5573d6000803e3d6000fd5b600080600060186001850363ffffffff1681548110151561398257fe5b600091825260208083206005600690930201919091015480835260149091526040822054909450925090505b81811015613288576000838152601460205260409020805463ffffffff86169190839081106139d957fe5b6000918252602090912060088204015460079091166004026101000a900463ffffffff161415613ba6576000838152601460205260409020805482908110613a1d57fe5b90600052602060002090600891828204019190066004026101000a81549063ffffffff0219169055600082118015613a585750600181038214155b15613b4057600083815260146020526040902080546000198401908110613a7b57fe5b90600052602060002090600891828204019190066004029054906101000a900463ffffffff166014600085815260200190815260200160002082815481101515613ac157fe5b90600052602060002090600891828204019190066004026101000a81548163ffffffff021916908363ffffffff1602179055506014600084815260200190815260200160002060018303815481101515613b1757fe5b90600052602060002090600891828204019190066004026101000a81549063ffffffff02191690555b6000838152601460205260409020805490613b5f906000198301613d29565b506040805163ffffffff861681526000602082015281517f3e1fc7a8e1885056ea6a5c72b5eb3e3531efc8d859e6e81a4875255dbb3cfcc8929181900390910190a1613288565b6001016139ae565b63ffffffff8082166000908152601160205260408120549091613bd5919060019061305316565b63ffffffff8316600081815260116020908152604091829020849055815192835282019290925281517f6fae13a3fbf9a1fd5751233eb2e75ce60a5321dbc847bb3e1e2e257ef43caa48929181900390910190a15063ffffffff1660009081526011602052604090205490565b828054600181600116156101000203166002900490600052602060002090601f016020900481019282601f10613c8357805160ff1916838001178555613cb0565b82800160010185558215613cb0579182015b82811115613cb0578251825591602001919060010190613c95565b50613cbc929150613d7d565b5090565b60e060405190810160405280600063ffffffff168152602001600063ffffffff16815260200160008152602001600081526020016000815260200160008152602001600081525090565b60a0604051908101604052806005906020820280388339509192915050565b815481835581811115610fb5576007016008900481600701600890048360005260206000209182019101610fb59190613d7d565b61016060405190810160405280600b906020820280388339509192915050565b610fe591905b80821115613cbc5760008155600101613d835600a165627a7a723058206fa78c9754c05605a0ac8de533ad09b53d0bf5d2944f26e6dba0eaf15b7709d30029",
  "source": "pragma solidity ^0.4.23;\n\nimport \"./BunnyGame.sol\";\n \ncontract BunnyPages is BunnyGame {\n\n/*\n    function getTokenList (uint page, address owner) public view returns(\n                uint32[12] rabbitID, \n                uint[12]genome,\n                uint[12]role, \n              //  address[12]rabbitSeller,  \n                uint[12]currentPriceBids, \n                uint[12]rabbitMotherCounts,\n                uint elementEnd,\n                uint elementTotal\n                ) {\n\n                uint32 _bunnyID = 0; \n                uint start = 0;\n\n                if (page < 1) {\n                    page = 1;\n                }\n                \n                elementTotal = ownerBunnies[owner].length;\n                elementEnd = page.mul(12);\n\n                if (elementEnd > elementTotal) {\n                    elementEnd = elementTotal;\n                }\n \n              //  startArray = (((page-1)*12)+1);\n\n                if(ownerBunnies[owner].length == 0) {\n                    return;\n                }\n                for (uint i = (((page-1)*12)+1); i < (elementEnd+1); ++i) {\n\n                    _bunnyID = ownerBunnies[owner][(i-1)];\n\n                    if((ownerBunnies[owner][(i-1)]) != 0) {  \n                        rabbitID[start] = (_bunnyID); \n                        role[start] = rabbits[(_bunnyID-1)].role;\n                        genome[start] = rabbits[(_bunnyID-1)].genome; \n\n                        rabbitMotherCounts[start] = motherCount[_bunnyID];\n                        currentPriceBids[start] = currentPrice(_bunnyID);\n                    }\n                    start++;\n        }\n    }\n*/\n/*\n    function getBids(uint page) \n            public view returns(\n                uint32[12] rabbitID, \n                uint[12]genome,\n                uint[12]role, \n                address[12]rabbitSeller,  \n                uint[12]currentPriceBids, \n                uint[12]rabbitMotherCounts,\n                uint elementEnd,\n                uint elementTotal\n                ) {\n\n              //  uint32 bunnyID = 0;\n              //  uint pagecount = 12;\n                uint start = 0;\n\n                if (page < 1) {\n                    page = 1;\n                }\n                \n                elementEnd = page.mul(12);\n\n                if (elementEnd > (marketCount-1)) {\n                    elementEnd = (marketCount-1);\n                }\n\n                elementTotal = (marketCount-1);\n\n              //  uint startArray = (((page-1)*12)+1);\n                for (uint i = (((page-1)*12)+1); i < (elementEnd+1); i++) {\n\n                    rabbitID[start] = uint32(bidsArray[i].rabbitID);\n                    rabbitSeller[start] = rabbitToOwner[uint32(bidsArray[i].rabbitID)]; \n                    role[start] = rabbits[(uint32(bidsArray[i].rabbitID)-1)].role;\n                    genome[start] = rabbits[(uint32(bidsArray[i].rabbitID)-1)].genome; \n                    rabbitMotherCounts[start] = motherCount[(uint32(bidsArray[i].rabbitID))];\n                    currentPriceBids[start] = currentPrice(uint32(bidsArray[i].rabbitID));\n                    \n                    start++;\n                }\n            }\n*/\n   /*\n    function getSireList(uint page, uint indexBunny) \n            public view returns(\n                uint32[12] rabbitID, \n            //    address[12]rabbitSeller, \n                uint[12]currentPriceBids,\n                uint elementEnd,\n                uint elementTotal \n                ) {\n\n                uint32 bunnyID = 0;\n                uint pagecount = 12;\n                uint start = 0;\n\n                if (page < 1) {\n                    page = 1;\n                }\n\n                if (sireGenom[indexBunny].length == 0) {\n                    return;\n                }\n\n                elementEnd = page.mul(pagecount);\n\n                if (elementEnd > sireGenom[indexBunny].length) {\n                    elementEnd = sireGenom[indexBunny].length;\n                }\n\n                elementTotal = sireGenom[indexBunny].length;\n          \n\n                for (uint i = (((page-1)*pagecount)); i < (elementEnd); i++) {\n\n                   bunnyID = uint32(sireGenom[indexBunny][i]);\n                    rabbitID[start] = bunnyID;\n                  //  rabbitSeller[start] = rabbitToOwner[bunnyID]; \n                    currentPriceBids[start] = getSirePrice(bunnyID);\n                    start++;\n                }\n            }\n*/\n}\n",
  "sourcePath": "/home/koras/contracts/publicRabbit/pub/contracts/BunnyPages.sol",
  "compiler": {
    "name": "solc",
    "version": "0.4.23+commit.124ca40d.Emscripten.clang"
  },
  "schemaVersion": "2.0.0",
  "updatedAt": "2018-06-28T21:33:24.998Z"
}