{
  "contractName": "BunnyGame",
  "abi": [
    {
      "constant": true,
      "inputs": [],
      "name": "getPrivAddress",
      "outputs": [
        {
          "name": "",
          "type": "address"
        }
      ],
      "payable": false,
      "stateMutability": "view",
      "type": "function"
    },
    {
      "constant": false,
      "inputs": [
        {
          "name": "add",
          "type": "address"
        }
      ],
      "name": "transferOwnershipServer",
      "outputs": [],
      "payable": false,
      "stateMutability": "nonpayable",
      "type": "function"
    },
    {
      "constant": true,
      "inputs": [],
      "name": "name",
      "outputs": [
        {
          "name": "",
          "type": "string"
        }
      ],
      "payable": false,
      "stateMutability": "view",
      "type": "function"
    },
    {
      "constant": true,
      "inputs": [
        {
          "name": "",
          "type": "uint32"
        }
      ],
      "name": "rabbitSirePrice",
      "outputs": [
        {
          "name": "",
          "type": "uint256"
        }
      ],
      "payable": false,
      "stateMutability": "view",
      "type": "function"
    },
    {
      "constant": true,
      "inputs": [],
      "name": "ownerTech",
      "outputs": [
        {
          "name": "",
          "type": "address"
        }
      ],
      "payable": false,
      "stateMutability": "view",
      "type": "function"
    },
    {
      "constant": true,
      "inputs": [
        {
          "name": "",
          "type": "uint32"
        },
        {
          "name": "",
          "type": "uint256"
        }
      ],
      "name": "rabbitMother",
      "outputs": [
        {
          "name": "",
          "type": "uint32"
        }
      ],
      "payable": false,
      "stateMutability": "view",
      "type": "function"
    },
    {
      "constant": true,
      "inputs": [
        {
          "name": "page",
          "type": "uint256"
        }
      ],
      "name": "getBids",
      "outputs": [
        {
          "name": "rabbitID",
          "type": "uint32[12]"
        },
        {
          "name": "rabbitSeller",
          "type": "address[12]"
        },
        {
          "name": "startMoneyBids",
          "type": "uint256[12]"
        },
        {
          "name": "timeStartBids",
          "type": "uint256[12]"
        },
        {
          "name": "currentPriceBids",
          "type": "uint256[12]"
        },
        {
          "name": "elementEnd",
          "type": "uint256"
        },
        {
          "name": "elementTotal",
          "type": "uint256"
        }
      ],
      "payable": false,
      "stateMutability": "view",
      "type": "function"
    },
    {
      "constant": false,
      "inputs": [
        {
          "name": "_promoGen0",
          "type": "uint256"
        }
      ],
      "name": "setPromoGen0",
      "outputs": [],
      "payable": false,
      "stateMutability": "nonpayable",
      "type": "function"
    },
    {
      "constant": true,
      "inputs": [
        {
          "name": "",
          "type": "uint32"
        }
      ],
      "name": "rabbitToOwner",
      "outputs": [
        {
          "name": "",
          "type": "address"
        }
      ],
      "payable": false,
      "stateMutability": "view",
      "type": "function"
    },
    {
      "constant": true,
      "inputs": [],
      "name": "totalSupply",
      "outputs": [
        {
          "name": "total",
          "type": "uint32"
        }
      ],
      "payable": false,
      "stateMutability": "view",
      "type": "function"
    },
    {
      "constant": true,
      "inputs": [],
      "name": "myAddr_test",
      "outputs": [
        {
          "name": "",
          "type": "address"
        }
      ],
      "payable": false,
      "stateMutability": "view",
      "type": "function"
    },
    {
      "constant": true,
      "inputs": [
        {
          "name": "_tokenId",
          "type": "uint32"
        }
      ],
      "name": "ownerOf",
      "outputs": [
        {
          "name": "owner",
          "type": "address"
        }
      ],
      "payable": false,
      "stateMutability": "view",
      "type": "function"
    },
    {
      "constant": true,
      "inputs": [
        {
          "name": "bunnyid",
          "type": "uint32"
        }
      ],
      "name": "currentPrice",
      "outputs": [
        {
          "name": "",
          "type": "uint256"
        }
      ],
      "payable": false,
      "stateMutability": "view",
      "type": "function"
    },
    {
      "constant": false,
      "inputs": [],
      "name": "setPauseSave",
      "outputs": [
        {
          "name": "",
          "type": "bool"
        }
      ],
      "payable": false,
      "stateMutability": "nonpayable",
      "type": "function"
    },
    {
      "constant": true,
      "inputs": [
        {
          "name": "",
          "type": "uint32"
        }
      ],
      "name": "rabbitRole",
      "outputs": [
        {
          "name": "",
          "type": "uint256"
        }
      ],
      "payable": false,
      "stateMutability": "view",
      "type": "function"
    },
    {
      "constant": true,
      "inputs": [
        {
          "name": "",
          "type": "uint32"
        }
      ],
      "name": "rabbitDescription",
      "outputs": [
        {
          "name": "",
          "type": "string"
        }
      ],
      "payable": false,
      "stateMutability": "view",
      "type": "function"
    },
    {
      "constant": true,
      "inputs": [],
      "name": "timeRangeCreateGen0",
      "outputs": [
        {
          "name": "",
          "type": "uint256"
        }
      ],
      "payable": false,
      "stateMutability": "view",
      "type": "function"
    },
    {
      "constant": false,
      "inputs": [
        {
          "name": "_sec",
          "type": "uint256"
        }
      ],
      "name": "setTimeRangeGen0",
      "outputs": [],
      "payable": false,
      "stateMutability": "nonpayable",
      "type": "function"
    },
    {
      "constant": true,
      "inputs": [
        {
          "name": "",
          "type": "uint256"
        }
      ],
      "name": "bidsArray",
      "outputs": [
        {
          "name": "rabbitID",
          "type": "uint32"
        },
        {
          "name": "startMoney",
          "type": "uint256"
        },
        {
          "name": "timeStart",
          "type": "uint256"
        }
      ],
      "payable": false,
      "stateMutability": "view",
      "type": "function"
    },
    {
      "constant": false,
      "inputs": [
        {
          "name": "_privAddress",
          "type": "address"
        }
      ],
      "name": "setPriv",
      "outputs": [
        {
          "name": "",
          "type": "bool"
        }
      ],
      "payable": false,
      "stateMutability": "nonpayable",
      "type": "function"
    },
    {
      "constant": true,
      "inputs": [
        {
          "name": "bunnyid",
          "type": "uint32"
        }
      ],
      "name": "getRabbitDNK",
      "outputs": [
        {
          "name": "",
          "type": "uint256"
        }
      ],
      "payable": false,
      "stateMutability": "view",
      "type": "function"
    },
    {
      "constant": false,
      "inputs": [
        {
          "name": "_money",
          "type": "uint256"
        }
      ],
      "name": "setMoneyRange",
      "outputs": [],
      "payable": false,
      "stateMutability": "nonpayable",
      "type": "function"
    },
    {
      "constant": true,
      "inputs": [
        {
          "name": "",
          "type": "uint256"
        }
      ],
      "name": "rabbits",
      "outputs": [
        {
          "name": "mother",
          "type": "uint32"
        },
        {
          "name": "sire",
          "type": "uint32"
        },
        {
          "name": "birthblock",
          "type": "uint256"
        },
        {
          "name": "birthCount",
          "type": "uint256"
        },
        {
          "name": "birthLastTime",
          "type": "uint256"
        }
      ],
      "payable": false,
      "stateMutability": "view",
      "type": "function"
    },
    {
      "constant": false,
      "inputs": [
        {
          "name": "bunnyid",
          "type": "uint32"
        },
        {
          "name": "add",
          "type": "address"
        }
      ],
      "name": "giff",
      "outputs": [],
      "payable": false,
      "stateMutability": "nonpayable",
      "type": "function"
    },
    {
      "constant": true,
      "inputs": [],
      "name": "getOwnerMoney",
      "outputs": [
        {
          "name": "",
          "type": "address"
        }
      ],
      "payable": false,
      "stateMutability": "view",
      "type": "function"
    },
    {
      "constant": true,
      "inputs": [
        {
          "name": "",
          "type": "uint32"
        }
      ],
      "name": "totalSalaryBunny",
      "outputs": [
        {
          "name": "",
          "type": "uint256"
        }
      ],
      "payable": false,
      "stateMutability": "view",
      "type": "function"
    },
    {
      "constant": true,
      "inputs": [
        {
          "name": "_owner",
          "type": "address"
        }
      ],
      "name": "balanceOf",
      "outputs": [
        {
          "name": "",
          "type": "uint256"
        }
      ],
      "payable": false,
      "stateMutability": "view",
      "type": "function"
    },
    {
      "constant": true,
      "inputs": [],
      "name": "promoGen0",
      "outputs": [
        {
          "name": "",
          "type": "uint256"
        }
      ],
      "payable": false,
      "stateMutability": "view",
      "type": "function"
    },
    {
      "constant": true,
      "inputs": [],
      "name": "isUIntPublic",
      "outputs": [
        {
          "name": "",
          "type": "bool"
        }
      ],
      "payable": false,
      "stateMutability": "pure",
      "type": "function"
    },
    {
      "constant": true,
      "inputs": [],
      "name": "totalGen0",
      "outputs": [
        {
          "name": "",
          "type": "uint256"
        }
      ],
      "payable": false,
      "stateMutability": "view",
      "type": "function"
    },
    {
      "constant": true,
      "inputs": [],
      "name": "lastIdGen0",
      "outputs": [
        {
          "name": "",
          "type": "uint32"
        }
      ],
      "payable": false,
      "stateMutability": "view",
      "type": "function"
    },
    {
      "constant": false,
      "inputs": [
        {
          "name": "_bunnyid",
          "type": "uint32"
        },
        {
          "name": "_money",
          "type": "uint256"
        }
      ],
      "name": "setMarket",
      "outputs": [],
      "payable": false,
      "stateMutability": "nonpayable",
      "type": "function"
    },
    {
      "constant": true,
      "inputs": [],
      "name": "fcontr",
      "outputs": [
        {
          "name": "",
          "type": "bool"
        }
      ],
      "payable": false,
      "stateMutability": "view",
      "type": "function"
    },
    {
      "constant": true,
      "inputs": [],
      "name": "isPauseSave",
      "outputs": [
        {
          "name": "",
          "type": "bool"
        }
      ],
      "payable": false,
      "stateMutability": "view",
      "type": "function"
    },
    {
      "constant": true,
      "inputs": [],
      "name": "isPriv",
      "outputs": [
        {
          "name": "",
          "type": "bool"
        }
      ],
      "payable": false,
      "stateMutability": "view",
      "type": "function"
    },
    {
      "constant": true,
      "inputs": [],
      "name": "ownerMoney",
      "outputs": [
        {
          "name": "",
          "type": "address"
        }
      ],
      "payable": false,
      "stateMutability": "view",
      "type": "function"
    },
    {
      "constant": true,
      "inputs": [],
      "name": "lastTimeGen0",
      "outputs": [
        {
          "name": "",
          "type": "uint256"
        }
      ],
      "payable": false,
      "stateMutability": "view",
      "type": "function"
    },
    {
      "constant": true,
      "inputs": [],
      "name": "totalBunny",
      "outputs": [
        {
          "name": "",
          "type": "uint32"
        }
      ],
      "payable": false,
      "stateMutability": "view",
      "type": "function"
    },
    {
      "constant": true,
      "inputs": [
        {
          "name": "rabbitid",
          "type": "uint256"
        }
      ],
      "name": "deleteRabbitMarket",
      "outputs": [],
      "payable": false,
      "stateMutability": "pure",
      "type": "function"
    },
    {
      "constant": false,
      "inputs": [
        {
          "name": "add",
          "type": "address"
        }
      ],
      "name": "transferOwnershipTechnical",
      "outputs": [],
      "payable": false,
      "stateMutability": "nonpayable",
      "type": "function"
    },
    {
      "constant": true,
      "inputs": [],
      "name": "symbol",
      "outputs": [
        {
          "name": "",
          "type": "string"
        }
      ],
      "payable": false,
      "stateMutability": "view",
      "type": "function"
    },
    {
      "constant": true,
      "inputs": [
        {
          "name": "",
          "type": "uint256"
        }
      ],
      "name": "cooldowns",
      "outputs": [
        {
          "name": "",
          "type": "uint32"
        }
      ],
      "payable": false,
      "stateMutability": "view",
      "type": "function"
    },
    {
      "constant": true,
      "inputs": [
        {
          "name": "rabbitid",
          "type": "uint32"
        },
        {
          "name": "step",
          "type": "uint256"
        }
      ],
      "name": "bidMarket",
      "outputs": [],
      "payable": false,
      "stateMutability": "view",
      "type": "function"
    },
    {
      "constant": false,
      "inputs": [
        {
          "name": "_bunnyid",
          "type": "uint32"
        }
      ],
      "name": "buyBunny",
      "outputs": [],
      "payable": true,
      "stateMutability": "payable",
      "type": "function"
    },
    {
      "constant": false,
      "inputs": [
        {
          "name": "_to",
          "type": "address"
        },
        {
          "name": "_tokenId",
          "type": "uint32"
        }
      ],
      "name": "approve",
      "outputs": [],
      "payable": false,
      "stateMutability": "nonpayable",
      "type": "function"
    },
    {
      "constant": true,
      "inputs": [],
      "name": "privAddress",
      "outputs": [
        {
          "name": "",
          "type": "address"
        }
      ],
      "payable": false,
      "stateMutability": "view",
      "type": "function"
    },
    {
      "constant": true,
      "inputs": [],
      "name": "promoMoney",
      "outputs": [
        {
          "name": "",
          "type": "uint256"
        }
      ],
      "payable": false,
      "stateMutability": "view",
      "type": "function"
    },
    {
      "constant": true,
      "inputs": [],
      "name": "ownerCEO",
      "outputs": [
        {
          "name": "",
          "type": "address"
        }
      ],
      "payable": false,
      "stateMutability": "view",
      "type": "function"
    },
    {
      "constant": true,
      "inputs": [],
      "name": "getOwnerTech",
      "outputs": [
        {
          "name": "",
          "type": "address"
        }
      ],
      "payable": false,
      "stateMutability": "view",
      "type": "function"
    },
    {
      "constant": true,
      "inputs": [
        {
          "name": "",
          "type": "address"
        },
        {
          "name": "",
          "type": "uint256"
        }
      ],
      "name": "ownerBunnies",
      "outputs": [
        {
          "name": "",
          "type": "uint32"
        }
      ],
      "payable": false,
      "stateMutability": "view",
      "type": "function"
    },
    {
      "constant": true,
      "inputs": [
        {
          "name": "owner",
          "type": "address"
        }
      ],
      "name": "getTokenList",
      "outputs": [
        {
          "name": "",
          "type": "uint32[]"
        }
      ],
      "payable": false,
      "stateMutability": "view",
      "type": "function"
    },
    {
      "constant": true,
      "inputs": [],
      "name": "ownerServer",
      "outputs": [
        {
          "name": "",
          "type": "address"
        }
      ],
      "payable": false,
      "stateMutability": "view",
      "type": "function"
    },
    {
      "constant": false,
      "inputs": [
        {
          "name": "period",
          "type": "uint256"
        }
      ],
      "name": "setDayPeriod",
      "outputs": [
        {
          "name": "",
          "type": "uint256"
        }
      ],
      "payable": false,
      "stateMutability": "nonpayable",
      "type": "function"
    },
    {
      "constant": false,
      "inputs": [
        {
          "name": "_promoMoney",
          "type": "uint256"
        }
      ],
      "name": "setPromoMoney",
      "outputs": [],
      "payable": false,
      "stateMutability": "nonpayable",
      "type": "function"
    },
    {
      "constant": false,
      "inputs": [
        {
          "name": "money",
          "type": "uint256"
        }
      ],
      "name": "setStepMoney",
      "outputs": [],
      "payable": false,
      "stateMutability": "nonpayable",
      "type": "function"
    },
    {
      "constant": false,
      "inputs": [
        {
          "name": "add",
          "type": "address"
        }
      ],
      "name": "transferOwnership",
      "outputs": [],
      "payable": false,
      "stateMutability": "nonpayable",
      "type": "function"
    },
    {
      "constant": true,
      "inputs": [],
      "name": "getOwnerServer",
      "outputs": [
        {
          "name": "",
          "type": "address"
        }
      ],
      "payable": false,
      "stateMutability": "view",
      "type": "function"
    },
    {
      "constant": true,
      "inputs": [
        {
          "name": "",
          "type": "uint32"
        }
      ],
      "name": "rabbitName",
      "outputs": [
        {
          "name": "",
          "type": "string"
        }
      ],
      "payable": false,
      "stateMutability": "view",
      "type": "function"
    },
    {
      "constant": true,
      "inputs": [],
      "name": "totalClosedBID",
      "outputs": [
        {
          "name": "",
          "type": "uint256"
        }
      ],
      "payable": false,
      "stateMutability": "view",
      "type": "function"
    },
    {
      "constant": false,
      "inputs": [
        {
          "name": "_bunnyID",
          "type": "uint32"
        }
      ],
      "name": "stopMarket",
      "outputs": [
        {
          "name": "",
          "type": "uint256"
        }
      ],
      "payable": false,
      "stateMutability": "nonpayable",
      "type": "function"
    },
    {
      "constant": true,
      "inputs": [],
      "name": "getMarketCount",
      "outputs": [
        {
          "name": "",
          "type": "uint256"
        }
      ],
      "payable": false,
      "stateMutability": "view",
      "type": "function"
    },
    {
      "constant": false,
      "inputs": [
        {
          "name": "_ownerMoney",
          "type": "address"
        }
      ],
      "name": "transferOwnerMoney",
      "outputs": [],
      "payable": false,
      "stateMutability": "nonpayable",
      "type": "function"
    },
    {
      "anonymous": false,
      "inputs": [
        {
          "indexed": false,
          "name": "bunnyid",
          "type": "uint32"
        },
        {
          "indexed": false,
          "name": "dnk",
          "type": "uint256"
        },
        {
          "indexed": false,
          "name": "blocknumber",
          "type": "uint256"
        }
      ],
      "name": "NewBunny",
      "type": "event"
    },
    {
      "anonymous": false,
      "inputs": [
        {
          "indexed": false,
          "name": "newOwnerBunny",
          "type": "address"
        },
        {
          "indexed": false,
          "name": "bunnyId",
          "type": "uint32"
        }
      ],
      "name": "SendBunny",
      "type": "event"
    },
    {
      "anonymous": false,
      "inputs": [
        {
          "indexed": false,
          "name": "from",
          "type": "address"
        },
        {
          "indexed": false,
          "name": "to",
          "type": "address"
        },
        {
          "indexed": false,
          "name": "tokenId",
          "type": "uint32"
        }
      ],
      "name": "Transfer",
      "type": "event"
    },
    {
      "anonymous": false,
      "inputs": [
        {
          "indexed": false,
          "name": "owner",
          "type": "address"
        },
        {
          "indexed": false,
          "name": "approved",
          "type": "address"
        },
        {
          "indexed": false,
          "name": "tokenId",
          "type": "uint32"
        }
      ],
      "name": "Approval",
      "type": "event"
    },
    {
      "constant": false,
      "inputs": [],
      "name": "createGennezise",
      "outputs": [
        {
          "name": "",
          "type": "uint32"
        }
      ],
      "payable": false,
      "stateMutability": "nonpayable",
      "type": "function"
    },
    {
      "constant": false,
      "inputs": [
        {
          "name": "_matron",
          "type": "uint32"
        },
        {
          "name": "_sire",
          "type": "uint32"
        }
      ],
      "name": "createChildren",
      "outputs": [
        {
          "name": "",
          "type": "uint32"
        }
      ],
      "payable": true,
      "stateMutability": "payable",
      "type": "function"
    },
    {
      "constant": true,
      "inputs": [
        {
          "name": "_mother",
          "type": "uint32"
        }
      ],
      "name": "getcoolduwn",
      "outputs": [
        {
          "name": "lastTime",
          "type": "uint256"
        },
        {
          "name": "cd",
          "type": "uint256"
        }
      ],
      "payable": false,
      "stateMutability": "view",
      "type": "function"
    },
    {
      "constant": false,
      "inputs": [
        {
          "name": "_mother",
          "type": "uint32"
        }
      ],
      "name": "coolduwnUP",
      "outputs": [],
      "payable": false,
      "stateMutability": "nonpayable",
      "type": "function"
    },
    {
      "constant": false,
      "inputs": [
        {
          "name": "_rabbitid",
          "type": "uint32"
        },
        {
          "name": "price",
          "type": "uint256"
        }
      ],
      "name": "setRabbitSirePrice",
      "outputs": [
        {
          "name": "",
          "type": "bool"
        }
      ],
      "payable": false,
      "stateMutability": "nonpayable",
      "type": "function"
    },
    {
      "constant": false,
      "inputs": [
        {
          "name": "rabbitid",
          "type": "uint32"
        },
        {
          "name": "description",
          "type": "string"
        }
      ],
      "name": "setDescriptionRabbit",
      "outputs": [],
      "payable": false,
      "stateMutability": "nonpayable",
      "type": "function"
    },
    {
      "constant": false,
      "inputs": [
        {
          "name": "rabbitid",
          "type": "uint32"
        },
        {
          "name": "name",
          "type": "string"
        }
      ],
      "name": "setNameRabbit",
      "outputs": [],
      "payable": false,
      "stateMutability": "nonpayable",
      "type": "function"
    },
    {
      "constant": false,
      "inputs": [
        {
          "name": "_value",
          "type": "uint256"
        }
      ],
      "name": "getMoney",
      "outputs": [],
      "payable": false,
      "stateMutability": "nonpayable",
      "type": "function"
    },
    {
      "constant": false,
      "inputs": [],
      "name": "wStartTest",
      "outputs": [],
      "payable": false,
      "stateMutability": "nonpayable",
      "type": "function"
    },
    {
      "constant": false,
      "inputs": [],
      "name": "wGiffTest",
      "outputs": [],
      "payable": false,
      "stateMutability": "nonpayable",
      "type": "function"
    }
  ],
  "bytecode": "0x6004805460a060020a60ff0219169055655af3107a4000600555600060075560016009556109c4600a55633b9aca00600b55610260604052603c6080908152607860a05260f060c0526101e060e08190526103c06101005261078061012052610e1061014052611c2061016052613840610180526170806101a05261e1006101c0526201518090526202a30061020052620546006102205262093a8061024052620000af90601090600f620001fe565b506017805463ffffffff60c060020a60ff02011916905560188054600160a060020a0319908116738d6086910c66465be6aa2dba55a51f13734270fc1791829055611c206019556001601a819055601c819055601d819055601e805460ff1916601417905560218190556000602281905560248190556027819055805433600160a060020a039081169185168217909255600280548516821790556003805485168217905582549093169092179055620001739116640100000000620001a5810204565b506017805460c060020a60ff0219167801000000000000000000000000000000000000000000000000179055620002c8565b60048054600160a060020a031916600160a060020a03929092169182179055601780547fffffffffffffffff0000000000000000000000000000000000000000ffffffff16640100000000909202919091179055600090565b6002830191839082156200028f5791602002820160005b838211156200025b57835183826101000a81548163ffffffff021916908363ffffffff160217905550926020019260040160208160030104928301926001030262000215565b80156200028d5782816101000a81549063ffffffff02191690556004016020816003010492830192600103026200025b565b505b506200029d929150620002a1565b5090565b620002c591905b808211156200029d57805463ffffffff19168155600101620002a8565b90565b612f2a80620002d86000396000f3006080604052600436106103345763ffffffff60e060020a600035041663030f72dd811461033957806303602e9e1461039f57806305caca6c146103d057806306873418146103f157806306fdde03146104285780630847c7a2146104b25780630b336eab146104e257806312448c32146104f7578063131d9a271461053157806314c588de1461064057806314f1cf0c1461065857806317265e191461067657806318160ddd146106da5780631a6f9e34146106ef5780631e923f1b1461070457806323b7ec3b146107195780632a07590114610737578063308c00651461074c5780633262fd9a1461076a57806333506115146107825780633721026c146107ab5780633b23f9c0146107c95780633c9ff012146107e75780633ec27c4a146107fc578063462a8e0514610814578063480892a9146108355780634e2fd44e146108725780634fd839c614610893578063553fd043146108b157806359dc2eec146108c957806362075af414610915578063625101d51461093f5780636b5330571461095457806370a082311461097257806370d4d7b4146109935780637214d6c3146109a85780637230ef7f146109bd578063731f49b7146109d257806373edbc22146109e757806374479db014610a085780637878b66a14610a1d5780637cbd544414610a3257806381310d0914610a475780638231ee9814610a5c578063847ec2de14610a7157806384fcfb3414610a865780638638fc3c14610a9e57806395d89b4114610abf5780639d6fac6f14610ad45780639fa0fe1014610aec578063a13a7cee14610b0d578063a210a67614610b24578063a7e9454214610b35578063a94beee214610b5f578063ad5a157d14610b74578063c17c045614610b89578063c7191bc714610b9e578063d00dbcb014610bb3578063d8a3073214610bd7578063de3bb65414610c48578063e83738ca14610c5d578063e8defac714610c72578063edfdd9d814610c8a578063eea23d8a14610ca8578063ef229dc714610cc0578063f2fde38b14610cd8578063f3cee12914610cf9578063f46b888e14610d0e578063f65045df14610d2c578063fb6c2b6f14610d41578063fd69f3c214610d5f578063fdaacf1b14610d74575b600080fd5b34801561034557600080fd5b5060408051602060046024803582810135601f810185900485028601850190965285855261039d95833563ffffffff16953695604494919390910191908190840183828082843750949750610d959650505050505050565b005b3480156103ab57600080fd5b506103b4610e1a565b60408051600160a060020a039092168252519081900360200190f35b3480156103dc57600080fd5b5061039d600160a060020a0360043516610e47565b3480156103fd57600080fd5b5061040f63ffffffff60043516610e9d565b6040805192835260208301919091528051918290030190f35b34801561043457600080fd5b5061043d610f3c565b6040805160208082528351818301528351919283929083019185019080838360005b8381101561047757818101518382015260200161045f565b50505050905090810190601f1680156104a45780820380516001836020036101000a031916815260200191505b509250505060405180910390f35b3480156104be57600080fd5b506104d063ffffffff60043516610f73565b60408051918252519081900360200190f35b3480156104ee57600080fd5b506103b4610f85565b34801561050357600080fd5b5061051863ffffffff60043516602435610f94565b6040805163ffffffff9092168252519081900360200190f35b34801561053d57600080fd5b50610549600435610fdc565b604051808861018080838360005b8381101561056f578181015183820152602001610557565b5050505090500187600c60200280838360005b8381101561059a578181015183820152602001610582565b5050505090500186600c60200280838360005b838110156105c55781810151838201526020016105ad565b5050505090500185600c60200280838360005b838110156105f05781810151838201526020016105d8565b5050505090500184600c60200280838360005b8381101561061b578181015183820152602001610603565b5050505090500183815260200182815260200197505050505050505060405180910390f35b34801561064c57600080fd5b5061039d600435611147565b34801561066457600080fd5b506103b463ffffffff60043516611167565b34801561068257600080fd5b5060408051602060046024803582810135601f810185900485028601850190965285855261039d95833563ffffffff169536956044949193909101919081908401838280828437509497506111829650505050505050565b3480156106e657600080fd5b50610518611201565b3480156106fb57600080fd5b5061039d61120d565b34801561071057600080fd5b506103b46112a5565b34801561072557600080fd5b506103b463ffffffff600435166112b4565b34801561074357600080fd5b506105186112d5565b34801561075857600080fd5b506104d063ffffffff6004351661153c565b34801561077657600080fd5b5061039d6004356115c5565b34801561078e57600080fd5b50610797611631565b604080519115158252519081900360200190f35b3480156107b757600080fd5b506104d063ffffffff60043516611693565b3480156107d557600080fd5b5061043d63ffffffff600435166116a5565b3480156107f357600080fd5b506104d0611740565b34801561080857600080fd5b5061039d600435611746565b34801561082057600080fd5b5061079763ffffffff60043516602435611781565b34801561084157600080fd5b5061084d6004356117f7565b6040805163ffffffff9094168452602084019290925282820152519081900360600190f35b34801561087e57600080fd5b50610797600160a060020a036004351661181f565b34801561089f57600080fd5b506104d063ffffffff6004351661187e565b3480156108bd57600080fd5b5061039d600435611896565b3480156108d557600080fd5b506108e16004356118d1565b6040805163ffffffff9687168152949095166020850152838501929092526060830152608082015290519081900360a00190f35b34801561092157600080fd5b5061039d63ffffffff60043516600160a060020a036024351661191d565b34801561094b57600080fd5b506103b4611956565b34801561096057600080fd5b506104d063ffffffff60043516611982565b34801561097e57600080fd5b506104d0600160a060020a0360043516611994565b34801561099f57600080fd5b506104d06119af565b3480156109b457600080fd5b506107976119b5565b3480156109c957600080fd5b506104d06119ba565b3480156109de57600080fd5b506105186119c0565b3480156109f357600080fd5b5061039d63ffffffff600435166024356119cc565b348015610a1457600080fd5b50610797611a8d565b348015610a2957600080fd5b50610797611ab2565b348015610a3e57600080fd5b50610797611ad4565b348015610a5357600080fd5b506103b4611b5a565b348015610a6857600080fd5b506104d0611b69565b348015610a7d57600080fd5b50610518611b6f565b348015610a9257600080fd5b5061039d600435610e9a565b348015610aaa57600080fd5b5061039d600160a060020a0360043516611b7b565b348015610acb57600080fd5b5061043d611bd2565b348015610ae057600080fd5b50610518600435611c09565b348015610af857600080fd5b5061039d63ffffffff60043516602435611c36565b61051863ffffffff60043581169060243516611c49565b61039d63ffffffff60043516611f9a565b348015610b4157600080fd5b5061039d600160a060020a036004351663ffffffff60243516610e16565b348015610b6b57600080fd5b506103b4612100565b348015610b8057600080fd5b506104d061210f565b348015610b9557600080fd5b506103b4612115565b348015610baa57600080fd5b506103b4612124565b348015610bbf57600080fd5b50610518600160a060020a0360043516602435612150565b348015610be357600080fd5b50610bf8600160a060020a036004351661216b565b60408051602080825283518183015283519192839290830191858101910280838360005b83811015610c34578181015183820152602001610c1c565b505050509050019250505060405180910390f35b348015610c5457600080fd5b506103b4612203565b348015610c6957600080fd5b5061039d612212565b348015610c7e57600080fd5b506104d060043561226d565b348015610c9657600080fd5b5061039d63ffffffff600435166122b9565b348015610cb457600080fd5b5061039d600435612331565b348015610ccc57600080fd5b5061039d600435612351565b348015610ce457600080fd5b5061039d600160a060020a036004351661238c565b348015610d0557600080fd5b506103b46123e3565b348015610d1a57600080fd5b5061043d63ffffffff6004351661240f565b348015610d3857600080fd5b506104d0612477565b348015610d4d57600080fd5b506104d063ffffffff6004351661247d565b348015610d6b57600080fd5b506104d061259b565b348015610d8057600080fd5b5061039d600160a060020a03600435166125a1565b610d9d611ab2565b1515610da857600080fd5b63ffffffff821660009081526013602052604090205433600160a060020a03908116911614610dd657600080fd5b6101008151108015610de9575060008151115b15610e165763ffffffff821660009081526015602090815260409091208251610e1492840190612d37565b505b5050565b6000805433600160a060020a03908116911614610e3657600080fd5b50600454600160a060020a03165b90565b60005433600160a060020a03908116911614610e6257600080fd5b600160a060020a03811615610e9a576003805473ffffffffffffffffffffffffffffffffffffffff1916600160a060020a0383161790555b50565b60008060126001840363ffffffff16815481101515610eb857fe5b9060005260206000209060040201600201549050600e811115610ed95750600e5b6012805463ffffffff600019860116908110610ef157fe5b906000526020600020906004020160030154601082600f81101515610f1257fe5b600891828204019190066004029054906101000a900463ffffffff1663ffffffff16019150915091565b60408051808201909152600d81527f43727970746f5261626269747300000000000000000000000000000000000000602082015281565b601b6020526000908152604090205481565b600254600160a060020a031681565b600d60205281600052604060002081815481101515610faf57fe5b9060005260206000209060089182820401919006600402915091509054906101000a900463ffffffff1681565b610fe4612db5565b610fec612db5565b610ff4612db5565b610ffc612db5565b611004612db5565b60008080600c81808060018d101561101b5760019c505b838d029650601a5487111561103057601a5496505b5050601a5493506000198b018202600101805b866001018110156111375760008181526028602052604090205463ffffffff169450848c84600c811061107257fe5b63ffffffff92831660209182029290920191909152908616600090815260139091526040902054600160a060020a03168b84600c81106110ae57fe5b600160a060020a03909216602092830291909101526000828152602890915260409020600101548a84600c81106110e157fe5b602090810291909101919091526000828152602890915260409020600201548984600c811061110c57fe5b602002015261111a8561153c565b8884600c811061112657fe5b602002015260019283019201611043565b5050505050919395979092949650565b60005433600160a060020a0390811691161461116257600080fd5b600a55565b601360205260009081526040902054600160a060020a031681565b61118a611ab2565b151561119557600080fd5b63ffffffff821660009081526013602052604090205433600160a060020a039081169116146111c357600080fd5b61010081511080156111d6575060008151115b15610e165763ffffffff821660009081526016602090815260409091208251610e1492840190612d37565b60175463ffffffff1690565b60005433600160a060020a0390811691161461122857600080fd5b6112306112d5565b506112396112d5565b506112426112d5565b5061124b6112d5565b506112546112d5565b5061125d6112d5565b506112666112d5565b5061126f6112d5565b506112786112d5565b506112816112d5565b5061128a6112d5565b506112936112d5565b5061129c6112d5565b50610e9a6112d5565b601854600160a060020a031681565b63ffffffff16600090815260136020526040902054600160a060020a031690565b6000806112e0612dd5565b600354600090819033600160a060020a0390811691161480611310575060005433600160a060020a039081169116145b151561131b57600080fd5b611323611ad4565b151561132e57600080fd5b611336611ab2565b151561134157600080fd5b601760049054906101000a9004600160a060020a0316600160a060020a031663d6cfc2926040518163ffffffff1660e060020a028152600401602060405180830381600087803b15801561139457600080fd5b505af11580156113a8573d6000803e3d6000fd5b505050506040513d60208110156113be57600080fd5b50516040805160a0810182526000808252602080830182815243848601908152606085018481526080860185815260128054600180820180845592895289517fbb8a6a4669ba250d26cd7a459eca9d215f8307e33aebe50379bc5a3617ec344460049093029283018054985163ffffffff1990991663ffffffff9283161767ffffffff000000001916640100000000998316999099029890981790975594517fbb8a6a4669ba250d26cd7a459eca9d215f8307e33aebe50379bc5a3617ec344582015592517fbb8a6a4669ba250d26cd7a459eca9d215f8307e33aebe50379bc5a3617ec344684015590517fbb8a6a4669ba250d26cd7a459eca9d215f8307e33aebe50379bc5a3617ec3447909201919091559182168452600f9092529390912084905554929650945092506114fe90600160a060020a031683866125eb565b611506612671565b905061151282826119cc565b50426025556006805463ffffffff191663ffffffff83161790556007805460010190559392505050565b63ffffffff81166000908152602960209081526040808320548084526028909252822060028101546001909101546019548490428490039082908190156115b8576019548381151561158a57fe5b049150811580159061159b57508415155b156115b4576103e88504905080600a02850393506115b8565b8493505b5091979650505050505050565b60005433600160a060020a039081169116146115e057600080fd5b600160a060020a033016318111156115f757600080fd5b600154604051600160a060020a039091169082156108fc029083906000818181858888f19350505050158015610e16573d6000803e3d6000fd5b6000805433600160a060020a0390811691161461164d57600080fd5b506004805474ff0000000000000000000000000000000000000000198116740100000000000000000000000000000000000000009182900460ff16159182021790915590565b600e6020526000908152604090205481565b60156020908152600091825260409182902080548351601f6002600019610100600186161502019093169290920491820184900484028101840190945280845290918301828280156117385780601f1061170d57610100808354040283529160200191611738565b820191906000526020600020905b81548152906001019060200180831161171b57829003601f168201915b505050505081565b60095481565b60025433600160a060020a0390811691161480611771575060005433600160a060020a039081169116145b151561177c57600080fd5b600955565b600061178b611ab2565b151561179657600080fd5b63ffffffff831660009081526013602052604090205433600160a060020a039081169116146117c457600080fd5b5063ffffffff919091166000908152600e60209081526040808320600190819055600554601b9093529220920290915590565b60286020526000908152604090208054600182015460029092015463ffffffff909116919083565b6004805473ffffffffffffffffffffffffffffffffffffffff1916600160a060020a039290921691821790556017805477ffffffffffffffffffffffffffffffffffffffff000000001916640100000000909202919091179055600090565b63ffffffff166000908152600f602052604090205490565b60025433600160a060020a03908116911614806118c1575060005433600160a060020a039081169116145b15156118cc57600080fd5b602355565b60128054829081106118df57fe5b6000918252602090912060049091020180546001820154600283015460039093015463ffffffff808416955064010000000090930490921692909185565b63ffffffff821660009081526013602052604090205433600160a060020a0390811691161461194b57600080fd5b610e16338284612754565b6000805433600160a060020a0390811691161461197257600080fd5b50600154600160a060020a031690565b600c6020526000908152604090205481565b600160a060020a031660009081526014602052604090205490565b600a5481565b600190565b60075481565b60065463ffffffff1681565b6119d4612e11565b6119dc611ab2565b15156119e757600080fd5b63ffffffff831660009081526013602052604090205433600160a060020a03908116911614611a1557600080fd5b506005546040805160608101825263ffffffff94851680825293909202602080840191825242848401908152601a80546000908152602884528581209651875463ffffffff19169916989098178655925160018087019190915590516002909501949094558154948652602990529320829055019055565b6017547801000000000000000000000000000000000000000000000000900460ff1681565b60045474010000000000000000000000000000000000000000900460ff161590565b6000601760049054906101000a9004600160a060020a0316600160a060020a031663ccb0893d6040518163ffffffff1660e060020a028152600401602060405180830381600087803b158015611b2957600080fd5b505af1158015611b3d573d6000803e3d6000fd5b505050506040513d6020811015611b5357600080fd5b5051905090565b600154600160a060020a031681565b60085481565b60175463ffffffff1681565b60005433600160a060020a03908116911614611b9657600080fd5b600160a060020a03811615610e9a5760028054600160a060020a03831673ffffffffffffffffffffffffffffffffffffffff1990911617905550565b60408051808201909152600381527f4352420000000000000000000000000000000000000000000000000000000000602082015281565b601081600f8110611c1657fe5b60089182820401919006600402915054906101000a900463ffffffff1681565b611c3e611ab2565b1515610e1657600080fd5b600080600080600080600080611c5d612dd5565b6000611c67611ad4565b1515611c7257600080fd5b611c7a611ab2565b1515611c8557600080fd5b63ffffffff8c1660009081526013602052604090205433600160a060020a03908116911614611cb357600080fd5b63ffffffff8b166000908152600e6020526040902054600114611cd557600080fd5b63ffffffff8c8116908c161415611ceb57600080fd5b611cf48c610e9d565b50985042891115611d0457600080fd5b63ffffffff8b166000908152601b60205260409020549750600488049650878701955034861115611d3457600080fd5b63ffffffff8c81166000908152600f6020908152604080832054938f1683528083205460175482517f024a7fcc00000000000000000000000000000000000000000000000000000000815260048101879052602481018390529251959a509098506401000000009004600160a060020a03169363024a7fcc93604480840194938390030190829087803b158015611dca57600080fd5b505af1158015611dde573d6000803e3d6000fd5b505050506040513d6020811015611df457600080fd5b8101908080519060200190929190505050925060a0604051908101604052808d63ffffffff1681526020018c63ffffffff16815260200143815260200160008152602001600081525091506012829080600181540180825580915050906001820390600052602060002090600402016000909192909190915060008201518160000160006101000a81548163ffffffff021916908363ffffffff16021790555060208201518160000160046101000a81548163ffffffff021916908363ffffffff1602179055506040820151816001015560608201518160020155608082015181600301555050905082600f60008363ffffffff1663ffffffff16815260200190815260200160002081905550611f0b8c8861281a565b63ffffffff8b16600090815260136020526040808220549051600160a060020a03909116918a156108fc02918b91818181858888f19350505050158015611f56573d6000803e3d6000fd5b5063ffffffff8c16600090815260136020526040902054611f8190600160a060020a031682856125eb565b611f8b818d61297e565b9b9a5050505050505050505050565b6000611fa4611ab2565b1515611faf57600080fd5b63ffffffff821660009081526013602052604090205433600160a060020a0390811691161415611fde57600080fd5b611fe78261153c565b9050803410158015611ff857508015155b151561200357600080fd5b61200c8261247d565b5060278054600101905563ffffffff821660009081526013602052604090205461204090600160a060020a03163384612754565b63ffffffff821660009081526013602052604090205461206990600160a060020a031634612a0f565b60408051808201825282815263ffffffff841660008181526029602090815284822054825260288152848220600201544203818501908152602754835260268252918590209351845590516001909301929092558251600160a060020a03331681529182015281517fbe094b3f5b6f49f63819500ee3f9149336c47d4b6d3c809583c9ed3b5a458b3e929181900390910190a15050565b600454600160a060020a031681565b600b5481565b600054600160a060020a031681565b6000805433600160a060020a0390811691161461214057600080fd5b50600254600160a060020a031690565b601460205281600052604060002081815481101515610faf57fe5b600160a060020a0381166000908152601460209081526040918290208054835181840281018401909452808452606093928301828280156121f757602002820191906000526020600020906000905b82829054906101000a900463ffffffff1663ffffffff16815260200190600401906020826003010492830192600103820291508084116121ba5790505b50505050509050919050565b600354600160a060020a031681565b60005433600160a060020a0390811691161461222d57600080fd5b61224c60027382c2601df5171c09979a26779018e029b0df5f4561191d565b61226b60037382c2601df5171c09979a26779018e029b0df5f4561191d565b565b60025460009033600160a060020a039081169116148061229b575060005433600160a060020a039081169116145b15156122a657600080fd5b50601c8190556201518002601d81905590565b6122c1611ab2565b15156122cc57600080fd5b6012805463ffffffff6000198401169081106122e457fe5b60009182526020909120600260049092020101805460010190556012805442919063ffffffff60001985011690811061231957fe5b90600052602060002090600402016003018190555050565b60005433600160a060020a0390811691161461234c57600080fd5b600b55565b60025433600160a060020a039081169116148061237c575060005433600160a060020a039081169116145b151561238757600080fd5b601955565b60005433600160a060020a039081169116146123a757600080fd5b600160a060020a03811615610e9a5760008054600160a060020a03831673ffffffffffffffffffffffffffffffffffffffff1990911617905550565b6000805433600160a060020a039081169116146123ff57600080fd5b50600354600160a060020a031690565b60166020908152600091825260409182902080548351601f6002600019610100600186161502019093169290920491820184900484028101840190945280845290918301828280156117385780601f1061170d57610100808354040283529160200191611738565b60275481565b600080612488611ab2565b151561249357600080fd5b5060005b601a54811161258f5760008181526028602052604090205463ffffffff84811691161415612587576000818152602860205260408120805463ffffffff1916815560018101829055600201819055601a541180156124f55750600081115b8015612506575060018103601a5414155b1561257457601a80546000199081016000908152602860205260408082208583528183208154815463ffffffff90911663ffffffff19918216178255600180840154818401556002938401549284019290925595549094018352908220805490941684559183018190559101555b601a805460001981019091559150612595565b600101612497565b601a5491505b50919050565b601a5490565b60005433600160a060020a039081169116146125bc57600080fd5b6001805473ffffffffffffffffffffffffffffffffffffffff1916600160a060020a0392909216919091179055565b6040805163ffffffff8416815260208101839052438183015290517fda21791c5c7b4c2e3fcd04faf012c1f42cde7c879206376981e2f0f423b342439181900360600190a161263a8383612a8a565b5063ffffffff9081166000908152600c60205260408120556017805480831660010190921663ffffffff1990921691909117905550565b600080600080600080600a5460075411151561269157600b54955061274c565b601e546027546000965086955085945084935060ff909116900382101561274c5750601e5460275460ff90911690035b6027548163ffffffff1611156126fd5763ffffffff811660009081526026602052604090208054600191820154950194938401939250016126c1565b601e5460ff168481151561270d57fe5b601e54919004965060ff168381151561272257fe5b0494508460225410151561273d576003860486019550612746565b60038604860395505b60228590555b505050505090565b63ffffffff8116600090815260136020526040902054600160a060020a03908116908416811461278357600080fd5b600160a060020a03818116908416141561279c57600080fd5b600160a060020a03831615156127b157600080fd5b6127bb8183612b0b565b6127c58383612a8a565b60408051600160a060020a0380841682528516602082015263ffffffff84168183015290517f0daf680c3f528a8760b5142fe1f6f80d5f4ea18bb76f347a7a44a2d565c2b7dc9181900360600190a150505050565b600080600080612828611ab2565b151561283357600080fd5b63ffffffff86166000908152600d602052604081205411156129765763ffffffff86166000908152600d60205260409020548581151561286f57fe5b049350600092505b63ffffffff86166000908152600d602052604090205483101561293a5763ffffffff86166000908152600d602052604090208054849081106128b557fe5b6000918252602080832060088304015460079092166004026101000a90910463ffffffff1680835260138252604080842054600c90935280842080548901905551909450600160a060020a03909116925082916108fc871502918791818181858888f1935050505015801561292e573d6000803e3d6000fd5b50600190920191612877565b600154604051600160a060020a039091169086156108fc029087906000818181858888f19350505050158015612974573d6000803e3d6000fd5b505b505050505050565b63ffffffff81166000908152600d602052604081205411156129c65763ffffffff8082166000908152600d60205260408082209285168252902081546129c49290612e39565b505b63ffffffff9182166000908152600d602090815260408220805460018101825590835291206008820401805460079092166004026101000a808502199092169290931602179055565b604051600160a060020a03831690605f606484040280156108fc02916000818181858888f19350505050158015612a4a573d6000803e3d6000fd5b50600154604051600160a060020a03909116906005606484040280156108fc02916000818181858888f19350505050158015610e14573d6000803e3d6000fd5b600160a060020a03909116600081815260146020908152604080832080546001810182559084528284206008820401805463ffffffff97881660046007909416939093026101000a83810298021916969096179095559382526013905291909120805473ffffffffffffffffffffffffffffffffffffffff19169091179055565b600160a060020a038216600090815260146020526040812054905b81811015612d3157600160a060020a0384166000908152601460205260409020805463ffffffff8516919083908110612b5b57fe5b6000918252602090912060088204015460079091166004026101000a900463ffffffff161415612d2957600160a060020a0384166000908152601460205260409020805482908110612ba957fe5b90600052602060002090600891828204019190066004026101000a81549063ffffffff0219169055600082118015612be45750600181038214155b15612cfa57600160a060020a038416600090815260146020526040902080546000198401908110612c1157fe5b90600052602060002090600891828204019190066004029054906101000a900463ffffffff166014600086600160a060020a0316600160a060020a0316815260200190815260200160002082815481101515612c6957fe5b90600052602060002090600891828204019190066004026101000a81548163ffffffff021916908363ffffffff1602179055506014600085600160a060020a0316600160a060020a0316815260200190815260200160002060018303815481101515612cd157fe5b90600052602060002090600891828204019190066004026101000a81549063ffffffff02191690555b600160a060020a0384166000908152601460205260409020805490612d23906000198301612e93565b50612d31565b600101612b26565b50505050565b828054600181600116156101000203166002900490600052602060002090601f016020900481019282601f10612d7857805160ff1916838001178555612da5565b82800160010185558215612da5579182015b82811115612da5578251825591602001919060010190612d8a565b50612db1929150612ec3565b5090565b61018060405190810160405280600c906020820280388339509192915050565b60a060405190810160405280600063ffffffff168152602001600063ffffffff1681526020016000815260200160008152602001600081525090565b606060405190810160405280600063ffffffff16815260200160008152602001600081525090565b82805482825590600052602060002090600701600890048101928215612e87576000526020600020916007016008900482015b82811115612e87578254825591600101919060010190612e6c565b50612db1929150612edd565b815481835581811115610e14576007016008900481600701600890048360005260206000209182019101610e1491905b610e4491905b80821115612db15760008155600101612ec9565b610e4491905b80821115612db157805463ffffffff19168155600101612ee35600a165627a7a723058207a8bd2f145af6cbaf5105182ab534172fcaf9103b08086c38defd215bfc72fe10029",
  "source": "pragma solidity ^0.4.23;\n\nimport \"./RabbitMarket.sol\";\n\n/**\n* \n*/\ncontract BunnyGame is RabbitMarket {    \n \n    event NewBunny(uint32 bunnyid, uint dnk, uint256 blocknumber );\n        /***\n        * @dev create a new gene and put it up for sale, this operation takes place on the server\n         */\n\n\n    function transferNewBunny(address _to, uint32 _bunnyid, uint localdnk) internal {\n        emit NewBunny(_bunnyid, localdnk, block.number);\n        //rabbitToOwner[_bunnyid] = _to; \n        addTokenList(_to, _bunnyid);\n        totalSalaryBunny[_bunnyid] = 0;\n        totalBunny++;\n    }\n    \n    \n    function createGennezise() public  onlyServer returns(uint32) {\n        require(isPriv());\n        require(isPauseSave());\n        uint  localdnk = privateContract.getNewRabbit();\n        Rabbit memory _Rabbit =  Rabbit(0, 0, block.number, 0, 0);\n        uint32 bunnyid =  uint32(rabbits.push(_Rabbit));\n        mapDNK[bunnyid] = localdnk;\n        \n        transferNewBunny(ownerMoney, bunnyid, localdnk);   \n\n        uint _money = getpricegen0();\n\n        setMarket(bunnyid, _money);\n          \n        lastTimeGen0 = now;\n        lastIdGen0 = bunnyid; \n        totalGen0++;\n        return bunnyid;\n    }\n   \n   \n  \n   \n    /**\n    * @dev create new children\n    */\n    function createChildren(uint32 _matron, uint32 _sire) public  payable returns(uint32) {\n\n        require(isPriv());\n        require(isPauseSave());\n        require(rabbitToOwner[_matron] == msg.sender);\n        // Checking for the role\n        require(rabbitRole[_sire] == 1);\n        require(_matron != _sire);\n\n        uint lastTime;\n        (lastTime,) = getcoolduwn(_matron);\n        require(now >= lastTime);\n\n        // Checking the money\n        uint _sirePrice = rabbitSirePrice[_sire];\n        uint _moneyMother = _sirePrice/4;\n        uint _finalCost = _moneyMother + _sirePrice;\n        require(msg.value >= _finalCost);\n          \n        // create \n        uint elementmatron = mapDNK[_matron];\n        uint elementsire = mapDNK[_sire];\n        \n        uint localdnk =  privateContract.mixDNK(elementmatron, elementsire);\n        Rabbit memory rabbit =  Rabbit(_matron, _sire, block.number, 0, 0);\n        \n        uint32 bunnyid =  uint32(rabbits.push(rabbit));\n        mapDNK[bunnyid] = localdnk;\n        _transferMoneyMother(_matron, _moneyMother);\n\n        rabbitToOwner[_sire].transfer(_sirePrice);\n        \n        //    \n        transferNewBunny(rabbitToOwner[_matron], bunnyid, localdnk);   \n          \n        // we establish parents for the child\n        setRabbitMother(bunnyid, _matron);\n         \n        return bunnyid;\n    }\n    \n\n\n    /**\n     *   cooldown\n     */\n    function getcoolduwn(uint32 _mother) public view returns(uint lastTime, uint cd) {\n        cd = rabbits[(_mother-1)].birthCount;\n        if(cd > 14) {\n            cd = 14;\n        }\n        lastTime = (cooldowns[cd] + rabbits[(_mother-1)].birthLastTime);\n    }\n\n\n    /**\n     *     \n     */\n    function coolduwnUP(uint32 _mother) public { // internal\n        require(isPauseSave());\n        rabbits[(_mother-1)].birthCount++;\n        rabbits[(_mother-1)].birthLastTime = now;\n    }\n\n\n    /**\n     * @param _mother - matron send money for parrent\n     * @param _valueMoney - current sale\n     */\n    function _transferMoneyMother(uint32 _mother, uint _valueMoney) internal {\n        require(isPauseSave());\n        if (rabbitMother[_mother].length > 0) {\n            uint pastMoney = _valueMoney/uint(rabbitMother[_mother].length);\n            for (uint i=0; i < rabbitMother[_mother].length; i++) {\n\n\n                uint32 _parrentMother = rabbitMother[_mother][i];\n                address add = rabbitToOwner[_parrentMother];\n                //  \n                totalSalaryBunny[_parrentMother] += pastMoney;\n                add.transfer(pastMoney); // refund previous bidder\n            }\n            ownerMoney.transfer(_valueMoney); // refund previous bidder\n        }\n    }\n    \n    \n    /**\n    * @dev We set the cost of renting our genes\n    * @param price rent price\n     */\n    function setRabbitSirePrice(uint32 _rabbitid, uint price) public returns(bool) {\n        require(isPauseSave());\n        require(rabbitToOwner[_rabbitid] == msg.sender);\n        rabbitRole[_rabbitid] = 1;\n        rabbitSirePrice[_rabbitid] = (price * bigPrice);\n        return true;\n    }\n \n    \n    /**\n    *  @dev give the name and description for the rabbit\n    * @param description new description rabbits\n    */\n    function setDescriptionRabbit(uint32 rabbitid, string description) public {\n        require(isPauseSave());\n        require(rabbitToOwner[rabbitid] == msg.sender);\n        if (bytes(description).length < 256 && bytes(description).length > 0) {\n            rabbitDescription[rabbitid] = description;\n        }\n    } \n    \n    /**\n    *  @dev give the name and description for the rabbit\n    * @param name new name rabbits\n    */\n    function setNameRabbit(uint32 rabbitid, string name) public {\n        require(isPauseSave());\n        require(rabbitToOwner[rabbitid] == msg.sender);\n        if (bytes(name).length < 256 && bytes(name).length > 0) {\n            rabbitName[rabbitid] = name;\n        }\n    } \n\n    function getMoney(uint _value) public onlyOwner {\n        require(address(this).balance >= _value);\n        ownerMoney.transfer(_value);\n    }\n\n\n\n\n\n\n\n\n\n\n\n//////////////////////////////////////////////////////\n\n    function wStartTest() public onlyOwner {\n        createGennezise();//1\n        createGennezise();//2\n        createGennezise();//3\n        createGennezise();//4\n        createGennezise();//5\n        createGennezise();//6\n        createGennezise();//7\n        createGennezise();//8\n        createGennezise();//9\n        createGennezise();//10\n        createGennezise();//11\n        createGennezise();//12\n        createGennezise();//13\n        createGennezise();//14\n         \n    }\n    function wGiffTest() public onlyOwner {\n       giff(uint32(2) ,0x82c2601dF5171c09979A26779018e029B0df5f45);\n       giff(uint32(3) ,0x82c2601dF5171c09979A26779018e029B0df5f45);\n    }\n\n\n\n     \n}\n\n\n     ",
  "sourcePath": "/home/koras/contracts/publicRabbit/pub/contracts/BunnyGame.sol",
  "compiler": {
    "name": "solc",
    "version": "0.4.23+commit.124ca40d.Emscripten.clang"
  },
  "schemaVersion": "2.0.0",
  "updatedAt": "2018-05-14T17:15:42.076Z"
}