{
  "contractName": "BunnyGame",
  "abi": [
    {
      "constant": true,
      "inputs": [],
      "name": "getPrivAddress",
      "outputs": [
        {
          "name": "",
          "type": "address"
        }
      ],
      "payable": false,
      "stateMutability": "view",
      "type": "function"
    },
    {
      "constant": false,
      "inputs": [
        {
          "name": "add",
          "type": "address"
        }
      ],
      "name": "transferOwnershipServer",
      "outputs": [],
      "payable": false,
      "stateMutability": "nonpayable",
      "type": "function"
    },
    {
      "constant": true,
      "inputs": [
        {
          "name": "_mother",
          "type": "uint32"
        }
      ],
      "name": "getcoolduwn",
      "outputs": [
        {
          "name": "lastTime",
          "type": "uint256"
        },
        {
          "name": "cd",
          "type": "uint256"
        },
        {
          "name": "lefttime",
          "type": "uint256"
        }
      ],
      "payable": false,
      "stateMutability": "view",
      "type": "function"
    },
    {
      "constant": true,
      "inputs": [],
      "name": "name",
      "outputs": [
        {
          "name": "",
          "type": "string"
        }
      ],
      "payable": false,
      "stateMutability": "view",
      "type": "function"
    },
    {
      "constant": true,
      "inputs": [
        {
          "name": "",
          "type": "uint32"
        }
      ],
      "name": "rabbitSirePrice",
      "outputs": [
        {
          "name": "",
          "type": "uint256"
        }
      ],
      "payable": false,
      "stateMutability": "view",
      "type": "function"
    },
    {
      "constant": true,
      "inputs": [],
      "name": "promoPause",
      "outputs": [
        {
          "name": "",
          "type": "bool"
        }
      ],
      "payable": false,
      "stateMutability": "view",
      "type": "function"
    },
    {
      "constant": true,
      "inputs": [
        {
          "name": "",
          "type": "uint32"
        },
        {
          "name": "",
          "type": "uint256"
        }
      ],
      "name": "rabbitMother",
      "outputs": [
        {
          "name": "",
          "type": "uint32"
        }
      ],
      "payable": false,
      "stateMutability": "view",
      "type": "function"
    },
    {
      "constant": true,
      "inputs": [
        {
          "name": "",
          "type": "uint32"
        }
      ],
      "name": "motherCount",
      "outputs": [
        {
          "name": "",
          "type": "uint256"
        }
      ],
      "payable": false,
      "stateMutability": "view",
      "type": "function"
    },
    {
      "constant": false,
      "inputs": [
        {
          "name": "_promoGen0",
          "type": "uint256"
        }
      ],
      "name": "setPromoGen0",
      "outputs": [],
      "payable": false,
      "stateMutability": "nonpayable",
      "type": "function"
    },
    {
      "constant": true,
      "inputs": [
        {
          "name": "",
          "type": "uint32"
        }
      ],
      "name": "rabbitToOwner",
      "outputs": [
        {
          "name": "",
          "type": "address"
        }
      ],
      "payable": false,
      "stateMutability": "view",
      "type": "function"
    },
    {
      "constant": true,
      "inputs": [],
      "name": "totalSupply",
      "outputs": [
        {
          "name": "total",
          "type": "uint256"
        }
      ],
      "payable": false,
      "stateMutability": "view",
      "type": "function"
    },
    {
      "constant": true,
      "inputs": [
        {
          "name": "_bunnyid",
          "type": "uint32"
        }
      ],
      "name": "getGiffBlock",
      "outputs": [
        {
          "name": "",
          "type": "bool"
        }
      ],
      "payable": false,
      "stateMutability": "view",
      "type": "function"
    },
    {
      "constant": true,
      "inputs": [],
      "name": "myAddr_test",
      "outputs": [
        {
          "name": "",
          "type": "address"
        }
      ],
      "payable": false,
      "stateMutability": "view",
      "type": "function"
    },
    {
      "constant": true,
      "inputs": [
        {
          "name": "_mother",
          "type": "uint32"
        }
      ],
      "name": "getMotherCount",
      "outputs": [
        {
          "name": "",
          "type": "uint256"
        }
      ],
      "payable": false,
      "stateMutability": "view",
      "type": "function"
    },
    {
      "constant": true,
      "inputs": [
        {
          "name": "_tokenId",
          "type": "uint32"
        }
      ],
      "name": "ownerOf",
      "outputs": [
        {
          "name": "owner",
          "type": "address"
        }
      ],
      "payable": false,
      "stateMutability": "view",
      "type": "function"
    },
    {
      "constant": true,
      "inputs": [
        {
          "name": "",
          "type": "uint256"
        },
        {
          "name": "",
          "type": "uint256"
        }
      ],
      "name": "sireGenom",
      "outputs": [
        {
          "name": "",
          "type": "uint32"
        }
      ],
      "payable": false,
      "stateMutability": "view",
      "type": "function"
    },
    {
      "constant": true,
      "inputs": [
        {
          "name": "mother",
          "type": "uint32"
        }
      ],
      "name": "getRabbitMotherSumm",
      "outputs": [
        {
          "name": "count",
          "type": "uint256"
        }
      ],
      "payable": false,
      "stateMutability": "view",
      "type": "function"
    },
    {
      "constant": true,
      "inputs": [
        {
          "name": "_bunny",
          "type": "uint32"
        }
      ],
      "name": "getTotalSalaryBunny",
      "outputs": [
        {
          "name": "",
          "type": "uint256"
        }
      ],
      "payable": false,
      "stateMutability": "view",
      "type": "function"
    },
    {
      "constant": true,
      "inputs": [
        {
          "name": "_bunnyid",
          "type": "uint32"
        }
      ],
      "name": "currentPrice",
      "outputs": [
        {
          "name": "",
          "type": "uint256"
        }
      ],
      "payable": false,
      "stateMutability": "view",
      "type": "function"
    },
    {
      "constant": false,
      "inputs": [],
      "name": "setPauseSave",
      "outputs": [
        {
          "name": "",
          "type": "bool"
        }
      ],
      "payable": false,
      "stateMutability": "nonpayable",
      "type": "function"
    },
    {
      "constant": true,
      "inputs": [],
      "name": "timeRangeCreateGen0",
      "outputs": [
        {
          "name": "",
          "type": "uint256"
        }
      ],
      "payable": false,
      "stateMutability": "view",
      "type": "function"
    },
    {
      "constant": false,
      "inputs": [
        {
          "name": "_sec",
          "type": "uint256"
        }
      ],
      "name": "setTimeRangeGen0",
      "outputs": [],
      "payable": false,
      "stateMutability": "nonpayable",
      "type": "function"
    },
    {
      "constant": true,
      "inputs": [
        {
          "name": "_bunny",
          "type": "uint32"
        }
      ],
      "name": "getBreed",
      "outputs": [
        {
          "name": "interbreed",
          "type": "bool"
        }
      ],
      "payable": false,
      "stateMutability": "view",
      "type": "function"
    },
    {
      "constant": true,
      "inputs": [
        {
          "name": "_tokenId",
          "type": "uint32"
        }
      ],
      "name": "getSirePrice",
      "outputs": [
        {
          "name": "",
          "type": "uint256"
        }
      ],
      "payable": false,
      "stateMutability": "view",
      "type": "function"
    },
    {
      "constant": false,
      "inputs": [
        {
          "name": "_privAddress",
          "type": "address"
        }
      ],
      "name": "setPriv",
      "outputs": [
        {
          "name": "",
          "type": "bool"
        }
      ],
      "payable": false,
      "stateMutability": "nonpayable",
      "type": "function"
    },
    {
      "constant": true,
      "inputs": [
        {
          "name": "bunnyid",
          "type": "uint32"
        }
      ],
      "name": "getRabbitDNK",
      "outputs": [
        {
          "name": "",
          "type": "uint256"
        }
      ],
      "payable": false,
      "stateMutability": "view",
      "type": "function"
    },
    {
      "constant": false,
      "inputs": [
        {
          "name": "_money",
          "type": "uint256"
        }
      ],
      "name": "setMoneyRange",
      "outputs": [],
      "payable": false,
      "stateMutability": "nonpayable",
      "type": "function"
    },
    {
      "constant": true,
      "inputs": [
        {
          "name": "",
          "type": "uint256"
        }
      ],
      "name": "rabbits",
      "outputs": [
        {
          "name": "mother",
          "type": "uint32"
        },
        {
          "name": "sire",
          "type": "uint32"
        },
        {
          "name": "birthblock",
          "type": "uint256"
        },
        {
          "name": "birthCount",
          "type": "uint256"
        },
        {
          "name": "birthLastTime",
          "type": "uint256"
        },
        {
          "name": "role",
          "type": "uint256"
        },
        {
          "name": "genome",
          "type": "uint256"
        }
      ],
      "payable": false,
      "stateMutability": "view",
      "type": "function"
    },
    {
      "constant": false,
      "inputs": [
        {
          "name": "_bunnyid",
          "type": "uint32"
        },
        {
          "name": "_money",
          "type": "uint256"
        }
      ],
      "name": "startMarket",
      "outputs": [
        {
          "name": "",
          "type": "uint256"
        }
      ],
      "payable": false,
      "stateMutability": "nonpayable",
      "type": "function"
    },
    {
      "constant": true,
      "inputs": [],
      "name": "isPromoPause",
      "outputs": [
        {
          "name": "",
          "type": "bool"
        }
      ],
      "payable": false,
      "stateMutability": "view",
      "type": "function"
    },
    {
      "constant": false,
      "inputs": [
        {
          "name": "bunnyid",
          "type": "uint32"
        },
        {
          "name": "add",
          "type": "address"
        }
      ],
      "name": "giff",
      "outputs": [],
      "payable": false,
      "stateMutability": "nonpayable",
      "type": "function"
    },
    {
      "constant": true,
      "inputs": [],
      "name": "getOwnerMoney",
      "outputs": [
        {
          "name": "",
          "type": "address"
        }
      ],
      "payable": false,
      "stateMutability": "view",
      "type": "function"
    },
    {
      "constant": true,
      "inputs": [
        {
          "name": "",
          "type": "uint32"
        }
      ],
      "name": "totalSalaryBunny",
      "outputs": [
        {
          "name": "",
          "type": "uint256"
        }
      ],
      "payable": false,
      "stateMutability": "view",
      "type": "function"
    },
    {
      "constant": true,
      "inputs": [
        {
          "name": "_owner",
          "type": "address"
        }
      ],
      "name": "balanceOf",
      "outputs": [
        {
          "name": "",
          "type": "uint256"
        }
      ],
      "payable": false,
      "stateMutability": "view",
      "type": "function"
    },
    {
      "constant": true,
      "inputs": [
        {
          "name": "_bunny",
          "type": "uint32"
        }
      ],
      "name": "getBunny",
      "outputs": [
        {
          "name": "mother",
          "type": "uint32"
        },
        {
          "name": "sire",
          "type": "uint32"
        },
        {
          "name": "birthblock",
          "type": "uint256"
        },
        {
          "name": "birthCount",
          "type": "uint256"
        },
        {
          "name": "birthLastTime",
          "type": "uint256"
        },
        {
          "name": "role",
          "type": "uint256"
        },
        {
          "name": "genome",
          "type": "uint256"
        },
        {
          "name": "interbreed",
          "type": "bool"
        },
        {
          "name": "leftTime",
          "type": "uint256"
        },
        {
          "name": "lastTime",
          "type": "uint256"
        },
        {
          "name": "price",
          "type": "uint256"
        },
        {
          "name": "motherSumm",
          "type": "uint256"
        }
      ],
      "payable": false,
      "stateMutability": "view",
      "type": "function"
    },
    {
      "constant": true,
      "inputs": [],
      "name": "promoGen0",
      "outputs": [
        {
          "name": "",
          "type": "uint256"
        }
      ],
      "payable": false,
      "stateMutability": "view",
      "type": "function"
    },
    {
      "constant": true,
      "inputs": [],
      "name": "isUIntPublic",
      "outputs": [
        {
          "name": "",
          "type": "bool"
        }
      ],
      "payable": false,
      "stateMutability": "pure",
      "type": "function"
    },
    {
      "constant": true,
      "inputs": [],
      "name": "totalGen0",
      "outputs": [
        {
          "name": "",
          "type": "uint256"
        }
      ],
      "payable": false,
      "stateMutability": "view",
      "type": "function"
    },
    {
      "constant": true,
      "inputs": [],
      "name": "lastIdGen0",
      "outputs": [
        {
          "name": "",
          "type": "uint32"
        }
      ],
      "payable": false,
      "stateMutability": "view",
      "type": "function"
    },
    {
      "constant": true,
      "inputs": [],
      "name": "fcontr",
      "outputs": [
        {
          "name": "",
          "type": "bool"
        }
      ],
      "payable": false,
      "stateMutability": "view",
      "type": "function"
    },
    {
      "constant": true,
      "inputs": [
        {
          "name": "",
          "type": "uint32"
        }
      ],
      "name": "rabbitBreedCount",
      "outputs": [
        {
          "name": "",
          "type": "uint256"
        }
      ],
      "payable": false,
      "stateMutability": "view",
      "type": "function"
    },
    {
      "constant": true,
      "inputs": [],
      "name": "isPauseSave",
      "outputs": [
        {
          "name": "",
          "type": "bool"
        }
      ],
      "payable": false,
      "stateMutability": "view",
      "type": "function"
    },
    {
      "constant": true,
      "inputs": [],
      "name": "isPriv",
      "outputs": [
        {
          "name": "",
          "type": "bool"
        }
      ],
      "payable": false,
      "stateMutability": "view",
      "type": "function"
    },
    {
      "constant": true,
      "inputs": [
        {
          "name": "_to",
          "type": "address"
        }
      ],
      "name": "getOwnerGennezise",
      "outputs": [
        {
          "name": "",
          "type": "bool"
        }
      ],
      "payable": false,
      "stateMutability": "view",
      "type": "function"
    },
    {
      "constant": false,
      "inputs": [
        {
          "name": "_to",
          "type": "address"
        },
        {
          "name": "_tokenId",
          "type": "uint32"
        }
      ],
      "name": "transfer",
      "outputs": [],
      "payable": false,
      "stateMutability": "nonpayable",
      "type": "function"
    },
    {
      "constant": true,
      "inputs": [],
      "name": "lastTimeGen0",
      "outputs": [
        {
          "name": "",
          "type": "uint256"
        }
      ],
      "payable": false,
      "stateMutability": "view",
      "type": "function"
    },
    {
      "constant": false,
      "inputs": [
        {
          "name": "_from",
          "type": "address"
        },
        {
          "name": "_to",
          "type": "address"
        },
        {
          "name": "_tokenId",
          "type": "uint32"
        }
      ],
      "name": "transferFrom",
      "outputs": [
        {
          "name": "",
          "type": "bool"
        }
      ],
      "payable": false,
      "stateMutability": "nonpayable",
      "type": "function"
    },
    {
      "constant": true,
      "inputs": [],
      "name": "totalBunny",
      "outputs": [
        {
          "name": "",
          "type": "uint256"
        }
      ],
      "payable": false,
      "stateMutability": "view",
      "type": "function"
    },
    {
      "constant": true,
      "inputs": [],
      "name": "symbol",
      "outputs": [
        {
          "name": "",
          "type": "string"
        }
      ],
      "payable": false,
      "stateMutability": "view",
      "type": "function"
    },
    {
      "constant": true,
      "inputs": [
        {
          "name": "",
          "type": "uint256"
        }
      ],
      "name": "cooldowns",
      "outputs": [
        {
          "name": "",
          "type": "uint32"
        }
      ],
      "payable": false,
      "stateMutability": "view",
      "type": "function"
    },
    {
      "constant": false,
      "inputs": [
        {
          "name": "_bunnyid",
          "type": "uint32"
        }
      ],
      "name": "buyBunny",
      "outputs": [],
      "payable": true,
      "stateMutability": "payable",
      "type": "function"
    },
    {
      "constant": false,
      "inputs": [
        {
          "name": "_to",
          "type": "address"
        },
        {
          "name": "_tokenId",
          "type": "uint32"
        }
      ],
      "name": "approve",
      "outputs": [
        {
          "name": "",
          "type": "bool"
        }
      ],
      "payable": false,
      "stateMutability": "nonpayable",
      "type": "function"
    },
    {
      "constant": true,
      "inputs": [],
      "name": "promoMoney",
      "outputs": [
        {
          "name": "",
          "type": "uint256"
        }
      ],
      "payable": false,
      "stateMutability": "view",
      "type": "function"
    },
    {
      "constant": true,
      "inputs": [],
      "name": "ownerCEO",
      "outputs": [
        {
          "name": "",
          "type": "address"
        }
      ],
      "payable": false,
      "stateMutability": "view",
      "type": "function"
    },
    {
      "constant": true,
      "inputs": [
        {
          "name": "",
          "type": "address"
        },
        {
          "name": "",
          "type": "uint256"
        }
      ],
      "name": "ownerBunnies",
      "outputs": [
        {
          "name": "",
          "type": "uint32"
        }
      ],
      "payable": false,
      "stateMutability": "view",
      "type": "function"
    },
    {
      "constant": true,
      "inputs": [
        {
          "name": "owner",
          "type": "address"
        }
      ],
      "name": "getTokenOwner",
      "outputs": [
        {
          "name": "total",
          "type": "uint256"
        },
        {
          "name": "list",
          "type": "uint32[]"
        }
      ],
      "payable": false,
      "stateMutability": "view",
      "type": "function"
    },
    {
      "constant": true,
      "inputs": [
        {
          "name": "mother",
          "type": "uint32"
        }
      ],
      "name": "getRabbitMother",
      "outputs": [
        {
          "name": "",
          "type": "uint32[5]"
        }
      ],
      "payable": false,
      "stateMutability": "view",
      "type": "function"
    },
    {
      "constant": false,
      "inputs": [
        {
          "name": "_promoMoney",
          "type": "uint256"
        }
      ],
      "name": "setPromoMoney",
      "outputs": [],
      "payable": false,
      "stateMutability": "nonpayable",
      "type": "function"
    },
    {
      "constant": false,
      "inputs": [
        {
          "name": "money",
          "type": "uint256"
        }
      ],
      "name": "setStepMoney",
      "outputs": [],
      "payable": false,
      "stateMutability": "nonpayable",
      "type": "function"
    },
    {
      "constant": false,
      "inputs": [
        {
          "name": "add",
          "type": "address"
        }
      ],
      "name": "transferOwnership",
      "outputs": [],
      "payable": false,
      "stateMutability": "nonpayable",
      "type": "function"
    },
    {
      "constant": true,
      "inputs": [],
      "name": "getOwnerServer",
      "outputs": [
        {
          "name": "",
          "type": "address"
        }
      ],
      "payable": false,
      "stateMutability": "view",
      "type": "function"
    },
    {
      "constant": true,
      "inputs": [],
      "name": "commission_system",
      "outputs": [
        {
          "name": "",
          "type": "uint256"
        }
      ],
      "payable": false,
      "stateMutability": "view",
      "type": "function"
    },
    {
      "constant": true,
      "inputs": [],
      "name": "totalClosedBID",
      "outputs": [
        {
          "name": "",
          "type": "uint256"
        }
      ],
      "payable": false,
      "stateMutability": "view",
      "type": "function"
    },
    {
      "constant": false,
      "inputs": [],
      "name": "setPromoPause",
      "outputs": [],
      "payable": false,
      "stateMutability": "nonpayable",
      "type": "function"
    },
    {
      "constant": false,
      "inputs": [
        {
          "name": "_bunnyid",
          "type": "uint32"
        }
      ],
      "name": "stopMarket",
      "outputs": [
        {
          "name": "",
          "type": "uint256"
        }
      ],
      "payable": false,
      "stateMutability": "nonpayable",
      "type": "function"
    },
    {
      "constant": true,
      "inputs": [],
      "name": "getMarketCount",
      "outputs": [
        {
          "name": "",
          "type": "uint256"
        }
      ],
      "payable": false,
      "stateMutability": "view",
      "type": "function"
    },
    {
      "constant": false,
      "inputs": [
        {
          "name": "_ownerMoney",
          "type": "address"
        }
      ],
      "name": "transferOwnerMoney",
      "outputs": [],
      "payable": false,
      "stateMutability": "nonpayable",
      "type": "function"
    },
    {
      "anonymous": false,
      "inputs": [
        {
          "indexed": false,
          "name": "newOwnerBunny",
          "type": "address"
        },
        {
          "indexed": false,
          "name": "bunnyId",
          "type": "uint32"
        }
      ],
      "name": "SendBunny",
      "type": "event"
    },
    {
      "anonymous": false,
      "inputs": [
        {
          "indexed": false,
          "name": "bunnyId",
          "type": "uint32"
        }
      ],
      "name": "StopMarket",
      "type": "event"
    },
    {
      "anonymous": false,
      "inputs": [
        {
          "indexed": false,
          "name": "bunnyId",
          "type": "uint32"
        },
        {
          "indexed": false,
          "name": "money",
          "type": "uint256"
        }
      ],
      "name": "StartMarket",
      "type": "event"
    },
    {
      "anonymous": false,
      "inputs": [
        {
          "indexed": false,
          "name": "bunnyId",
          "type": "uint32"
        },
        {
          "indexed": false,
          "name": "money",
          "type": "uint256"
        }
      ],
      "name": "BunnyBuy",
      "type": "event"
    },
    {
      "anonymous": false,
      "inputs": [
        {
          "indexed": false,
          "name": "mother",
          "type": "uint32"
        },
        {
          "indexed": false,
          "name": "summ",
          "type": "uint256"
        }
      ],
      "name": "EmotherCount",
      "type": "event"
    },
    {
      "anonymous": false,
      "inputs": [
        {
          "indexed": false,
          "name": "bunnyId",
          "type": "uint32"
        },
        {
          "indexed": false,
          "name": "dnk",
          "type": "uint256"
        },
        {
          "indexed": false,
          "name": "blocknumber",
          "type": "uint256"
        },
        {
          "indexed": false,
          "name": "breed",
          "type": "uint256"
        }
      ],
      "name": "NewBunny",
      "type": "event"
    },
    {
      "anonymous": false,
      "inputs": [
        {
          "indexed": false,
          "name": "bunnyId",
          "type": "uint32"
        },
        {
          "indexed": false,
          "name": "sex",
          "type": "bool"
        },
        {
          "indexed": false,
          "name": "price",
          "type": "uint256"
        }
      ],
      "name": "ChengeSex",
      "type": "event"
    },
    {
      "anonymous": false,
      "inputs": [
        {
          "indexed": false,
          "name": "bunnyId",
          "type": "uint32"
        },
        {
          "indexed": false,
          "name": "cost",
          "type": "uint256"
        }
      ],
      "name": "SalaryBunny",
      "type": "event"
    },
    {
      "anonymous": false,
      "inputs": [
        {
          "indexed": false,
          "name": "matron",
          "type": "uint32"
        },
        {
          "indexed": false,
          "name": "sire",
          "type": "uint32"
        },
        {
          "indexed": false,
          "name": "child",
          "type": "uint32"
        }
      ],
      "name": "CreateChildren",
      "type": "event"
    },
    {
      "anonymous": false,
      "inputs": [
        {
          "indexed": false,
          "name": "bunnyId",
          "type": "uint32"
        },
        {
          "indexed": false,
          "name": "name",
          "type": "string"
        }
      ],
      "name": "BunnyName",
      "type": "event"
    },
    {
      "anonymous": false,
      "inputs": [
        {
          "indexed": false,
          "name": "bunnyId",
          "type": "uint32"
        },
        {
          "indexed": false,
          "name": "name",
          "type": "string"
        }
      ],
      "name": "BunnyDescription",
      "type": "event"
    },
    {
      "anonymous": false,
      "inputs": [
        {
          "indexed": false,
          "name": "bunnyId",
          "type": "uint32"
        },
        {
          "indexed": false,
          "name": "num",
          "type": "uint256"
        }
      ],
      "name": "CoolduwnMother",
      "type": "event"
    },
    {
      "anonymous": false,
      "inputs": [
        {
          "indexed": false,
          "name": "from",
          "type": "address"
        },
        {
          "indexed": false,
          "name": "to",
          "type": "address"
        },
        {
          "indexed": false,
          "name": "tokenId",
          "type": "uint32"
        }
      ],
      "name": "Transfer",
      "type": "event"
    },
    {
      "anonymous": false,
      "inputs": [
        {
          "indexed": false,
          "name": "owner",
          "type": "address"
        },
        {
          "indexed": false,
          "name": "approved",
          "type": "address"
        },
        {
          "indexed": false,
          "name": "tokenId",
          "type": "uint32"
        }
      ],
      "name": "Approval",
      "type": "event"
    },
    {
      "anonymous": false,
      "inputs": [
        {
          "indexed": false,
          "name": "owner",
          "type": "address"
        },
        {
          "indexed": false,
          "name": "tokenId",
          "type": "uint32"
        }
      ],
      "name": "OwnerBunnies",
      "type": "event"
    },
    {
      "constant": false,
      "inputs": [
        {
          "name": "_matron",
          "type": "uint32"
        }
      ],
      "name": "createGennezise",
      "outputs": [],
      "payable": false,
      "stateMutability": "nonpayable",
      "type": "function"
    },
    {
      "constant": false,
      "inputs": [
        {
          "name": "_matron",
          "type": "uint32"
        },
        {
          "name": "_sire",
          "type": "uint32"
        }
      ],
      "name": "createChildren",
      "outputs": [
        {
          "name": "",
          "type": "uint32"
        }
      ],
      "payable": true,
      "stateMutability": "payable",
      "type": "function"
    },
    {
      "constant": false,
      "inputs": [
        {
          "name": "_rabbitid",
          "type": "uint32"
        },
        {
          "name": "price",
          "type": "uint256"
        }
      ],
      "name": "setRabbitSirePrice",
      "outputs": [
        {
          "name": "",
          "type": "bool"
        }
      ],
      "payable": false,
      "stateMutability": "nonpayable",
      "type": "function"
    },
    {
      "constant": false,
      "inputs": [
        {
          "name": "_rabbitid",
          "type": "uint32"
        }
      ],
      "name": "setSireStop",
      "outputs": [
        {
          "name": "",
          "type": "bool"
        }
      ],
      "payable": false,
      "stateMutability": "nonpayable",
      "type": "function"
    },
    {
      "constant": false,
      "inputs": [
        {
          "name": "_value",
          "type": "uint256"
        }
      ],
      "name": "getMoney",
      "outputs": [],
      "payable": false,
      "stateMutability": "nonpayable",
      "type": "function"
    }
  ],
  "bytecode": "0x608060405273982a49414fd95e3268d3559540a67b03e40acd64600460006101000a81548173ffffffffffffffffffffffffffffffffffffffff021916908373ffffffffffffffffffffffffffffffffffffffff1602179055506000600460146101000a81548160ff0219169083151502179055506601c6bf52634000600555600560065560006008556001600a556109c4600b55600554600102600c556000600d60006101000a81548160ff02191690831515021790555061018060405190810160405280603c63ffffffff1663ffffffff168152602001607863ffffffff1663ffffffff16815260200160f063ffffffff1663ffffffff1681526020016101e063ffffffff1663ffffffff1681526020016103c063ffffffff1663ffffffff16815260200161078063ffffffff1663ffffffff168152602001610e1063ffffffff1663ffffffff168152602001611c2063ffffffff1663ffffffff16815260200161384063ffffffff1663ffffffff16815260200161708063ffffffff1663ffffffff16815260200161e10063ffffffff1663ffffffff1681526020016201518063ffffffff1663ffffffff16815250601590600c620001c3929190620003d2565b506000601e556000601f60146101000a81548160ff021916908315150217905550611c206020556000602155600160225560016023556014602460006101000a81548160ff021916908360ff1602179055506001602655600060275560006029556000602b55336000806101000a81548173ffffffffffffffffffffffffffffffffffffffff021916908373ffffffffffffffffffffffffffffffffffffffff16021790555033600260006101000a81548173ffffffffffffffffffffffffffffffffffffffff021916908373ffffffffffffffffffffffffffffffffffffffff16021790555033600160006101000a81548173ffffffffffffffffffffffffffffffffffffffff021916908373ffffffffffffffffffffffffffffffffffffffff16021790555062000327600460009054906101000a900473ffffffffffffffffffffffffffffffffffffffff1662000349640100000000026401000000009004565b506001601f60146101000a81548160ff021916908315150217905550620004b2565b600081600360006101000a81548173ffffffffffffffffffffffffffffffffffffffff021916908373ffffffffffffffffffffffffffffffffffffffff16021790555081601f60006101000a81548173ffffffffffffffffffffffffffffffffffffffff021916908373ffffffffffffffffffffffffffffffffffffffff160217905550919050565b82600c600701600890048101928215620004695791602002820160005b838211156200043557835183826101000a81548163ffffffff021916908363ffffffff1602179055509260200192600401602081600301049283019260010302620003ef565b8015620004675782816101000a81549063ffffffff021916905560040160208160030104928301926001030262000435565b505b5090506200047891906200047c565b5090565b620004af91905b80821115620004ab57600081816101000a81549063ffffffff02191690555060010162000483565b5090565b90565b61585f80620004c26000396000f30060806040526004361061034e576000357c0100000000000000000000000000000000000000000000000000000000900463ffffffff16806303602e9e1461035357806305caca6c146103aa57806306873418146103ed57806306fdde03146104425780630847c7a2146104d257806309828a471461051957806312448c3214610548578063146c1b5e146105a557806314c588de146105ec57806314f1cf0c1461061957806318160ddd1461068c578063193d5b77146106b75780631e923f1b146107025780631ee550801461075957806323b7ec3b146107a05780632573751f1461081357806327904ee01461086a5780632a335c17146108b1578063308c0065146108f85780633262fd9a1461093f578063335061151461096c5780633c9ff0121461099b5780633ec27c4a146109c6578063433bd924146109f3578063462a8e0514610a3e5780634b72bbaf14610a935780634e2fd44e14610ada5780634fd839c614610b35578063553fd04314610b7c57806359dc2eec14610ba957806359e4eec914610c2c5780635ceb8bc814610c7d57806362075af414610cac578063625101d514610cff5780636b53305714610d5657806370a0823114610d9d57806370a7e2dd14610df457806370d4d7b414610ea45780637214d6c314610ecf5780637230ef7f14610efe578063731f49b714610f2957806374479db014610f605780637759187f14610f8f5780637878b66a14610fd65780637cbd5444146110055780637ea2bbac14611034578063800974841461108f5780638231ee98146110e257806384269ed91461110d578063847ec2de1461119857806395d89b41146111c35780639d6fac6f14611253578063a13a7cee146112a0578063a210a676146112f6578063a22ec4761461131c578063a7e9454214611367578063ad5a157d146113d2578063c17c0456146113fd578063d00dbcb014611454578063dc17c9ca146114c1578063df4b297014611560578063eea23d8a146115cf578063ef229dc7146115fc578063f2fde38b14611629578063f3cee1291461166c578063f6288422146116c3578063f65045df146116ee578063fae8c29e14611719578063fb6c2b6f14611730578063fd5c669414611777578063fd69f3c2146117aa578063fdaacf1b146117d5575b600080fd5b34801561035f57600080fd5b50610368611818565b604051808273ffffffffffffffffffffffffffffffffffffffff1673ffffffffffffffffffffffffffffffffffffffff16815260200191505060405180910390f35b3480156103b657600080fd5b506103eb600480360381019080803573ffffffffffffffffffffffffffffffffffffffff16906020019092919050505061189d565b005b3480156103f957600080fd5b5061041e600480360381019080803563ffffffff169060200190929190505050611973565b60405180848152602001838152602001828152602001935050505060405180910390f35b34801561044e57600080fd5b50610457611a35565b6040518080602001828103825283818151815260200191508051906020019080838360005b8381101561049757808201518184015260208101905061047c565b50505050905090810190601f1680156104c45780820380516001836020036101000a031916815260200191505b509250505060405180910390f35b3480156104de57600080fd5b50610503600480360381019080803563ffffffff169060200190929190505050611a6e565b6040518082815260200191505060405180910390f35b34801561052557600080fd5b5061052e611a86565b604051808215151515815260200191505060405180910390f35b34801561055457600080fd5b50610583600480360381019080803563ffffffff16906020019092919080359060200190929190505050611a99565b604051808263ffffffff1663ffffffff16815260200191505060405180910390f35b3480156105b157600080fd5b506105d6600480360381019080803563ffffffff169060200190929190505050611ad7565b6040518082815260200191505060405180910390f35b3480156105f857600080fd5b5061061760048036038101908080359060200190929190505050611aef565b005b34801561062557600080fd5b5061064a600480360381019080803563ffffffff169060200190929190505050611b54565b604051808273ffffffffffffffffffffffffffffffffffffffff1673ffffffffffffffffffffffffffffffffffffffff16815260200191505060405180910390f35b34801561069857600080fd5b506106a1611b87565b6040518082815260200191505060405180910390f35b3480156106c357600080fd5b506106e8600480360381019080803563ffffffff169060200190929190505050611b91565b604051808215151515815260200191505060405180910390f35b34801561070e57600080fd5b50610717611bc8565b604051808273ffffffffffffffffffffffffffffffffffffffff1673ffffffffffffffffffffffffffffffffffffffff16815260200191505060405180910390f35b34801561076557600080fd5b5061078a600480360381019080803563ffffffff169060200190929190505050611bee565b6040518082815260200191505060405180910390f35b3480156107ac57600080fd5b506107d1600480360381019080803563ffffffff169060200190929190505050611c17565b604051808273ffffffffffffffffffffffffffffffffffffffff1673ffffffffffffffffffffffffffffffffffffffff16815260200191505060405180910390f35b34801561081f57600080fd5b506108486004803603810190808035906020019092919080359060200190929190505050611c60565b604051808263ffffffff1663ffffffff16815260200191505060405180910390f35b34801561087657600080fd5b5061089b600480360381019080803563ffffffff169060200190929190505050611ca8565b6040518082815260200191505060405180910390f35b3480156108bd57600080fd5b506108e2600480360381019080803563ffffffff169060200190929190505050611d2c565b6040518082815260200191505060405180910390f35b34801561090457600080fd5b50610929600480360381019080803563ffffffff169060200190929190505050611d55565b6040518082815260200191505060405180910390f35b34801561094b57600080fd5b5061096a60048036038101908080359060200190929190505050611dd3565b005b34801561097857600080fd5b50610981611ec0565b604051808215151515815260200191505060405180910390f35b3480156109a757600080fd5b506109b0611f4b565b6040518082815260200191505060405180910390f35b3480156109d257600080fd5b506109f160048036038101908080359060200190929190505050611f51565b005b3480156109ff57600080fd5b50610a24600480360381019080803563ffffffff169060200190929190505050611fb6565b604051808215151515815260200191505060405180910390f35b348015610a4a57600080fd5b50610a79600480360381019080803563ffffffff169060200190929190803590602001909291905050506120b9565b604051808215151515815260200191505060405180910390f35b348015610a9f57600080fd5b50610ac4600480360381019080803563ffffffff16906020019092919050505061232c565b6040518082815260200191505060405180910390f35b348015610ae657600080fd5b50610b1b600480360381019080803573ffffffffffffffffffffffffffffffffffffffff16906020019092919050505061241a565b604051808215151515815260200191505060405180910390f35b348015610b4157600080fd5b50610b66600480360381019080803563ffffffff1690602001909291905050506124a3565b6040518082815260200191505060405180910390f35b348015610b8857600080fd5b50610ba7600480360381019080803590602001909291905050506124cc565b005b348015610bb557600080fd5b50610bd460048036038101908080359060200190929190505050612531565b604051808863ffffffff1663ffffffff1681526020018763ffffffff1663ffffffff16815260200186815260200185815260200184815260200183815260200182815260200197505050505050505060405180910390f35b348015610c3857600080fd5b50610c67600480360381019080803563ffffffff169060200190929190803590602001909291905050506125a2565b6040518082815260200191505060405180910390f35b348015610c8957600080fd5b50610c926126c9565b604051808215151515815260200191505060405180910390f35b348015610cb857600080fd5b50610cfd600480360381019080803563ffffffff169060200190929190803573ffffffffffffffffffffffffffffffffffffffff169060200190929190505050612798565b005b348015610d0b57600080fd5b50610d1461285a565b604051808273ffffffffffffffffffffffffffffffffffffffff1673ffffffffffffffffffffffffffffffffffffffff16815260200191505060405180910390f35b348015610d6257600080fd5b50610d87600480360381019080803563ffffffff1690602001909291905050506128df565b6040518082815260200191505060405180910390f35b348015610da957600080fd5b50610dde600480360381019080803573ffffffffffffffffffffffffffffffffffffffff1690602001909291905050506128f7565b6040518082815260200191505060405180910390f35b348015610e0057600080fd5b50610e25600480360381019080803563ffffffff169060200190929190505050612943565b604051808d63ffffffff1663ffffffff1681526020018c63ffffffff1663ffffffff1681526020018b81526020018a8152602001898152602001888152602001878152602001861515151581526020018581526020018481526020018381526020018281526020019c5050505050505050505050505060405180910390f35b348015610eb057600080fd5b50610eb9612b54565b6040518082815260200191505060405180910390f35b348015610edb57600080fd5b50610ee4612b5a565b604051808215151515815260200191505060405180910390f35b348015610f0a57600080fd5b50610f13612b63565b6040518082815260200191505060405180910390f35b348015610f3557600080fd5b50610f3e612b69565b604051808263ffffffff1663ffffffff16815260200191505060405180910390f35b348015610f6c57600080fd5b50610f75612b7f565b604051808215151515815260200191505060405180910390f35b348015610f9b57600080fd5b50610fc0600480360381019080803563ffffffff169060200190929190505050612b92565b6040518082815260200191505060405180910390f35b348015610fe257600080fd5b50610feb612baa565b604051808215151515815260200191505060405180910390f35b34801561101157600080fd5b5061101a612bc2565b604051808215151515815260200191505060405180910390f35b34801561104057600080fd5b50611075600480360381019080803573ffffffffffffffffffffffffffffffffffffffff169060200190929190505050612c8a565b604051808215151515815260200191505060405180910390f35b34801561109b57600080fd5b506110e0600480360381019080803573ffffffffffffffffffffffffffffffffffffffff169060200190929190803563ffffffff169060200190929190505050612ce0565b005b3480156110ee57600080fd5b506110f7612edd565b6040518082815260200191505060405180910390f35b34801561111957600080fd5b5061117e600480360381019080803573ffffffffffffffffffffffffffffffffffffffff169060200190929190803573ffffffffffffffffffffffffffffffffffffffff169060200190929190803563ffffffff169060200190929190505050612ee3565b604051808215151515815260200191505060405180910390f35b3480156111a457600080fd5b506111ad6130a4565b6040518082815260200191505060405180910390f35b3480156111cf57600080fd5b506111d86130aa565b6040518080602001828103825283818151815260200191508051906020019080838360005b838110156112185780820151818401526020810190506111fd565b50505050905090810190601f1680156112455780820380516001836020036101000a031916815260200191505b509250505060405180910390f35b34801561125f57600080fd5b5061127e600480360381019080803590602001909291905050506130e3565b604051808263ffffffff1663ffffffff16815260200191505060405180910390f35b6112d4600480360381019080803563ffffffff169060200190929190803563ffffffff169060200190929190505050613112565b604051808263ffffffff1663ffffffff16815260200191505060405180910390f35b61131a600480360381019080803563ffffffff16906020019092919050505061368c565b005b34801561132857600080fd5b5061134d600480360381019080803563ffffffff1690602001909291905050506138b8565b604051808215151515815260200191505060405180910390f35b34801561137357600080fd5b506113b8600480360381019080803573ffffffffffffffffffffffffffffffffffffffff169060200190929190803563ffffffff1690602001909291905050506139ac565b604051808215151515815260200191505060405180910390f35b3480156113de57600080fd5b506113e76139b7565b6040518082815260200191505060405180910390f35b34801561140957600080fd5b506114126139bd565b604051808273ffffffffffffffffffffffffffffffffffffffff1673ffffffffffffffffffffffffffffffffffffffff16815260200191505060405180910390f35b34801561146057600080fd5b5061149f600480360381019080803573ffffffffffffffffffffffffffffffffffffffff169060200190929190803590602001909291905050506139e2565b604051808263ffffffff1663ffffffff16815260200191505060405180910390f35b3480156114cd57600080fd5b50611502600480360381019080803573ffffffffffffffffffffffffffffffffffffffff169060200190929190505050613a2a565b6040518083815260200180602001828103825283818151815260200191508051906020019060200280838360005b8381101561154b578082015181840152602081019050611530565b50505050905001935050505060405180910390f35b34801561156c57600080fd5b50611591600480360381019080803563ffffffff169060200190929190505050613b34565b6040518082600560200280838360005b838110156115bc5780820151818401526020810190506115a1565b5050505090500191505060405180910390f35b3480156115db57600080fd5b506115fa60048036038101908080359060200190929190505050613bca565b005b34801561160857600080fd5b5061162760048036038101908080359060200190929190505050613c2f565b005b34801561163557600080fd5b5061166a600480360381019080803573ffffffffffffffffffffffffffffffffffffffff169060200190929190505050613c94565b005b34801561167857600080fd5b50611681613d69565b604051808273ffffffffffffffffffffffffffffffffffffffff1673ffffffffffffffffffffffffffffffffffffffff16815260200191505060405180910390f35b3480156116cf57600080fd5b506116d8613dee565b6040518082815260200191505060405180910390f35b3480156116fa57600080fd5b50611703613df4565b6040518082815260200191505060405180910390f35b34801561172557600080fd5b5061172e613dfa565b005b34801561173c57600080fd5b50611761600480360381019080803563ffffffff169060200190929190505050613e81565b6040518082815260200191505060405180910390f35b34801561178357600080fd5b506117a8600480360381019080803563ffffffff169060200190929190505050613f90565b005b3480156117b657600080fd5b506117bf6144b4565b6040518082815260200191505060405180910390f35b3480156117e157600080fd5b50611816600480360381019080803573ffffffffffffffffffffffffffffffffffffffff1690602001909291905050506144be565b005b60008060009054906101000a900473ffffffffffffffffffffffffffffffffffffffff1673ffffffffffffffffffffffffffffffffffffffff163373ffffffffffffffffffffffffffffffffffffffff1614151561187557600080fd5b600360009054906101000a900473ffffffffffffffffffffffffffffffffffffffff16905090565b6000809054906101000a900473ffffffffffffffffffffffffffffffffffffffff1673ffffffffffffffffffffffffffffffffffffffff163373ffffffffffffffffffffffffffffffffffffffff161415156118f857600080fd5b600073ffffffffffffffffffffffffffffffffffffffff168173ffffffffffffffffffffffffffffffffffffffff161415156119705780600260006101000a81548173ffffffffffffffffffffffffffffffffffffffff021916908373ffffffffffffffffffffffffffffffffffffffff1602179055505b50565b600080600060176001850363ffffffff1681548110151561199057fe5b9060005260206000209060060201600201549150600e8211156119b257600e91505b60176001850363ffffffff168154811015156119ca57fe5b906000526020600020906006020160030154601583600c811015156119eb57fe5b600891828204019190066004029054906101000a900463ffffffff1663ffffffff1601925042831115611a2e57611a2b428461459490919063ffffffff16565b90505b9193909250565b6040805190810160405280600d81526020017f43727970746f526162626974730000000000000000000000000000000000000081525081565b60126020528060005260406000206000915090505481565b600d60009054906101000a900460ff1681565b600f60205281600052604060002081600581101515611ab457fe5b60089182820401919006600402915091509054906101000a900463ffffffff1681565b60106020528060005260406000206000915090505481565b6000809054906101000a900473ffffffffffffffffffffffffffffffffffffffff1673ffffffffffffffffffffffffffffffffffffffff163373ffffffffffffffffffffffffffffffffffffffff16141515611b4a57600080fd5b80600b8190555050565b60186020528060005260406000206000915054906101000a900473ffffffffffffffffffffffffffffffffffffffff1681565b6000601e54905090565b6000601c60008363ffffffff1663ffffffff16815260200190815260200160002060009054906101000a900460ff16159050919050565b600460009054906101000a900473ffffffffffffffffffffffffffffffffffffffff1681565b6000601060008363ffffffff1663ffffffff168152602001908152602001600020549050919050565b6000601860008363ffffffff1663ffffffff16815260200190815260200160002060009054906101000a900473ffffffffffffffffffffffffffffffffffffffff169050919050565b601360205281600052604060002081815481101515611c7b57fe5b9060005260206000209060089182820401919006600402915091509054906101000a900463ffffffff1681565b600080600090505b6005811015611d26576000600f60008563ffffffff1663ffffffff16815260200190815260200160002082600581101515611ce757fe5b600891828204019190066004029054906101000a900463ffffffff1663ffffffff16141515611d195781806001019250505b8080600101915050611cb0565b50919050565b6000600e60008363ffffffff1663ffffffff168152602001908152602001600020549050919050565b6000806000602c60008563ffffffff1663ffffffff1681526020019081526020016000205491506000821115611dcb57611d996064836145ad90919063ffffffff16565b9050611daf6005826145c890919063ffffffff16565b9050611dc4818361460390919063ffffffff16565b9250611dcc565b5b5050919050565b6000809054906101000a900473ffffffffffffffffffffffffffffffffffffffff1673ffffffffffffffffffffffffffffffffffffffff163373ffffffffffffffffffffffffffffffffffffffff16141515611e2e57600080fd5b803073ffffffffffffffffffffffffffffffffffffffff163110151515611e5457600080fd5b600160009054906101000a900473ffffffffffffffffffffffffffffffffffffffff1673ffffffffffffffffffffffffffffffffffffffff166108fc829081150290604051600060405180830381858888f19350505050158015611ebc573d6000803e3d6000fd5b5050565b60008060009054906101000a900473ffffffffffffffffffffffffffffffffffffffff1673ffffffffffffffffffffffffffffffffffffffff163373ffffffffffffffffffffffffffffffffffffffff16141515611f1d57600080fd5b600460149054906101000a900460ff1615600460146101000a81548160ff0219169083151502179055905090565b600a5481565b6000809054906101000a900473ffffffffffffffffffffffffffffffffffffffff1673ffffffffffffffffffffffffffffffffffffffff163373ffffffffffffffffffffffffffffffffffffffff16141515611fac57600080fd5b80600a8190555050565b60008060008060018503945060008563ffffffff161415611fd6576120b1565b60178563ffffffff16815481101515611feb57fe5b906000526020600020906006020160030154925060178563ffffffff1681548110151561201457fe5b9060005260206000209060060201600201549150601582600c8110151561203757fe5b600891828204019190066004029054906101000a900463ffffffff1663ffffffff16905061206e838261460390919063ffffffff16565b90504281111580156120a65750600060178663ffffffff1681548110151561209257fe5b906000526020600020906006020160040154145b156120b057600193505b5b505050919050565b60008060006120c6612baa565b15156120d157600080fd5b3373ffffffffffffffffffffffffffffffffffffffff16601860008763ffffffff1663ffffffff16815260200190815260200160002060009054906101000a900473ffffffffffffffffffffffffffffffffffffffff1673ffffffffffffffffffffffffffffffffffffffff1614151561214a57600080fd5b6005548411151561215a57600080fd5b61216385611973565b9050508092505081421015151561217957600080fd5b600160176001870363ffffffff1681548110151561219357fe5b9060005260206000209060060201600401541480156121d0575083601260008763ffffffff1663ffffffff16815260200190815260200160002054145b156121de5760009250612324565b600160176001870363ffffffff168154811015156121f857fe5b90600052602060002090600602016004018190555083601260008763ffffffff1663ffffffff1681526020019081526020016000208190555060176001860363ffffffff1681548110151561224957fe5b90600052602060002090600602016005015490506013600082815260200190815260200160002085908060018154018082558091505090600182039060005260206000209060089182820401919006600402909192909190916101000a81548163ffffffff021916908363ffffffff160217905550507f23c73fbe30b308411abb0e34d730de433c289c95d4f22ac36485d2d81299faf48560016122ec8861232c565b604051808463ffffffff1663ffffffff16815260200183151515158152602001828152602001935050505060405180910390a1600192505b505092915050565b600080600080600160176001870363ffffffff1681548110151561234c57fe5b906000526020600020906006020160040154141561240d576064601260008763ffffffff1663ffffffff1681526020019081526020016000205481151561238f57fe5b0492506123a66019846145c890919063ffffffff16565b91506123bd600654846145c890919063ffffffff16565b90506123f1601260008763ffffffff1663ffffffff168152602001908152602001600020548361460390919063ffffffff16565b9150612406818361460390919063ffffffff16565b9350612412565b600093505b505050919050565b600081600360006101000a81548173ffffffffffffffffffffffffffffffffffffffff021916908373ffffffffffffffffffffffffffffffffffffffff16021790555081601f60006101000a81548173ffffffffffffffffffffffffffffffffffffffff021916908373ffffffffffffffffffffffffffffffffffffffff160217905550919050565b6000601460008363ffffffff1663ffffffff168152602001908152602001600020549050919050565b6000809054906101000a900473ffffffffffffffffffffffffffffffffffffffff1673ffffffffffffffffffffffffffffffffffffffff163373ffffffffffffffffffffffffffffffffffffffff1614151561252757600080fd5b8060288190555050565b60178181548110151561254057fe5b90600052602060002090600602016000915090508060000160009054906101000a900463ffffffff16908060000160049054906101000a900463ffffffff16908060010154908060020154908060030154908060040154908060050154905087565b60006125ac612baa565b15156125b757600080fd5b60055482101515156125c857600080fd5b3373ffffffffffffffffffffffffffffffffffffffff16601860008563ffffffff1663ffffffff16815260200190815260200160002060009054906101000a900473ffffffffffffffffffffffffffffffffffffffff1673ffffffffffffffffffffffffffffffffffffffff1614151561264157600080fd5b81602c60008563ffffffff1663ffffffff168152602001908152602001600020819055507fae8365010d3a77defa2d2909289a7792338a008a7be42c339b0162045093a9628383604051808363ffffffff1663ffffffff1681526020018281526020019250505060405180910390a16021600081548092919060010191905055905092915050565b6000600260009054906101000a900473ffffffffffffffffffffffffffffffffffffffff1673ffffffffffffffffffffffffffffffffffffffff163373ffffffffffffffffffffffffffffffffffffffff16148061277357506000809054906101000a900473ffffffffffffffffffffffffffffffffffffffff1673ffffffffffffffffffffffffffffffffffffffff163373ffffffffffffffffffffffffffffffffffffffff16145b156127815760019050612795565b600d60009054906101000a900460ff161590505b90565b3373ffffffffffffffffffffffffffffffffffffffff16601860008463ffffffff1663ffffffff16815260200190815260200160002060009054906101000a900473ffffffffffffffffffffffffffffffffffffffff1673ffffffffffffffffffffffffffffffffffffffff1614151561281157600080fd5b601c60008363ffffffff1663ffffffff16815260200190815260200160002060009054906101000a900460ff1615151561284a57600080fd5b612855338284612ee3565b505050565b60008060009054906101000a900473ffffffffffffffffffffffffffffffffffffffff1673ffffffffffffffffffffffffffffffffffffffff163373ffffffffffffffffffffffffffffffffffffffff161415156128b757600080fd5b600160009054906101000a900473ffffffffffffffffffffffffffffffffffffffff16905090565b600e6020528060005260406000206000915090505481565b6000601960008373ffffffffffffffffffffffffffffffffffffffff1673ffffffffffffffffffffffffffffffffffffffff168152602001908152602001600020805490509050919050565b60008060008060008060008060008060008061295e8d61232c565b915060018d039c5060178d63ffffffff1681548110151561297b57fe5b906000526020600020906006020160000160009054906101000a900463ffffffff169b5060178d63ffffffff168154811015156129b457fe5b906000526020600020906006020160000160049054906101000a900463ffffffff169a5060178d63ffffffff168154811015156129ed57fe5b906000526020600020906006020160010154995060178d63ffffffff16815481101515612a1657fe5b906000526020600020906006020160020154985060178d63ffffffff16815481101515612a3f57fe5b906000526020600020906006020160030154975060178d63ffffffff16815481101515612a6857fe5b906000526020600020906006020160040154965060178d63ffffffff16815481101515612a9157fe5b9060005260206000209060060201600501549550600e891115612ab357600e98505b601060008e63ffffffff1663ffffffff168152602001908152602001600020549050601589600c81101515612ae457fe5b600891828204019190066004029054906101000a900463ffffffff1663ffffffff169250612b1b888461460390919063ffffffff16565b92504283111515612b2f5760019450612b45565b612b42428461459490919063ffffffff16565b93505b91939597999b5091939597999b565b600b5481565b60006001905090565b60085481565b600760009054906101000a900463ffffffff1681565b601f60149054906101000a900460ff1681565b60116020528060005260406000206000915090505481565b6000600460149054906101000a900460ff1615905090565b6000601f60009054906101000a900473ffffffffffffffffffffffffffffffffffffffff1673ffffffffffffffffffffffffffffffffffffffff1663ccb0893d6040518163ffffffff167c0100000000000000000000000000000000000000000000000000000000028152600401602060405180830381600087803b158015612c4a57600080fd5b505af1158015612c5e573d6000803e3d6000fd5b505050506040513d6020811015612c7457600080fd5b8101908080519060200190929190505050905090565b6000601d60008373ffffffffffffffffffffffffffffffffffffffff1673ffffffffffffffffffffffffffffffffffffffff16815260200190815260200160002060009054906101000a900460ff169050919050565b600080339150601860008463ffffffff1663ffffffff16815260200190815260200160002060009054906101000a900473ffffffffffffffffffffffffffffffffffffffff1690503373ffffffffffffffffffffffffffffffffffffffff16601860008563ffffffff1663ffffffff16815260200190815260200160002060009054906101000a900473ffffffffffffffffffffffffffffffffffffffff1673ffffffffffffffffffffffffffffffffffffffff16141515612da157600080fd5b8373ffffffffffffffffffffffffffffffffffffffff168273ffffffffffffffffffffffffffffffffffffffff1614151515612ddc57600080fd5b600073ffffffffffffffffffffffffffffffffffffffff168473ffffffffffffffffffffffffffffffffffffffff1614151515612e1857600080fd5b612e228184614621565b612e2c848461495f565b7f0daf680c3f528a8760b5142fe1f6f80d5f4ea18bb76f347a7a44a2d565c2b7dc818585604051808473ffffffffffffffffffffffffffffffffffffffff1673ffffffffffffffffffffffffffffffffffffffff1681526020018373ffffffffffffffffffffffffffffffffffffffff1673ffffffffffffffffffffffffffffffffffffffff1681526020018263ffffffff1663ffffffff168152602001935050505060405180910390a150505050565b60095481565b600080601860008463ffffffff1663ffffffff16815260200190815260200160002060009054906101000a900473ffffffffffffffffffffffffffffffffffffffff1690508473ffffffffffffffffffffffffffffffffffffffff168173ffffffffffffffffffffffffffffffffffffffff16141515612f6257600080fd5b8373ffffffffffffffffffffffffffffffffffffffff168173ffffffffffffffffffffffffffffffffffffffff1614151515612f9d57600080fd5b600073ffffffffffffffffffffffffffffffffffffffff168473ffffffffffffffffffffffffffffffffffffffff1614151515612fd957600080fd5b612fe38184614621565b612fed848461495f565b7f0daf680c3f528a8760b5142fe1f6f80d5f4ea18bb76f347a7a44a2d565c2b7dc818585604051808473ffffffffffffffffffffffffffffffffffffffff1673ffffffffffffffffffffffffffffffffffffffff1681526020018373ffffffffffffffffffffffffffffffffffffffff1673ffffffffffffffffffffffffffffffffffffffff1681526020018263ffffffff1663ffffffff168152602001935050505060405180910390a160019150509392505050565b601e5481565b6040805190810160405280600381526020017f435242000000000000000000000000000000000000000000000000000000000081525081565b601581600c811015156130f257fe5b60089182820401919006600402915054906101000a900463ffffffff1681565b600080600061311f615743565b600080600061312c612bc2565b151561313757600080fd5b61313f612baa565b151561314a57600080fd5b3373ffffffffffffffffffffffffffffffffffffffff16601860008b63ffffffff1663ffffffff16815260200190815260200160002060009054906101000a900473ffffffffffffffffffffffffffffffffffffffff1673ffffffffffffffffffffffffffffffffffffffff161415156131c357600080fd5b6001601760018a0363ffffffff168154811015156131dd57fe5b9060005260206000209060060201600401541415156131fb57600080fd5b8763ffffffff168963ffffffff161415151561321657600080fd5b61321f89611fb6565b151561322a57600080fd5b6132338861232c565b341015151561324157600080fd5b61324b8989614ac6565b9550601f60009054906101000a900473ffffffffffffffffffffffffffffffffffffffff1673ffffffffffffffffffffffffffffffffffffffff166327c5e534601460008c63ffffffff1663ffffffff16815260200190815260200160002054601460008c63ffffffff1663ffffffff16815260200190815260200160002054896040518463ffffffff167c0100000000000000000000000000000000000000000000000000000000028152600401808481526020018381526020018281526020019350505050602060405180830381600087803b15801561332c57600080fd5b505af1158015613340573d6000803e3d6000fd5b505050506040513d602081101561335657600080fd5b8101908080519060200190929190505050945060e0604051908101604052808a63ffffffff1681526020018963ffffffff1681526020014381526020016000815260200160008152602001600081526020018781525093506017849080600181540180825580915050906001820390600052602060002090600602016000909192909190915060008201518160000160006101000a81548163ffffffff021916908363ffffffff16021790555060208201518160000160046101000a81548163ffffffff021916908363ffffffff16021790555060408201518160010155606082015181600201556080820151816003015560a0820151816004015560c082015181600501555050925084601460008563ffffffff1663ffffffff168152602001908152602001600020819055506134b76004601260008b63ffffffff1663ffffffff168152602001908152602001600020546145ad90919063ffffffff16565b91506134c38983614b9f565b601860008963ffffffff1663ffffffff16815260200190815260200160002060009054906101000a900473ffffffffffffffffffffffffffffffffffffffff1673ffffffffffffffffffffffffffffffffffffffff166108fc601260008b63ffffffff1663ffffffff168152602001908152602001600020549081150290604051600060405180830381858888f19350505050158015613567573d6000803e3d6000fd5b5061359b6064601260008b63ffffffff1663ffffffff168152602001908152602001600020546145ad90919063ffffffff16565b90506135b2600654826145c890919063ffffffff16565b9050600160009054906101000a900473ffffffffffffffffffffffffffffffffffffffff1673ffffffffffffffffffffffffffffffffffffffff166108fc829081150290604051600060405180830381858888f1935050505015801561361c573d6000803e3d6000fd5b5061362689614de5565b613673601860008b63ffffffff1663ffffffff16815260200190815260200160002060009054906101000a900473ffffffffffffffffffffffffffffffffffffffff168487898d8d614f07565b61367d838a61503b565b82965050505050505092915050565b6000613696612baa565b15156136a157600080fd5b3373ffffffffffffffffffffffffffffffffffffffff16601860008463ffffffff1663ffffffff16815260200190815260200160002060009054906101000a900473ffffffffffffffffffffffffffffffffffffffff1673ffffffffffffffffffffffffffffffffffffffff161415151561371b57600080fd5b61372482611d55565b9050803410158015613737575080600014155b151561374257600080fd5b602b6000815480929190600101919050555061379d601860008463ffffffff1663ffffffff16815260200190815260200160002060009054906101000a900473ffffffffffffffffffffffffffffffffffffffff16346152f8565b6137e7601860008463ffffffff1663ffffffff16815260200190815260200160002060009054906101000a900473ffffffffffffffffffffffffffffffffffffffff163384612ee3565b506137f182613e81565b507faa8b4456e402faf0f19bd69217f4f33657a1be47890a1c1130fba16e233d04c08282604051808363ffffffff1663ffffffff1681526020018281526020019250505060405180910390a17fbe094b3f5b6f49f63819500ee3f9149336c47d4b6d3c809583c9ed3b5a458b3e3383604051808373ffffffffffffffffffffffffffffffffffffffff1673ffffffffffffffffffffffffffffffffffffffff1681526020018263ffffffff1663ffffffff1681526020019250505060405180910390a15050565b60006138c2612baa565b15156138cd57600080fd5b3373ffffffffffffffffffffffffffffffffffffffff16601860008463ffffffff1663ffffffff16815260200190815260200160002060009054906101000a900473ffffffffffffffffffffffffffffffffffffffff1673ffffffffffffffffffffffffffffffffffffffff1614151561394657600080fd5b600060176001840363ffffffff1681548110151561396057fe5b9060005260206000209060060201600401819055506000601260008463ffffffff1663ffffffff168152602001908152602001600020819055506139a3826153ca565b60019050919050565b600080905092915050565b600c5481565b6000809054906101000a900473ffffffffffffffffffffffffffffffffffffffff1681565b6019602052816000526040600020818154811015156139fd57fe5b9060005260206000209060089182820401919006600402915091509054906101000a900463ffffffff1681565b60006060601960008473ffffffffffffffffffffffffffffffffffffffff1673ffffffffffffffffffffffffffffffffffffffff168152602001908152602001600020805490509150601960008473ffffffffffffffffffffffffffffffffffffffff1673ffffffffffffffffffffffffffffffffffffffff168152602001908152602001600020805480602002602001604051908101604052809291908181526020018280548015613b2857602002820191906000526020600020906000905b82829054906101000a900463ffffffff1663ffffffff1681526020019060040190602082600301049283019260010382029150808411613aeb5790505b50505050509050915091565b613b3c61578d565b600f60008363ffffffff1663ffffffff168152602001908152602001600020600580602002604051908101604052809291908260058015613bbe576020028201916000905b82829054906101000a900463ffffffff1663ffffffff1681526020019060040190602082600301049283019260010382029150808411613b815790505b50505050509050919050565b6000809054906101000a900473ffffffffffffffffffffffffffffffffffffffff1673ffffffffffffffffffffffffffffffffffffffff163373ffffffffffffffffffffffffffffffffffffffff16141515613c2557600080fd5b80600c8190555050565b6000809054906101000a900473ffffffffffffffffffffffffffffffffffffffff1673ffffffffffffffffffffffffffffffffffffffff163373ffffffffffffffffffffffffffffffffffffffff16141515613c8a57600080fd5b8060208190555050565b6000809054906101000a900473ffffffffffffffffffffffffffffffffffffffff1673ffffffffffffffffffffffffffffffffffffffff163373ffffffffffffffffffffffffffffffffffffffff16141515613cef57600080fd5b600073ffffffffffffffffffffffffffffffffffffffff168173ffffffffffffffffffffffffffffffffffffffff16141515613d6657806000806101000a81548173ffffffffffffffffffffffffffffffffffffffff021916908373ffffffffffffffffffffffffffffffffffffffff1602179055505b50565b60008060009054906101000a900473ffffffffffffffffffffffffffffffffffffffff1673ffffffffffffffffffffffffffffffffffffffff163373ffffffffffffffffffffffffffffffffffffffff16141515613dc657600080fd5b600260009054906101000a900473ffffffffffffffffffffffffffffffffffffffff16905090565b60065481565b602b5481565b6000809054906101000a900473ffffffffffffffffffffffffffffffffffffffff1673ffffffffffffffffffffffffffffffffffffffff163373ffffffffffffffffffffffffffffffffffffffff16141515613e5557600080fd5b600d60009054906101000a900460ff1615600d60006101000a81548160ff021916908315150217905550565b6000613e8b612baa565b1515613e9657600080fd5b3373ffffffffffffffffffffffffffffffffffffffff16601860008463ffffffff1663ffffffff16815260200190815260200160002060009054906101000a900473ffffffffffffffffffffffffffffffffffffffff1673ffffffffffffffffffffffffffffffffffffffff16141515613f0f57600080fd5b6000602c60008463ffffffff1663ffffffff168152602001908152602001600020819055507ff58a4f70d4c7b287095adb658be31ce93550932214806e2535581c2c4d7f30bd82604051808263ffffffff1663ffffffff16815260200191505060405180910390a16021600081548092919060019003919050559050919050565b600080613f9b615743565b6000809350613fa8612bc2565b1515613fb357600080fd5b613fbb612baa565b1515613fc657600080fd5b613fce6126c9565b1515613fd957600080fd5b600b54600854111561409d57600260009054906101000a900473ffffffffffffffffffffffffffffffffffffffff1673ffffffffffffffffffffffffffffffffffffffff163373ffffffffffffffffffffffffffffffffffffffff16148061408d57506000809054906101000a900473ffffffffffffffffffffffffffffffffffffffff1673ffffffffffffffffffffffffffffffffffffffff163373ffffffffffffffffffffffffffffffffffffffff16145b151561409857600080fd5b614202565b600260009054906101000a900473ffffffffffffffffffffffffffffffffffffffff1673ffffffffffffffffffffffffffffffffffffffff163373ffffffffffffffffffffffffffffffffffffffff16148061414557506000809054906101000a900473ffffffffffffffffffffffffffffffffffffffff1673ffffffffffffffffffffffffffffffffffffffff163373ffffffffffffffffffffffffffffffffffffffff16145b151561420157601d60003373ffffffffffffffffffffffffffffffffffffffff1673ffffffffffffffffffffffffffffffffffffffff16815260200190815260200160002060009054906101000a900460ff161515156141a457600080fd5b6001601d60003373ffffffffffffffffffffffffffffffffffffffff1673ffffffffffffffffffffffffffffffffffffffff16815260200190815260200160002060006101000a81548160ff021916908315150217905550600193505b5b601f60009054906101000a900473ffffffffffffffffffffffffffffffffffffffff1673ffffffffffffffffffffffffffffffffffffffff16638f90f2bb336040518263ffffffff167c0100000000000000000000000000000000000000000000000000000000028152600401808273ffffffffffffffffffffffffffffffffffffffff1673ffffffffffffffffffffffffffffffffffffffff168152602001915050602060405180830381600087803b1580156142bf57600080fd5b505af11580156142d3573d6000803e3d6000fd5b505050506040513d60208110156142e957600080fd5b8101908080519060200190929190505050925060e060405190810160405280600063ffffffff168152602001600063ffffffff168152602001438152602001600081526020016000815260200160008152602001600081525091506017829080600181540180825580915050906001820390600052602060002090600602016000909192909190915060008201518160000160006101000a81548163ffffffff021916908363ffffffff16021790555060208201518160000160046101000a81548163ffffffff021916908363ffffffff16021790555060408201518160010155606082015181600201556080820151816003015560a0820151816004015560c082015181600501555050905082601460008363ffffffff1663ffffffff1681526020019081526020016000208190555061442a3382856000806000614f07565b42602a8190555080600760006101000a81548163ffffffff021916908363ffffffff16021790555060086000815480929190600101919050555061446e818661503b565b83156144ad576001601c60008363ffffffff1663ffffffff16815260200190815260200160002060006101000a81548160ff0219169083151502179055505b5050505050565b6000602154905090565b6000809054906101000a900473ffffffffffffffffffffffffffffffffffffffff1673ffffffffffffffffffffffffffffffffffffffff163373ffffffffffffffffffffffffffffffffffffffff1614151561451957600080fd5b600073ffffffffffffffffffffffffffffffffffffffff168173ffffffffffffffffffffffffffffffffffffffff161415156145915780600160006101000a81548173ffffffffffffffffffffffffffffffffffffffff021916908373ffffffffffffffffffffffffffffffffffffffff1602179055505b50565b60008282111515156145a257fe5b818303905092915050565b60008082848115156145bb57fe5b0490508091505092915050565b60008060008414156145dd57600091506145fc565b82840290508284828115156145ee57fe5b041415156145f857fe5b8091505b5092915050565b600080828401905083811015151561461757fe5b8091505092915050565b600080601960008573ffffffffffffffffffffffffffffffffffffffff1673ffffffffffffffffffffffffffffffffffffffff168152602001908152602001600020805490509150600090505b81811015614958578263ffffffff16601960008673ffffffffffffffffffffffffffffffffffffffff1673ffffffffffffffffffffffffffffffffffffffff168152602001908152602001600020828154811015156146c957fe5b90600052602060002090600891828204019190066004029054906101000a900463ffffffff1663ffffffff16141561494b57601960008573ffffffffffffffffffffffffffffffffffffffff1673ffffffffffffffffffffffffffffffffffffffff1681526020019081526020016000208181548110151561474757fe5b90600052602060002090600891828204019190066004026101000a81549063ffffffff02191690556000821180156147825750600181038214155b156148f357601960008573ffffffffffffffffffffffffffffffffffffffff1673ffffffffffffffffffffffffffffffffffffffff168152602001908152602001600020600183038154811015156147d657fe5b90600052602060002090600891828204019190066004029054906101000a900463ffffffff16601960008673ffffffffffffffffffffffffffffffffffffffff1673ffffffffffffffffffffffffffffffffffffffff1681526020019081526020016000208281548110151561484857fe5b90600052602060002090600891828204019190066004026101000a81548163ffffffff021916908363ffffffff160217905550601960008573ffffffffffffffffffffffffffffffffffffffff1673ffffffffffffffffffffffffffffffffffffffff168152602001908152602001600020600183038154811015156148ca57fe5b90600052602060002090600891828204019190066004026101000a81549063ffffffff02191690555b601960008573ffffffffffffffffffffffffffffffffffffffff1673ffffffffffffffffffffffffffffffffffffffff16815260200190815260200160002080548091906001900361494591906157b0565b50614959565b808060010191505061466e565b5b50505050565b601960008373ffffffffffffffffffffffffffffffffffffffff1673ffffffffffffffffffffffffffffffffffffffff16815260200190815260200160002081908060018154018082558091505090600182039060005260206000209060089182820401919006600402909192909190916101000a81548163ffffffff021916908363ffffffff160217905550507ffa8e2129ea92b2ced664f0497f946a9596ced2af4bd0950bfccd6c6e2078103a8282604051808373ffffffffffffffffffffffffffffffffffffffff1673ffffffffffffffffffffffffffffffffffffffff1681526020018263ffffffff1663ffffffff1681526020019250505060405180910390a181601860008363ffffffff1663ffffffff16815260200190815260200160002060006101000a81548173ffffffffffffffffffffffffffffffffffffffff021916908373ffffffffffffffffffffffffffffffffffffffff1602179055505050565b60008060176001840363ffffffff16815481101515614ae157fe5b90600052602060002090600602016005015460176001860363ffffffff16815481101515614b0b57fe5b906000526020600020906006020160050154101515614b555760176001850363ffffffff16815481101515614b3c57fe5b9060005260206000209060060201600501549050614b82565b60176001840363ffffffff16815481101515614b6d57fe5b90600052602060002090600602016005015490505b614b9660018261460390919063ffffffff16565b91505092915050565b600080600080614bad612baa565b1515614bb857600080fd5b600085111515614bc757600080fd5b6000614bd287611ca8565b1115614ddd57614be186611ca8565b85811515614beb57fe5b049350600092505b614bfc86611ca8565b831015614ddc576000600f60008863ffffffff1663ffffffff16815260200190815260200160002084600581101515614c3157fe5b600891828204019190066004029054906101000a900463ffffffff1663ffffffff16141515614dcf57600f60008763ffffffff1663ffffffff16815260200190815260200160002083600581101515614c8657fe5b600891828204019190066004029054906101000a900463ffffffff169150601860008363ffffffff1663ffffffff16815260200190815260200160002060009054906101000a900473ffffffffffffffffffffffffffffffffffffffff169050614cef8261565a565b5083600e60008463ffffffff1663ffffffff168152602001908152602001600020600082825401925050819055507f55ac5b34ed9f8bb24a85585c9449a48c9041c752861ed362c3c7fa3ae0028ec782600e60008563ffffffff1663ffffffff16815260200190815260200160002054604051808363ffffffff1663ffffffff1681526020018281526020019250505060405180910390a18073ffffffffffffffffffffffffffffffffffffffff166108fc859081150290604051600060405180830381858888f19350505050158015614dcd573d6000803e3d6000fd5b505b8280600101935050614bf3565b5b505050505050565b614ded612baa565b1515614df857600080fd5b614e35600160176001840363ffffffff16815481101515614e1557fe5b90600052602060002090600602016002015461460390919063ffffffff16565b60176001830363ffffffff16815481101515614e4d57fe5b9060005260206000209060060201600201819055504260176001830363ffffffff16815481101515614e7b57fe5b9060005260206000209060060201600301819055507f40a71d6481ae5c7839a4c9bb3fa0bb33a4b5816a610c6bc28a590c85e8db5ccc8160176001840363ffffffff16815481101515614eca57fe5b906000526020600020906006020160020154604051808363ffffffff1663ffffffff1681526020018281526020019250505060405180910390a150565b7f5b59c418dc477a7fca624bdf95d9fb49f4218046f0f3ffb05443a1d67b41ff9c85854386604051808563ffffffff1663ffffffff16815260200184815260200183815260200182815260200194505050505060405180910390a17fe207bb77a36191c152d0b5aae045371d330a437a5bf5bd80e530f643c9dc3107828287604051808463ffffffff1663ffffffff1681526020018363ffffffff1663ffffffff1681526020018263ffffffff1663ffffffff168152602001935050505060405180910390a1614fd7868661495f565b6000600e60008763ffffffff1663ffffffff168152602001908152602001600020819055506000601060008763ffffffff1663ffffffff16815260200190815260200160002081905550601e60008154809291906001019190505550505050505050565b6150436157ea565b60008060008463ffffffff168663ffffffff161415151561506357600080fd5b60008563ffffffff161415615077576152f0565b60009250600091505b60058210156151ba576000600f60008763ffffffff1663ffffffff168152602001908152602001600020836005811015156150b757fe5b600891828204019190066004029054906101000a900463ffffffff1663ffffffff161415156151ad57600f60008663ffffffff1663ffffffff1681526020019081526020016000208260058110151561510c57fe5b600891828204019190066004029054906101000a900463ffffffff168484600b8110151561513657fe5b602002019063ffffffff16908163ffffffff16815250506000600f60008763ffffffff1663ffffffff1681526020019081526020016000208360058110151561517b57fe5b600891828204019190066004026101000a81548163ffffffff021916908363ffffffff16021790555082806001019350505b8180600101925050615080565b848484600b811015156151c957fe5b602002019063ffffffff16908163ffffffff16815250508280600101935050600090505b60058110156152e557600583111561526f578360018201600b8110151561521057fe5b6020020151600f60008863ffffffff1663ffffffff1681526020019081526020016000208260058110151561524157fe5b600891828204019190066004026101000a81548163ffffffff021916908363ffffffff1602179055506152d8565b8381600b8110151561527d57fe5b6020020151600f60008863ffffffff1663ffffffff168152602001908152602001600020826005811015156152ae57fe5b600891828204019190066004026101000a81548163ffffffff021916908363ffffffff1602179055505b80806001019150506151ed565b6152ee8561565a565b505b505050505050565b8173ffffffffffffffffffffffffffffffffffffffff166108fc605f60648481151561532057fe5b04029081150290604051600060405180830381858888f1935050505015801561534d573d6000803e3d6000fd5b50600160009054906101000a900473ffffffffffffffffffffffffffffffffffffffff1673ffffffffffffffffffffffffffffffffffffffff166108fc600560648481151561539857fe5b04029081150290604051600060405180830381858888f193505050501580156153c5573d6000803e3d6000fd5b505050565b600080600060176001850363ffffffff168154811015156153e757fe5b906000526020600020906006020160050154925060136000848152602001908152602001600020805490509150600090505b81811015615653578363ffffffff16601360008581526020019081526020016000208281548110151561544857fe5b90600052602060002090600891828204019190066004029054906101000a900463ffffffff1663ffffffff16141561564657601360008481526020019081526020016000208181548110151561549a57fe5b90600052602060002090600891828204019190066004026101000a81549063ffffffff02191690556000821180156154d55750600181038214155b156155c25760136000848152602001908152602001600020600183038154811015156154fd57fe5b90600052602060002090600891828204019190066004029054906101000a900463ffffffff16601360008581526020019081526020016000208281548110151561554357fe5b90600052602060002090600891828204019190066004026101000a81548163ffffffff021916908363ffffffff160217905550601360008481526020019081526020016000206001830381548110151561559957fe5b90600052602060002090600891828204019190066004026101000a81549063ffffffff02191690555b601360008481526020019081526020016000208054809190600190036155e891906157b0565b507f23c73fbe30b308411abb0e34d730de433c289c95d4f22ac36485d2d81299faf484600080604051808463ffffffff1663ffffffff16815260200183151515158152602001828152602001935050505060405180910390a1615654565b8080600101915050615419565b5b50505050565b600061568f6001601060008563ffffffff1663ffffffff1681526020019081526020016000205461460390919063ffffffff16565b601060008463ffffffff1663ffffffff168152602001908152602001600020819055507f6fae13a3fbf9a1fd5751233eb2e75ce60a5321dbc847bb3e1e2e257ef43caa4882601060008563ffffffff1663ffffffff16815260200190815260200160002054604051808363ffffffff1663ffffffff1681526020018281526020019250505060405180910390a1601060008363ffffffff1663ffffffff168152602001908152602001600020549050919050565b60e060405190810160405280600063ffffffff168152602001600063ffffffff16815260200160008152602001600081526020016000815260200160008152602001600081525090565b60a060405190810160405280600590602082028038833980820191505090505090565b8154818355818111156157e55760070160089004816007016008900483600052602060002091820191016157e4919061580e565b5b505050565b61016060405190810160405280600b90602082028038833980820191505090505090565b61583091905b8082111561582c576000816000905550600101615814565b5090565b905600a165627a7a72305820403f1554cebf1419741c20e3ff93af9afefec1a3f831a14c40f6e54ed3c6e5600029",
  "source": "pragma solidity ^0.4.23;\nimport \"./RabbitMarket.sol\";\n\n/**\n* Basic actions for the transfer of rights of rabbits\n*/\ncontract BunnyGame is RabbitMarket {    \n  \n    function transferNewBunny(address _to, uint32 _bunnyid, uint localdnk, uint breed, uint32 matron, uint32 sire) internal {\n        emit NewBunny(_bunnyid, localdnk, block.number, breed);\n        emit CreateChildren(matron, sire, _bunnyid);\n        addTokenList(_to, _bunnyid);\n        totalSalaryBunny[_bunnyid] = 0;\n        motherCount[_bunnyid] = 0;\n        totalBunny++;\n    }\n\n    /***\n    * @dev create a new gene and put it up for sale, this operation takes place on the server\n    */\n    function createGennezise(uint32 _matron) public {\n         \n        bool promo = false;\n        require(isPriv());\n        require(isPauseSave());\n        require(isPromoPause());\n \n        if (totalGen0 > promoGen0) { \n            require(msg.sender == ownerServer || msg.sender == ownerCEO);\n        } else if (!(msg.sender == ownerServer || msg.sender == ownerCEO)) {\n            // promo action\n                require(!ownerGennezise[msg.sender]);\n                ownerGennezise[msg.sender] = true;\n                promo = true;\n        }\n        \n        uint  localdnk = privateContract.getNewRabbit(msg.sender);\n        Rabbit memory _Rabbit =  Rabbit( 0, 0, block.number, 0, 0, 0, 0);\n        uint32 _bunnyid =  uint32(rabbits.push(_Rabbit));\n        mapDNK[_bunnyid] = localdnk;\n       \n        transferNewBunny(msg.sender, _bunnyid, localdnk, 0, 0, 0);  \n        \n        lastTimeGen0 = now;\n        lastIdGen0 = _bunnyid; \n        totalGen0++; \n\n        setRabbitMother(_bunnyid, _matron);\n\n        if (promo) {\n            giffblock[_bunnyid] = true;\n        }\n    }\n\n    function getGenomeChildren(uint32 _matron, uint32 _sire) internal view returns(uint) {\n        uint genome;\n        if (rabbits[(_matron-1)].genome >= rabbits[(_sire-1)].genome) {\n            genome = rabbits[(_matron-1)].genome;\n        } else {\n            genome = rabbits[(_sire-1)].genome;\n        }\n        return genome.add(1);\n    }\n    \n    /**\n    * create a new rabbit, according to the cooldown\n    * @param _matron - mother who takes into account the cooldown\n    * @param _sire - the father who is rewarded for mating for the fusion of genes\n     */\n    function createChildren(uint32 _matron, uint32 _sire) public  payable returns(uint32) {\n\n        require(isPriv());\n        require(isPauseSave());\n        require(rabbitToOwner[_matron] == msg.sender);\n        // Checking for the role\n        require(rabbits[(_sire-1)].role == 1);\n        require(_matron != _sire);\n\n        require(getBreed(_matron));\n        // Checking the money \n        \n        require(msg.value >= getSirePrice(_sire));\n        \n        uint genome = getGenomeChildren(_matron, _sire);\n\n        uint localdnk =  privateContract.mixDNK(mapDNK[_matron], mapDNK[_sire], genome);\n        Rabbit memory rabbit =  Rabbit(_matron, _sire, block.number, 0, 0, 0, genome);\n\n        uint32 bunnyid =  uint32(rabbits.push(rabbit));\n        mapDNK[bunnyid] = localdnk;\n\n\n        uint _moneyMother = rabbitSirePrice[_sire].div(4);\n\n        _transferMoneyMother(_matron, _moneyMother);\n\n        rabbitToOwner[_sire].transfer(rabbitSirePrice[_sire]);\n\n        uint system = rabbitSirePrice[_sire].div(100);\n        system = system.mul(commission_system);\n        ownerMoney.transfer(system); // refund previous bidder\n  \n        coolduwnUP(_matron);\n        // we transfer the rabbit to the new owner\n        transferNewBunny(rabbitToOwner[_matron], bunnyid, localdnk, genome, _matron, _sire);   \n        // we establish parents for the child\n        setRabbitMother(bunnyid, _matron);\n        return bunnyid;\n    } \n  \n    /**\n     *  Set the cooldown for childbirth\n     * @param _mother - mother for which cooldown\n     */\n    function coolduwnUP(uint32 _mother) internal { \n        require(isPauseSave());\n        rabbits[(_mother-1)].birthCount = rabbits[(_mother-1)].birthCount.add(1);\n        rabbits[(_mother-1)].birthLastTime = now;\n        emit CoolduwnMother(_mother, rabbits[(_mother-1)].birthCount);\n    }\n\n\n    /**\n     * @param _mother - matron send money for parrent\n     * @param _valueMoney - current sale\n     */\n    function _transferMoneyMother(uint32 _mother, uint _valueMoney) internal {\n        require(isPauseSave());\n        require(_valueMoney > 0);\n        if (getRabbitMotherSumm(_mother) > 0) {\n            uint pastMoney = _valueMoney/getRabbitMotherSumm(_mother);\n            for (uint i=0; i < getRabbitMotherSumm(_mother); i++) {\n                if (rabbitMother[_mother][i] != 0) { \n                    uint32 _parrentMother = rabbitMother[_mother][i];\n                    address add = rabbitToOwner[_parrentMother];\n                    // pay salaries\n                    setMotherCount(_parrentMother);\n                    totalSalaryBunny[_parrentMother] += pastMoney;\n\n                    emit SalaryBunny(_parrentMother, totalSalaryBunny[_parrentMother]);\n\n                    add.transfer(pastMoney); // refund previous bidder\n                }\n            } \n        }\n    }\n    \n    /**\n    * @dev We set the cost of renting our genes\n    * @param price rent price\n     */\n    function setRabbitSirePrice(uint32 _rabbitid, uint price) public returns(bool) {\n        require(isPauseSave());\n        require(rabbitToOwner[_rabbitid] == msg.sender);\n        require(price > bigPrice);\n\n        uint lastTime;\n        (lastTime,,) = getcoolduwn(_rabbitid);\n        require(now >= lastTime);\n\n        if (rabbits[(_rabbitid-1)].role == 1 && rabbitSirePrice[_rabbitid] == price) {\n            return false;\n        }\n\n        rabbits[(_rabbitid-1)].role = 1;\n        rabbitSirePrice[_rabbitid] = price;\n        uint gen = rabbits[(_rabbitid-1)].genome;\n        sireGenom[gen].push(_rabbitid);\n        emit ChengeSex(_rabbitid, true, getSirePrice(_rabbitid));\n        return true;\n    }\n \n    /**\n    * @dev We set the cost of renting our genes\n     */\n    function setSireStop(uint32 _rabbitid) public returns(bool) {\n        require(isPauseSave());\n        require(rabbitToOwner[_rabbitid] == msg.sender);\n     //   require(rabbits[(_rabbitid-1)].role == 0);\n\n        rabbits[(_rabbitid-1)].role = 0;\n        rabbitSirePrice[_rabbitid] = 0;\n        deleteSire(_rabbitid);\n        return true;\n    }\n    \n      function deleteSire(uint32 _tokenId) internal { \n        uint gen = rabbits[(_tokenId-1)].genome;\n\n        uint count = sireGenom[gen].length;\n        for (uint i = 0; i < count; i++) {\n            if(sireGenom[gen][i] == _tokenId)\n            { \n                delete sireGenom[gen][i];\n                if(count > 0 && count != (i-1)){\n                    sireGenom[gen][i] = sireGenom[gen][(count-1)];\n                    delete sireGenom[gen][(count-1)];\n                } \n                sireGenom[gen].length--;\n                emit ChengeSex(_tokenId, false, 0);\n                return;\n            } \n        }\n    } \n\n    function getMoney(uint _value) public onlyOwner {\n        require(address(this).balance >= _value);\n        ownerMoney.transfer(_value);\n    }\n} ",
  "sourcePath": "/home/koras/contracts/publicRabbit/pub/contracts/BunnyGame.sol",
  "compiler": {
    "name": "solc",
    "version": "0.4.23+commit.124ca40d.Emscripten.clang"
  },
  "schemaVersion": "2.0.0",
  "updatedAt": "2018-08-18T15:23:05.040Z"
}