{
  "contractName": "BunnyGame",
  "abi": [
    {
      "constant": true,
      "inputs": [],
      "name": "getPrivAddress",
      "outputs": [
        {
          "name": "",
          "type": "address"
        }
      ],
      "payable": false,
      "stateMutability": "view",
      "type": "function"
    },
    {
      "constant": false,
      "inputs": [
        {
          "name": "add",
          "type": "address"
        }
      ],
      "name": "transferOwnershipServer",
      "outputs": [],
      "payable": false,
      "stateMutability": "nonpayable",
      "type": "function"
    },
    {
      "constant": true,
      "inputs": [
        {
          "name": "_mother",
          "type": "uint32"
        }
      ],
      "name": "getcoolduwn",
      "outputs": [
        {
          "name": "lastTime",
          "type": "uint256"
        },
        {
          "name": "cd",
          "type": "uint256"
        },
        {
          "name": "lefttime",
          "type": "uint256"
        }
      ],
      "payable": false,
      "stateMutability": "view",
      "type": "function"
    },
    {
      "constant": true,
      "inputs": [],
      "name": "name",
      "outputs": [
        {
          "name": "",
          "type": "string"
        }
      ],
      "payable": false,
      "stateMutability": "view",
      "type": "function"
    },
    {
      "constant": true,
      "inputs": [
        {
          "name": "",
          "type": "uint32"
        }
      ],
      "name": "rabbitSirePrice",
      "outputs": [
        {
          "name": "",
          "type": "uint256"
        }
      ],
      "payable": false,
      "stateMutability": "view",
      "type": "function"
    },
    {
      "constant": true,
      "inputs": [
        {
          "name": "",
          "type": "uint32"
        },
        {
          "name": "",
          "type": "uint256"
        }
      ],
      "name": "rabbitMother",
      "outputs": [
        {
          "name": "",
          "type": "uint32"
        }
      ],
      "payable": false,
      "stateMutability": "view",
      "type": "function"
    },
    {
      "constant": true,
      "inputs": [
        {
          "name": "page",
          "type": "uint256"
        }
      ],
      "name": "getBids",
      "outputs": [
        {
          "name": "rabbitID",
          "type": "uint32[12]"
        },
        {
          "name": "rabbitSeller",
          "type": "address[12]"
        },
        {
          "name": "startMoneyBids",
          "type": "uint256[12]"
        },
        {
          "name": "timeStartBids",
          "type": "uint256[12]"
        },
        {
          "name": "currentPriceBids",
          "type": "uint256[12]"
        },
        {
          "name": "elementEnd",
          "type": "uint256"
        },
        {
          "name": "elementTotal",
          "type": "uint256"
        }
      ],
      "payable": false,
      "stateMutability": "view",
      "type": "function"
    },
    {
      "constant": false,
      "inputs": [
        {
          "name": "_promoGen0",
          "type": "uint256"
        }
      ],
      "name": "setPromoGen0",
      "outputs": [],
      "payable": false,
      "stateMutability": "nonpayable",
      "type": "function"
    },
    {
      "constant": true,
      "inputs": [
        {
          "name": "",
          "type": "uint32"
        }
      ],
      "name": "rabbitToOwner",
      "outputs": [
        {
          "name": "",
          "type": "address"
        }
      ],
      "payable": false,
      "stateMutability": "view",
      "type": "function"
    },
    {
      "constant": true,
      "inputs": [],
      "name": "totalSupply",
      "outputs": [
        {
          "name": "total",
          "type": "uint32"
        }
      ],
      "payable": false,
      "stateMutability": "view",
      "type": "function"
    },
    {
      "constant": true,
      "inputs": [
        {
          "name": "_bunnyid",
          "type": "uint32"
        }
      ],
      "name": "getGiffBlock",
      "outputs": [
        {
          "name": "",
          "type": "bool"
        }
      ],
      "payable": false,
      "stateMutability": "view",
      "type": "function"
    },
    {
      "constant": true,
      "inputs": [],
      "name": "myAddr_test",
      "outputs": [
        {
          "name": "",
          "type": "address"
        }
      ],
      "payable": false,
      "stateMutability": "view",
      "type": "function"
    },
    {
      "constant": true,
      "inputs": [
        {
          "name": "_tokenId",
          "type": "uint32"
        }
      ],
      "name": "ownerOf",
      "outputs": [
        {
          "name": "owner",
          "type": "address"
        }
      ],
      "payable": false,
      "stateMutability": "view",
      "type": "function"
    },
    {
      "constant": true,
      "inputs": [
        {
          "name": "_bunnyid",
          "type": "uint32"
        }
      ],
      "name": "currentPrice",
      "outputs": [
        {
          "name": "",
          "type": "uint256"
        }
      ],
      "payable": false,
      "stateMutability": "view",
      "type": "function"
    },
    {
      "constant": false,
      "inputs": [],
      "name": "setPauseSave",
      "outputs": [
        {
          "name": "",
          "type": "bool"
        }
      ],
      "payable": false,
      "stateMutability": "nonpayable",
      "type": "function"
    },
    {
      "constant": true,
      "inputs": [],
      "name": "timeRangeCreateGen0",
      "outputs": [
        {
          "name": "",
          "type": "uint256"
        }
      ],
      "payable": false,
      "stateMutability": "view",
      "type": "function"
    },
    {
      "constant": false,
      "inputs": [
        {
          "name": "_sec",
          "type": "uint256"
        }
      ],
      "name": "setTimeRangeGen0",
      "outputs": [],
      "payable": false,
      "stateMutability": "nonpayable",
      "type": "function"
    },
    {
      "constant": true,
      "inputs": [
        {
          "name": "_bunny",
          "type": "uint32"
        }
      ],
      "name": "getBreed",
      "outputs": [
        {
          "name": "interbreed",
          "type": "bool"
        }
      ],
      "payable": false,
      "stateMutability": "view",
      "type": "function"
    },
    {
      "constant": true,
      "inputs": [
        {
          "name": "",
          "type": "uint256"
        }
      ],
      "name": "bidsArray",
      "outputs": [
        {
          "name": "rabbitID",
          "type": "uint32"
        },
        {
          "name": "startMoney",
          "type": "uint256"
        },
        {
          "name": "timeStart",
          "type": "uint256"
        }
      ],
      "payable": false,
      "stateMutability": "view",
      "type": "function"
    },
    {
      "constant": true,
      "inputs": [
        {
          "name": "_tokenId",
          "type": "uint32"
        }
      ],
      "name": "getSirePrice",
      "outputs": [
        {
          "name": "",
          "type": "uint256"
        }
      ],
      "payable": false,
      "stateMutability": "view",
      "type": "function"
    },
    {
      "constant": false,
      "inputs": [
        {
          "name": "_privAddress",
          "type": "address"
        }
      ],
      "name": "setPriv",
      "outputs": [
        {
          "name": "",
          "type": "bool"
        }
      ],
      "payable": false,
      "stateMutability": "nonpayable",
      "type": "function"
    },
    {
      "constant": true,
      "inputs": [
        {
          "name": "bunnyid",
          "type": "uint32"
        }
      ],
      "name": "getRabbitDNK",
      "outputs": [
        {
          "name": "",
          "type": "uint256"
        }
      ],
      "payable": false,
      "stateMutability": "view",
      "type": "function"
    },
    {
      "constant": false,
      "inputs": [
        {
          "name": "_money",
          "type": "uint256"
        }
      ],
      "name": "setMoneyRange",
      "outputs": [],
      "payable": false,
      "stateMutability": "nonpayable",
      "type": "function"
    },
    {
      "constant": true,
      "inputs": [
        {
          "name": "",
          "type": "uint256"
        }
      ],
      "name": "rabbits",
      "outputs": [
        {
          "name": "mother",
          "type": "uint32"
        },
        {
          "name": "sire",
          "type": "uint32"
        },
        {
          "name": "birthblock",
          "type": "uint256"
        },
        {
          "name": "birthCount",
          "type": "uint256"
        },
        {
          "name": "birthLastTime",
          "type": "uint256"
        },
        {
          "name": "role",
          "type": "uint256"
        },
        {
          "name": "genome",
          "type": "uint256"
        }
      ],
      "payable": false,
      "stateMutability": "view",
      "type": "function"
    },
    {
      "constant": false,
      "inputs": [
        {
          "name": "_bunnyid",
          "type": "uint32"
        },
        {
          "name": "_money",
          "type": "uint256"
        }
      ],
      "name": "startMarket",
      "outputs": [
        {
          "name": "",
          "type": "uint256"
        }
      ],
      "payable": false,
      "stateMutability": "nonpayable",
      "type": "function"
    },
    {
      "constant": false,
      "inputs": [
        {
          "name": "bunnyid",
          "type": "uint32"
        },
        {
          "name": "add",
          "type": "address"
        }
      ],
      "name": "giff",
      "outputs": [],
      "payable": false,
      "stateMutability": "nonpayable",
      "type": "function"
    },
    {
      "constant": true,
      "inputs": [],
      "name": "getOwnerMoney",
      "outputs": [
        {
          "name": "",
          "type": "address"
        }
      ],
      "payable": false,
      "stateMutability": "view",
      "type": "function"
    },
    {
      "constant": true,
      "inputs": [
        {
          "name": "",
          "type": "uint32"
        }
      ],
      "name": "totalSalaryBunny",
      "outputs": [
        {
          "name": "",
          "type": "uint256"
        }
      ],
      "payable": false,
      "stateMutability": "view",
      "type": "function"
    },
    {
      "constant": true,
      "inputs": [
        {
          "name": "_owner",
          "type": "address"
        }
      ],
      "name": "balanceOf",
      "outputs": [
        {
          "name": "",
          "type": "uint256"
        }
      ],
      "payable": false,
      "stateMutability": "view",
      "type": "function"
    },
    {
      "constant": true,
      "inputs": [
        {
          "name": "_bunny",
          "type": "uint32"
        }
      ],
      "name": "getBunny",
      "outputs": [
        {
          "name": "mother",
          "type": "uint32"
        },
        {
          "name": "sire",
          "type": "uint32"
        },
        {
          "name": "birthblock",
          "type": "uint256"
        },
        {
          "name": "birthCount",
          "type": "uint256"
        },
        {
          "name": "birthLastTime",
          "type": "uint256"
        },
        {
          "name": "role",
          "type": "uint256"
        },
        {
          "name": "genome",
          "type": "uint256"
        },
        {
          "name": "interbreed",
          "type": "bool"
        },
        {
          "name": "leftTime",
          "type": "uint256"
        },
        {
          "name": "lastTime",
          "type": "uint256"
        },
        {
          "name": "price",
          "type": "uint256"
        }
      ],
      "payable": false,
      "stateMutability": "view",
      "type": "function"
    },
    {
      "constant": true,
      "inputs": [],
      "name": "promoGen0",
      "outputs": [
        {
          "name": "",
          "type": "uint256"
        }
      ],
      "payable": false,
      "stateMutability": "view",
      "type": "function"
    },
    {
      "constant": true,
      "inputs": [],
      "name": "isUIntPublic",
      "outputs": [
        {
          "name": "",
          "type": "bool"
        }
      ],
      "payable": false,
      "stateMutability": "pure",
      "type": "function"
    },
    {
      "constant": true,
      "inputs": [],
      "name": "totalGen0",
      "outputs": [
        {
          "name": "",
          "type": "uint256"
        }
      ],
      "payable": false,
      "stateMutability": "view",
      "type": "function"
    },
    {
      "constant": true,
      "inputs": [],
      "name": "lastIdGen0",
      "outputs": [
        {
          "name": "",
          "type": "uint32"
        }
      ],
      "payable": false,
      "stateMutability": "view",
      "type": "function"
    },
    {
      "constant": true,
      "inputs": [],
      "name": "fcontr",
      "outputs": [
        {
          "name": "",
          "type": "bool"
        }
      ],
      "payable": false,
      "stateMutability": "view",
      "type": "function"
    },
    {
      "constant": true,
      "inputs": [],
      "name": "isPauseSave",
      "outputs": [
        {
          "name": "",
          "type": "bool"
        }
      ],
      "payable": false,
      "stateMutability": "view",
      "type": "function"
    },
    {
      "constant": false,
      "inputs": [
        {
          "name": "children",
          "type": "uint32"
        },
        {
          "name": "mother",
          "type": "uint32"
        }
      ],
      "name": "setRabbitMother",
      "outputs": [
        {
          "name": "start",
          "type": "uint256"
        }
      ],
      "payable": false,
      "stateMutability": "nonpayable",
      "type": "function"
    },
    {
      "constant": true,
      "inputs": [],
      "name": "isPriv",
      "outputs": [
        {
          "name": "",
          "type": "bool"
        }
      ],
      "payable": false,
      "stateMutability": "view",
      "type": "function"
    },
    {
      "constant": true,
      "inputs": [
        {
          "name": "_to",
          "type": "address"
        }
      ],
      "name": "getOwnerGennezise",
      "outputs": [
        {
          "name": "",
          "type": "bool"
        }
      ],
      "payable": false,
      "stateMutability": "view",
      "type": "function"
    },
    {
      "constant": true,
      "inputs": [],
      "name": "lastTimeGen0",
      "outputs": [
        {
          "name": "",
          "type": "uint256"
        }
      ],
      "payable": false,
      "stateMutability": "view",
      "type": "function"
    },
    {
      "constant": true,
      "inputs": [],
      "name": "totalBunny",
      "outputs": [
        {
          "name": "",
          "type": "uint32"
        }
      ],
      "payable": false,
      "stateMutability": "view",
      "type": "function"
    },
    {
      "constant": true,
      "inputs": [
        {
          "name": "rabbitid",
          "type": "uint256"
        }
      ],
      "name": "deleteRabbitMarket",
      "outputs": [],
      "payable": false,
      "stateMutability": "pure",
      "type": "function"
    },
    {
      "constant": false,
      "inputs": [
        {
          "name": "add",
          "type": "address"
        }
      ],
      "name": "transferOwnershipTechnical",
      "outputs": [],
      "payable": false,
      "stateMutability": "nonpayable",
      "type": "function"
    },
    {
      "constant": true,
      "inputs": [
        {
          "name": "page",
          "type": "uint256"
        },
        {
          "name": "owner",
          "type": "address"
        }
      ],
      "name": "getTokenList",
      "outputs": [
        {
          "name": "bunnys",
          "type": "uint32[12]"
        },
        {
          "name": "bunnyBreed",
          "type": "uint256[12]"
        },
        {
          "name": "bunnyRole",
          "type": "uint256[12]"
        },
        {
          "name": "sirePrice",
          "type": "uint256[12]"
        },
        {
          "name": "bunnyMarketPrice",
          "type": "uint256[12]"
        },
        {
          "name": "elementEnd",
          "type": "uint256"
        },
        {
          "name": "elementTotal",
          "type": "uint256"
        },
        {
          "name": "startArray",
          "type": "uint256"
        }
      ],
      "payable": false,
      "stateMutability": "view",
      "type": "function"
    },
    {
      "constant": true,
      "inputs": [],
      "name": "symbol",
      "outputs": [
        {
          "name": "",
          "type": "string"
        }
      ],
      "payable": false,
      "stateMutability": "view",
      "type": "function"
    },
    {
      "constant": true,
      "inputs": [
        {
          "name": "",
          "type": "uint256"
        }
      ],
      "name": "cooldowns",
      "outputs": [
        {
          "name": "",
          "type": "uint32"
        }
      ],
      "payable": false,
      "stateMutability": "view",
      "type": "function"
    },
    {
      "constant": true,
      "inputs": [
        {
          "name": "rabbitid",
          "type": "uint32"
        },
        {
          "name": "step",
          "type": "uint256"
        }
      ],
      "name": "bidMarket",
      "outputs": [],
      "payable": false,
      "stateMutability": "view",
      "type": "function"
    },
    {
      "constant": false,
      "inputs": [
        {
          "name": "_bunnyid",
          "type": "uint32"
        }
      ],
      "name": "stopMarket2",
      "outputs": [
        {
          "name": "",
          "type": "uint256"
        }
      ],
      "payable": false,
      "stateMutability": "nonpayable",
      "type": "function"
    },
    {
      "constant": false,
      "inputs": [
        {
          "name": "_bunnyid",
          "type": "uint32"
        }
      ],
      "name": "buyBunny",
      "outputs": [],
      "payable": true,
      "stateMutability": "payable",
      "type": "function"
    },
    {
      "constant": false,
      "inputs": [
        {
          "name": "_to",
          "type": "address"
        },
        {
          "name": "_tokenId",
          "type": "uint32"
        }
      ],
      "name": "approve",
      "outputs": [],
      "payable": false,
      "stateMutability": "nonpayable",
      "type": "function"
    },
    {
      "constant": true,
      "inputs": [
        {
          "name": "mother",
          "type": "uint32"
        }
      ],
      "name": "getRabbitMotherCount",
      "outputs": [
        {
          "name": "count",
          "type": "uint256"
        }
      ],
      "payable": false,
      "stateMutability": "view",
      "type": "function"
    },
    {
      "constant": true,
      "inputs": [],
      "name": "promoMoney",
      "outputs": [
        {
          "name": "",
          "type": "uint256"
        }
      ],
      "payable": false,
      "stateMutability": "view",
      "type": "function"
    },
    {
      "constant": true,
      "inputs": [],
      "name": "ownerCEO",
      "outputs": [
        {
          "name": "",
          "type": "address"
        }
      ],
      "payable": false,
      "stateMutability": "view",
      "type": "function"
    },
    {
      "constant": true,
      "inputs": [],
      "name": "getOwnerTech",
      "outputs": [
        {
          "name": "",
          "type": "address"
        }
      ],
      "payable": false,
      "stateMutability": "view",
      "type": "function"
    },
    {
      "constant": true,
      "inputs": [
        {
          "name": "",
          "type": "address"
        },
        {
          "name": "",
          "type": "uint256"
        }
      ],
      "name": "ownerBunnies",
      "outputs": [
        {
          "name": "",
          "type": "uint32"
        }
      ],
      "payable": false,
      "stateMutability": "view",
      "type": "function"
    },
    {
      "constant": true,
      "inputs": [
        {
          "name": "owner",
          "type": "address"
        }
      ],
      "name": "getTokenOwner",
      "outputs": [
        {
          "name": "total",
          "type": "uint256"
        },
        {
          "name": "list",
          "type": "uint32[]"
        }
      ],
      "payable": false,
      "stateMutability": "view",
      "type": "function"
    },
    {
      "constant": true,
      "inputs": [
        {
          "name": "mother",
          "type": "uint32"
        }
      ],
      "name": "getRabbitMother",
      "outputs": [
        {
          "name": "",
          "type": "uint32[10]"
        }
      ],
      "payable": false,
      "stateMutability": "view",
      "type": "function"
    },
    {
      "constant": false,
      "inputs": [
        {
          "name": "period",
          "type": "uint256"
        }
      ],
      "name": "setDayPeriod",
      "outputs": [
        {
          "name": "",
          "type": "uint256"
        }
      ],
      "payable": false,
      "stateMutability": "nonpayable",
      "type": "function"
    },
    {
      "constant": false,
      "inputs": [
        {
          "name": "_promoMoney",
          "type": "uint256"
        }
      ],
      "name": "setPromoMoney",
      "outputs": [],
      "payable": false,
      "stateMutability": "nonpayable",
      "type": "function"
    },
    {
      "constant": false,
      "inputs": [
        {
          "name": "money",
          "type": "uint256"
        }
      ],
      "name": "setStepMoney",
      "outputs": [],
      "payable": false,
      "stateMutability": "nonpayable",
      "type": "function"
    },
    {
      "constant": false,
      "inputs": [
        {
          "name": "add",
          "type": "address"
        }
      ],
      "name": "transferOwnership",
      "outputs": [],
      "payable": false,
      "stateMutability": "nonpayable",
      "type": "function"
    },
    {
      "constant": true,
      "inputs": [],
      "name": "getOwnerServer",
      "outputs": [
        {
          "name": "",
          "type": "address"
        }
      ],
      "payable": false,
      "stateMutability": "view",
      "type": "function"
    },
    {
      "constant": true,
      "inputs": [],
      "name": "totalClosedBID",
      "outputs": [
        {
          "name": "",
          "type": "uint256"
        }
      ],
      "payable": false,
      "stateMutability": "view",
      "type": "function"
    },
    {
      "constant": false,
      "inputs": [
        {
          "name": "_bunnyid",
          "type": "uint32"
        }
      ],
      "name": "stopMarket",
      "outputs": [
        {
          "name": "",
          "type": "uint256"
        }
      ],
      "payable": false,
      "stateMutability": "nonpayable",
      "type": "function"
    },
    {
      "constant": true,
      "inputs": [],
      "name": "getMarketCount",
      "outputs": [
        {
          "name": "",
          "type": "uint256"
        }
      ],
      "payable": false,
      "stateMutability": "view",
      "type": "function"
    },
    {
      "constant": false,
      "inputs": [
        {
          "name": "_ownerMoney",
          "type": "address"
        }
      ],
      "name": "transferOwnerMoney",
      "outputs": [],
      "payable": false,
      "stateMutability": "nonpayable",
      "type": "function"
    },
    {
      "anonymous": false,
      "inputs": [
        {
          "indexed": false,
          "name": "bunnyid",
          "type": "uint32"
        },
        {
          "indexed": false,
          "name": "dnk",
          "type": "uint256"
        },
        {
          "indexed": false,
          "name": "blocknumber",
          "type": "uint256"
        }
      ],
      "name": "NewBunny",
      "type": "event"
    },
    {
      "anonymous": false,
      "inputs": [
        {
          "indexed": false,
          "name": "newOwnerBunny",
          "type": "address"
        },
        {
          "indexed": false,
          "name": "bunnyId",
          "type": "uint32"
        }
      ],
      "name": "SendBunny",
      "type": "event"
    },
    {
      "anonymous": false,
      "inputs": [
        {
          "indexed": false,
          "name": "from",
          "type": "address"
        },
        {
          "indexed": false,
          "name": "to",
          "type": "address"
        },
        {
          "indexed": false,
          "name": "tokenId",
          "type": "uint32"
        }
      ],
      "name": "Transfer",
      "type": "event"
    },
    {
      "anonymous": false,
      "inputs": [
        {
          "indexed": false,
          "name": "owner",
          "type": "address"
        },
        {
          "indexed": false,
          "name": "approved",
          "type": "address"
        },
        {
          "indexed": false,
          "name": "tokenId",
          "type": "uint32"
        }
      ],
      "name": "Approval",
      "type": "event"
    },
    {
      "constant": false,
      "inputs": [],
      "name": "createGennezise",
      "outputs": [],
      "payable": false,
      "stateMutability": "nonpayable",
      "type": "function"
    },
    {
      "constant": true,
      "inputs": [
        {
          "name": "_matron",
          "type": "uint32"
        },
        {
          "name": "_sire",
          "type": "uint32"
        }
      ],
      "name": "getGenomeChildren",
      "outputs": [
        {
          "name": "",
          "type": "uint256"
        }
      ],
      "payable": false,
      "stateMutability": "view",
      "type": "function"
    },
    {
      "constant": false,
      "inputs": [
        {
          "name": "_matron",
          "type": "uint32"
        },
        {
          "name": "_sire",
          "type": "uint32"
        }
      ],
      "name": "createChildren",
      "outputs": [
        {
          "name": "",
          "type": "uint32"
        }
      ],
      "payable": true,
      "stateMutability": "payable",
      "type": "function"
    },
    {
      "constant": false,
      "inputs": [
        {
          "name": "_rabbitid",
          "type": "uint32"
        },
        {
          "name": "price",
          "type": "uint256"
        }
      ],
      "name": "setRabbitSirePrice",
      "outputs": [
        {
          "name": "",
          "type": "bool"
        }
      ],
      "payable": false,
      "stateMutability": "nonpayable",
      "type": "function"
    },
    {
      "constant": false,
      "inputs": [
        {
          "name": "_rabbitid",
          "type": "uint32"
        }
      ],
      "name": "setSireStop",
      "outputs": [
        {
          "name": "",
          "type": "bool"
        }
      ],
      "payable": false,
      "stateMutability": "nonpayable",
      "type": "function"
    },
    {
      "constant": false,
      "inputs": [
        {
          "name": "rabbitid",
          "type": "uint32"
        },
        {
          "name": "description",
          "type": "string"
        }
      ],
      "name": "setDescriptionRabbit",
      "outputs": [],
      "payable": false,
      "stateMutability": "nonpayable",
      "type": "function"
    },
    {
      "constant": true,
      "inputs": [
        {
          "name": "_rabbitid",
          "type": "uint32"
        }
      ],
      "name": "getDescriptionRabbit",
      "outputs": [
        {
          "name": "",
          "type": "string"
        }
      ],
      "payable": false,
      "stateMutability": "view",
      "type": "function"
    },
    {
      "constant": false,
      "inputs": [
        {
          "name": "rabbitid",
          "type": "uint32"
        },
        {
          "name": "name",
          "type": "string"
        }
      ],
      "name": "setNameRabbit",
      "outputs": [],
      "payable": false,
      "stateMutability": "nonpayable",
      "type": "function"
    },
    {
      "constant": true,
      "inputs": [
        {
          "name": "rabbitid",
          "type": "uint32"
        }
      ],
      "name": "getNameRabbit",
      "outputs": [
        {
          "name": "",
          "type": "string"
        }
      ],
      "payable": false,
      "stateMutability": "view",
      "type": "function"
    },
    {
      "constant": false,
      "inputs": [
        {
          "name": "_value",
          "type": "uint256"
        }
      ],
      "name": "getMoney",
      "outputs": [],
      "payable": false,
      "stateMutability": "nonpayable",
      "type": "function"
    }
  ],
  "bytecode": "0x6004805460a060020a60ff0219169055655af3107a40006005819055600060075560016009556109c4600a55600b55610260604052603c6080908152607860a05260f060c0526101e060e08190526103c06101005261078061012052610e1061014052611c2061016052613840610180526170806101a05261e1006101c0526201518090526202a30061020052620546006102205262093a8061024052620000ac90601090600f620001fb565b506019805463ffffffff60c060020a60ff020119169055601a8054600160a060020a0319908116730d38bb34eee8e4c041beb61783ac038b8957233a1791829055611c20601b556001601c819055601d819055601e819055601f805460ff1916601417905560228190556000602381905560258190556028819055805433600160a060020a039081169185168217909255600280548516821790556003805485168217905582549093169092179055620001709116640100000000620001a2810204565b506019805460c060020a60ff0219167801000000000000000000000000000000000000000000000000179055620002c5565b60048054600160a060020a031916600160a060020a03929092169182179055601980547fffffffffffffffff0000000000000000000000000000000000000000ffffffff16640100000000909202919091179055600090565b6002830191839082156200028c5791602002820160005b838211156200025857835183826101000a81548163ffffffff021916908363ffffffff160217905550926020019260040160208160030104928301926001030262000212565b80156200028a5782816101000a81549063ffffffff021916905560040160208160030104928301926001030262000258565b505b506200029a9291506200029e565b5090565b620002c291905b808211156200029a57805463ffffffff19168155600101620002a5565b90565b613fc080620002d56000396000f3006080604052600436106103605763ffffffff60e060020a600035041663030f72dd811461036557806303602e9e146103cb5780630374c654146103fc57806305caca6c1461048f57806306873418146104b057806306fdde03146104ec5780630847c7a21461050157806312448c3214610531578063131d9a271461056b57806314c588de1461067a57806314f1cf0c1461069257806317265e19146106b057806318160ddd14610714578063193d5b77146107295780631e923f1b1461075b57806323b7ec3b146107705780632a0759011461078e578063308c0065146107a35780633262fd9a146107c157806333506115146107d95780633c9ff012146107ee5780633ec27c4a146108035780634038ec371461081b578063433bd92414610839578063462a8e0514610857578063480892a9146108785780634b72bbaf146108b55780634e2fd44e146108d35780634fd839c6146108f4578063553fd0431461091257806359dc2eec1461092a57806359e4eec91461098357806362075af4146109a4578063625101d5146109ce57806363991a36146109e35780636b53305714610a0757806370a0823114610a2557806370a7e2dd14610a4657806370d4d7b414610ac55780637214d6c314610ada5780637230ef7f14610aef578063731f49b714610b0457806374479db014610b195780637878b66a14610b2e57806379ded38014610b435780637cbd544414610b675780637ea2bbac14610b7c5780638231ee9814610b9d578063847ec2de14610bb257806384fcfb3414610bc75780638638fc3c14610bdf5780638fe521c814610c0057806395d89b4114610d225780639d6fac6f14610d375780639fa0fe1014610d4f578063a01f6fcb14610d70578063a13a7cee14610d8e578063a210a67614610da5578063a22ec47614610db6578063a7e9454214610dd4578063aced96f914610dfe578063ad5a157d14610e1c578063c17c045614610e31578063c7191bc714610e46578063d00dbcb014610e5b578063dc17c9ca14610e7f578063df4b297014610efb578063e8defac714610f52578063eea23d8a14610f6a578063ef229dc714610f82578063f2fde38b14610f9a578063f3cee12914610fbb578063f65045df14610fd0578063fb6c2b6f14610fe5578063fd69f3c214611003578063fdaacf1b14611018575b600080fd5b34801561037157600080fd5b5060408051602060046024803582810135601f81018590048502860185019096528585526103c995833563ffffffff169536956044949193909101919081908401838280828437509497506110399650505050505050565b005b3480156103d757600080fd5b506103e06110be565b60408051600160a060020a039092168252519081900360200190f35b34801561040857600080fd5b5061041a63ffffffff600435166110eb565b6040805160208082528351818301528351919283929083019185019080838360005b8381101561045457818101518382015260200161043c565b50505050905090810190601f1680156104815780820380516001836020036101000a031916815260200191505b509250505060405180910390f35b34801561049b57600080fd5b506103c9600160a060020a0360043516611193565b3480156104bc57600080fd5b506104ce63ffffffff600435166111e9565b60408051938452602084019290925282820152519081900360600190f35b3480156104f857600080fd5b5061041a6112a8565b34801561050d57600080fd5b5061051f63ffffffff600435166112df565b60408051918252519081900360200190f35b34801561053d57600080fd5b5061055263ffffffff600435166024356112f1565b6040805163ffffffff9092168252519081900360200190f35b34801561057757600080fd5b5061058360043561132d565b604051808861018080838360005b838110156105a9578181015183820152602001610591565b5050505090500187600c60200280838360005b838110156105d45781810151838201526020016105bc565b5050505090500186600c60200280838360005b838110156105ff5781810151838201526020016105e7565b5050505090500185600c60200280838360005b8381101561062a578181015183820152602001610612565b5050505090500184600c60200280838360005b8381101561065557818101518382015260200161063d565b5050505090500183815260200182815260200197505050505050505060405180910390f35b34801561068657600080fd5b506103c96004356114a1565b34801561069e57600080fd5b506103e063ffffffff600435166114c1565b3480156106bc57600080fd5b5060408051602060046024803582810135601f81018590048502860185019096528585526103c995833563ffffffff169536956044949193909101919081908401838280828437509497506114dc9650505050505050565b34801561072057600080fd5b5061055261155b565b34801561073557600080fd5b5061074763ffffffff60043516611567565b604080519115158252519081900360200190f35b34801561076757600080fd5b506103e0611583565b34801561077c57600080fd5b506103e063ffffffff60043516611592565b34801561079a57600080fd5b506103c96115b3565b3480156107af57600080fd5b5061051f63ffffffff60043516611929565b3480156107cd57600080fd5b506103c96004356119da565b3480156107e557600080fd5b50610747611a46565b3480156107fa57600080fd5b5061051f611aa8565b34801561080f57600080fd5b506103c9600435611aae565b34801561082757600080fd5b5061041a63ffffffff60043516611ae9565b34801561084557600080fd5b5061074763ffffffff60043516611b5a565b34801561086357600080fd5b5061074763ffffffff60043516602435611c55565b34801561088457600080fd5b50610890600435611d72565b6040805163ffffffff9094168452602084019290925282820152519081900360600190f35b3480156108c157600080fd5b5061051f63ffffffff60043516611d9a565b3480156108df57600080fd5b50610747600160a060020a0360043516611df8565b34801561090057600080fd5b5061051f63ffffffff60043516611e57565b34801561091e57600080fd5b506103c9600435611e6f565b34801561093657600080fd5b50610942600435611eaa565b6040805163ffffffff9889168152969097166020870152858701949094526060850192909252608084015260a083015260c082015290519081900360e00190f35b34801561098f57600080fd5b5061051f63ffffffff60043516602435611f04565b3480156109b057600080fd5b506103c963ffffffff60043516600160a060020a0360243516611fe0565b3480156109da57600080fd5b506103e061203c565b3480156109ef57600080fd5b5061051f63ffffffff60043581169060243516612068565b348015610a1357600080fd5b5061051f63ffffffff6004351661213d565b348015610a3157600080fd5b5061051f600160a060020a036004351661214f565b348015610a5257600080fd5b50610a6463ffffffff6004351661216a565b6040805163ffffffff9c8d1681529a909b1660208b0152898b01989098526060890196909652608088019490945260a087019290925260c0860152151560e08501526101008401526101208301526101408201529051908190036101600190f35b348015610ad157600080fd5b5061051f612351565b348015610ae657600080fd5b50610747612357565b348015610afb57600080fd5b5061051f61235c565b348015610b1057600080fd5b50610552612362565b348015610b2557600080fd5b5061074761236e565b348015610b3a57600080fd5b50610747612393565b348015610b4f57600080fd5b5061051f63ffffffff600435811690602435166123b5565b348015610b7357600080fd5b506107476125e5565b348015610b8857600080fd5b50610747600160a060020a036004351661266b565b348015610ba957600080fd5b5061051f612689565b348015610bbe57600080fd5b5061055261268f565b348015610bd357600080fd5b506103c96004356111e6565b348015610beb57600080fd5b506103c9600160a060020a036004351661269b565b348015610c0c57600080fd5b50610c24600435600160a060020a03602435166126f2565b604051808961018080838360005b83811015610c4a578181015183820152602001610c32565b5050505090500188600c60200280838360005b83811015610c75578181015183820152602001610c5d565b5050505090500187600c60200280838360005b83811015610ca0578181015183820152602001610c88565b5050505090500186600c60200280838360005b83811015610ccb578181015183820152602001610cb3565b5050505090500185600c60200280838360005b83811015610cf6578181015183820152602001610cde565b505050509050018481526020018381526020018281526020019850505050505050505060405180910390f35b348015610d2e57600080fd5b5061041a6128eb565b348015610d4357600080fd5b50610552600435612922565b348015610d5b57600080fd5b506103c963ffffffff6004351660243561294f565b348015610d7c57600080fd5b5061051f63ffffffff60043516612962565b61055263ffffffff60043581169060243516612aae565b6103c963ffffffff60043516612e9b565b348015610dc257600080fd5b5061074763ffffffff60043516613001565b348015610de057600080fd5b506103c9600160a060020a036004351663ffffffff602435166110ba565b348015610e0a57600080fd5b5061051f63ffffffff600435166130ca565b348015610e2857600080fd5b5061051f613128565b348015610e3d57600080fd5b506103e061312e565b348015610e5257600080fd5b506103e061313d565b348015610e6757600080fd5b50610552600160a060020a0360043516602435613169565b348015610e8b57600080fd5b50610ea0600160a060020a03600435166131b1565b6040518083815260200180602001828103825283818151815260200191508051906020019060200280838360005b83811015610ee6578181015183820152602001610ece565b50505050905001935050505060405180910390f35b348015610f0757600080fd5b50610f1963ffffffff6004351661324e565b604051808261014080838360005b83811015610f3f578181015183820152602001610f27565b5050505090500191505060405180910390f35b348015610f5e57600080fd5b5061051f6004356132c8565b348015610f7657600080fd5b506103c9600435613314565b348015610f8e57600080fd5b506103c9600435613334565b348015610fa657600080fd5b506103c9600160a060020a036004351661336f565b348015610fc757600080fd5b506103e06133c6565b348015610fdc57600080fd5b5061051f6133f2565b348015610ff157600080fd5b5061051f63ffffffff600435166133f8565b34801561100f57600080fd5b5061051f61357b565b34801561102457600080fd5b506103c9600160a060020a0360043516613581565b611041612393565b151561104c57600080fd5b63ffffffff821660009081526013602052604090205433600160a060020a0390811691161461107a57600080fd5b610100815110801561108d575060008151115b156110ba5763ffffffff8216600090815260156020908152604090912082516110b892840190613dfa565b505b5050565b6000805433600160a060020a039081169116146110da57600080fd5b50600454600160a060020a03165b90565b63ffffffff811660009081526015602090815260409182902080548351601f60026000196101006001861615020190931692909204918201849004840281018401909452808452606093928301828280156111875780601f1061115c57610100808354040283529160200191611187565b820191906000526020600020905b81548152906001019060200180831161116a57829003601f168201915b50505050509050919050565b60005433600160a060020a039081169116146111ae57600080fd5b600160a060020a038116156111e6576003805473ffffffffffffffffffffffffffffffffffffffff1916600160a060020a0383161790555b50565b600080600060126001850363ffffffff1681548110151561120657fe5b9060005260206000209060060201600201549150600e82111561122857600e91505b6012805463ffffffff60001987011690811061124057fe5b906000526020600020906006020160030154601083600f8110151561126157fe5b600891828204019190066004029054906101000a900463ffffffff1663ffffffff16019250428311156112a15761129e834263ffffffff6135cb16565b90505b9193909250565b60408051808201909152600d81527f43727970746f5261626269747300000000000000000000000000000000000000602082015281565b600e6020526000908152604090205481565b600d60205260008281526040902081600a811061130a57fe5b60089182820401919006600402915091509054906101000a900463ffffffff1681565b611335613e78565b61133d613e78565b611345613e78565b61134d613e78565b611355613e78565b60008080600c818060018c101561136b5760019b505b61137b8c8463ffffffff6135dd16565b9550601c5486111561138d57601c5495505b50601c5493506000198b0182026001015b856001018110156114925760008181526029602052604090205463ffffffff169350838b83600c81106113cd57fe5b63ffffffff92831660209182029290920191909152908516600090815260139091526040902054600160a060020a03168a83600c811061140957fe5b600160a060020a03909216602092830291909101526000828152602990915260409020600101548983600c811061143c57fe5b602090810291909101919091526000828152602990915260409020600201548883600c811061146757fe5b602002015261147584611929565b8783600c811061148157fe5b60200201526001918201910161139e565b50505050919395979092949650565b60005433600160a060020a039081169116146114bc57600080fd5b600a55565b601360205260009081526040902054600160a060020a031681565b6114e4612393565b15156114ef57600080fd5b63ffffffff821660009081526013602052604090205433600160a060020a0390811691161461151d57600080fd5b6101008151108015611530575060008151115b156110ba5763ffffffff8216600090815260166020908152604090912082516110b892840190613dfa565b60195463ffffffff1690565b63ffffffff1660009081526017602052604090205460ff161590565b601a54600160a060020a031681565b63ffffffff16600090815260136020526040902054600160a060020a031690565b6000806115be613e98565b600080600094506115cd6125e5565b15156115d857600080fd5b6115e0612393565b15156115eb57600080fd5b600a5460075411156116325760035433600160a060020a0390811691161480611622575060005433600160a060020a039081169116145b151561162d57600080fd5b6116b2565b60035433600160a060020a039081169116148061165d575060005433600160a060020a039081169116145b15156116b257600160a060020a03331660009081526018602052604090205460ff161561168957600080fd5b600160a060020a0333166000908152601860205260409020805460ff1916600190811790915594505b601960049054906101000a9004600160a060020a0316600160a060020a031663d6cfc2926040518163ffffffff1660e060020a028152600401602060405180830381600087803b15801561170557600080fd5b505af1158015611719573d6000803e3d6000fd5b505050506040513d602081101561172f57600080fd5b50516040805160e0810182526000808252602080830182815243848601908152606085018481526080860185815260a0870186815260c088018781526012805460018101808355918a528a517fbb8a6a4669ba250d26cd7a459eca9d215f8307e33aebe50379bc5a3617ec344460069092029182018054995163ffffffff19909a1663ffffffff9283161767ffffffff0000000019166401000000009a83169a909a029990991790985595517fbb8a6a4669ba250d26cd7a459eca9d215f8307e33aebe50379bc5a3617ec344587015593517fbb8a6a4669ba250d26cd7a459eca9d215f8307e33aebe50379bc5a3617ec344686015591517fbb8a6a4669ba250d26cd7a459eca9d215f8307e33aebe50379bc5a3617ec3447850155517fbb8a6a4669ba250d26cd7a459eca9d215f8307e33aebe50379bc5a3617ec3448840155517fbb8a6a4669ba250d26cd7a459eca9d215f8307e33aebe50379bc5a3617ec3449909201919091559081168352600f90915292902083905591955090935091506118bc33838661360f565b8415156118d9576118cb613695565b90506118d78282611f04565b505b426026556006805463ffffffff191663ffffffff841617905560078054600101905584156119225763ffffffff82166000908152601760205260409020805460ff191660011790555b5050505050565b60008080808080808063ffffffff8916151561194857600097506119ce565b63ffffffff89166000908152602a6020908152604080832054808452602990925282206002810154600190910154601b54929a509098509650909450428790039350156119ca57601b548381151561199c57fe5b04915081158015906119ad57508415155b156119c6576103e88504905080600a02850393506119ca565b8493505b8397505b50505050505050919050565b60005433600160a060020a039081169116146119f557600080fd5b600160a060020a03301631811115611a0c57600080fd5b600154604051600160a060020a039091169082156108fc029083906000818181858888f193505050501580156110ba573d6000803e3d6000fd5b6000805433600160a060020a03908116911614611a6257600080fd5b506004805474ff0000000000000000000000000000000000000000198116740100000000000000000000000000000000000000009182900460ff16159182021790915590565b60095481565b60025433600160a060020a0390811691161480611ad9575060005433600160a060020a039081169116145b1515611ae457600080fd5b600955565b63ffffffff811660009081526016602090815260409182902080548351601f60026000196101006001861615020190931692909204918201849004840281018401909452808452606093928301828280156111875780601f1061115c57610100808354040283529160200191611187565b60001901600080808063ffffffff85161515611b7557611c4d565b6012805463ffffffff8716908110611b8957fe5b906000526020600020906006020160030154925060128563ffffffff16815481101515611bb257fe5b9060005260206000209060060201600201549150601082600f81101515611bd557fe5b600891828204019190066004029054906101000a900463ffffffff1663ffffffff169050611c0c83826137ae90919063ffffffff16565b9050428111158015611c4357506012805463ffffffff8716908110611c2d57fe5b9060005260206000209060060201600401546000145b15611c4d57600193505b505050919050565b600080611c60612393565b1515611c6b57600080fd5b63ffffffff841660009081526013602052604090205433600160a060020a03908116911614611c9957600080fd5b6005548311611ca757600080fd5b611cb0846111e9565b509091505042811115611cc257600080fd5b6012805463ffffffff600019870116908110611cda57fe5b9060005260206000209060060201600401546001148015611d0f575063ffffffff84166000908152600e602052604090205483145b15611d1d5760009150611d6b565b600160126001860363ffffffff16815481101515611d3757fe5b600091825260208083206004600690930201919091019290925563ffffffff86168152600e90915260409020839055600191505b5092915050565b60296020526000908152604090208054600182015460029092015463ffffffff909116919083565b63ffffffff81166000908152600e60205260408120548190606490049050611dc981601963ffffffff6135dd16565b63ffffffff8085166000908152600e6020526040902054919250611def9183916137ae16565b91505b50919050565b6004805473ffffffffffffffffffffffffffffffffffffffff1916600160a060020a039290921691821790556019805477ffffffffffffffffffffffffffffffffffffffff000000001916640100000000909202919091179055600090565b63ffffffff166000908152600f602052604090205490565b60025433600160a060020a0390811691161480611e9a575060005433600160a060020a039081169116145b1515611ea557600080fd5b602455565b6012805482908110611eb857fe5b600091825260209091206006909102018054600182015460028301546003840154600485015460059095015463ffffffff80861697506401000000009095049094169492939192909187565b6000611f0e613ee2565b611f16612393565b1515611f2157600080fd5b600554831015611f3057600080fd5b63ffffffff841660009081526013602052604090205433600160a060020a03908116911614611f5e57600080fd5b611f67846133f8565b50506040805160608101825263ffffffff948516808252602080830195865242838501908152601c80546000908152602984528681209551865463ffffffff19169a16999099178555965160018086019190915590516002909401939093558554918752602a9052919094208190559283019091555090565b63ffffffff821660009081526013602052604090205433600160a060020a0390811691161461200e57600080fd5b63ffffffff821660009081526017602052604090205460ff161561203157600080fd5b6110ba3382846137bd565b6000805433600160a060020a0390811691161461205857600080fd5b50600154600160a060020a031690565b60008060126001840363ffffffff1681548110151561208357fe5b90600052602060002090600602016005015460126001860363ffffffff168154811015156120ad57fe5b9060005260206000209060060201600501541015156120f7576012805463ffffffff6000198701169081106120de57fe5b9060005260206000209060060201600501549050612124565b6012805463ffffffff60001986011690811061210f57fe5b90600052602060002090600602016005015490505b61213581600163ffffffff6137ae16565b949350505050565b600c6020526000908152604090205481565b600160a060020a031660009081526014602052604090205490565b60008060008060008060008060008060006121848c611d9a565b600019909c019b905063ffffffff8c16151561219f57612342565b6012805463ffffffff8e169081106121b357fe5b60009182526020909120600690910201546012805463ffffffff9283169d5090918e169081106121df57fe5b60009182526020909120600690910201546012805463ffffffff64010000000090930483169c5090918e1690811061221357fe5b906000526020600020906006020160010154985060128c63ffffffff1681548110151561223c57fe5b906000526020600020906006020160020154975060128c63ffffffff1681548110151561226557fe5b906000526020600020906006020160030154965060128c63ffffffff1681548110151561228e57fe5b906000526020600020906006020160040154955060128c63ffffffff168154811015156122b757fe5b9060005260206000209060060201600501549450600e8811156122d957600e97505b601088600f81106122e657fe5b600891828204019190066004029054906101000a900463ffffffff1663ffffffff16915061231d87836137ae90919063ffffffff16565b915042821161232f5760019350612342565b61233f824263ffffffff6135cb16565b92505b91939597999b90929496989a50565b600a5481565b600190565b60075481565b60065463ffffffff1681565b6019547801000000000000000000000000000000000000000000000000900460ff1681565b60045474010000000000000000000000000000000000000000900460ff161590565b60006123bf613f0a565b6000805b600a8210156124c65763ffffffff85166000908152600d6020526040902082600a81106123ec57fe5b60088104919091015460079091166004026101000a900463ffffffff16156124bb5763ffffffff85166000908152600d6020526040902082600a811061242e57fe5b600891828204019190066004029054906101000a900463ffffffff168385600b8110151561245857fe5b63ffffffff928316602091820292909201919091529086166000908152600d9091526040812083600a811061248957fe5b600891828204019190066004026101000a81548163ffffffff021916908363ffffffff16021790555083806001019450505b6001909101906123c3565b858385600b81106124d357fe5b63ffffffff90921660209290920201525060019092019160005b600a8110156125dc57600a84111561256d578260018201600b811061250e57fe5b6020020151600d60008763ffffffff1663ffffffff16815260200190815260200160002082600a8110151561253f57fe5b600891828204019190066004026101000a81548163ffffffff021916908363ffffffff1602179055506125d4565b8281600b811061257957fe5b6020020151600d60008763ffffffff1663ffffffff16815260200190815260200160002082600a811015156125aa57fe5b600891828204019190066004026101000a81548163ffffffff021916908363ffffffff1602179055505b6001016124ed565b50505092915050565b6000601960049054906101000a9004600160a060020a0316600160a060020a031663ccb0893d6040518163ffffffff1660e060020a028152600401602060405180830381600087803b15801561263a57600080fd5b505af115801561264e573d6000803e3d6000fd5b505050506040513d602081101561266457600080fd5b5051905090565b600160a060020a031660009081526018602052604090205460ff1690565b60085481565b60195463ffffffff1681565b60005433600160a060020a039081169116146126b657600080fd5b600160a060020a038116156111e65760028054600160a060020a03831673ffffffffffffffffffffffffffffffffffffffff1990911617905550565b6126fa613e78565b612702613e78565b61270a613e78565b612712613e78565b61271a613e78565b6000808080808060018d101561272f5760019c505b600160a060020a038c16600090815260146020526040902054945061275b8d600c63ffffffff6135dd16565b955084861115612769578495505b600160a060020a038c16600090815260146020526040902054600c6000198f01026001019450151561279a576128db565b50825b856001018110156128db57600160a060020a038c166000908152601460205260409020805460001983019081106127d057fe5b6000918252602090912060088204015460079091166004026101000a900463ffffffff16925082156128cf57828b83600c811061280957fe5b602002019063ffffffff16908163ffffffff168152505060126001840363ffffffff1681548110151561283857fe5b9060005260206000209060060201600501548a83600c8110151561285857fe5b60200201526012805463ffffffff60001986011690811061287557fe5b9060005260206000209060060201600401548983600c8110151561289557fe5b60200201526128a383611d9a565b8883600c81106128af57fe5b60200201526128bd83611929565b8783600c81106128c957fe5b60200201525b6001918201910161279d565b5050509295985092959890939650565b60408051808201909152600381527f4352420000000000000000000000000000000000000000000000000000000000602082015281565b601081600f811061292f57fe5b60089182820401919006600402915054906101000a900463ffffffff1681565b612957612393565b15156110ba57600080fd5b600080600080612970612393565b151561297b57600080fd5b63ffffffff851660009081526013602052604090205433600160a060020a039081169116146129a957600080fd5b50505063ffffffff8281166000908152602a6020908152604080832080548085526029909352908320805491849055805463ffffffff1916815560018101849055600201839055601c54919316918391118015612a065750600083115b8015612a17575060018303601c5414155b15612a9957601c805460001990810160009081526029602081815260408084208985528185208154815463ffffffff1990811663ffffffff9283161783556001848101548482015560029485015493850193909355908b168752602a85528387208a905597549096018552929091528220805490941684559183018190559101555b5050601c805460001981019091559392505050565b6000806000806000612abe613e98565b6000612ac86125e5565b1515612ad357600080fd5b612adb612393565b1515612ae657600080fd5b63ffffffff891660009081526013602052604090205433600160a060020a03908116911614612b1457600080fd5b6012805463ffffffff6000198b0116908110612b2c57fe5b9060005260206000209060060201600401546001141515612b4c57600080fd5b63ffffffff8981169089161415612b6257600080fd5b612b6b89611b5a565b1515612b7657600080fd5b63ffffffff8089166000908152600e60205260409020549650612b9e90879060049061388316565b9450858501341015612baf57600080fd5b60195463ffffffff8a81166000908152600f6020908152604080832054938d1683528083205481517f024a7fcc0000000000000000000000000000000000000000000000000000000081526004810195909552602485015251640100000000909404600160a060020a03169363024a7fcc93604480820194918390030190829087803b158015612c3e57600080fd5b505af1158015612c52573d6000803e3d6000fd5b505050506040513d6020811015612c6857600080fd5b50519350612c768989612068565b6040805160e08101825263ffffffff808d1682528b81166020808401918252438486019081526000606086018181526080870182815260a0880183815260c089018b815260128054600181018083559187528b5160069091027fbb8a6a4669ba250d26cd7a459eca9d215f8307e33aebe50379bc5a3617ec3444810180549b518d166401000000000267ffffffff0000000019938e1663ffffffff19909d169c909c17929092169a909a17905595517fbb8a6a4669ba250d26cd7a459eca9d215f8307e33aebe50379bc5a3617ec344589015592517fbb8a6a4669ba250d26cd7a459eca9d215f8307e33aebe50379bc5a3617ec344688015590517fbb8a6a4669ba250d26cd7a459eca9d215f8307e33aebe50379bc5a3617ec3447870155517fbb8a6a4669ba250d26cd7a459eca9d215f8307e33aebe50379bc5a3617ec3448860155517fbb8a6a4669ba250d26cd7a459eca9d215f8307e33aebe50379bc5a3617ec3449909401939093559283168252600f9052929092208790559194509092509050612e05898661389a565b63ffffffff8816600090815260136020526040808220549051600160a060020a039091169188156108fc02918991818181858888f19350505050158015612e50573d6000803e3d6000fd5b50612e5a89613a24565b63ffffffff8916600090815260136020526040902054612e8490600160a060020a0316828661360f565b612e8e818a6123b5565b5098975050505050505050565b6000612ea5612393565b1515612eb057600080fd5b63ffffffff821660009081526013602052604090205433600160a060020a0390811691161415612edf57600080fd5b612ee882611929565b9050803410158015612ef957508015155b1515612f0457600080fd5b60288054600101905563ffffffff8216600090815260136020526040902054612f3690600160a060020a031634613ad2565b63ffffffff8216600090815260136020526040902054612f6090600160a060020a031633846137bd565b612f69826133f8565b5060408051808201825282815263ffffffff84166000818152602a602090815284822054825260298152848220600201544203818501908152602854835260278252918590209351845590516001909301929092558251600160a060020a03331681529182015281517fbe094b3f5b6f49f63819500ee3f9149336c47d4b6d3c809583c9ed3b5a458b3e929181900390910190a15050565b600061300b612393565b151561301657600080fd5b63ffffffff821660009081526013602052604090205433600160a060020a0390811691161461304457600080fd5b6012805463ffffffff60001985011690811061305c57fe5b906000526020600020906006020160040154600014151561307c57600080fd5b600060126001840363ffffffff1681548110151561309657fe5b600091825260208083206006929092029091016004019290925563ffffffff939093168352600e9052506040812055600190565b6000805b600a811015611df25763ffffffff83166000908152600d6020526040902081600a81106130f757fe5b60088104919091015460079091166004026101000a900463ffffffff1615613120576001909101905b6001016130ce565b600b5481565b600054600160a060020a031681565b6000805433600160a060020a0390811691161461315957600080fd5b50600254600160a060020a031690565b60146020528160005260406000208181548110151561318457fe5b9060005260206000209060089182820401919006600402915091509054906101000a900463ffffffff1681565b600160a060020a038116600090815260146020908152604091829020805483518184028101840190945280845292606092909190849083018282801561324257602002820191906000526020600020906000905b82829054906101000a900463ffffffff1663ffffffff16815260200190600401906020826003010492830192600103820291508084116132055790505b50505050509050915091565b613256613f2a565b63ffffffff82166000908152600d60205260408082208151610140810192839052929091600a918390855b82829054906101000a900463ffffffff1663ffffffff1681526020019060040190602082600301049283019260010382029150808411613281575094979650505050505050565b60025460009033600160a060020a03908116911614806132f6575060005433600160a060020a039081169116145b151561330157600080fd5b50601d8190556201518002601e81905590565b60005433600160a060020a0390811691161461332f57600080fd5b600b55565b60025433600160a060020a039081169116148061335f575060005433600160a060020a039081169116145b151561336a57600080fd5b601b55565b60005433600160a060020a0390811691161461338a57600080fd5b600160a060020a038116156111e65760008054600160a060020a03831673ffffffffffffffffffffffffffffffffffffffff1990911617905550565b6000805433600160a060020a039081169116146133e257600080fd5b50600354600160a060020a031690565b60285481565b600080600080613406612393565b151561341157600080fd5b63ffffffff851660009081526013602052604090205433600160a060020a0390811691161461343f57600080fd5b63ffffffff8086166000818152602a6020908152604080832054808452602990925290912054909550909116141561356f5763ffffffff85166000908152602a6020908152604080832080549084905586845260299092528220805463ffffffff1916815560018101839055600201829055601c549093501180156134c45750600083115b80156134d5575060018303601c5414155b1561355c5750601c805460001990810160009081526029602081815260408084208885528185208154815463ffffffff1990811663ffffffff928316178084556001858101548582015560029586015494860194909455909116808852602a86528488208b9055985490970186529390925283208054909416845590830182905591909101555b601c805460001981019091559350611c4d565b5050601c549392505050565b601c5490565b60005433600160a060020a0390811691161461359c57600080fd5b6001805473ffffffffffffffffffffffffffffffffffffffff1916600160a060020a0392909216919091179055565b6000828211156135d757fe5b50900390565b6000808315156135f05760009150611d6b565b5082820282848281151561360057fe5b041461360857fe5b9392505050565b6040805163ffffffff8416815260208101839052438183015290517fda21791c5c7b4c2e3fcd04faf012c1f42cde7c879206376981e2f0f423b342439181900360600190a161365e8383613b4d565b5063ffffffff9081166000908152600c60205260408120556019805480831660010190921663ffffffff1990921691909117905550565b600080600080600080600a546007541115156136b557600b5495506137a6565b601f546028546000965086955085945084935060ff90911690038210156137a65750601f5460285460ff90911690035b6028548163ffffffff1611156137215763ffffffff811660009081526027602052604090208054600191820154950194938401939250016136e5565b601f5460ff168481151561373157fe5b601f54919004965060ff168381151561374657fe5b0494508460235410151561377c5761377561376887600363ffffffff61388316565b879063ffffffff6137ae16565b95506137a0565b61379d61379087600363ffffffff61388316565b879063ffffffff6135cb16565b95505b60238590555b505050505090565b60008282018381101561360857fe5b63ffffffff8116600090815260136020526040902054600160a060020a0390811690841681146137ec57600080fd5b600160a060020a03818116908416141561380557600080fd5b600160a060020a038316151561381a57600080fd5b6138248183613bce565b61382e8383613b4d565b60408051600160a060020a0380841682528516602082015263ffffffff84168183015290517f0daf680c3f528a8760b5142fe1f6f80d5f4ea18bb76f347a7a44a2d565c2b7dc9181900360600190a150505050565b600080828481151561389157fe5b04949350505050565b6000806000806138a8612393565b15156138b357600080fd5b600085116138c057600080fd5b60006138cb876130ca565b1115613a1c576138da866130ca565b858115156138e457fe5b049350600092505b6138f5866130ca565b8310156139e05763ffffffff86166000908152600d6020526040902083600a811061391c57fe5b60088104919091015460079091166004026101000a900463ffffffff16156139d55763ffffffff86166000908152600d6020526040902083600a811061395e57fe5b60088104919091015460079091166004026101000a900463ffffffff16600081815260136020908152604080832054600c90925280832080548901905551929450600160a060020a0316925082916108fc87150291879190818181858888f193505050501580156139d3573d6000803e3d6000fd5b505b6001909201916138ec565b600154604051600160a060020a039091169086156108fc029087906000818181858888f19350505050158015613a1a573d6000803e3d6000fd5b505b505050505050565b613a2c612393565b1515613a3757600080fd5b613a74600160126001840363ffffffff16815481101515613a5457fe5b9060005260206000209060060201600201546137ae90919063ffffffff16565b6012805463ffffffff600019850116908110613a8c57fe5b9060005260206000209060060201600201819055504260126001830363ffffffff16815481101515613aba57fe5b90600052602060002090600602016003018190555050565b604051600160a060020a03831690605f606484040280156108fc02916000818181858888f19350505050158015613b0d573d6000803e3d6000fd5b50600154604051600160a060020a03909116906005606484040280156108fc02916000818181858888f193505050501580156110b8573d6000803e3d6000fd5b600160a060020a03909116600081815260146020908152604080832080546001810182559084528284206008820401805463ffffffff97881660046007909416939093026101000a83810298021916969096179095559382526013905291909120805473ffffffffffffffffffffffffffffffffffffffff19169091179055565b600160a060020a038216600090815260146020526040812054905b81811015613df457600160a060020a0384166000908152601460205260409020805463ffffffff8516919083908110613c1e57fe5b6000918252602090912060088204015460079091166004026101000a900463ffffffff161415613dec57600160a060020a0384166000908152601460205260409020805482908110613c6c57fe5b90600052602060002090600891828204019190066004026101000a81549063ffffffff0219169055600082118015613ca75750600181038214155b15613dbd57600160a060020a038416600090815260146020526040902080546000198401908110613cd457fe5b90600052602060002090600891828204019190066004029054906101000a900463ffffffff166014600086600160a060020a0316600160a060020a0316815260200190815260200160002082815481101515613d2c57fe5b90600052602060002090600891828204019190066004026101000a81548163ffffffff021916908363ffffffff1602179055506014600085600160a060020a0316600160a060020a0316815260200190815260200160002060018303815481101515613d9457fe5b90600052602060002090600891828204019190066004026101000a81549063ffffffff02191690555b600160a060020a0384166000908152601460205260409020805490613de6906000198301613f4a565b50613df4565b600101613be9565b50505050565b828054600181600116156101000203166002900490600052602060002090601f016020900481019282601f10613e3b57805160ff1916838001178555613e68565b82800160010185558215613e68579182015b82811115613e68578251825591602001919060010190613e4d565b50613e74929150613f7a565b5090565b61018060405190810160405280600c906020820280388339509192915050565b60e060405190810160405280600063ffffffff168152602001600063ffffffff16815260200160008152602001600081526020016000815260200160008152602001600081525090565b606060405190810160405280600063ffffffff16815260200160008152602001600081525090565b61016060405190810160405280600b906020820280388339509192915050565b61014060405190810160405280600a906020820280388339509192915050565b8154818355818111156110b85760070160089004816007016008900483600052602060002091820191016110b891905b6110e891905b80821115613e745760008155600101613f805600a165627a7a7230582091b0958e57dd1eff4a99cc43b2bcc5f76a32b96cbb568eb983cc969649425c510029",
  "source": "pragma solidity ^0.4.23;\n\nimport \"./RabbitMarket.sol\";\n\n/**\n* \n*/\ncontract BunnyGame is RabbitMarket {    \n \n    event NewBunny(uint32 bunnyid, uint dnk, uint256 blocknumber );\n  \n    function transferNewBunny(address _to, uint32 _bunnyid, uint localdnk) internal {\n        emit NewBunny(_bunnyid, localdnk, block.number);\n        //rabbitToOwner[_bunnyid] = _to; \n        addTokenList(_to, _bunnyid);\n        totalSalaryBunny[_bunnyid] = 0;\n        totalBunny++;\n    }\n\n    /***\n    * @dev create a new gene and put it up for sale, this operation takes place on the server\n    */\n    function createGennezise() public {\n        bool promo = false;\n        require(isPriv());\n        require(isPauseSave());\n        if (totalGen0 > promoGen0) { \n            require(msg.sender == ownerServer || msg.sender == ownerCEO);\n        } else if (!(msg.sender == ownerServer || msg.sender == ownerCEO)) {\n                require(!ownerGennezise[msg.sender]);\n                ownerGennezise[msg.sender] = true;\n                promo = true;\n        }\n        \n        uint  localdnk = privateContract.getNewRabbit();\n        Rabbit memory _Rabbit =  Rabbit( 0, 0, block.number, 0, 0, 0, 0);\n        uint32 bunnyid =  uint32(rabbits.push(_Rabbit));\n        mapDNK[bunnyid] = localdnk;\n       \n        transferNewBunny(msg.sender, bunnyid, localdnk);  \n        if (!promo) { \n            uint _money = getpricegen0();\n            startMarket(bunnyid, _money);\n        }\n        lastTimeGen0 = now;\n        lastIdGen0 = bunnyid; \n        totalGen0++; \n        if (promo) {\n            giffblock[bunnyid] = true;\n        }\n    }\n\n    function getGenomeChildren(uint32 _matron, uint32 _sire) public view returns(uint) {\n        uint genome;\n        if (rabbits[(_matron-1)].genome >= rabbits[(_sire-1)].genome) {\n            genome = rabbits[(_matron-1)].genome;\n        } else {\n            genome = rabbits[(_sire-1)].genome;\n        }\n        return genome.add(1);\n    }\n    \n    function createChildren(uint32 _matron, uint32 _sire) public  payable returns(uint32) {\n\n        require(isPriv());\n        require(isPauseSave());\n        require(rabbitToOwner[_matron] == msg.sender);\n        // Checking for the role\n        require(rabbits[(_sire-1)].role == 1);\n        require(_matron != _sire);\n\n        require(getBreed(_matron));\n        // Checking the money\n        uint _sirePrice = rabbitSirePrice[_sire];\n        uint _moneyMother = _sirePrice.div(4);\n    //    uint _finalCost = _moneyMother + _sirePrice;\n        require(msg.value >= (_moneyMother + _sirePrice));\n        \n        uint localdnk =  privateContract.mixDNK(mapDNK[_matron], mapDNK[_sire]);\n        \n        uint genome = getGenomeChildren(_matron, _sire);\n        Rabbit memory rabbit =  Rabbit(_matron, _sire, block.number, 0, 0, 0, genome);\n\n        uint32 bunnyid =  uint32(rabbits.push(rabbit));\n        mapDNK[bunnyid] = localdnk;\n        _transferMoneyMother(_matron, _moneyMother);\n        rabbitToOwner[_sire].transfer(_sirePrice);\n        coolduwnUP(_matron);\n        //    \n        transferNewBunny(rabbitToOwner[_matron], bunnyid, localdnk);   \n        // we establish parents for the child\n        setRabbitMother(bunnyid, _matron);\n        return bunnyid;\n    } \n  \n\n\n  \n    /**\n     *     \n     */\n    function coolduwnUP(uint32 _mother) internal { \n        require(isPauseSave());\n        rabbits[(_mother-1)].birthCount = rabbits[(_mother-1)].birthCount.add(1);\n        rabbits[(_mother-1)].birthLastTime = now;\n    }\n\n\n    /**\n     * @param _mother - matron send money for parrent\n     * @param _valueMoney - current sale\n     */\n    function _transferMoneyMother(uint32 _mother, uint _valueMoney) internal {\n        require(isPauseSave());\n        require(_valueMoney > 0);\n        if (getRabbitMotherCount(_mother) > 0) {\n        \n            uint pastMoney = _valueMoney/getRabbitMotherCount(_mother);\n\n            for (uint i=0; i < getRabbitMotherCount(_mother); i++) {\n                if (rabbitMother[_mother][i] != 0) { \n                    uint32 _parrentMother = rabbitMother[_mother][i];\n                    address add = rabbitToOwner[_parrentMother];\n                    //  \n                    totalSalaryBunny[_parrentMother] += pastMoney;\n                    add.transfer(pastMoney); // refund previous bidder\n                }\n            }\n            ownerMoney.transfer(_valueMoney); // refund previous bidder\n        }\n    }\n    \n    \n    // /**\n    //  * @param _mother - matron send money for parrent\n    //  * @param _valueMoney - current sale\n    //  */\n    // function _transferMoneyMother(uint32 _mother, uint _valueMoney) internal {\n    //     require(isPauseSave());\n    //     require(_valueMoney > 0);\n\n    //     if (rabbitMother[_mother].length > 0) {\n        \n    //         uint pastMoney = _valueMoney/uint(rabbitMother[_mother].length);\n    //         for (uint i=0; i < rabbitMother[_mother].length; i++) {\n    //             uint32 _parrentMother = rabbitMother[_mother][i];\n    //             address add = rabbitToOwner[_parrentMother];\n    //             //  \n    //             totalSalaryBunny[_parrentMother] += pastMoney;\n    //             add.transfer(pastMoney); // refund previous bidder\n    //         }\n    //         ownerMoney.transfer(_valueMoney); // refund previous bidder\n    //     }\n    // }\n    \n    /**\n    * @dev We set the cost of renting our genes\n    * @param price rent price\n     */\n    function setRabbitSirePrice(uint32 _rabbitid, uint price) public returns(bool) {\n        require(isPauseSave());\n        require(rabbitToOwner[_rabbitid] == msg.sender);\n        require(price > bigPrice);\n\n        uint lastTime;\n        (lastTime,,) = getcoolduwn(_rabbitid);\n        require(now >= lastTime);\n\n        if (rabbits[(_rabbitid-1)].role == 1 && rabbitSirePrice[_rabbitid] == price) {\n            return false;\n        }\n\n        rabbits[(_rabbitid-1)].role = 1;\n        rabbitSirePrice[_rabbitid] = price;\n        //uint gen = rabbits[(_rabbitid-1)].genome;\n \n        return true;\n    }\n \n    /**\n    * @dev We set the cost of renting our genes\n     */\n    function setSireStop(uint32 _rabbitid) public returns(bool) {\n        require(isPauseSave());\n        require(rabbitToOwner[_rabbitid] == msg.sender);\n        require(rabbits[(_rabbitid-1)].role == 0);\n\n        rabbits[(_rabbitid-1)].role = 0;\n        rabbitSirePrice[_rabbitid] = 0;\n\n        //deleteSire(_rabbitid);\n        return true;\n    }\n \n    \n    /**\n    *  @dev give the name and description for the rabbit\n    * @param description new description rabbits\n    */\n    function setDescriptionRabbit(uint32 rabbitid, string description) public {\n        require(isPauseSave());\n        require(rabbitToOwner[rabbitid] == msg.sender);\n        if (bytes(description).length < 256 && bytes(description).length > 0) {\n            rabbitDescription[rabbitid] = description;\n        }\n    } \n     \n    function getDescriptionRabbit(uint32 _rabbitid) public view returns(string) {\n        return rabbitDescription[_rabbitid];\n    } \n    \n    /**\n    *  @dev give the name and description for the rabbit\n    * @param name new name rabbits\n    */\n    function setNameRabbit(uint32 rabbitid, string name) public {\n        require(isPauseSave());\n        require(rabbitToOwner[rabbitid] == msg.sender);\n        if (bytes(name).length < 256 && bytes(name).length > 0) {\n            rabbitName[rabbitid] = name;\n        }\n    } \n    function getNameRabbit(uint32 rabbitid) public view returns(string) {\n        return rabbitName[rabbitid];\n    } \n\n    function getMoney(uint _value) public onlyOwner {\n        require(address(this).balance >= _value);\n        ownerMoney.transfer(_value);\n    }\n}",
  "sourcePath": "/home/koras/contracts/publicRabbit/pub/contracts/BunnyGame.sol",
  "compiler": {
    "name": "solc",
    "version": "0.4.23+commit.124ca40d.Emscripten.clang"
  },
  "schemaVersion": "2.0.0",
  "updatedAt": "2018-06-08T19:34:39.526Z"
}