{
  "contractName": "BunnyGame",
  "abi": [
    {
      "constant": true,
      "inputs": [],
      "name": "getPrivAddress",
      "outputs": [
        {
          "name": "",
          "type": "address"
        }
      ],
      "payable": false,
      "stateMutability": "view",
      "type": "function"
    },
    {
      "constant": false,
      "inputs": [
        {
          "name": "add",
          "type": "address"
        }
      ],
      "name": "transferOwnershipServer",
      "outputs": [],
      "payable": false,
      "stateMutability": "nonpayable",
      "type": "function"
    },
    {
      "constant": true,
      "inputs": [],
      "name": "name",
      "outputs": [
        {
          "name": "",
          "type": "string"
        }
      ],
      "payable": false,
      "stateMutability": "view",
      "type": "function"
    },
    {
      "constant": true,
      "inputs": [
        {
          "name": "",
          "type": "uint32"
        },
        {
          "name": "",
          "type": "uint256"
        }
      ],
      "name": "rabbitMother",
      "outputs": [
        {
          "name": "",
          "type": "uint32"
        }
      ],
      "payable": false,
      "stateMutability": "view",
      "type": "function"
    },
    {
      "constant": true,
      "inputs": [
        {
          "name": "page",
          "type": "uint256"
        }
      ],
      "name": "getBids",
      "outputs": [
        {
          "name": "rabbitID",
          "type": "uint32[12]"
        },
        {
          "name": "rabbitSeller",
          "type": "address[12]"
        },
        {
          "name": "startMoneyBids",
          "type": "uint256[12]"
        },
        {
          "name": "timeStartBids",
          "type": "uint256[12]"
        },
        {
          "name": "currentPriceBids",
          "type": "uint256[12]"
        },
        {
          "name": "elementEnd",
          "type": "uint256"
        },
        {
          "name": "elementTotal",
          "type": "uint256"
        }
      ],
      "payable": false,
      "stateMutability": "view",
      "type": "function"
    },
    {
      "constant": false,
      "inputs": [
        {
          "name": "_promoGen0",
          "type": "uint256"
        }
      ],
      "name": "setPromoGen0",
      "outputs": [],
      "payable": false,
      "stateMutability": "nonpayable",
      "type": "function"
    },
    {
      "constant": true,
      "inputs": [
        {
          "name": "",
          "type": "uint32"
        }
      ],
      "name": "rabbitToOwner",
      "outputs": [
        {
          "name": "",
          "type": "address"
        }
      ],
      "payable": false,
      "stateMutability": "view",
      "type": "function"
    },
    {
      "constant": true,
      "inputs": [],
      "name": "totalSupply",
      "outputs": [
        {
          "name": "total",
          "type": "uint32"
        }
      ],
      "payable": false,
      "stateMutability": "view",
      "type": "function"
    },
    {
      "constant": true,
      "inputs": [],
      "name": "myAddr_test",
      "outputs": [
        {
          "name": "",
          "type": "address"
        }
      ],
      "payable": false,
      "stateMutability": "view",
      "type": "function"
    },
    {
      "constant": true,
      "inputs": [
        {
          "name": "_tokenId",
          "type": "uint32"
        }
      ],
      "name": "ownerOf",
      "outputs": [
        {
          "name": "owner",
          "type": "address"
        }
      ],
      "payable": false,
      "stateMutability": "view",
      "type": "function"
    },
    {
      "constant": true,
      "inputs": [
        {
          "name": "",
          "type": "uint256"
        },
        {
          "name": "",
          "type": "uint256"
        }
      ],
      "name": "sireGenom",
      "outputs": [
        {
          "name": "",
          "type": "uint32"
        }
      ],
      "payable": false,
      "stateMutability": "view",
      "type": "function"
    },
    {
      "constant": true,
      "inputs": [
        {
          "name": "bunnyid",
          "type": "uint32"
        }
      ],
      "name": "currentPrice",
      "outputs": [
        {
          "name": "",
          "type": "uint256"
        }
      ],
      "payable": false,
      "stateMutability": "view",
      "type": "function"
    },
    {
      "constant": false,
      "inputs": [],
      "name": "setPauseSave",
      "outputs": [
        {
          "name": "",
          "type": "bool"
        }
      ],
      "payable": false,
      "stateMutability": "nonpayable",
      "type": "function"
    },
    {
      "constant": true,
      "inputs": [],
      "name": "timeRangeCreateGen0",
      "outputs": [
        {
          "name": "",
          "type": "uint256"
        }
      ],
      "payable": false,
      "stateMutability": "view",
      "type": "function"
    },
    {
      "constant": false,
      "inputs": [
        {
          "name": "_sec",
          "type": "uint256"
        }
      ],
      "name": "setTimeRangeGen0",
      "outputs": [],
      "payable": false,
      "stateMutability": "nonpayable",
      "type": "function"
    },
    {
      "constant": true,
      "inputs": [
        {
          "name": "",
          "type": "uint256"
        }
      ],
      "name": "bidsArray",
      "outputs": [
        {
          "name": "rabbitID",
          "type": "uint32"
        },
        {
          "name": "startMoney",
          "type": "uint256"
        },
        {
          "name": "timeStart",
          "type": "uint256"
        }
      ],
      "payable": false,
      "stateMutability": "view",
      "type": "function"
    },
    {
      "constant": true,
      "inputs": [
        {
          "name": "_tokenId",
          "type": "uint32"
        }
      ],
      "name": "getSirePrice",
      "outputs": [
        {
          "name": "",
          "type": "uint256"
        }
      ],
      "payable": false,
      "stateMutability": "view",
      "type": "function"
    },
    {
      "constant": false,
      "inputs": [
        {
          "name": "_privAddress",
          "type": "address"
        }
      ],
      "name": "setPriv",
      "outputs": [
        {
          "name": "",
          "type": "bool"
        }
      ],
      "payable": false,
      "stateMutability": "nonpayable",
      "type": "function"
    },
    {
      "constant": true,
      "inputs": [
        {
          "name": "bunnyid",
          "type": "uint32"
        }
      ],
      "name": "getRabbitDNK",
      "outputs": [
        {
          "name": "",
          "type": "uint256"
        }
      ],
      "payable": false,
      "stateMutability": "view",
      "type": "function"
    },
    {
      "constant": false,
      "inputs": [
        {
          "name": "_money",
          "type": "uint256"
        }
      ],
      "name": "setMoneyRange",
      "outputs": [],
      "payable": false,
      "stateMutability": "nonpayable",
      "type": "function"
    },
    {
      "constant": true,
      "inputs": [
        {
          "name": "",
          "type": "uint256"
        }
      ],
      "name": "rabbits",
      "outputs": [
        {
          "name": "mother",
          "type": "uint32"
        },
        {
          "name": "sire",
          "type": "uint32"
        },
        {
          "name": "birthblock",
          "type": "uint256"
        },
        {
          "name": "birthCount",
          "type": "uint256"
        },
        {
          "name": "birthLastTime",
          "type": "uint256"
        },
        {
          "name": "role",
          "type": "uint256"
        },
        {
          "name": "genome",
          "type": "uint256"
        }
      ],
      "payable": false,
      "stateMutability": "view",
      "type": "function"
    },
    {
      "constant": false,
      "inputs": [
        {
          "name": "bunnyid",
          "type": "uint32"
        },
        {
          "name": "add",
          "type": "address"
        }
      ],
      "name": "giff",
      "outputs": [],
      "payable": false,
      "stateMutability": "nonpayable",
      "type": "function"
    },
    {
      "constant": true,
      "inputs": [],
      "name": "getOwnerMoney",
      "outputs": [
        {
          "name": "",
          "type": "address"
        }
      ],
      "payable": false,
      "stateMutability": "view",
      "type": "function"
    },
    {
      "constant": true,
      "inputs": [
        {
          "name": "",
          "type": "uint32"
        }
      ],
      "name": "totalSalaryBunny",
      "outputs": [
        {
          "name": "",
          "type": "uint256"
        }
      ],
      "payable": false,
      "stateMutability": "view",
      "type": "function"
    },
    {
      "constant": true,
      "inputs": [
        {
          "name": "_owner",
          "type": "address"
        }
      ],
      "name": "balanceOf",
      "outputs": [
        {
          "name": "",
          "type": "uint256"
        }
      ],
      "payable": false,
      "stateMutability": "view",
      "type": "function"
    },
    {
      "constant": true,
      "inputs": [],
      "name": "promoGen0",
      "outputs": [
        {
          "name": "",
          "type": "uint256"
        }
      ],
      "payable": false,
      "stateMutability": "view",
      "type": "function"
    },
    {
      "constant": true,
      "inputs": [],
      "name": "isUIntPublic",
      "outputs": [
        {
          "name": "",
          "type": "bool"
        }
      ],
      "payable": false,
      "stateMutability": "pure",
      "type": "function"
    },
    {
      "constant": true,
      "inputs": [],
      "name": "totalGen0",
      "outputs": [
        {
          "name": "",
          "type": "uint256"
        }
      ],
      "payable": false,
      "stateMutability": "view",
      "type": "function"
    },
    {
      "constant": true,
      "inputs": [],
      "name": "lastIdGen0",
      "outputs": [
        {
          "name": "",
          "type": "uint32"
        }
      ],
      "payable": false,
      "stateMutability": "view",
      "type": "function"
    },
    {
      "constant": false,
      "inputs": [
        {
          "name": "_bunnyid",
          "type": "uint32"
        },
        {
          "name": "_money",
          "type": "uint256"
        }
      ],
      "name": "setMarket",
      "outputs": [
        {
          "name": "",
          "type": "uint256"
        }
      ],
      "payable": false,
      "stateMutability": "nonpayable",
      "type": "function"
    },
    {
      "constant": true,
      "inputs": [],
      "name": "fcontr",
      "outputs": [
        {
          "name": "",
          "type": "bool"
        }
      ],
      "payable": false,
      "stateMutability": "view",
      "type": "function"
    },
    {
      "constant": true,
      "inputs": [],
      "name": "isPauseSave",
      "outputs": [
        {
          "name": "",
          "type": "bool"
        }
      ],
      "payable": false,
      "stateMutability": "view",
      "type": "function"
    },
    {
      "constant": true,
      "inputs": [],
      "name": "isPriv",
      "outputs": [
        {
          "name": "",
          "type": "bool"
        }
      ],
      "payable": false,
      "stateMutability": "view",
      "type": "function"
    },
    {
      "constant": true,
      "inputs": [],
      "name": "lastTimeGen0",
      "outputs": [
        {
          "name": "",
          "type": "uint256"
        }
      ],
      "payable": false,
      "stateMutability": "view",
      "type": "function"
    },
    {
      "constant": true,
      "inputs": [],
      "name": "totalBunny",
      "outputs": [
        {
          "name": "",
          "type": "uint32"
        }
      ],
      "payable": false,
      "stateMutability": "view",
      "type": "function"
    },
    {
      "constant": true,
      "inputs": [
        {
          "name": "rabbitid",
          "type": "uint256"
        }
      ],
      "name": "deleteRabbitMarket",
      "outputs": [],
      "payable": false,
      "stateMutability": "pure",
      "type": "function"
    },
    {
      "constant": false,
      "inputs": [
        {
          "name": "add",
          "type": "address"
        }
      ],
      "name": "transferOwnershipTechnical",
      "outputs": [],
      "payable": false,
      "stateMutability": "nonpayable",
      "type": "function"
    },
    {
      "constant": true,
      "inputs": [
        {
          "name": "page",
          "type": "uint256"
        },
        {
          "name": "owner",
          "type": "address"
        }
      ],
      "name": "getTokenList",
      "outputs": [
        {
          "name": "bunnys",
          "type": "uint32[12]"
        },
        {
          "name": "bunnyRole",
          "type": "uint256[12]"
        },
        {
          "name": "elementEnd",
          "type": "uint256"
        },
        {
          "name": "elementTotal",
          "type": "uint256"
        },
        {
          "name": "startArray",
          "type": "uint256"
        }
      ],
      "payable": false,
      "stateMutability": "view",
      "type": "function"
    },
    {
      "constant": true,
      "inputs": [],
      "name": "symbol",
      "outputs": [
        {
          "name": "",
          "type": "string"
        }
      ],
      "payable": false,
      "stateMutability": "view",
      "type": "function"
    },
    {
      "constant": true,
      "inputs": [
        {
          "name": "",
          "type": "uint256"
        }
      ],
      "name": "cooldowns",
      "outputs": [
        {
          "name": "",
          "type": "uint32"
        }
      ],
      "payable": false,
      "stateMutability": "view",
      "type": "function"
    },
    {
      "constant": true,
      "inputs": [
        {
          "name": "rabbitid",
          "type": "uint32"
        },
        {
          "name": "step",
          "type": "uint256"
        }
      ],
      "name": "bidMarket",
      "outputs": [],
      "payable": false,
      "stateMutability": "view",
      "type": "function"
    },
    {
      "constant": false,
      "inputs": [
        {
          "name": "_bunnyid",
          "type": "uint32"
        }
      ],
      "name": "buyBunny",
      "outputs": [],
      "payable": true,
      "stateMutability": "payable",
      "type": "function"
    },
    {
      "constant": false,
      "inputs": [
        {
          "name": "_to",
          "type": "address"
        },
        {
          "name": "_tokenId",
          "type": "uint32"
        }
      ],
      "name": "approve",
      "outputs": [],
      "payable": false,
      "stateMutability": "nonpayable",
      "type": "function"
    },
    {
      "constant": true,
      "inputs": [],
      "name": "promoMoney",
      "outputs": [
        {
          "name": "",
          "type": "uint256"
        }
      ],
      "payable": false,
      "stateMutability": "view",
      "type": "function"
    },
    {
      "constant": true,
      "inputs": [],
      "name": "ownerCEO",
      "outputs": [
        {
          "name": "",
          "type": "address"
        }
      ],
      "payable": false,
      "stateMutability": "view",
      "type": "function"
    },
    {
      "constant": true,
      "inputs": [],
      "name": "getOwnerTech",
      "outputs": [
        {
          "name": "",
          "type": "address"
        }
      ],
      "payable": false,
      "stateMutability": "view",
      "type": "function"
    },
    {
      "constant": true,
      "inputs": [
        {
          "name": "",
          "type": "address"
        },
        {
          "name": "",
          "type": "uint256"
        }
      ],
      "name": "ownerBunnies",
      "outputs": [
        {
          "name": "",
          "type": "uint32"
        }
      ],
      "payable": false,
      "stateMutability": "view",
      "type": "function"
    },
    {
      "constant": true,
      "inputs": [
        {
          "name": "owner",
          "type": "address"
        }
      ],
      "name": "getTokenOwner",
      "outputs": [
        {
          "name": "total",
          "type": "uint256"
        },
        {
          "name": "list",
          "type": "uint32[]"
        }
      ],
      "payable": false,
      "stateMutability": "view",
      "type": "function"
    },
    {
      "constant": true,
      "inputs": [
        {
          "name": "page",
          "type": "uint256"
        },
        {
          "name": "indexBunny",
          "type": "uint256"
        }
      ],
      "name": "getSireList",
      "outputs": [
        {
          "name": "rabbitID",
          "type": "uint32[12]"
        },
        {
          "name": "currentPriceBids",
          "type": "uint256[12]"
        },
        {
          "name": "elementEnd",
          "type": "uint256"
        },
        {
          "name": "elementTotal",
          "type": "uint256"
        }
      ],
      "payable": false,
      "stateMutability": "view",
      "type": "function"
    },
    {
      "constant": false,
      "inputs": [
        {
          "name": "period",
          "type": "uint256"
        }
      ],
      "name": "setDayPeriod",
      "outputs": [
        {
          "name": "",
          "type": "uint256"
        }
      ],
      "payable": false,
      "stateMutability": "nonpayable",
      "type": "function"
    },
    {
      "constant": false,
      "inputs": [
        {
          "name": "_promoMoney",
          "type": "uint256"
        }
      ],
      "name": "setPromoMoney",
      "outputs": [],
      "payable": false,
      "stateMutability": "nonpayable",
      "type": "function"
    },
    {
      "constant": false,
      "inputs": [
        {
          "name": "money",
          "type": "uint256"
        }
      ],
      "name": "setStepMoney",
      "outputs": [],
      "payable": false,
      "stateMutability": "nonpayable",
      "type": "function"
    },
    {
      "constant": false,
      "inputs": [
        {
          "name": "add",
          "type": "address"
        }
      ],
      "name": "transferOwnership",
      "outputs": [],
      "payable": false,
      "stateMutability": "nonpayable",
      "type": "function"
    },
    {
      "constant": true,
      "inputs": [],
      "name": "getOwnerServer",
      "outputs": [
        {
          "name": "",
          "type": "address"
        }
      ],
      "payable": false,
      "stateMutability": "view",
      "type": "function"
    },
    {
      "constant": true,
      "inputs": [],
      "name": "totalClosedBID",
      "outputs": [
        {
          "name": "",
          "type": "uint256"
        }
      ],
      "payable": false,
      "stateMutability": "view",
      "type": "function"
    },
    {
      "constant": false,
      "inputs": [
        {
          "name": "_bunnyID",
          "type": "uint32"
        }
      ],
      "name": "stopMarket",
      "outputs": [
        {
          "name": "",
          "type": "uint256"
        }
      ],
      "payable": false,
      "stateMutability": "nonpayable",
      "type": "function"
    },
    {
      "constant": true,
      "inputs": [],
      "name": "getMarketCount",
      "outputs": [
        {
          "name": "",
          "type": "uint256"
        }
      ],
      "payable": false,
      "stateMutability": "view",
      "type": "function"
    },
    {
      "constant": false,
      "inputs": [
        {
          "name": "_ownerMoney",
          "type": "address"
        }
      ],
      "name": "transferOwnerMoney",
      "outputs": [],
      "payable": false,
      "stateMutability": "nonpayable",
      "type": "function"
    },
    {
      "anonymous": false,
      "inputs": [
        {
          "indexed": false,
          "name": "bunnyid",
          "type": "uint32"
        },
        {
          "indexed": false,
          "name": "dnk",
          "type": "uint256"
        },
        {
          "indexed": false,
          "name": "blocknumber",
          "type": "uint256"
        }
      ],
      "name": "NewBunny",
      "type": "event"
    },
    {
      "anonymous": false,
      "inputs": [
        {
          "indexed": false,
          "name": "newOwnerBunny",
          "type": "address"
        },
        {
          "indexed": false,
          "name": "bunnyId",
          "type": "uint32"
        }
      ],
      "name": "SendBunny",
      "type": "event"
    },
    {
      "anonymous": false,
      "inputs": [
        {
          "indexed": false,
          "name": "from",
          "type": "address"
        },
        {
          "indexed": false,
          "name": "to",
          "type": "address"
        },
        {
          "indexed": false,
          "name": "tokenId",
          "type": "uint32"
        }
      ],
      "name": "Transfer",
      "type": "event"
    },
    {
      "anonymous": false,
      "inputs": [
        {
          "indexed": false,
          "name": "owner",
          "type": "address"
        },
        {
          "indexed": false,
          "name": "approved",
          "type": "address"
        },
        {
          "indexed": false,
          "name": "tokenId",
          "type": "uint32"
        }
      ],
      "name": "Approval",
      "type": "event"
    },
    {
      "constant": false,
      "inputs": [],
      "name": "createGennezise",
      "outputs": [
        {
          "name": "",
          "type": "uint32"
        }
      ],
      "payable": false,
      "stateMutability": "nonpayable",
      "type": "function"
    },
    {
      "constant": false,
      "inputs": [
        {
          "name": "_matron",
          "type": "uint32"
        },
        {
          "name": "_sire",
          "type": "uint32"
        }
      ],
      "name": "createChildren",
      "outputs": [
        {
          "name": "",
          "type": "uint32"
        }
      ],
      "payable": true,
      "stateMutability": "payable",
      "type": "function"
    },
    {
      "constant": true,
      "inputs": [
        {
          "name": "_mother",
          "type": "uint32"
        }
      ],
      "name": "getcoolduwn",
      "outputs": [
        {
          "name": "lastTime",
          "type": "uint256"
        },
        {
          "name": "cd",
          "type": "uint256"
        },
        {
          "name": "lefttime",
          "type": "uint256"
        }
      ],
      "payable": false,
      "stateMutability": "view",
      "type": "function"
    },
    {
      "constant": false,
      "inputs": [
        {
          "name": "_rabbitid",
          "type": "uint32"
        },
        {
          "name": "price",
          "type": "uint256"
        }
      ],
      "name": "setRabbitSirePrice",
      "outputs": [
        {
          "name": "",
          "type": "bool"
        }
      ],
      "payable": false,
      "stateMutability": "nonpayable",
      "type": "function"
    },
    {
      "constant": false,
      "inputs": [
        {
          "name": "_rabbitid",
          "type": "uint32"
        }
      ],
      "name": "setSireStop",
      "outputs": [
        {
          "name": "",
          "type": "bool"
        }
      ],
      "payable": false,
      "stateMutability": "nonpayable",
      "type": "function"
    },
    {
      "constant": false,
      "inputs": [
        {
          "name": "rabbitid",
          "type": "uint32"
        },
        {
          "name": "description",
          "type": "string"
        }
      ],
      "name": "setDescriptionRabbit",
      "outputs": [],
      "payable": false,
      "stateMutability": "nonpayable",
      "type": "function"
    },
    {
      "constant": true,
      "inputs": [
        {
          "name": "_rabbitid",
          "type": "uint32"
        }
      ],
      "name": "getDescriptionRabbit",
      "outputs": [
        {
          "name": "",
          "type": "string"
        }
      ],
      "payable": false,
      "stateMutability": "view",
      "type": "function"
    },
    {
      "constant": false,
      "inputs": [
        {
          "name": "rabbitid",
          "type": "uint32"
        },
        {
          "name": "name",
          "type": "string"
        }
      ],
      "name": "setNameRabbit",
      "outputs": [],
      "payable": false,
      "stateMutability": "nonpayable",
      "type": "function"
    },
    {
      "constant": true,
      "inputs": [
        {
          "name": "rabbitid",
          "type": "uint32"
        }
      ],
      "name": "getNameRabbit",
      "outputs": [
        {
          "name": "",
          "type": "string"
        }
      ],
      "payable": false,
      "stateMutability": "view",
      "type": "function"
    },
    {
      "constant": false,
      "inputs": [
        {
          "name": "_value",
          "type": "uint256"
        }
      ],
      "name": "getMoney",
      "outputs": [],
      "payable": false,
      "stateMutability": "nonpayable",
      "type": "function"
    }
  ],
  "bytecode": "0x6004805460a060020a60ff0219169055655af3107a40006005819055600060075560016009556109c4600a55600b55610260604052603c6080908152607860a05260f060c0526101e060e08190526103c06101005261078061012052610e1061014052611c2061016052613840610180526170806101a05261e1006101c0526201518090526202a30061020052620546006102205262093a8061024052620000ac90601190600f620001fb565b506018805463ffffffff60c060020a60ff02011916905560198054600160a060020a0319908116734478f980deb6a3def9bfbb519e085dcc96aadfd01791829055611c20601a556001601b819055601c819055601d819055601e805460ff1916601417905560218190556000602281905560248190556027819055805433600160a060020a039081169185168217909255600280548516821790556003805485168217905582549093169092179055620001709116640100000000620001a2810204565b506018805460c060020a60ff0219167801000000000000000000000000000000000000000000000000179055620002c5565b60048054600160a060020a031916600160a060020a03929092169182179055601880547fffffffffffffffff0000000000000000000000000000000000000000ffffffff16640100000000909202919091179055600090565b6002830191839082156200028c5791602002820160005b838211156200025857835183826101000a81548163ffffffff021916908363ffffffff160217905550926020019260040160208160030104928301926001030262000212565b80156200028a5782816101000a81549063ffffffff021916905560040160208160030104928301926001030262000258565b505b506200029a9291506200029e565b5090565b620002c291905b808211156200029a57805463ffffffff19168155600101620002a5565b90565b61381f80620002d56000396000f3006080604052600436106103085763ffffffff60e060020a600035041663030f72dd811461030d57806303602e9e146103735780630374c654146103a457806305caca6c14610437578063068734181461045857806306fdde031461049457806312448c32146104a9578063131d9a27146104e357806314c588de146105f257806314f1cf0c1461060a57806317265e191461062857806318160ddd1461068c5780631e923f1b146106a157806323b7ec3b146106b65780632573751f146106d45780632a075901146106ef578063308c0065146107045780633262fd9a14610734578063335061151461074c5780633c9ff012146107755780633ec27c4a1461078a5780634038ec37146107a2578063462a8e05146107c0578063480892a9146107e15780634b72bbaf1461081e5780634e2fd44e1461083c5780634fd839c61461085d578063553fd0431461087b57806359dc2eec1461089357806362075af4146108ec578063625101d5146109165780636b5330571461092b57806370a082311461094957806370d4d7b41461096a5780637214d6c31461097f5780637230ef7f14610994578063731f49b7146109a957806373edbc22146109be57806374479db0146109df5780637878b66a146109f45780637cbd544414610a095780638231ee9814610a1e578063847ec2de14610a3357806384fcfb3414610a485780638638fc3c14610a605780638fe521c814610a8157806395d89b4114610b1f5780639d6fac6f14610b345780639fa0fe1014610b4c578063a13a7cee14610b6d578063a210a67614610b84578063a22ec47614610b95578063a7e9454214610bb3578063ad5a157d14610bdd578063c17c045614610bf2578063c7191bc714610c07578063d00dbcb014610c1c578063dc17c9ca14610c40578063e51ac9fe14610cbc578063e8defac714610d4a578063eea23d8a14610d62578063ef229dc714610d7a578063f2fde38b14610d92578063f3cee12914610db3578063f65045df14610dc8578063fb6c2b6f14610ddd578063fd69f3c214610dfb578063fdaacf1b14610e10575b600080fd5b34801561031957600080fd5b5060408051602060046024803582810135601f810185900485028601850190965285855261037195833563ffffffff16953695604494919390910191908190840183828082843750949750610e319650505050505050565b005b34801561037f57600080fd5b50610388610eb6565b60408051600160a060020a039092168252519081900360200190f35b3480156103b057600080fd5b506103c263ffffffff60043516610ee3565b6040805160208082528351818301528351919283929083019185019080838360005b838110156103fc5781810151838201526020016103e4565b50505050905090810190601f1680156104295780820380516001836020036101000a031916815260200191505b509250505060405180910390f35b34801561044357600080fd5b50610371600160a060020a0360043516610f8b565b34801561046457600080fd5b5061047663ffffffff60043516610fe1565b60408051938452602084019290925282820152519081900360600190f35b3480156104a057600080fd5b506103c26110a0565b3480156104b557600080fd5b506104ca63ffffffff600435166024356110d7565b6040805163ffffffff9092168252519081900360200190f35b3480156104ef57600080fd5b506104fb60043561111f565b604051808861018080838360005b83811015610521578181015183820152602001610509565b5050505090500187600c60200280838360005b8381101561054c578181015183820152602001610534565b5050505090500186600c60200280838360005b8381101561057757818101518382015260200161055f565b5050505090500185600c60200280838360005b838110156105a257818101518382015260200161058a565b5050505090500184600c60200280838360005b838110156105cd5781810151838201526020016105b5565b5050505090500183815260200182815260200197505050505050505060405180910390f35b3480156105fe57600080fd5b50610371600435611297565b34801561061657600080fd5b5061038863ffffffff600435166112b7565b34801561063457600080fd5b5060408051602060046024803582810135601f810185900485028601850190965285855261037195833563ffffffff169536956044949193909101919081908401838280828437509497506112d29650505050505050565b34801561069857600080fd5b506104ca611351565b3480156106ad57600080fd5b5061038861135d565b3480156106c257600080fd5b5061038863ffffffff6004351661136c565b3480156106e057600080fd5b506104ca60043560243561138d565b3480156106fb57600080fd5b506104ca6113a8565b34801561071057600080fd5b5061072263ffffffff6004351661165d565b60408051918252519081900360200190f35b34801561074057600080fd5b506103716004356116e6565b34801561075857600080fd5b50610761611752565b604080519115158252519081900360200190f35b34801561078157600080fd5b506107226117b4565b34801561079657600080fd5b506103716004356117ba565b3480156107ae57600080fd5b506103c263ffffffff600435166117f5565b3480156107cc57600080fd5b5061076163ffffffff60043516602435611866565b3480156107ed57600080fd5b506107f96004356119ec565b6040805163ffffffff9094168452602084019290925282820152519081900360600190f35b34801561082a57600080fd5b5061072263ffffffff60043516611a14565b34801561084857600080fd5b50610761600160a060020a0360043516611a4a565b34801561086957600080fd5b5061072263ffffffff60043516611aa9565b34801561088757600080fd5b50610371600435611ac1565b34801561089f57600080fd5b506108ab600435611afc565b6040805163ffffffff9889168152969097166020870152858701949094526060850192909252608084015260a083015260c082015290519081900360e00190f35b3480156108f857600080fd5b5061037163ffffffff60043516600160a060020a0360243516611b56565b34801561092257600080fd5b50610388611b8f565b34801561093757600080fd5b5061072263ffffffff60043516611bbb565b34801561095557600080fd5b50610722600160a060020a0360043516611bcd565b34801561097657600080fd5b50610722611be8565b34801561098b57600080fd5b50610761611bee565b3480156109a057600080fd5b50610722611bf3565b3480156109b557600080fd5b506104ca611bf9565b3480156109ca57600080fd5b5061072263ffffffff60043516602435611c05565b3480156109eb57600080fd5b50610761611ce8565b348015610a0057600080fd5b50610761611d0d565b348015610a1557600080fd5b50610761611d2f565b348015610a2a57600080fd5b50610722611db5565b348015610a3f57600080fd5b506104ca611dbb565b348015610a5457600080fd5b50610371600435610fde565b348015610a6c57600080fd5b50610371600160a060020a0360043516611dc7565b348015610a8d57600080fd5b50610aa5600435600160a060020a0360243516611e1e565b604051808661018080838360005b83811015610acb578181015183820152602001610ab3565b5050505090500185600c60200280838360005b83811015610af6578181015183820152602001610ade565b505050509050018481526020018381526020018281526020019550505050505060405180910390f35b348015610b2b57600080fd5b506103c2611f39565b348015610b4057600080fd5b506104ca600435611f70565b348015610b5857600080fd5b5061037163ffffffff60043516602435611f9d565b6104ca63ffffffff60043581169060243516611fb0565b61037163ffffffff6004351661244a565b348015610ba157600080fd5b5061076163ffffffff600435166125b0565b348015610bbf57600080fd5b50610371600160a060020a036004351663ffffffff60243516610eb2565b348015610be957600080fd5b5061072261267c565b348015610bfe57600080fd5b50610388612682565b348015610c1357600080fd5b50610388612691565b348015610c2857600080fd5b506104ca600160a060020a03600435166024356126bd565b348015610c4c57600080fd5b50610c61600160a060020a03600435166126d8565b6040518083815260200180602001828103825283818151815260200191508051906020019060200280838360005b83811015610ca7578181015183820152602001610c8f565b50505050905001935050505060405180910390f35b348015610cc857600080fd5b50610cd7600435602435612775565b604051808561018080838360005b83811015610cfd578181015183820152602001610ce5565b5050505090500184600c60200280838360005b83811015610d28578181015183820152602001610d10565b5050505090500183815260200182815260200194505050505060405180910390f35b348015610d5657600080fd5b506107226004356128a2565b348015610d6e57600080fd5b506103716004356128ee565b348015610d8657600080fd5b5061037160043561290e565b348015610d9e57600080fd5b50610371600160a060020a0360043516612949565b348015610dbf57600080fd5b506103886129a0565b348015610dd457600080fd5b506107226129cc565b348015610de957600080fd5b5061072263ffffffff600435166129d2565b348015610e0757600080fd5b50610722612b2f565b348015610e1c57600080fd5b50610371600160a060020a0360043516612b35565b610e39611d0d565b1515610e4457600080fd5b63ffffffff821660009081526014602052604090205433600160a060020a03908116911614610e7257600080fd5b6101008151108015610e85575060008151115b15610eb25763ffffffff821660009081526016602090815260409091208251610eb09284019061361e565b505b5050565b6000805433600160a060020a03908116911614610ed257600080fd5b50600454600160a060020a03165b90565b63ffffffff811660009081526016602090815260409182902080548351601f6002600019610100600186161502019093169290920491820184900484028101840190945280845260609392830182828015610f7f5780601f10610f5457610100808354040283529160200191610f7f565b820191906000526020600020905b815481529060010190602001808311610f6257829003601f168201915b50505050509050919050565b60005433600160a060020a03908116911614610fa657600080fd5b600160a060020a03811615610fde576003805473ffffffffffffffffffffffffffffffffffffffff1916600160a060020a0383161790555b50565b600080600060136001850363ffffffff16815481101515610ffe57fe5b9060005260206000209060060201600201549150600e82111561102057600e91505b6013805463ffffffff60001987011690811061103857fe5b906000526020600020906006020160030154601183600f8110151561105957fe5b600891828204019190066004029054906101000a900463ffffffff1663ffffffff160192504283111561109957611096834263ffffffff612b7f16565b90505b9193909250565b60408051808201909152600d81527f43727970746f5261626269747300000000000000000000000000000000000000602082015281565b600d602052816000526040600020818154811015156110f257fe5b9060005260206000209060089182820401919006600402915091509054906101000a900463ffffffff1681565b61112761369c565b61112f61369c565b61113761369c565b61113f61369c565b61114761369c565b60008080600c81808060018d101561115e5760019c505b61116e8d8563ffffffff612b9116565b9650601b5487111561118057601b5496505b5050601b5493506000198b018202600101805b866001018110156112875760008181526028602052604090205463ffffffff169450848c84600c81106111c257fe5b63ffffffff92831660209182029290920191909152908616600090815260149091526040902054600160a060020a03168b84600c81106111fe57fe5b600160a060020a03909216602092830291909101526000828152602890915260409020600101548a84600c811061123157fe5b602090810291909101919091526000828152602890915260409020600201548984600c811061125c57fe5b602002015261126a8561165d565b8884600c811061127657fe5b602002015260019283019201611193565b5050505050919395979092949650565b60005433600160a060020a039081169116146112b257600080fd5b600a55565b601460205260009081526040902054600160a060020a031681565b6112da611d0d565b15156112e557600080fd5b63ffffffff821660009081526014602052604090205433600160a060020a0390811691161461131357600080fd5b6101008151108015611326575060008151115b15610eb25763ffffffff821660009081526017602090815260409091208251610eb09284019061361e565b60185463ffffffff1690565b601954600160a060020a031681565b63ffffffff16600090815260146020526040902054600160a060020a031690565b600f602052816000526040600020818154811015156110f257fe5b6000806113b36136bc565b600354600090819033600160a060020a03908116911614806113e3575060005433600160a060020a039081169116145b15156113ee57600080fd5b6113f6611d2f565b151561140157600080fd5b611409611d0d565b151561141457600080fd5b601860049054906101000a9004600160a060020a0316600160a060020a031663d6cfc2926040518163ffffffff1660e060020a028152600401602060405180830381600087803b15801561146757600080fd5b505af115801561147b573d6000803e3d6000fd5b505050506040513d602081101561149157600080fd5b50516040805160e0810182526000808252602080830182815243848601908152606085018481526080860185815260a0870186815260c088018781526013805460018101808355918a528a517f66de8ffda797e3de9c05e8fc57b3bf0ec28a930d40b0d285d93c06501cf6a09060069092029182018054995163ffffffff19909a1663ffffffff9283161767ffffffff0000000019166401000000009a83169a909a029990991790985595517f66de8ffda797e3de9c05e8fc57b3bf0ec28a930d40b0d285d93c06501cf6a09187015593517f66de8ffda797e3de9c05e8fc57b3bf0ec28a930d40b0d285d93c06501cf6a09286015591517f66de8ffda797e3de9c05e8fc57b3bf0ec28a930d40b0d285d93c06501cf6a093850155517f66de8ffda797e3de9c05e8fc57b3bf0ec28a930d40b0d285d93c06501cf6a094840155517f66de8ffda797e3de9c05e8fc57b3bf0ec28a930d40b0d285d93c06501cf6a0959092019190915590811683526010909152929020839055919550909350915061161e338386612bbc565b611626612c42565b90506116328282611c05565b5050426025556006805463ffffffff191663ffffffff83161790556007805460010190559392505050565b63ffffffff8116600090815260296020908152604080832054808452602890925282206002810154600190910154601a548490428490039082908190156116d957601a54838115156116ab57fe5b04915081158015906116bc57508415155b156116d5576103e88504905080600a02850393506116d9565b8493505b5091979650505050505050565b60005433600160a060020a0390811691161461170157600080fd5b600160a060020a0330163181111561171857600080fd5b600154604051600160a060020a039091169082156108fc029083906000818181858888f19350505050158015610eb2573d6000803e3d6000fd5b6000805433600160a060020a0390811691161461176e57600080fd5b506004805474ff0000000000000000000000000000000000000000198116740100000000000000000000000000000000000000009182900460ff16159182021790915590565b60095481565b60025433600160a060020a03908116911614806117e5575060005433600160a060020a039081169116145b15156117f057600080fd5b600955565b63ffffffff811660009081526017602090815260409182902080548351601f6002600019610100600186161502019093169290920491820184900484028101840190945280845260609392830182828015610f7f5780601f10610f5457610100808354040283529160200191610f7f565b6000806000611873611d0d565b151561187e57600080fd5b63ffffffff851660009081526014602052604090205433600160a060020a039081169116146118ac57600080fd5b60055484116118ba57600080fd5b6118c385610fe1565b5090925050428211156118d557600080fd5b6013805463ffffffff87169081106118e957fe5b906000526020600020906006020160040154600114801561191e575063ffffffff85166000908152600e602052604090205484145b1561192c57600092506119e4565b600160138663ffffffff1681548110151561194357fe5b600091825260208083206004600690930201919091019290925563ffffffff8716808252600e9092526040902085905560138054909190811061198257fe5b6000918252602080832060069290920290910160050154808352600f825260408320805460018082018355918552929093206008830401805460079093166004026101000a63ffffffff81810219909416938a16029290921790915590935090505b505092915050565b60286020526000908152604090208054600182015460029092015463ffffffff909116919083565b63ffffffff81166000908152600e60205260408120548190606490049050611a4381601963ffffffff612b9116565b9392505050565b6004805473ffffffffffffffffffffffffffffffffffffffff1916600160a060020a039290921691821790556018805477ffffffffffffffffffffffffffffffffffffffff000000001916640100000000909202919091179055600090565b63ffffffff1660009081526010602052604090205490565b60025433600160a060020a0390811691161480611aec575060005433600160a060020a039081169116145b1515611af757600080fd5b602355565b6013805482908110611b0a57fe5b600091825260209091206006909102018054600182015460028301546003840154600485015460059095015463ffffffff80861697506401000000009095049094169492939192909187565b63ffffffff821660009081526014602052604090205433600160a060020a03908116911614611b8457600080fd5b610eb2338284612d5b565b6000805433600160a060020a03908116911614611bab57600080fd5b50600154600160a060020a031690565b600c6020526000908152604090205481565b600160a060020a031660009081526015602052604090205490565b600a5481565b600190565b60075481565b60065463ffffffff1681565b6000611c0f613706565b611c17611d0d565b1515611c2257600080fd5b600554831015611c3157600080fd5b63ffffffff841660009081526014602052604090205433600160a060020a03908116911614611c5f57600080fd5b611c68846129d2565b50506040805160608101825263ffffffff858116808352602080840187815242858701908152601b80546000908152602885528881208851815463ffffffff1916981697909717875592516001808801919091559151600290960195909555845493825260299092529490942081905592830190559091505b5092915050565b6018547801000000000000000000000000000000000000000000000000900460ff1681565b60045474010000000000000000000000000000000000000000900460ff161590565b6000601860049054906101000a9004600160a060020a0316600160a060020a031663ccb0893d6040518163ffffffff1660e060020a028152600401602060405180830381600087803b158015611d8457600080fd5b505af1158015611d98573d6000803e3d6000fd5b505050506040513d6020811015611dae57600080fd5b5051905090565b60085481565b60185463ffffffff1681565b60005433600160a060020a03908116911614611de257600080fd5b600160a060020a03811615610fde5760028054600160a060020a03831673ffffffffffffffffffffffffffffffffffffffff1990911617905550565b611e2661369c565b611e2e61369c565b6000808080808060018a1015611e4357600199505b600160a060020a0389166000908152601560205260409020549450611e6f8a600c63ffffffff612b9116565b955084861115611e7d578495505b600160a060020a038916600090815260156020526040902054600c6000198c010260010194501515611eae57611f2c565b50825b85600101811015611f2c57600160a060020a0389166000908152601560205260409020805482908110611ee057fe5b6000918252602090912060088204015460079091166004026101000a900463ffffffff168883600c8110611f1057fe5b63ffffffff909216602092909202015260019182019101611eb1565b5050509295509295909350565b60408051808201909152600381527f4352420000000000000000000000000000000000000000000000000000000000602082015281565b601181600f8110611f7d57fe5b60089182820401919006600402915054906101000a900463ffffffff1681565b611fa5611d0d565b1515610eb257600080fd5b600080600080600080611fc16136bc565b6000611fcb611d2f565b1515611fd657600080fd5b611fde611d0d565b1515611fe957600080fd5b63ffffffff8a1660009081526014602052604090205433600160a060020a0390811691161461201757600080fd5b6013805463ffffffff8b1690811061202b57fe5b906000526020600020906006020160040154600114151561204b57600080fd5b63ffffffff8a8116908a16141561206157600080fd5b6000965061206e8a610fe1565b50909650504286111561208057600080fd5b63ffffffff808a166000908152600e602052604090205495506120a8908690600490612e2116565b93508484013410156120b957600080fd5b60185463ffffffff8b8116600090815260106020908152604080832054938e1683528083205481517f024a7fcc0000000000000000000000000000000000000000000000000000000081526004810195909552602485015251640100000000909404600160a060020a03169363024a7fcc93604480820194918390030190829087803b15801561214857600080fd5b505af115801561215c573d6000803e3d6000fd5b505050506040513d602081101561217257600080fd5b5051601380549194509063ffffffff8b1690811061218c57fe5b90600052602060002090600602016005015460138b63ffffffff168154811015156121b357fe5b90600052602060002090600602016005015410151561220d57612206600160138c63ffffffff168154811015156121e657fe5b906000526020600020906006020160050154612e3890919063ffffffff16565b965061222a565b612227600160138b63ffffffff168154811015156121e657fe5b96505b50506040805160e08101825263ffffffff808b1682528981166020808401918252438486019081526000606086018181526080870182815260a0880183815260c089018f815260138054600181018083559187528b5160069091027f66de8ffda797e3de9c05e8fc57b3bf0ec28a930d40b0d285d93c06501cf6a090810180549b518d166401000000000267ffffffff0000000019938e1663ffffffff19909d169c909c17929092169a909a17905595517f66de8ffda797e3de9c05e8fc57b3bf0ec28a930d40b0d285d93c06501cf6a09189015592517f66de8ffda797e3de9c05e8fc57b3bf0ec28a930d40b0d285d93c06501cf6a09288015590517f66de8ffda797e3de9c05e8fc57b3bf0ec28a930d40b0d285d93c06501cf6a093870155517f66de8ffda797e3de9c05e8fc57b3bf0ec28a930d40b0d285d93c06501cf6a094860155517f66de8ffda797e3de9c05e8fc57b3bf0ec28a930d40b0d285d93c06501cf6a0959094019390935592831682526010905292909220839055906123b48a85612e47565b63ffffffff8916600090815260146020526040808220549051600160a060020a039091169187156108fc02918891818181858888f193505050501580156123ff573d6000803e3d6000fd5b506124098a612fb8565b63ffffffff8a1660009081526014602052604090205461243390600160a060020a03168285612bbc565b61243d818b613066565b9998505050505050505050565b6000612454611d0d565b151561245f57600080fd5b63ffffffff821660009081526014602052604090205433600160a060020a039081169116141561248e57600080fd5b6124978261165d565b90508034101580156124a857508015155b15156124b357600080fd5b6124bc826129d2565b5060278054600101905563ffffffff82166000908152601460205260409020546124ef90600160a060020a0316346130f7565b63ffffffff821660009081526014602052604090205461251990600160a060020a03163384612d5b565b60408051808201825282815263ffffffff841660008181526029602090815284822054825260288152848220600201544203818501908152602754835260268252918590209351845590516001909301929092558251600160a060020a03331681529182015281517fbe094b3f5b6f49f63819500ee3f9149336c47d4b6d3c809583c9ed3b5a458b3e929181900390910190a15050565b60006125ba611d0d565b15156125c557600080fd5b63ffffffff821660009081526014602052604090205433600160a060020a039081169116146125f357600080fd5b6013805463ffffffff841690811061260757fe5b906000526020600020906006020160040154600014151561262757600080fd5b600060138363ffffffff1681548110151561263e57fe5b600091825260208083206004600690930201919091019290925563ffffffff84168152600e909152604081205561267482613172565b506001919050565b600b5481565b600054600160a060020a031681565b6000805433600160a060020a039081169116146126ad57600080fd5b50600254600160a060020a031690565b6015602052816000526040600020818154811015156110f257fe5b600160a060020a038116600090815260156020908152604091829020805483518184028101840190945280845292606092909190849083018282801561276957602002820191906000526020600020906000905b82829054906101000a900463ffffffff1663ffffffff168152602001906004019060208260030104928301926001038202915080841161272c5790505b50505050509050915091565b61277d61369c565b61278561369c565b60008080600c818060018a101561279b57600199505b6000898152600f602052604090205415156127b557612895565b6127c58a8463ffffffff612b9116565b60008a8152600f60205260409020549096508611156127f0576000898152600f602052604090205495505b506000888152600f60205260409020549350600019890182025b85811015612895576000898152600f6020526040902080548290811061282c57fe5b6000918252602090912060088204015460079091166004026101000a900463ffffffff169350838883600c811061285f57fe5b63ffffffff909216602092909202015261287884611a14565b8783600c811061288457fe5b60200201526001918201910161280a565b5050505092959194509250565b60025460009033600160a060020a03908116911614806128d0575060005433600160a060020a039081169116145b15156128db57600080fd5b50601c8190556201518002601d81905590565b60005433600160a060020a0390811691161461290957600080fd5b600b55565b60025433600160a060020a0390811691161480612939575060005433600160a060020a039081169116145b151561294457600080fd5b601a55565b60005433600160a060020a0390811691161461296457600080fd5b600160a060020a03811615610fde5760008054600160a060020a03831673ffffffffffffffffffffffffffffffffffffffff1990911617905550565b6000805433600160a060020a039081169116146129bc57600080fd5b50600354600160a060020a031690565b60275481565b6000806000806129e0611d0d565b15156129eb57600080fd5b600092505b601b548311612b215760008381526028602052604090205463ffffffff86811691161415612b165763ffffffff8516600090815260296020908152604080832080549084905586845260289092528220805463ffffffff1916815560018101839055600201829055601b54909350118015612a6b5750600083115b8015612a7c575060018303601b5414155b15612b035750601b805460001990810160009081526028602081815260408084208885528185208154815463ffffffff1990811663ffffffff928316178084556001858101548582015560029586015494860194909455909116808852602986528488208b9055985490970186529390925283208054909416845590830182905591909101555b601b805460001981019091559350612b27565b6001909201916129f0565b601b5493505b505050919050565b601b5490565b60005433600160a060020a03908116911614612b5057600080fd5b6001805473ffffffffffffffffffffffffffffffffffffffff1916600160a060020a0392909216919091179055565b600082821115612b8b57fe5b50900390565b600080831515612ba45760009150611ce1565b50828202828482811515612bb457fe5b0414611a4357fe5b6040805163ffffffff8416815260208101839052438183015290517fda21791c5c7b4c2e3fcd04faf012c1f42cde7c879206376981e2f0f423b342439181900360600190a1612c0b838361337d565b5063ffffffff9081166000908152600c60205260408120556018805480831660010190921663ffffffff1990921691909117905550565b600080600080600080600a54600754111515612c6257600b549550612d53565b601e546027546000965086955085945084935060ff9091169003821015612d535750601e5460275460ff90911690035b6027548163ffffffff161115612cce5763ffffffff81166000908152602660205260409020805460019182015495019493840193925001612c92565b601e5460ff1684811515612cde57fe5b601e54919004965060ff1683811515612cf357fe5b04945084602254101515612d2957612d22612d1587600363ffffffff612e2116565b879063ffffffff612e3816565b9550612d4d565b612d4a612d3d87600363ffffffff612e2116565b879063ffffffff612b7f16565b95505b60228590555b505050505090565b63ffffffff8116600090815260146020526040902054600160a060020a039081169084168114612d8a57600080fd5b600160a060020a038181169084161415612da357600080fd5b600160a060020a0383161515612db857600080fd5b612dc281836133fe565b612dcc838361337d565b60408051600160a060020a0380841682528516602082015263ffffffff84168183015290517f0daf680c3f528a8760b5142fe1f6f80d5f4ea18bb76f347a7a44a2d565c2b7dc9181900360600190a150505050565b6000808284811515612e2f57fe5b04949350505050565b600082820183811015611a4357fe5b600080600080612e55611d0d565b1515612e6057600080fd5b60008511612e6d57600080fd5b63ffffffff86166000908152600d60205260408120541115612fb05763ffffffff86166000908152600d602052604090205485811515612ea957fe5b049350600092505b63ffffffff86166000908152600d6020526040902054831015612f745763ffffffff86166000908152600d60205260409020805484908110612eef57fe5b6000918252602080832060088304015460079092166004026101000a90910463ffffffff1680835260148252604080842054600c90935280842080548901905551909450600160a060020a03909116925082916108fc871502918791818181858888f19350505050158015612f68573d6000803e3d6000fd5b50600190920191612eb1565b600154604051600160a060020a039091169086156108fc029087906000818181858888f19350505050158015612fae573d6000803e3d6000fd5b505b505050505050565b612fc0611d0d565b1515612fcb57600080fd5b613008600160136001840363ffffffff16815481101515612fe857fe5b906000526020600020906006020160020154612e3890919063ffffffff16565b6013805463ffffffff60001985011690811061302057fe5b9060005260206000209060060201600201819055504260136001830363ffffffff1681548110151561304e57fe5b90600052602060002090600602016003018190555050565b63ffffffff81166000908152600d602052604081205411156130ae5763ffffffff8082166000908152600d60205260408082209285168252902081546130ac929061372e565b505b63ffffffff9182166000908152600d602090815260408220805460018101825590835291206008820401805460079092166004026101000a808502199092169290931602179055565b604051600160a060020a03831690605f606484040280156108fc02916000818181858888f19350505050158015613132573d6000803e3d6000fd5b50600154604051600160a060020a03909116906005606484040280156108fc02916000818181858888f19350505050158015610eb0573d6000803e3d6000fd5b600080600060138463ffffffff1681548110151561318c57fe5b6000918252602080832060056006909302019190910154808352600f9091526040822054909450925090505b81811015613377576000838152600f60205260409020805463ffffffff86169190839081106131e357fe5b6000918252602090912060088204015460079091166004026101000a900463ffffffff16141561336f576000838152600f6020526040902080548290811061322757fe5b90600052602060002090600891828204019190066004026101000a81549063ffffffff02191690556000821180156132625750600181038214155b1561334a576000838152600f602052604090208054600019840190811061328557fe5b90600052602060002090600891828204019190066004029054906101000a900463ffffffff16600f6000858152602001908152602001600020828154811015156132cb57fe5b90600052602060002090600891828204019190066004026101000a81548163ffffffff021916908363ffffffff160217905550600f60008481526020019081526020016000206001830381548110151561332157fe5b90600052602060002090600891828204019190066004026101000a81549063ffffffff02191690555b6000838152600f60205260409020805490613369906000198301613788565b50613377565b6001016131b8565b50505050565b600160a060020a03909116600081815260156020908152604080832080546001810182559084528284206008820401805463ffffffff97881660046007909416939093026101000a83810298021916969096179095559382526014905291909120805473ffffffffffffffffffffffffffffffffffffffff19169091179055565b600160a060020a038216600090815260156020526040812054905b8181101561337757600160a060020a0384166000908152601560205260409020805463ffffffff851691908390811061344e57fe5b6000918252602090912060088204015460079091166004026101000a900463ffffffff16141561361657600160a060020a038416600090815260156020526040902080548290811061349c57fe5b90600052602060002090600891828204019190066004026101000a81549063ffffffff02191690556000821180156134d75750600181038214155b156135ed57600160a060020a03841660009081526015602052604090208054600019840190811061350457fe5b90600052602060002090600891828204019190066004029054906101000a900463ffffffff166015600086600160a060020a0316600160a060020a031681526020019081526020016000208281548110151561355c57fe5b90600052602060002090600891828204019190066004026101000a81548163ffffffff021916908363ffffffff1602179055506015600085600160a060020a0316600160a060020a03168152602001908152602001600020600183038154811015156135c457fe5b90600052602060002090600891828204019190066004026101000a81549063ffffffff02191690555b600160a060020a0384166000908152601560205260409020805490613369906000198301613788565b600101613419565b828054600181600116156101000203166002900490600052602060002090601f016020900481019282601f1061365f57805160ff191683800117855561368c565b8280016001018555821561368c579182015b8281111561368c578251825591602001919060010190613671565b506136989291506137b8565b5090565b61018060405190810160405280600c906020820280388339509192915050565b60e060405190810160405280600063ffffffff168152602001600063ffffffff16815260200160008152602001600081526020016000815260200160008152602001600081525090565b606060405190810160405280600063ffffffff16815260200160008152602001600081525090565b8280548282559060005260206000209060070160089004810192821561377c576000526020600020916007016008900482015b8281111561377c578254825591600101919060010190613761565b506136989291506137d2565b815481835581811115610eb0576007016008900481600701600890048360005260206000209182019101610eb091905b610ee091905b8082111561369857600081556001016137be565b610ee091905b8082111561369857805463ffffffff191681556001016137d85600a165627a7a72305820715935082d10d84e4208db01c1e99a2883667bed497d0e4c56c84855b65762ef0029",
  "source": "pragma solidity ^0.4.23;\n\nimport \"./RabbitMarket.sol\";\n\n/**\n* \n*/\ncontract BunnyGame is RabbitMarket {    \n \n    event NewBunny(uint32 bunnyid, uint dnk, uint256 blocknumber );\n        /***\n        * @dev create a new gene and put it up for sale, this operation takes place on the server\n         */\n\n\n    function transferNewBunny(address _to, uint32 _bunnyid, uint localdnk) internal {\n        emit NewBunny(_bunnyid, localdnk, block.number);\n        //rabbitToOwner[_bunnyid] = _to; \n        addTokenList(_to, _bunnyid);\n        totalSalaryBunny[_bunnyid] = 0;\n        totalBunny++;\n    }\n    \n    \n    function createGennezise() public  onlyServer returns(uint32) {\n        require(isPriv());\n        require(isPauseSave());\n        uint  localdnk = privateContract.getNewRabbit();\n        Rabbit memory _Rabbit =  Rabbit(0, 0, block.number, 0, 0, 0, 0);\n        uint32 bunnyid =  uint32(rabbits.push(_Rabbit));\n        mapDNK[bunnyid] = localdnk;\n        \n        transferNewBunny(msg.sender, bunnyid, localdnk);   \n        uint _money = getpricegen0();\n        setMarket(bunnyid, _money);\n          \n        lastTimeGen0 = now;\n        lastIdGen0 = bunnyid; \n        totalGen0++;\n        return bunnyid;\n    }\n   \n   \n  \n   \n    /**\n    * @dev create new children\n    */\n    function createChildren(uint32 _matron, uint32 _sire) public  payable returns(uint32) {\n\n        require(isPriv());\n        require(isPauseSave());\n        require(rabbitToOwner[_matron] == msg.sender);\n        // Checking for the role\n        require(rabbits[_sire].role == 1);\n        require(_matron != _sire);\n\n        uint genome = 0;\n        uint lastTime;\n        (lastTime,) = getcoolduwn(_matron);\n        require(now >= lastTime);\n\n        // Checking the money\n\n        uint _sirePrice = rabbitSirePrice[_sire];\n        uint _moneyMother = _sirePrice.div(4);\n    //    uint _finalCost = _moneyMother + _sirePrice;\n        require(msg.value >= (_moneyMother + _sirePrice));\n          \n        \n        uint localdnk =  privateContract.mixDNK(mapDNK[_matron], mapDNK[_sire]);\n\n        if (rabbits[_matron].genome >= rabbits[_sire].genome) {\n            genome = rabbits[_matron].genome.add(1);\n        } else {\n            genome = rabbits[_sire].genome.add(1);\n        }\n\n        Rabbit memory rabbit =  Rabbit(_matron, _sire, block.number, 0, 0, 0, genome);\n\n        uint32 bunnyid =  uint32(rabbits.push(rabbit));\n        mapDNK[bunnyid] = localdnk;\n        _transferMoneyMother(_matron, _moneyMother);\n\n        rabbitToOwner[_sire].transfer(_sirePrice);\n        \n        coolduwnUP(_matron);\n        //    \n        transferNewBunny(rabbitToOwner[_matron], bunnyid, localdnk);   \n          \n        // we establish parents for the child\n        setRabbitMother(bunnyid, _matron);\n         \n        return bunnyid;\n    }\n    \n\n\n    /**\n     *   cooldown\n     */\n    function getcoolduwn(uint32 _mother) public view returns(uint lastTime, uint cd, uint lefttime) {\n        cd = rabbits[(_mother-1)].birthCount;\n        if(cd > 14) {\n            cd = 14;\n        }\n        //     \n        lastTime = (cooldowns[cd] + rabbits[(_mother-1)].birthLastTime);\n        if(lastTime > now) {\n            //   ,    \n            lefttime = lastTime.sub(now);\n        }\n    }\n\n\n    /**\n     *     \n     */\n    function coolduwnUP(uint32 _mother) internal { \n        require(isPauseSave());\n        rabbits[(_mother-1)].birthCount = rabbits[(_mother-1)].birthCount.add(1);\n        rabbits[(_mother-1)].birthLastTime = now;\n    }\n\n\n    /**\n     * @param _mother - matron send money for parrent\n     * @param _valueMoney - current sale\n     */\n    function _transferMoneyMother(uint32 _mother, uint _valueMoney) internal {\n        require(isPauseSave());\n        require(_valueMoney > 0);\n        if (rabbitMother[_mother].length > 0) {\n            uint pastMoney = _valueMoney/uint(rabbitMother[_mother].length);\n            for (uint i=0; i < rabbitMother[_mother].length; i++) {\n                uint32 _parrentMother = rabbitMother[_mother][i];\n                address add = rabbitToOwner[_parrentMother];\n                //  \n                totalSalaryBunny[_parrentMother] += pastMoney;\n                add.transfer(pastMoney); // refund previous bidder\n            }\n            ownerMoney.transfer(_valueMoney); // refund previous bidder\n        }\n    }\n    \n    \n    /**\n    * @dev We set the cost of renting our genes\n    * @param price rent price\n     */\n    function setRabbitSirePrice(uint32 _rabbitid, uint price) public returns(bool) {\n        require(isPauseSave());\n        require(rabbitToOwner[_rabbitid] == msg.sender);\n        require(price > bigPrice);\n\n        uint lastTime;\n        (lastTime,) = getcoolduwn(_rabbitid);\n        require(now >= lastTime);\n\n        if (rabbits[_rabbitid].role == 1 && rabbitSirePrice[_rabbitid] == price) {\n            return false;\n        }\n\n        rabbits[_rabbitid].role = 1;\n        rabbitSirePrice[_rabbitid] = price;\n        uint gen = rabbits[_rabbitid].genome;\n\n        sireGenom[gen].push(_rabbitid);\n        return true;\n    }\n \n    /**\n    * @dev We set the cost of renting our genes\n     */\n    function setSireStop(uint32 _rabbitid) public returns(bool) {\n        require(isPauseSave());\n        require(rabbitToOwner[_rabbitid] == msg.sender);\n        require(rabbits[_rabbitid].role == 0);\n\n        rabbits[_rabbitid].role = 0;\n        rabbitSirePrice[_rabbitid] = 0;\n\n        deleteSire(_rabbitid);\n        return true;\n    }\n\n\n\n     function deleteSire(uint32 _tokenId) internal { \n        uint gen = rabbits[_tokenId].genome;\n\n        uint count = sireGenom[gen].length;\n     //   if(0 == count) {\n      //      return;\n      //  }\n        for (uint i = 0; i < count; i++) {\n            if(sireGenom[gen][i] == _tokenId)\n            { \n                delete sireGenom[gen][i];\n                if(count > 0 && count != (i-1)){\n                    sireGenom[gen][i] = sireGenom[gen][(count-1)];\n                    delete sireGenom[gen][(count-1)];\n                } \n                sireGenom[gen].length--;\n                return;\n            } \n        }\n    }\n\n\n\n    \n    /**\n    *  @dev give the name and description for the rabbit\n    * @param description new description rabbits\n    */\n    function setDescriptionRabbit(uint32 rabbitid, string description) public {\n        require(isPauseSave());\n        require(rabbitToOwner[rabbitid] == msg.sender);\n        if (bytes(description).length < 256 && bytes(description).length > 0) {\n            rabbitDescription[rabbitid] = description;\n        }\n    } \n     \n    function getDescriptionRabbit(uint32 _rabbitid) public view returns(string) {\n        return rabbitDescription[_rabbitid];\n    } \n    \n    /**\n    *  @dev give the name and description for the rabbit\n    * @param name new name rabbits\n    */\n    function setNameRabbit(uint32 rabbitid, string name) public {\n        require(isPauseSave());\n        require(rabbitToOwner[rabbitid] == msg.sender);\n        if (bytes(name).length < 256 && bytes(name).length > 0) {\n            rabbitName[rabbitid] = name;\n        }\n    } \n    function getNameRabbit(uint32 rabbitid) public view returns(string) {\n        return rabbitName[rabbitid];\n    } \n\n    function getMoney(uint _value) public onlyOwner {\n        require(address(this).balance >= _value);\n        ownerMoney.transfer(_value);\n    }\n \n \n}\n\n\n     ",
  "sourcePath": "/home/koras/contracts/publicRabbit/pub/contracts/BunnyGame.sol",
  "compiler": {
    "name": "solc",
    "version": "0.4.23+commit.124ca40d.Emscripten.clang"
  },
  "schemaVersion": "2.0.0",
  "updatedAt": "2018-05-17T19:34:26.801Z"
}