{
  "contractName": "Ownable",
  "abi": [
    {
      "constant": true,
      "inputs": [],
      "name": "ownerTech",
      "outputs": [
        {
          "name": "",
          "type": "address"
        }
      ],
      "payable": false,
      "stateMutability": "view",
      "type": "function"
    },
    {
      "constant": true,
      "inputs": [],
      "name": "ownerMoney",
      "outputs": [
        {
          "name": "",
          "type": "address"
        }
      ],
      "payable": false,
      "stateMutability": "view",
      "type": "function"
    },
    {
      "constant": true,
      "inputs": [],
      "name": "privAddress",
      "outputs": [
        {
          "name": "",
          "type": "address"
        }
      ],
      "payable": false,
      "stateMutability": "view",
      "type": "function"
    },
    {
      "constant": true,
      "inputs": [],
      "name": "ownerCEO",
      "outputs": [
        {
          "name": "",
          "type": "address"
        }
      ],
      "payable": false,
      "stateMutability": "view",
      "type": "function"
    },
    {
      "constant": true,
      "inputs": [],
      "name": "ownerServer",
      "outputs": [
        {
          "name": "",
          "type": "address"
        }
      ],
      "payable": false,
      "stateMutability": "view",
      "type": "function"
    },
    {
      "inputs": [],
      "payable": false,
      "stateMutability": "nonpayable",
      "type": "constructor"
    },
    {
      "constant": false,
      "inputs": [
        {
          "name": "add",
          "type": "address"
        }
      ],
      "name": "transferOwnership",
      "outputs": [],
      "payable": false,
      "stateMutability": "nonpayable",
      "type": "function"
    },
    {
      "constant": false,
      "inputs": [
        {
          "name": "add",
          "type": "address"
        }
      ],
      "name": "transferOwnershipTechnical",
      "outputs": [],
      "payable": false,
      "stateMutability": "nonpayable",
      "type": "function"
    },
    {
      "constant": false,
      "inputs": [
        {
          "name": "add",
          "type": "address"
        }
      ],
      "name": "transferOwnershipServer",
      "outputs": [],
      "payable": false,
      "stateMutability": "nonpayable",
      "type": "function"
    },
    {
      "constant": false,
      "inputs": [
        {
          "name": "_ownerMoney",
          "type": "address"
        }
      ],
      "name": "transferOwnerMoney",
      "outputs": [],
      "payable": false,
      "stateMutability": "nonpayable",
      "type": "function"
    },
    {
      "constant": true,
      "inputs": [],
      "name": "getOwnerMoney",
      "outputs": [
        {
          "name": "",
          "type": "address"
        }
      ],
      "payable": false,
      "stateMutability": "view",
      "type": "function"
    },
    {
      "constant": true,
      "inputs": [],
      "name": "getOwnerTech",
      "outputs": [
        {
          "name": "",
          "type": "address"
        }
      ],
      "payable": false,
      "stateMutability": "view",
      "type": "function"
    },
    {
      "constant": true,
      "inputs": [],
      "name": "getOwnerServer",
      "outputs": [
        {
          "name": "",
          "type": "address"
        }
      ],
      "payable": false,
      "stateMutability": "view",
      "type": "function"
    },
    {
      "constant": true,
      "inputs": [],
      "name": "getPrivAddress",
      "outputs": [
        {
          "name": "",
          "type": "address"
        }
      ],
      "payable": false,
      "stateMutability": "view",
      "type": "function"
    }
  ],
  "bytecode": "0x608060405234801561001057600080fd5b5060008054600160a060020a033316600160a060020a03199182168117909255600280548216831790556003805482168317905560018054909116909117905561049d8061005f6000396000f3006080604052600436106100c45763ffffffff7c010000000000000000000000000000000000000000000000000000000060003504166303602e9e81146100c957806305caca6c146100fa5780630b336eab1461011d578063625101d51461013257806381310d09146101475780638638fc3c1461015c578063a94beee21461017d578063c17c045614610192578063c7191bc7146101a7578063de3bb654146101bc578063f2fde38b146101d1578063f3cee129146101f2578063fdaacf1b14610207575b600080fd5b3480156100d557600080fd5b506100de610228565b60408051600160a060020a039092168252519081900360200190f35b34801561010657600080fd5b5061011b600160a060020a0360043516610254565b005b34801561012957600080fd5b506100de6102aa565b34801561013e57600080fd5b506100de6102b9565b34801561015357600080fd5b506100de6102e5565b34801561016857600080fd5b5061011b600160a060020a03600435166102f4565b34801561018957600080fd5b506100de61034b565b34801561019e57600080fd5b506100de61035a565b3480156101b357600080fd5b506100de610369565b3480156101c857600080fd5b506100de610395565b3480156101dd57600080fd5b5061011b600160a060020a03600435166103a4565b3480156101fe57600080fd5b506100de6103fb565b34801561021357600080fd5b5061011b600160a060020a0360043516610427565b6000805433600160a060020a0390811691161461024457600080fd5b50600454600160a060020a031690565b60005433600160a060020a0390811691161461026f57600080fd5b600160a060020a038116156102a7576003805473ffffffffffffffffffffffffffffffffffffffff1916600160a060020a0383161790555b50565b600254600160a060020a031681565b6000805433600160a060020a039081169116146102d557600080fd5b50600154600160a060020a031690565b600154600160a060020a031681565b60005433600160a060020a0390811691161461030f57600080fd5b600160a060020a038116156102a75760028054600160a060020a03831673ffffffffffffffffffffffffffffffffffffffff1990911617905550565b600454600160a060020a031681565b600054600160a060020a031681565b6000805433600160a060020a0390811691161461038557600080fd5b50600254600160a060020a031690565b600354600160a060020a031681565b60005433600160a060020a039081169116146103bf57600080fd5b600160a060020a038116156102a75760008054600160a060020a03831673ffffffffffffffffffffffffffffffffffffffff1990911617905550565b6000805433600160a060020a0390811691161461041757600080fd5b50600354600160a060020a031690565b60005433600160a060020a0390811691161461044257600080fd5b6001805473ffffffffffffffffffffffffffffffffffffffff1916600160a060020a03929092169190911790555600a165627a7a72305820f2259e5d874945ab5577965bae779b87359ac5b4b12e272fd0aed428c60a0bb90029",
  "source": "pragma solidity ^0.4.23;\n/**\n * @title Ownable\n * @dev The Ownable contract has an owner address, and provides basic authorization control\n * functions, this simplifies the implementation of \"user permissions\".\n */\ncontract Ownable {\n\n    address public ownerCEO;\n    address public ownerMoney; \n    address public ownerTech;\n    address public ownerServer;\n    address public privAddress;\n\n\n    /**\n    * @dev The Ownable constructor sets the original `owner` of the contract to the sender\n    * account.\n    */\n\n    constructor() public {\n       // address my = 0x1e4147cC0a8d70fa299868C4725201244F4aA818;\n        address my =  msg.sender;\n\n        ownerCEO = my;\n        ownerTech = my;\n        ownerServer = my;\n        ownerMoney = my;\n    }\n \n  /**\n   * @dev Throws if called by any account other than the owner.\n   */\n    modifier onlyOwner() {\n        require(msg.sender == ownerCEO);\n        _;\n    }\n  \n    modifier onlyTech() {\n        require(msg.sender == ownerTech || msg.sender == ownerCEO);\n        _;\n    }\n\n  \n    modifier onlyServer() {\n        require(msg.sender == ownerServer || msg.sender == ownerCEO);\n        _;\n    }\n\n    function transferOwnership(address add) public onlyOwner {\n        if (add != address(0)) {\n            ownerCEO = add;\n        }\n    }\n \n    function transferOwnershipTechnical(address add) public onlyOwner {\n        if (add != address(0)) {\n            ownerTech = add;\n        }\n    } \n\n    function transferOwnershipServer(address add) public onlyOwner {\n        if (add != address(0)) {\n            ownerServer = add;\n        }\n    } \n     \n    function transferOwnerMoney( address _ownerMoney) public  onlyOwner {\n        ownerMoney = _ownerMoney;\n    }\n\n    \n    function getOwnerMoney() public view onlyOwner returns(address) {\n        return ownerMoney;\n    }\n\n    function getOwnerTech() public view onlyOwner returns(address) {\n        return ownerTech;\n    }\n\n    function getOwnerServer() public view onlyOwner returns(address) {\n        return ownerServer;\n    }\n\n    function getPrivAddress() public view onlyOwner returns(address) {\n        return privAddress;\n    }\n}\n",
  "sourcePath": "/home/koras/contracts/publicRabbit/pub/contracts/Ownable.sol",
  "compiler": {
    "name": "solc",
    "version": "0.4.23+commit.124ca40d.Emscripten.clang"
  },
  "schemaVersion": "2.0.0",
  "updatedAt": "2018-05-14T17:15:42.080Z"
}