{
  "contractName": "Ownable",
  "abi": [
    {
      "constant": true,
      "inputs": [],
      "name": "ownerCEO",
      "outputs": [
        {
          "name": "",
          "type": "address"
        }
      ],
      "payable": false,
      "stateMutability": "view",
      "type": "function"
    },
    {
      "inputs": [],
      "payable": false,
      "stateMutability": "nonpayable",
      "type": "constructor"
    },
    {
      "constant": false,
      "inputs": [
        {
          "name": "add",
          "type": "address"
        }
      ],
      "name": "transferOwnership",
      "outputs": [],
      "payable": false,
      "stateMutability": "nonpayable",
      "type": "function"
    },
    {
      "constant": false,
      "inputs": [
        {
          "name": "add",
          "type": "address"
        }
      ],
      "name": "transferOwnershipTechnical",
      "outputs": [],
      "payable": false,
      "stateMutability": "nonpayable",
      "type": "function"
    },
    {
      "constant": false,
      "inputs": [
        {
          "name": "add",
          "type": "address"
        }
      ],
      "name": "transferOwnershipServer",
      "outputs": [],
      "payable": false,
      "stateMutability": "nonpayable",
      "type": "function"
    },
    {
      "constant": false,
      "inputs": [
        {
          "name": "_ownerMoney",
          "type": "address"
        }
      ],
      "name": "transferOwnerMoney",
      "outputs": [],
      "payable": false,
      "stateMutability": "nonpayable",
      "type": "function"
    },
    {
      "constant": true,
      "inputs": [],
      "name": "getOwnerMoney",
      "outputs": [
        {
          "name": "",
          "type": "address"
        }
      ],
      "payable": false,
      "stateMutability": "view",
      "type": "function"
    },
    {
      "constant": true,
      "inputs": [],
      "name": "getOwnerTech",
      "outputs": [
        {
          "name": "",
          "type": "address"
        }
      ],
      "payable": false,
      "stateMutability": "view",
      "type": "function"
    },
    {
      "constant": true,
      "inputs": [],
      "name": "getOwnerServer",
      "outputs": [
        {
          "name": "",
          "type": "address"
        }
      ],
      "payable": false,
      "stateMutability": "view",
      "type": "function"
    },
    {
      "constant": true,
      "inputs": [],
      "name": "getPrivAddress",
      "outputs": [
        {
          "name": "",
          "type": "address"
        }
      ],
      "payable": false,
      "stateMutability": "view",
      "type": "function"
    }
  ],
  "bytecode": "0x608060405234801561001057600080fd5b5060008054600160a060020a033316600160a060020a0319918216811790925560028054821683179055600380548216831790556001805490911690911790556103e18061005f6000396000f3006080604052600436106100985763ffffffff7c010000000000000000000000000000000000000000000000000000000060003504166303602e9e811461009d57806305caca6c146100ce578063625101d5146100f15780638638fc3c14610106578063c17c045614610127578063c7191bc71461013c578063f2fde38b14610151578063f3cee12914610172578063fdaacf1b14610187575b600080fd5b3480156100a957600080fd5b506100b26101a8565b60408051600160a060020a039092168252519081900360200190f35b3480156100da57600080fd5b506100ef600160a060020a03600435166101d4565b005b3480156100fd57600080fd5b506100b261022a565b34801561011257600080fd5b506100ef600160a060020a0360043516610256565b34801561013357600080fd5b506100b26102ad565b34801561014857600080fd5b506100b26102bc565b34801561015d57600080fd5b506100ef600160a060020a03600435166102e8565b34801561017e57600080fd5b506100b261033f565b34801561019357600080fd5b506100ef600160a060020a036004351661036b565b6000805433600160a060020a039081169116146101c457600080fd5b50600454600160a060020a031690565b60005433600160a060020a039081169116146101ef57600080fd5b600160a060020a03811615610227576003805473ffffffffffffffffffffffffffffffffffffffff1916600160a060020a0383161790555b50565b6000805433600160a060020a0390811691161461024657600080fd5b50600154600160a060020a031690565b60005433600160a060020a0390811691161461027157600080fd5b600160a060020a038116156102275760028054600160a060020a03831673ffffffffffffffffffffffffffffffffffffffff1990911617905550565b600054600160a060020a031681565b6000805433600160a060020a039081169116146102d857600080fd5b50600254600160a060020a031690565b60005433600160a060020a0390811691161461030357600080fd5b600160a060020a038116156102275760008054600160a060020a03831673ffffffffffffffffffffffffffffffffffffffff1990911617905550565b6000805433600160a060020a0390811691161461035b57600080fd5b50600354600160a060020a031690565b60005433600160a060020a0390811691161461038657600080fd5b6001805473ffffffffffffffffffffffffffffffffffffffff1916600160a060020a03929092169190911790555600a165627a7a723058208c58d7321c4018670544c9f376521b8e6c648feed764fa29362fd6bcc5ac9e200029",
  "source": "pragma solidity ^0.4.23;\n/**\n * @title Ownable\n * @dev The Ownable contract has an owner address, and provides basic authorization control\n * functions, this simplifies the implementation of \"user permissions\".\n */\ncontract Ownable {\n\n    address public ownerCEO;\n    address ownerMoney; \n    address ownerTech;\n    address ownerServer;\n    address privAddress;\n\n\n    /**\n    * @dev The Ownable constructor sets the original `owner` of the contract to the sender\n    * account.\n    */\n\n    constructor() public {\n       // address my = 0x1e4147cC0a8d70fa299868C4725201244F4aA818;\n        address my =  msg.sender;\n        ownerCEO = my;\n        ownerTech = my;\n        ownerServer = my;\n        ownerMoney = my;\n    }\n \n  /**\n   * @dev Throws if called by any account other than the owner.\n   */\n    modifier onlyOwner() {\n        require(msg.sender == ownerCEO);\n        _;\n    }\n  \n    modifier onlyTech() {\n        require(msg.sender == ownerTech || msg.sender == ownerCEO);\n        _;\n    }\n\n  \n    modifier onlyServer() {\n        require(msg.sender == ownerServer || msg.sender == ownerCEO);\n        _;\n    }\n\n    function transferOwnership(address add) public onlyOwner {\n        if (add != address(0)) {\n            ownerCEO = add;\n        }\n    }\n \n    function transferOwnershipTechnical(address add) public onlyOwner {\n        if (add != address(0)) {\n            ownerTech = add;\n        }\n    } \n\n    function transferOwnershipServer(address add) public onlyOwner {\n        if (add != address(0)) {\n            ownerServer = add;\n        }\n    } \n     \n    function transferOwnerMoney(address _ownerMoney) public  onlyOwner {\n \n        ownerMoney = address(_ownerMoney);\n    }\n\n\n\n\n\n    \n    function getOwnerMoney() public view onlyOwner returns(address) {\n        return ownerMoney;\n    }\n    function getOwnerTech() public view onlyOwner returns(address) {\n        return ownerTech;\n    }\n    function getOwnerServer() public view onlyOwner returns(address) {\n        return ownerServer;\n    }\n    function getPrivAddress() public view onlyOwner returns(address) {\n        return privAddress;\n    }\n}\n",
  "sourcePath": "/home/koras/contracts/publicRabbit/pub/contracts/Ownable.sol",
  "compiler": {
    "name": "solc",
    "version": "0.4.23+commit.124ca40d.Emscripten.clang"
  },
  "schemaVersion": "2.0.0",
  "updatedAt": "2018-05-17T19:34:26.757Z"
}