{
  "contractName": "Ownable",
  "abi": [
    {
      "constant": true,
      "inputs": [],
      "name": "ownerCEO",
      "outputs": [
        {
          "name": "",
          "type": "address"
        }
      ],
      "payable": false,
      "stateMutability": "view",
      "type": "function"
    },
    {
      "inputs": [],
      "payable": false,
      "stateMutability": "nonpayable",
      "type": "constructor"
    },
    {
      "constant": false,
      "inputs": [
        {
          "name": "add",
          "type": "address"
        }
      ],
      "name": "transferOwnership",
      "outputs": [],
      "payable": false,
      "stateMutability": "nonpayable",
      "type": "function"
    },
    {
      "constant": false,
      "inputs": [
        {
          "name": "add",
          "type": "address"
        }
      ],
      "name": "transferOwnershipServer",
      "outputs": [],
      "payable": false,
      "stateMutability": "nonpayable",
      "type": "function"
    },
    {
      "constant": false,
      "inputs": [
        {
          "name": "_ownerMoney",
          "type": "address"
        }
      ],
      "name": "transferOwnerMoney",
      "outputs": [],
      "payable": false,
      "stateMutability": "nonpayable",
      "type": "function"
    },
    {
      "constant": true,
      "inputs": [],
      "name": "getOwnerMoney",
      "outputs": [
        {
          "name": "",
          "type": "address"
        }
      ],
      "payable": false,
      "stateMutability": "view",
      "type": "function"
    },
    {
      "constant": true,
      "inputs": [],
      "name": "getOwnerServer",
      "outputs": [
        {
          "name": "",
          "type": "address"
        }
      ],
      "payable": false,
      "stateMutability": "view",
      "type": "function"
    },
    {
      "constant": true,
      "inputs": [],
      "name": "getPrivAddress",
      "outputs": [
        {
          "name": "",
          "type": "address"
        }
      ],
      "payable": false,
      "stateMutability": "view",
      "type": "function"
    }
  ],
  "bytecode": "0x608060405234801561001057600080fd5b50336000806101000a81548173ffffffffffffffffffffffffffffffffffffffff021916908373ffffffffffffffffffffffffffffffffffffffff16021790555033600260006101000a81548173ffffffffffffffffffffffffffffffffffffffff021916908373ffffffffffffffffffffffffffffffffffffffff16021790555033600160006101000a81548173ffffffffffffffffffffffffffffffffffffffff021916908373ffffffffffffffffffffffffffffffffffffffff16021790555061070e806100e26000396000f300608060405260043610610083576000357c0100000000000000000000000000000000000000000000000000000000900463ffffffff16806303602e9e1461008857806305caca6c146100df578063625101d514610122578063c17c045614610179578063f2fde38b146101d0578063f3cee12914610213578063fdaacf1b1461026a575b600080fd5b34801561009457600080fd5b5061009d6102ad565b604051808273ffffffffffffffffffffffffffffffffffffffff1673ffffffffffffffffffffffffffffffffffffffff16815260200191505060405180910390f35b3480156100eb57600080fd5b50610120600480360381019080803573ffffffffffffffffffffffffffffffffffffffff169060200190929190505050610332565b005b34801561012e57600080fd5b50610137610408565b604051808273ffffffffffffffffffffffffffffffffffffffff1673ffffffffffffffffffffffffffffffffffffffff16815260200191505060405180910390f35b34801561018557600080fd5b5061018e61048d565b604051808273ffffffffffffffffffffffffffffffffffffffff1673ffffffffffffffffffffffffffffffffffffffff16815260200191505060405180910390f35b3480156101dc57600080fd5b50610211600480360381019080803573ffffffffffffffffffffffffffffffffffffffff1690602001909291905050506104b2565b005b34801561021f57600080fd5b50610228610587565b604051808273ffffffffffffffffffffffffffffffffffffffff1673ffffffffffffffffffffffffffffffffffffffff16815260200191505060405180910390f35b34801561027657600080fd5b506102ab600480360381019080803573ffffffffffffffffffffffffffffffffffffffff16906020019092919050505061060c565b005b60008060009054906101000a900473ffffffffffffffffffffffffffffffffffffffff1673ffffffffffffffffffffffffffffffffffffffff163373ffffffffffffffffffffffffffffffffffffffff1614151561030a57600080fd5b600360009054906101000a900473ffffffffffffffffffffffffffffffffffffffff16905090565b6000809054906101000a900473ffffffffffffffffffffffffffffffffffffffff1673ffffffffffffffffffffffffffffffffffffffff163373ffffffffffffffffffffffffffffffffffffffff1614151561038d57600080fd5b600073ffffffffffffffffffffffffffffffffffffffff168173ffffffffffffffffffffffffffffffffffffffff161415156104055780600260006101000a81548173ffffffffffffffffffffffffffffffffffffffff021916908373ffffffffffffffffffffffffffffffffffffffff1602179055505b50565b60008060009054906101000a900473ffffffffffffffffffffffffffffffffffffffff1673ffffffffffffffffffffffffffffffffffffffff163373ffffffffffffffffffffffffffffffffffffffff1614151561046557600080fd5b600160009054906101000a900473ffffffffffffffffffffffffffffffffffffffff16905090565b6000809054906101000a900473ffffffffffffffffffffffffffffffffffffffff1681565b6000809054906101000a900473ffffffffffffffffffffffffffffffffffffffff1673ffffffffffffffffffffffffffffffffffffffff163373ffffffffffffffffffffffffffffffffffffffff1614151561050d57600080fd5b600073ffffffffffffffffffffffffffffffffffffffff168173ffffffffffffffffffffffffffffffffffffffff1614151561058457806000806101000a81548173ffffffffffffffffffffffffffffffffffffffff021916908373ffffffffffffffffffffffffffffffffffffffff1602179055505b50565b60008060009054906101000a900473ffffffffffffffffffffffffffffffffffffffff1673ffffffffffffffffffffffffffffffffffffffff163373ffffffffffffffffffffffffffffffffffffffff161415156105e457600080fd5b600260009054906101000a900473ffffffffffffffffffffffffffffffffffffffff16905090565b6000809054906101000a900473ffffffffffffffffffffffffffffffffffffffff1673ffffffffffffffffffffffffffffffffffffffff163373ffffffffffffffffffffffffffffffffffffffff1614151561066757600080fd5b600073ffffffffffffffffffffffffffffffffffffffff168173ffffffffffffffffffffffffffffffffffffffff161415156106df5780600160006101000a81548173ffffffffffffffffffffffffffffffffffffffff021916908373ffffffffffffffffffffffffffffffffffffffff1602179055505b505600a165627a7a723058200611ad319f62c350571f1af8372933a6d29f99e2d86756ee21734ccca84bf9c70029",
  "source": "pragma solidity ^0.4.23;\n\n\n/*   ▀█████████▄  ███    █▄  ███▄▄▄▄   ███▄▄▄▄   ▄██   ▄        \n*    ███    ███ ███    ███ ███▀▀▀██▄ ███▀▀▀██▄ ███   ██▄      \n*    ███    ███ ███    ███ ███   ███ ███   ███ ███▄▄▄███      \n*   ▄███▄▄▄██▀  ███    ███ ███   ███ ███   ███ ▀▀▀▀▀▀███      \n*  ▀▀███▀▀▀██▄  ███    ███ ███   ███ ███   ███ ▄██   ███      \n*    ███    ██▄ ███    ███ ███   ███ ███   ███ ███   ███      \n*    ███    ███ ███    ███ ███   ███ ███   ███ ███   ███      \n*  ▄█████████▀  ████████▀   ▀█   █▀   ▀█   █▀   ▀█████▀       \n*                                                             \n*     ▄██████▄     ▄████████   ▄▄▄▄███▄▄▄▄      ▄████████     \n*    ███    ███   ███    ███ ▄██▀▀▀███▀▀▀██▄   ███    ███     \n*    ███    █▀    ███    ███ ███   ███   ███   ███    █▀      \n*   ▄███          ███    ███ ███   ███   ███  ▄███▄▄▄         \n*  ▀▀███ ████▄  ▀███████████ ███   ███   ███ ▀▀███▀▀▀         \n*    ███    ███   ███    ███ ███   ███   ███   ███    █▄      \n*    ███    ███   ███    ███ ███   ███   ███   ███    ███     \n*    ████████▀    ███    █▀   ▀█   ███   █▀    ██████████                                                        \n* Author:  Konstantin G...\n* Telegram: @bunnygame\n* \n* email: info@bunnycoin.co\n* site : http://bunnycoin.co\n* @title Ownable\n* @dev The Ownable contract has an owner address, and provides basic authorization control\n* functions, this simplifies the implementation of \"user permissions\".\n*/\n\ncontract Ownable {\n    \n    address public ownerCEO;\n    address ownerMoney;  \n    address ownerServer;\n    address privAddress;\n    \n    /**\n    * @dev The Ownable constructor sets the original `owner` of the contract to the sender\n    * account.\n    */\n    constructor() public { \n        ownerCEO = msg.sender; \n        ownerServer = msg.sender;\n        ownerMoney = msg.sender;\n    }\n \n  /**\n   * @dev Throws if called by any account other than the owner.\n   */\n    modifier onlyOwner() {\n        require(msg.sender == ownerCEO);\n        _;\n    }\n   \n    modifier onlyServer() {\n        require(msg.sender == ownerServer || msg.sender == ownerCEO);\n        _;\n    }\n\n    function transferOwnership(address add) public onlyOwner {\n        if (add != address(0)) {\n            ownerCEO = add;\n        }\n    }\n \n\n    function transferOwnershipServer(address add) public onlyOwner {\n        if (add != address(0)) {\n            ownerServer = add;\n        }\n    } \n     \n    function transferOwnerMoney(address _ownerMoney) public  onlyOwner {\n        if (_ownerMoney != address(0)) {\n            ownerMoney = _ownerMoney;\n        }\n    }\n \n    function getOwnerMoney() public view onlyOwner returns(address) {\n        return ownerMoney;\n    } \n    function getOwnerServer() public view onlyOwner returns(address) {\n        return ownerServer;\n    }\n    /**\n    *  @dev private contract\n     */\n    function getPrivAddress() public view onlyOwner returns(address) {\n        return privAddress;\n    }\n}\n",
  "sourcePath": "/home/koras/contracts/publicRabbit/pub/contracts/Ownable.sol",
  "compiler": {
    "name": "solc",
    "version": "0.4.23+commit.124ca40d.Emscripten.clang"
  },
  "schemaVersion": "2.0.0",
  "updatedAt": "2018-08-18T15:23:05.045Z"
}