{
  "contractName": "RabbitMarket",
  "abi": [
    {
      "constant": true,
      "inputs": [],
      "name": "getPrivAddress",
      "outputs": [
        {
          "name": "",
          "type": "address"
        }
      ],
      "payable": false,
      "stateMutability": "view",
      "type": "function"
    },
    {
      "constant": false,
      "inputs": [
        {
          "name": "add",
          "type": "address"
        }
      ],
      "name": "transferOwnershipServer",
      "outputs": [],
      "payable": false,
      "stateMutability": "nonpayable",
      "type": "function"
    },
    {
      "constant": true,
      "inputs": [],
      "name": "name",
      "outputs": [
        {
          "name": "",
          "type": "string"
        }
      ],
      "payable": false,
      "stateMutability": "view",
      "type": "function"
    },
    {
      "constant": true,
      "inputs": [
        {
          "name": "",
          "type": "uint32"
        },
        {
          "name": "",
          "type": "uint256"
        }
      ],
      "name": "rabbitMother",
      "outputs": [
        {
          "name": "",
          "type": "uint32"
        }
      ],
      "payable": false,
      "stateMutability": "view",
      "type": "function"
    },
    {
      "constant": false,
      "inputs": [
        {
          "name": "_promoGen0",
          "type": "uint256"
        }
      ],
      "name": "setPromoGen0",
      "outputs": [],
      "payable": false,
      "stateMutability": "nonpayable",
      "type": "function"
    },
    {
      "constant": true,
      "inputs": [
        {
          "name": "",
          "type": "uint32"
        }
      ],
      "name": "rabbitToOwner",
      "outputs": [
        {
          "name": "",
          "type": "address"
        }
      ],
      "payable": false,
      "stateMutability": "view",
      "type": "function"
    },
    {
      "constant": true,
      "inputs": [],
      "name": "totalSupply",
      "outputs": [
        {
          "name": "total",
          "type": "uint32"
        }
      ],
      "payable": false,
      "stateMutability": "view",
      "type": "function"
    },
    {
      "constant": true,
      "inputs": [],
      "name": "myAddr_test",
      "outputs": [
        {
          "name": "",
          "type": "address"
        }
      ],
      "payable": false,
      "stateMutability": "view",
      "type": "function"
    },
    {
      "constant": true,
      "inputs": [
        {
          "name": "_tokenId",
          "type": "uint32"
        }
      ],
      "name": "ownerOf",
      "outputs": [
        {
          "name": "owner",
          "type": "address"
        }
      ],
      "payable": false,
      "stateMutability": "view",
      "type": "function"
    },
    {
      "constant": true,
      "inputs": [
        {
          "name": "",
          "type": "uint256"
        },
        {
          "name": "",
          "type": "uint256"
        }
      ],
      "name": "sireGenom",
      "outputs": [
        {
          "name": "",
          "type": "uint32"
        }
      ],
      "payable": false,
      "stateMutability": "view",
      "type": "function"
    },
    {
      "constant": false,
      "inputs": [],
      "name": "setPauseSave",
      "outputs": [
        {
          "name": "",
          "type": "bool"
        }
      ],
      "payable": false,
      "stateMutability": "nonpayable",
      "type": "function"
    },
    {
      "constant": true,
      "inputs": [],
      "name": "timeRangeCreateGen0",
      "outputs": [
        {
          "name": "",
          "type": "uint256"
        }
      ],
      "payable": false,
      "stateMutability": "view",
      "type": "function"
    },
    {
      "constant": false,
      "inputs": [
        {
          "name": "_sec",
          "type": "uint256"
        }
      ],
      "name": "setTimeRangeGen0",
      "outputs": [],
      "payable": false,
      "stateMutability": "nonpayable",
      "type": "function"
    },
    {
      "constant": true,
      "inputs": [
        {
          "name": "",
          "type": "uint256"
        }
      ],
      "name": "bidsArray",
      "outputs": [
        {
          "name": "rabbitID",
          "type": "uint32"
        },
        {
          "name": "startMoney",
          "type": "uint256"
        },
        {
          "name": "timeStart",
          "type": "uint256"
        }
      ],
      "payable": false,
      "stateMutability": "view",
      "type": "function"
    },
    {
      "constant": true,
      "inputs": [
        {
          "name": "_tokenId",
          "type": "uint32"
        }
      ],
      "name": "getSirePrice",
      "outputs": [
        {
          "name": "",
          "type": "uint256"
        }
      ],
      "payable": false,
      "stateMutability": "view",
      "type": "function"
    },
    {
      "constant": false,
      "inputs": [
        {
          "name": "_privAddress",
          "type": "address"
        }
      ],
      "name": "setPriv",
      "outputs": [
        {
          "name": "",
          "type": "bool"
        }
      ],
      "payable": false,
      "stateMutability": "nonpayable",
      "type": "function"
    },
    {
      "constant": true,
      "inputs": [
        {
          "name": "bunnyid",
          "type": "uint32"
        }
      ],
      "name": "getRabbitDNK",
      "outputs": [
        {
          "name": "",
          "type": "uint256"
        }
      ],
      "payable": false,
      "stateMutability": "view",
      "type": "function"
    },
    {
      "constant": true,
      "inputs": [
        {
          "name": "",
          "type": "uint256"
        }
      ],
      "name": "rabbits",
      "outputs": [
        {
          "name": "mother",
          "type": "uint32"
        },
        {
          "name": "sire",
          "type": "uint32"
        },
        {
          "name": "birthblock",
          "type": "uint256"
        },
        {
          "name": "birthCount",
          "type": "uint256"
        },
        {
          "name": "birthLastTime",
          "type": "uint256"
        },
        {
          "name": "role",
          "type": "uint256"
        },
        {
          "name": "genome",
          "type": "uint256"
        }
      ],
      "payable": false,
      "stateMutability": "view",
      "type": "function"
    },
    {
      "constant": true,
      "inputs": [],
      "name": "getOwnerMoney",
      "outputs": [
        {
          "name": "",
          "type": "address"
        }
      ],
      "payable": false,
      "stateMutability": "view",
      "type": "function"
    },
    {
      "constant": true,
      "inputs": [
        {
          "name": "",
          "type": "uint32"
        }
      ],
      "name": "totalSalaryBunny",
      "outputs": [
        {
          "name": "",
          "type": "uint256"
        }
      ],
      "payable": false,
      "stateMutability": "view",
      "type": "function"
    },
    {
      "constant": true,
      "inputs": [
        {
          "name": "_owner",
          "type": "address"
        }
      ],
      "name": "balanceOf",
      "outputs": [
        {
          "name": "",
          "type": "uint256"
        }
      ],
      "payable": false,
      "stateMutability": "view",
      "type": "function"
    },
    {
      "constant": true,
      "inputs": [],
      "name": "promoGen0",
      "outputs": [
        {
          "name": "",
          "type": "uint256"
        }
      ],
      "payable": false,
      "stateMutability": "view",
      "type": "function"
    },
    {
      "constant": true,
      "inputs": [],
      "name": "isUIntPublic",
      "outputs": [
        {
          "name": "",
          "type": "bool"
        }
      ],
      "payable": false,
      "stateMutability": "pure",
      "type": "function"
    },
    {
      "constant": true,
      "inputs": [],
      "name": "totalGen0",
      "outputs": [
        {
          "name": "",
          "type": "uint256"
        }
      ],
      "payable": false,
      "stateMutability": "view",
      "type": "function"
    },
    {
      "constant": true,
      "inputs": [],
      "name": "lastIdGen0",
      "outputs": [
        {
          "name": "",
          "type": "uint32"
        }
      ],
      "payable": false,
      "stateMutability": "view",
      "type": "function"
    },
    {
      "constant": true,
      "inputs": [],
      "name": "fcontr",
      "outputs": [
        {
          "name": "",
          "type": "bool"
        }
      ],
      "payable": false,
      "stateMutability": "view",
      "type": "function"
    },
    {
      "constant": true,
      "inputs": [],
      "name": "isPauseSave",
      "outputs": [
        {
          "name": "",
          "type": "bool"
        }
      ],
      "payable": false,
      "stateMutability": "view",
      "type": "function"
    },
    {
      "constant": true,
      "inputs": [],
      "name": "isPriv",
      "outputs": [
        {
          "name": "",
          "type": "bool"
        }
      ],
      "payable": false,
      "stateMutability": "view",
      "type": "function"
    },
    {
      "constant": true,
      "inputs": [],
      "name": "lastTimeGen0",
      "outputs": [
        {
          "name": "",
          "type": "uint256"
        }
      ],
      "payable": false,
      "stateMutability": "view",
      "type": "function"
    },
    {
      "constant": true,
      "inputs": [],
      "name": "totalBunny",
      "outputs": [
        {
          "name": "",
          "type": "uint32"
        }
      ],
      "payable": false,
      "stateMutability": "view",
      "type": "function"
    },
    {
      "constant": false,
      "inputs": [
        {
          "name": "add",
          "type": "address"
        }
      ],
      "name": "transferOwnershipTechnical",
      "outputs": [],
      "payable": false,
      "stateMutability": "nonpayable",
      "type": "function"
    },
    {
      "constant": true,
      "inputs": [],
      "name": "symbol",
      "outputs": [
        {
          "name": "",
          "type": "string"
        }
      ],
      "payable": false,
      "stateMutability": "view",
      "type": "function"
    },
    {
      "constant": true,
      "inputs": [
        {
          "name": "",
          "type": "uint256"
        }
      ],
      "name": "cooldowns",
      "outputs": [
        {
          "name": "",
          "type": "uint32"
        }
      ],
      "payable": false,
      "stateMutability": "view",
      "type": "function"
    },
    {
      "constant": false,
      "inputs": [
        {
          "name": "_to",
          "type": "address"
        },
        {
          "name": "_tokenId",
          "type": "uint32"
        }
      ],
      "name": "approve",
      "outputs": [],
      "payable": false,
      "stateMutability": "nonpayable",
      "type": "function"
    },
    {
      "constant": true,
      "inputs": [],
      "name": "promoMoney",
      "outputs": [
        {
          "name": "",
          "type": "uint256"
        }
      ],
      "payable": false,
      "stateMutability": "view",
      "type": "function"
    },
    {
      "constant": true,
      "inputs": [],
      "name": "ownerCEO",
      "outputs": [
        {
          "name": "",
          "type": "address"
        }
      ],
      "payable": false,
      "stateMutability": "view",
      "type": "function"
    },
    {
      "constant": true,
      "inputs": [],
      "name": "getOwnerTech",
      "outputs": [
        {
          "name": "",
          "type": "address"
        }
      ],
      "payable": false,
      "stateMutability": "view",
      "type": "function"
    },
    {
      "constant": true,
      "inputs": [
        {
          "name": "",
          "type": "address"
        },
        {
          "name": "",
          "type": "uint256"
        }
      ],
      "name": "ownerBunnies",
      "outputs": [
        {
          "name": "",
          "type": "uint32"
        }
      ],
      "payable": false,
      "stateMutability": "view",
      "type": "function"
    },
    {
      "constant": true,
      "inputs": [
        {
          "name": "owner",
          "type": "address"
        }
      ],
      "name": "getTokenOwner",
      "outputs": [
        {
          "name": "total",
          "type": "uint256"
        },
        {
          "name": "list",
          "type": "uint32[]"
        }
      ],
      "payable": false,
      "stateMutability": "view",
      "type": "function"
    },
    {
      "constant": false,
      "inputs": [
        {
          "name": "_promoMoney",
          "type": "uint256"
        }
      ],
      "name": "setPromoMoney",
      "outputs": [],
      "payable": false,
      "stateMutability": "nonpayable",
      "type": "function"
    },
    {
      "constant": false,
      "inputs": [
        {
          "name": "add",
          "type": "address"
        }
      ],
      "name": "transferOwnership",
      "outputs": [],
      "payable": false,
      "stateMutability": "nonpayable",
      "type": "function"
    },
    {
      "constant": true,
      "inputs": [],
      "name": "getOwnerServer",
      "outputs": [
        {
          "name": "",
          "type": "address"
        }
      ],
      "payable": false,
      "stateMutability": "view",
      "type": "function"
    },
    {
      "constant": true,
      "inputs": [],
      "name": "totalClosedBID",
      "outputs": [
        {
          "name": "",
          "type": "uint256"
        }
      ],
      "payable": false,
      "stateMutability": "view",
      "type": "function"
    },
    {
      "constant": false,
      "inputs": [
        {
          "name": "_ownerMoney",
          "type": "address"
        }
      ],
      "name": "transferOwnerMoney",
      "outputs": [],
      "payable": false,
      "stateMutability": "nonpayable",
      "type": "function"
    },
    {
      "anonymous": false,
      "inputs": [
        {
          "indexed": false,
          "name": "newOwnerBunny",
          "type": "address"
        },
        {
          "indexed": false,
          "name": "bunnyId",
          "type": "uint32"
        }
      ],
      "name": "SendBunny",
      "type": "event"
    },
    {
      "anonymous": false,
      "inputs": [
        {
          "indexed": false,
          "name": "from",
          "type": "address"
        },
        {
          "indexed": false,
          "name": "to",
          "type": "address"
        },
        {
          "indexed": false,
          "name": "tokenId",
          "type": "uint32"
        }
      ],
      "name": "Transfer",
      "type": "event"
    },
    {
      "anonymous": false,
      "inputs": [
        {
          "indexed": false,
          "name": "owner",
          "type": "address"
        },
        {
          "indexed": false,
          "name": "approved",
          "type": "address"
        },
        {
          "indexed": false,
          "name": "tokenId",
          "type": "uint32"
        }
      ],
      "name": "Approval",
      "type": "event"
    },
    {
      "constant": false,
      "inputs": [
        {
          "name": "money",
          "type": "uint256"
        }
      ],
      "name": "setStepMoney",
      "outputs": [],
      "payable": false,
      "stateMutability": "nonpayable",
      "type": "function"
    },
    {
      "constant": false,
      "inputs": [
        {
          "name": "period",
          "type": "uint256"
        }
      ],
      "name": "setDayPeriod",
      "outputs": [
        {
          "name": "",
          "type": "uint256"
        }
      ],
      "payable": false,
      "stateMutability": "nonpayable",
      "type": "function"
    },
    {
      "constant": false,
      "inputs": [
        {
          "name": "_money",
          "type": "uint256"
        }
      ],
      "name": "setMoneyRange",
      "outputs": [],
      "payable": false,
      "stateMutability": "nonpayable",
      "type": "function"
    },
    {
      "constant": false,
      "inputs": [
        {
          "name": "_bunnyid",
          "type": "uint32"
        },
        {
          "name": "_money",
          "type": "uint256"
        }
      ],
      "name": "setMarket",
      "outputs": [
        {
          "name": "",
          "type": "uint256"
        }
      ],
      "payable": false,
      "stateMutability": "nonpayable",
      "type": "function"
    },
    {
      "constant": false,
      "inputs": [
        {
          "name": "_bunnyid",
          "type": "uint32"
        }
      ],
      "name": "buyBunny",
      "outputs": [],
      "payable": true,
      "stateMutability": "payable",
      "type": "function"
    },
    {
      "constant": true,
      "inputs": [
        {
          "name": "rabbitid",
          "type": "uint256"
        }
      ],
      "name": "deleteRabbitMarket",
      "outputs": [],
      "payable": false,
      "stateMutability": "pure",
      "type": "function"
    },
    {
      "constant": true,
      "inputs": [
        {
          "name": "rabbitid",
          "type": "uint32"
        },
        {
          "name": "step",
          "type": "uint256"
        }
      ],
      "name": "bidMarket",
      "outputs": [],
      "payable": false,
      "stateMutability": "view",
      "type": "function"
    },
    {
      "constant": true,
      "inputs": [
        {
          "name": "page",
          "type": "uint256"
        },
        {
          "name": "indexBunny",
          "type": "uint256"
        }
      ],
      "name": "getSireList",
      "outputs": [
        {
          "name": "rabbitID",
          "type": "uint32[12]"
        },
        {
          "name": "currentPriceBids",
          "type": "uint256[12]"
        },
        {
          "name": "elementEnd",
          "type": "uint256"
        },
        {
          "name": "elementTotal",
          "type": "uint256"
        }
      ],
      "payable": false,
      "stateMutability": "view",
      "type": "function"
    },
    {
      "constant": true,
      "inputs": [
        {
          "name": "page",
          "type": "uint256"
        }
      ],
      "name": "getBids",
      "outputs": [
        {
          "name": "rabbitID",
          "type": "uint32[12]"
        },
        {
          "name": "rabbitSeller",
          "type": "address[12]"
        },
        {
          "name": "startMoneyBids",
          "type": "uint256[12]"
        },
        {
          "name": "timeStartBids",
          "type": "uint256[12]"
        },
        {
          "name": "currentPriceBids",
          "type": "uint256[12]"
        },
        {
          "name": "elementEnd",
          "type": "uint256"
        },
        {
          "name": "elementTotal",
          "type": "uint256"
        }
      ],
      "payable": false,
      "stateMutability": "view",
      "type": "function"
    },
    {
      "constant": false,
      "inputs": [
        {
          "name": "bunnyid",
          "type": "uint32"
        },
        {
          "name": "add",
          "type": "address"
        }
      ],
      "name": "giff",
      "outputs": [],
      "payable": false,
      "stateMutability": "nonpayable",
      "type": "function"
    },
    {
      "constant": true,
      "inputs": [
        {
          "name": "page",
          "type": "uint256"
        },
        {
          "name": "owner",
          "type": "address"
        }
      ],
      "name": "getTokenList",
      "outputs": [
        {
          "name": "bunnys",
          "type": "uint32[12]"
        },
        {
          "name": "bunnyRole",
          "type": "uint256[12]"
        },
        {
          "name": "elementEnd",
          "type": "uint256"
        },
        {
          "name": "elementTotal",
          "type": "uint256"
        },
        {
          "name": "startArray",
          "type": "uint256"
        }
      ],
      "payable": false,
      "stateMutability": "view",
      "type": "function"
    },
    {
      "constant": true,
      "inputs": [
        {
          "name": "bunnyid",
          "type": "uint32"
        }
      ],
      "name": "currentPrice",
      "outputs": [
        {
          "name": "",
          "type": "uint256"
        }
      ],
      "payable": false,
      "stateMutability": "view",
      "type": "function"
    },
    {
      "constant": false,
      "inputs": [
        {
          "name": "_bunnyID",
          "type": "uint32"
        }
      ],
      "name": "stopMarket",
      "outputs": [
        {
          "name": "",
          "type": "uint256"
        }
      ],
      "payable": false,
      "stateMutability": "nonpayable",
      "type": "function"
    },
    {
      "constant": true,
      "inputs": [],
      "name": "getMarketCount",
      "outputs": [
        {
          "name": "",
          "type": "uint256"
        }
      ],
      "payable": false,
      "stateMutability": "view",
      "type": "function"
    }
  ],
  "bytecode": "0x6004805460a060020a60ff0219169055655af3107a40006005819055600060075560016009556109c4600a55600b55610260604052603c6080908152607860a05260f060c0526101e060e08190526103c06101005261078061012052610e1061014052611c2061016052613840610180526170806101a05261e1006101c0526201518090526202a30061020052620546006102205262093a8061024052620000ac90601190600f620001fb565b506018805463ffffffff60c060020a60ff02011916905560198054600160a060020a0319908116734478f980deb6a3def9bfbb519e085dcc96aadfd01791829055611c20601a556001601b819055601c819055601d819055601e805460ff1916601417905560218190556000602281905560248190556027819055805433600160a060020a039081169185168217909255600280548516821790556003805485168217905582549093169092179055620001709116640100000000620001a2810204565b506018805460c060020a60ff0219167801000000000000000000000000000000000000000000000000179055620002c5565b60048054600160a060020a031916600160a060020a03929092169182179055601880547fffffffffffffffff0000000000000000000000000000000000000000ffffffff16640100000000909202919091179055600090565b6002830191839082156200028c5791602002820160005b838211156200025857835183826101000a81548163ffffffff021916908363ffffffff160217905550926020019260040160208160030104928301926001030262000212565b80156200028a5782816101000a81549063ffffffff021916905560040160208160030104928301926001030262000258565b505b506200029a9291506200029e565b5090565b620002c291905b808211156200029a57805463ffffffff19168155600101620002a5565b90565b61217580620002d56000396000f3006080604052600436106102b35763ffffffff7c010000000000000000000000000000000000000000000000000000000060003504166303602e9e81146102b857806305caca6c146102e957806306fdde031461030c57806312448c3214610396578063131d9a27146103d057806314c588de146104df57806314f1cf0c146104f757806318160ddd146105155780631e923f1b1461052a57806323b7ec3b1461053f5780632573751f1461055d578063308c00651461057857806333506115146105a85780633c9ff012146105d15780633ec27c4a146105e6578063480892a9146105fe5780634b72bbaf1461063b5780634e2fd44e146106595780634fd839c61461067a578063553fd0431461069857806359dc2eec146106b057806362075af414610709578063625101d5146107335780636b5330571461074857806370a082311461076657806370d4d7b4146107875780637214d6c31461079c5780637230ef7f146107b1578063731f49b7146107c657806373edbc22146107db57806374479db0146107fc5780637878b66a146108115780637cbd5444146108265780638231ee981461083b578063847ec2de1461085057806384fcfb34146108655780638638fc3c1461087d5780638fe521c81461089e57806395d89b411461093c5780639d6fac6f146109515780639fa0fe1014610969578063a210a6761461098a578063a7e945421461099b578063ad5a157d146109c5578063c17c0456146109da578063c7191bc7146109ef578063d00dbcb014610a04578063dc17c9ca14610a28578063e51ac9fe14610aa4578063e8defac714610b32578063eea23d8a14610b4a578063ef229dc714610b62578063f2fde38b14610b7a578063f3cee12914610b9b578063f65045df14610bb0578063fb6c2b6f14610bc5578063fd69f3c214610be3578063fdaacf1b14610bf8575b600080fd5b3480156102c457600080fd5b506102cd610c19565b60408051600160a060020a039092168252519081900360200190f35b3480156102f557600080fd5b5061030a600160a060020a0360043516610c46565b005b34801561031857600080fd5b50610321610c9c565b6040805160208082528351818301528351919283929083019185019080838360005b8381101561035b578181015183820152602001610343565b50505050905090810190601f1680156103885780820380516001836020036101000a031916815260200191505b509250505060405180910390f35b3480156103a257600080fd5b506103b763ffffffff60043516602435610cd3565b6040805163ffffffff9092168252519081900360200190f35b3480156103dc57600080fd5b506103e8600435610d1b565b604051808861018080838360005b8381101561040e5781810151838201526020016103f6565b5050505090500187600c60200280838360005b83811015610439578181015183820152602001610421565b5050505090500186600c60200280838360005b8381101561046457818101518382015260200161044c565b5050505090500185600c60200280838360005b8381101561048f578181015183820152602001610477565b5050505090500184600c60200280838360005b838110156104ba5781810151838201526020016104a2565b5050505090500183815260200182815260200197505050505050505060405180910390f35b3480156104eb57600080fd5b5061030a600435610e93565b34801561050357600080fd5b506102cd63ffffffff60043516610eb3565b34801561052157600080fd5b506103b7610ece565b34801561053657600080fd5b506102cd610eda565b34801561054b57600080fd5b506102cd63ffffffff60043516610ee9565b34801561056957600080fd5b506103b7600435602435610f0a565b34801561058457600080fd5b5061059663ffffffff60043516610f25565b60408051918252519081900360200190f35b3480156105b457600080fd5b506105bd610fae565b604080519115158252519081900360200190f35b3480156105dd57600080fd5b50610596611010565b3480156105f257600080fd5b5061030a600435611016565b34801561060a57600080fd5b50610616600435611051565b6040805163ffffffff9094168452602084019290925282820152519081900360600190f35b34801561064757600080fd5b5061059663ffffffff60043516611079565b34801561066557600080fd5b506105bd600160a060020a03600435166110af565b34801561068657600080fd5b5061059663ffffffff6004351661110e565b3480156106a457600080fd5b5061030a600435611126565b3480156106bc57600080fd5b506106c8600435611161565b6040805163ffffffff9889168152969097166020870152858701949094526060850192909252608084015260a083015260c082015290519081900360e00190f35b34801561071557600080fd5b5061030a63ffffffff60043516600160a060020a03602435166111bb565b34801561073f57600080fd5b506102cd6111f8565b34801561075457600080fd5b5061059663ffffffff60043516611224565b34801561077257600080fd5b50610596600160a060020a0360043516611236565b34801561079357600080fd5b50610596611251565b3480156107a857600080fd5b506105bd611257565b3480156107bd57600080fd5b5061059661125c565b3480156107d257600080fd5b506103b7611262565b3480156107e757600080fd5b5061059663ffffffff6004351660243561126e565b34801561080857600080fd5b506105bd611351565b34801561081d57600080fd5b506105bd611376565b34801561083257600080fd5b506105bd611398565b34801561084757600080fd5b50610596611437565b34801561085c57600080fd5b506103b761143d565b34801561087157600080fd5b5061030a600435610c99565b34801561088957600080fd5b5061030a600160a060020a0360043516611449565b3480156108aa57600080fd5b506108c2600435600160a060020a03602435166114a0565b604051808661018080838360005b838110156108e85781810151838201526020016108d0565b5050505090500185600c60200280838360005b838110156109135781810151838201526020016108fb565b505050509050018481526020018381526020018281526020019550505050505060405180910390f35b34801561094857600080fd5b506103216115bb565b34801561095d57600080fd5b506103b76004356115f2565b34801561097557600080fd5b5061030a63ffffffff6004351660243561161f565b61030a63ffffffff60043516611632565b3480156109a757600080fd5b5061030a600160a060020a036004351663ffffffff602435166111f4565b3480156109d157600080fd5b50610596611798565b3480156109e657600080fd5b506102cd61179e565b3480156109fb57600080fd5b506102cd6117ad565b348015610a1057600080fd5b506103b7600160a060020a03600435166024356117d9565b348015610a3457600080fd5b50610a49600160a060020a03600435166117f4565b6040518083815260200180602001828103825283818151815260200191508051906020019060200280838360005b83811015610a8f578181015183820152602001610a77565b50505050905001935050505060405180910390f35b348015610ab057600080fd5b50610abf600435602435611891565b604051808561018080838360005b83811015610ae5578181015183820152602001610acd565b5050505090500184600c60200280838360005b83811015610b10578181015183820152602001610af8565b5050505090500183815260200182815260200194505050505060405180910390f35b348015610b3e57600080fd5b506105966004356119be565b348015610b5657600080fd5b5061030a600435611a0a565b348015610b6e57600080fd5b5061030a600435611a2a565b348015610b8657600080fd5b5061030a600160a060020a0360043516611a65565b348015610ba757600080fd5b506102cd611abc565b348015610bbc57600080fd5b50610596611ae8565b348015610bd157600080fd5b5061059663ffffffff60043516611aee565b348015610bef57600080fd5b50610596611c4b565b348015610c0457600080fd5b5061030a600160a060020a0360043516611c51565b6000805433600160a060020a03908116911614610c3557600080fd5b50600454600160a060020a03165b90565b60005433600160a060020a03908116911614610c6157600080fd5b600160a060020a03811615610c99576003805473ffffffffffffffffffffffffffffffffffffffff1916600160a060020a0383161790555b50565b60408051808201909152600d81527f43727970746f5261626269747300000000000000000000000000000000000000602082015281565b600d60205281600052604060002081815481101515610cee57fe5b9060005260206000209060089182820401919006600402915091509054906101000a900463ffffffff1681565b610d236120b9565b610d2b6120b9565b610d336120b9565b610d3b6120b9565b610d436120b9565b60008080600c81808060018d1015610d5a5760019c505b610d6a8d8563ffffffff611c9b16565b9650601b54871115610d7c57601b5496505b5050601b5493506000198b018202600101805b86600101811015610e835760008181526028602052604090205463ffffffff169450848c84600c8110610dbe57fe5b63ffffffff92831660209182029290920191909152908616600090815260149091526040902054600160a060020a03168b84600c8110610dfa57fe5b600160a060020a03909216602092830291909101526000828152602890915260409020600101548a84600c8110610e2d57fe5b602090810291909101919091526000828152602890915260409020600201548984600c8110610e5857fe5b6020020152610e6685610f25565b8884600c8110610e7257fe5b602002015260019283019201610d8f565b5050505050919395979092949650565b60005433600160a060020a03908116911614610eae57600080fd5b600a55565b601460205260009081526040902054600160a060020a031681565b60185463ffffffff1690565b601954600160a060020a031681565b63ffffffff16600090815260146020526040902054600160a060020a031690565b600f60205281600052604060002081815481101515610cee57fe5b63ffffffff8116600090815260296020908152604080832054808452602890925282206002810154600190910154601a54849042849003908290819015610fa157601a5483811515610f7357fe5b0491508115801590610f8457508415155b15610f9d576103e88504905080600a0285039350610fa1565b8493505b5091979650505050505050565b6000805433600160a060020a03908116911614610fca57600080fd5b506004805474ff0000000000000000000000000000000000000000198116740100000000000000000000000000000000000000009182900460ff16159182021790915590565b60095481565b60025433600160a060020a0390811691161480611041575060005433600160a060020a039081169116145b151561104c57600080fd5b600955565b60286020526000908152604090208054600182015460029092015463ffffffff909116919083565b63ffffffff81166000908152600e602052604081205481906064900490506110a881601963ffffffff611c9b16565b9392505050565b6004805473ffffffffffffffffffffffffffffffffffffffff1916600160a060020a039290921691821790556018805477ffffffffffffffffffffffffffffffffffffffff000000001916640100000000909202919091179055600090565b63ffffffff1660009081526010602052604090205490565b60025433600160a060020a0390811691161480611151575060005433600160a060020a039081169116145b151561115c57600080fd5b602355565b601380548290811061116f57fe5b600091825260209091206006909102018054600182015460028301546003840154600485015460059095015463ffffffff80861697506401000000009095049094169492939192909187565b63ffffffff821660009081526014602052604090205433600160a060020a039081169116146111e957600080fd5b6111f4338284611cc6565b5050565b6000805433600160a060020a0390811691161461121457600080fd5b50600154600160a060020a031690565b600c6020526000908152604090205481565b600160a060020a031660009081526015602052604090205490565b600a5481565b600190565b60075481565b60065463ffffffff1681565b60006112786120d9565b611280611376565b151561128b57600080fd5b60055483101561129a57600080fd5b63ffffffff841660009081526014602052604090205433600160a060020a039081169116146112c857600080fd5b6112d184611aee565b50506040805160608101825263ffffffff858116808352602080840187815242858701908152601b80546000908152602885528881208851815463ffffffff1916981697909717875592516001808801919091559151600290960195909555845493825260299092529490942081905592830190559091505b5092915050565b6018547801000000000000000000000000000000000000000000000000900460ff1681565b60045474010000000000000000000000000000000000000000900460ff161590565b6000601860049054906101000a9004600160a060020a0316600160a060020a031663ccb0893d6040518163ffffffff167c0100000000000000000000000000000000000000000000000000000000028152600401602060405180830381600087803b15801561140657600080fd5b505af115801561141a573d6000803e3d6000fd5b505050506040513d602081101561143057600080fd5b5051905090565b60085481565b60185463ffffffff1681565b60005433600160a060020a0390811691161461146457600080fd5b600160a060020a03811615610c995760028054600160a060020a03831673ffffffffffffffffffffffffffffffffffffffff1990911617905550565b6114a86120b9565b6114b06120b9565b6000808080808060018a10156114c557600199505b600160a060020a03891660009081526015602052604090205494506114f18a600c63ffffffff611c9b16565b9550848611156114ff578495505b600160a060020a038916600090815260156020526040902054600c6000198c010260010194501515611530576115ae565b50825b856001018110156115ae57600160a060020a038916600090815260156020526040902080548290811061156257fe5b6000918252602090912060088204015460079091166004026101000a900463ffffffff168883600c811061159257fe5b63ffffffff909216602092909202015260019182019101611533565b5050509295509295909350565b60408051808201909152600381527f4352420000000000000000000000000000000000000000000000000000000000602082015281565b601181600f81106115ff57fe5b60089182820401919006600402915054906101000a900463ffffffff1681565b611627611376565b15156111f457600080fd5b600061163c611376565b151561164757600080fd5b63ffffffff821660009081526014602052604090205433600160a060020a039081169116141561167657600080fd5b61167f82610f25565b905080341015801561169057508015155b151561169b57600080fd5b6116a482611aee565b5060278054600101905563ffffffff82166000908152601460205260409020546116d790600160a060020a031634611d8c565b63ffffffff821660009081526014602052604090205461170190600160a060020a03163384611cc6565b60408051808201825282815263ffffffff841660008181526029602090815284822054825260288152848220600201544203818501908152602754835260268252918590209351845590516001909301929092558251600160a060020a03331681529182015281517fbe094b3f5b6f49f63819500ee3f9149336c47d4b6d3c809583c9ed3b5a458b3e929181900390910190a15050565b600b5481565b600054600160a060020a031681565b6000805433600160a060020a039081169116146117c957600080fd5b50600254600160a060020a031690565b601560205281600052604060002081815481101515610cee57fe5b600160a060020a038116600090815260156020908152604091829020805483518184028101840190945280845292606092909190849083018282801561188557602002820191906000526020600020906000905b82829054906101000a900463ffffffff1663ffffffff16815260200190600401906020826003010492830192600103820291508084116118485790505b50505050509050915091565b6118996120b9565b6118a16120b9565b60008080600c818060018a10156118b757600199505b6000898152600f602052604090205415156118d1576119b1565b6118e18a8463ffffffff611c9b16565b60008a8152600f602052604090205490965086111561190c576000898152600f602052604090205495505b506000888152600f60205260409020549350600019890182025b858110156119b1576000898152600f6020526040902080548290811061194857fe5b6000918252602090912060088204015460079091166004026101000a900463ffffffff169350838883600c811061197b57fe5b63ffffffff909216602092909202015261199484611079565b8783600c81106119a057fe5b602002015260019182019101611926565b5050505092959194509250565b60025460009033600160a060020a03908116911614806119ec575060005433600160a060020a039081169116145b15156119f757600080fd5b50601c8190556201518002601d81905590565b60005433600160a060020a03908116911614611a2557600080fd5b600b55565b60025433600160a060020a0390811691161480611a55575060005433600160a060020a039081169116145b1515611a6057600080fd5b601a55565b60005433600160a060020a03908116911614611a8057600080fd5b600160a060020a03811615610c995760008054600160a060020a03831673ffffffffffffffffffffffffffffffffffffffff1990911617905550565b6000805433600160a060020a03908116911614611ad857600080fd5b50600354600160a060020a031690565b60275481565b600080600080611afc611376565b1515611b0757600080fd5b600092505b601b548311611c3d5760008381526028602052604090205463ffffffff86811691161415611c325763ffffffff8516600090815260296020908152604080832080549084905586845260289092528220805463ffffffff1916815560018101839055600201829055601b54909350118015611b875750600083115b8015611b98575060018303601b5414155b15611c1f5750601b805460001990810160009081526028602081815260408084208885528185208154815463ffffffff1990811663ffffffff928316178084556001858101548582015560029586015494860194909455909116808852602986528488208b9055985490970186529390925283208054909416845590830182905591909101555b601b805460001981019091559350611c43565b600190920191611b0c565b601b5493505b505050919050565b601b5490565b60005433600160a060020a03908116911614611c6c57600080fd5b6001805473ffffffffffffffffffffffffffffffffffffffff1916600160a060020a0392909216919091179055565b600080831515611cae576000915061134a565b50828202828482811515611cbe57fe5b04146110a857fe5b63ffffffff8116600090815260146020526040902054600160a060020a039081169084168114611cf557600080fd5b600160a060020a038181169084161415611d0e57600080fd5b600160a060020a0383161515611d2357600080fd5b611d2d8183611e0c565b611d378383612038565b60408051600160a060020a0380841682528516602082015263ffffffff84168183015290517f0daf680c3f528a8760b5142fe1f6f80d5f4ea18bb76f347a7a44a2d565c2b7dc9181900360600190a150505050565b604051600160a060020a03831690605f606484040280156108fc02916000818181858888f19350505050158015611dc7573d6000803e3d6000fd5b50600154604051600160a060020a03909116906005606484040280156108fc02916000818181858888f19350505050158015611e07573d6000803e3d6000fd5b505050565b600160a060020a038216600090815260156020526040812054905b8181101561203257600160a060020a0384166000908152601560205260409020805463ffffffff8516919083908110611e5c57fe5b6000918252602090912060088204015460079091166004026101000a900463ffffffff16141561202a57600160a060020a0384166000908152601560205260409020805482908110611eaa57fe5b90600052602060002090600891828204019190066004026101000a81549063ffffffff0219169055600082118015611ee55750600181038214155b15611ffb57600160a060020a038416600090815260156020526040902080546000198401908110611f1257fe5b90600052602060002090600891828204019190066004029054906101000a900463ffffffff166015600086600160a060020a0316600160a060020a0316815260200190815260200160002082815481101515611f6a57fe5b90600052602060002090600891828204019190066004026101000a81548163ffffffff021916908363ffffffff1602179055506015600085600160a060020a0316600160a060020a0316815260200190815260200160002060018303815481101515611fd257fe5b90600052602060002090600891828204019190066004026101000a81549063ffffffff02191690555b600160a060020a0384166000908152601560205260409020805490612024906000198301612101565b50612032565b600101611e27565b50505050565b600160a060020a03909116600081815260156020908152604080832080546001810182559084528284206008820401805463ffffffff97881660046007909416939093026101000a83810298021916969096179095559382526014905291909120805473ffffffffffffffffffffffffffffffffffffffff19169091179055565b61018060405190810160405280600c906020820280388339509192915050565b606060405190810160405280600063ffffffff16815260200160008152602001600081525090565b815481835581811115611e0757600083815260209020611e0791610c439160086007928301819004820192860104015b808211156121455760008155600101612131565b50905600a165627a7a72305820ce4254d789ede18fe2b8a3a923d3743c48df7c8d2d8499abf3f03465cbd4be100029",
  "source": "pragma solidity ^0.4.23;\nimport \"./BodyRabbit.sol\"; \n\n/**\n* sale and bye Rabbits\n*/\ncontract RabbitMarket is BodyRabbit {\n\n    event SendBunny(address newOwnerBunny, uint32 bunnyId);\n\n // Long time\n    uint stepMoney = 2*60*60;\n           \n    function setStepMoney(uint money) public onlyTech {\n        stepMoney = money;\n    }\n    /**\n    * @dev number of rabbits participating in the auction\n    */\n    uint marketCount = 1; \n\n    uint daysperiod = 1;\n    uint sec = 1;\n    //          \n    uint8 middlelast = 20;\n    \n    /***\n    * @param period      \n    */\n    function setDayPeriod(uint period) public onlyTech returns(uint256) {\n        daysperiod = period;\n        sec = daysperiod * 24*60*60;\n        return  sec;\n    }\n     \n     \n    //        \n    mapping(uint32 => uint256[]) internal marketRabbits;\n    //     \n    \n    /**\n    */\n    struct Clisedbid {\n        uint32 rabbitID;\n        address rabbitSeller;\n        uint64 timeBid; \n    }\n    \n    Clisedbid[] clisedbidRabbits;\n     \n    \n    //    \n    uint256 middlePriceMoney = 1;\n    //   \n    uint256 middleSaleTime = 0; \n    //     \n    uint moneyRange;\n\n    /**\n    * @param _money  \n     */\n    function setMoneyRange(uint _money) public onlyTech {\n        moneyRange = _money;\n    }\n     \n    // the last cost of a sold seal\n    uint lastmoney = 0;  \n    // the time which was spent on the sale of the cat\n    uint lastTimeGen0;\n\n\n    // number of seals currently on sale\n  //  uint public bidCount = 0;\n\n     \n    /**\n    * @param  money;\n    * @param  timeStart; \n    * @param  timeFinish; \n    */\n    struct BidClosed {\n        uint money;\n        uint timeRange;  \n    }\n    /**\n    * @param  BidClosed \n    */\n    mapping(uint=>BidClosed) sellerOfRabbit;\n \n    //how many closed auctions\n    uint public totalClosedBID = 0;\n     \n     \n     \n    /**\n    * @param  _rabbitID;\n    * @param  _rabbitSeller;\n    * @param  startMoney;\n    */\n    struct Bids {\n        uint32 rabbitID; \n        uint  startMoney;\n        uint  timeStart;\n    }\n    mapping(uint=>Bids) public bidsArray;\n\n    mapping(uint32 => uint) bidsIndex;\n \n   // mapping (address => uint) sellerOfRabbit;\n     \n     /*** \n    */\n  \n    function setMarket(uint32 _bunnyid, uint _money) public returns (uint) {\n        require(isPauseSave());\n        require(_money >= bigPrice);\n        require(rabbitToOwner[_bunnyid] ==  msg.sender);\n       // _money =  _money;\n        stopMarket(_bunnyid); \n        Bids memory bid = Bids(_bunnyid, _money, now);\n        bidsArray[marketCount] = bid;\n        bidsIndex[_bunnyid] = marketCount;\n        return marketCount++; \n    }\n\n \n    \n \n\n    function buyBunny(uint32 _bunnyid) public payable {\n        require(isPauseSave());\n        require(rabbitToOwner[_bunnyid] != msg.sender);\n        uint price = currentPrice(_bunnyid);\n      //  require(0 != price);\n        require(msg.value >= price && 0 != price);\n\n        //     \n        stopMarket(_bunnyid); \n        \n        totalClosedBID++;\n        // Sending money to the old user\n        sendMoney(rabbitToOwner[_bunnyid], msg.value);\n        // is sent to the new owner of the bought rabbit\n        transferFrom( rabbitToOwner[_bunnyid], msg.sender, _bunnyid); \n   \n        sellerOfRabbit[totalClosedBID] = BidClosed(price, (now - bidsArray[bidsIndex[_bunnyid]].timeStart ));\n        emit SendBunny (msg.sender, _bunnyid);\n    }\n \n \n\n    /**\n    * @dev removal from the market rabbit\n    */\n    function deleteRabbitMarket(uint rabbitid) public pure { \n        rabbitid; \n    } \n\n \n    \n    /**\n    * @param rabbitid rabbit in relation to whom reduce the cost\n    */\n    function bidMarket(uint32 rabbitid, uint step) public view { \n        require(isPauseSave());\n        rabbitid;\n        step;\n    }\n    \n    \n \n     \n    \n    \n    /**\n    * @dev Get the cost of the zeroth gene necessary to add to the store\n    */\n    function getpricegen0() internal returns(uint _money) {\n        if (totalGen0 <= promoGen0) { \n           return _money = promoMoney;\n        }\n        uint _time = 0;\n        uint lostmoney = 0;\n        uint losttime = 0;\n        uint losttimerange = 0;\n        if ((totalClosedBID-middlelast) > 0) {\n            for (uint32 i = uint32(totalClosedBID-middlelast); i > totalClosedBID; i++) {\n\n                lostmoney = sellerOfRabbit[i].money + lostmoney;\n                losttimerange = sellerOfRabbit[i].timeRange;\n                losttime = losttime + losttimerange;\n            }\n            _money = lostmoney / middlelast;\n            _time = losttime / middlelast;\n             \n            if (middleSaleTime >= _time) {\n                _money = _money.add(_money.div(3));\n            } else {\n                _money = _money.sub(_money.div(3));\n            }\n            middleSaleTime = _time;\n        }\n        return  _money;\n    } \n\n\n\n\n    function getSireList(uint page, uint indexBunny) \n            public view returns(\n                uint32[12] rabbitID, \n            //    address[12]rabbitSeller, \n                uint[12]currentPriceBids,\n                uint elementEnd,\n                uint elementTotal \n                ) {\n\n                uint32 bunnyID = 0;\n                uint pagecount = 12;\n                uint start = 0;\n\n                if (page < 1) {\n                    page = 1;\n                }\n\n                if (sireGenom[indexBunny].length == 0) {\n                    return;\n                }\n\n                elementEnd = page.mul(pagecount);\n\n                if (elementEnd > sireGenom[indexBunny].length) {\n                    elementEnd = sireGenom[indexBunny].length;\n                }\n\n                elementTotal = sireGenom[indexBunny].length;\n          \n\n                for (uint i = (((page-1)*pagecount)); i < (elementEnd); i++) {\n\n                   bunnyID = uint32(sireGenom[indexBunny][i]);\n                    rabbitID[start] = bunnyID;\n                  //  rabbitSeller[start] = rabbitToOwner[bunnyID]; \n                    currentPriceBids[start] = getSirePrice(bunnyID);\n                    start++;\n                }\n            }\n\n\n\n    // https://ethereum.stackexchange.com/questions/1527/how-to-delete-an-element-at-a-certain-index-in-an-array\n    function getBids(uint page) \n            public view returns(\n                uint32[12] rabbitID, \n                address[12]rabbitSeller, \n                uint[12]startMoneyBids, \n                uint[12]timeStartBids, \n                uint[12]currentPriceBids,\n                uint elementEnd,\n                uint elementTotal\n                ) {\n\n                uint32 bunnyID = 0;\n                uint pagecount = 12;\n                uint start = 0;\n\n                if (page < 1) {\n                    page = 1;\n                }\n                \n                elementEnd = page.mul(pagecount);\n\n                if (elementEnd > marketCount) {\n                    elementEnd = marketCount;\n                }\n\n                elementTotal = marketCount;\n                uint startArray = (((page-1)*pagecount)+1);\n                for (uint i = startArray; i < (elementEnd+1); i++) {\n                    bunnyID = uint32(bidsArray[i].rabbitID);\n                    rabbitID[start] = bunnyID;\n                    rabbitSeller[start] = rabbitToOwner[bunnyID]; \n                    startMoneyBids[start] = bidsArray[i].startMoney; \n                    timeStartBids[start] = bidsArray[i].timeStart;\n                    currentPriceBids[start] = currentPrice(bunnyID);\n                    start++;\n                }\n            }\n\n\n\n    /**\n    * @dev give a rabbit to a specific user\n    * @param add new address owner rabbits\n    */\n    function giff(uint32 bunnyid, address add) public {\n        require(rabbitToOwner[bunnyid] == msg.sender);\n        transferFrom(msg.sender, add, bunnyid);\n    }\n\n\n    function getTokenList(uint page, address owner) public view returns(\n                uint32[12] bunnys, \n             //   uint32[12] bunnys2, \n            //    uint[12] bunnyBreed, \n                uint[12] bunnyRole,\n              //  uint[12] sirePrice,\n             //   uint[12] bunnyMarketPrice,\n                uint elementEnd,\n                uint elementTotal,\n                uint startArray\n                ) {\n\n                uint32 _bunnyID = 0;\n                //uint pagecount = 12;\n                uint start = 0;\n\n                if (page < 1) {\n                    page = 1;\n                }\n                \n                elementTotal = ownerBunnies[owner].length;\n                elementEnd = page.mul(12);\n\n                if (elementEnd > elementTotal) {\n                    elementEnd = elementTotal;\n                }\n \n                startArray = (((page-1)*12)+1);\n\n                if(ownerBunnies[owner].length == 0) {\n                    return;\n                }\n                for (uint i = startArray; i < (elementEnd+1); ++i) {\n\n                    bunnys[start] = ownerBunnies[owner][i];\n                    //bunnys[start] = _bunnyID;\n\n                  //  _bunnyID = uint32(ownerBunnies[owner][i]);\n                  //  bunnys[start] = _bunnyID;\n                   // if(ownerBunnies[owner][i] != 0) {  \n                    \n                  //  bunnyBreed[start] = rabbits[_bunnyID].genome; \n                   // bunnyRole[start] = rabbits[(_bunnyID)].role;\n                  //  sirePrice[start] = getSirePrice(_bunnyID); \n                  //  bunnyMarketPrice[start] = currentPrice(_bunnyID);\n                  //  }\n                    start++;\n                }\n\n      //  return ownerBunnies[owner].length;\n    }\n\n\n\n    /**\n    * @dev get rabbit price\n    */\n    function currentPrice(uint32 bunnyid) public view returns(uint) {\n        uint index = bidsIndex[bunnyid];\n        uint timeStart = bidsArray[index].timeStart;\n        uint startMoney = bidsArray[index].startMoney;\n        uint resMoney = 0;\n        uint rangeTime = now - timeStart;\n        if(stepMoney != 0) { \n            uint iter = rangeTime / stepMoney;\n            if(iter != 0 && startMoney != 0) {\n                uint range = startMoney / 1000;\n                resMoney = startMoney - range*10;\n             }else{\n                 resMoney = startMoney;\n             }\n        }\n        return resMoney;\n    }\n    \n\n\n\n\n     // https://ethereum.stackexchange.com/questions/1527/how-to-delete-an-element-at-a-certain-index-in-an-array\n    function stopMarket(uint32 _bunnyID) public returns(uint) {\n        require(isPauseSave());\n        // require(rabbitToOwner[_bunnyID] == msg.sender); //dev\n        for (uint i = 0; i <= marketCount; i++) {\n            if (bidsArray[i].rabbitID == _bunnyID) {\n\n                uint indexOld = bidsIndex[_bunnyID];\n\n                delete bidsIndex[_bunnyID];\n\n                delete bidsArray[i];\n                if (marketCount > 0 && i > 0 && marketCount != (i-1)) {\n                    bidsArray[i] = bidsArray[(marketCount-1)];\n                    uint32 b = bidsArray[i].rabbitID;\n                    bidsIndex[b] = indexOld;\n                    \n\n                delete  bidsArray[(marketCount-1)];\n                }\n                return marketCount--;\n            }\n        }\n        return marketCount;\n    }\n    \n\n    function getMarketCount() public view returns(uint) {\n        return marketCount;\n    }\n}\n",
  "sourcePath": "/home/koras/contracts/publicRabbit/pub/contracts/RabbitMarket.sol",
  "compiler": {
    "name": "solc",
    "version": "0.4.23+commit.124ca40d.Emscripten.clang"
  },
  "schemaVersion": "2.0.0",
  "updatedAt": "2018-05-17T19:34:26.818Z"
}