{
  "contractName": "RabbitMarket",
  "abi": [
    {
      "constant": true,
      "inputs": [],
      "name": "getPrivAddress",
      "outputs": [
        {
          "name": "",
          "type": "address"
        }
      ],
      "payable": false,
      "stateMutability": "view",
      "type": "function"
    },
    {
      "constant": false,
      "inputs": [
        {
          "name": "add",
          "type": "address"
        }
      ],
      "name": "transferOwnershipServer",
      "outputs": [],
      "payable": false,
      "stateMutability": "nonpayable",
      "type": "function"
    },
    {
      "constant": true,
      "inputs": [
        {
          "name": "_mother",
          "type": "uint32"
        }
      ],
      "name": "getcoolduwn",
      "outputs": [
        {
          "name": "lastTime",
          "type": "uint256"
        },
        {
          "name": "cd",
          "type": "uint256"
        },
        {
          "name": "lefttime",
          "type": "uint256"
        }
      ],
      "payable": false,
      "stateMutability": "view",
      "type": "function"
    },
    {
      "constant": true,
      "inputs": [],
      "name": "name",
      "outputs": [
        {
          "name": "",
          "type": "string"
        }
      ],
      "payable": false,
      "stateMutability": "view",
      "type": "function"
    },
    {
      "constant": true,
      "inputs": [
        {
          "name": "",
          "type": "uint32"
        }
      ],
      "name": "rabbitSirePrice",
      "outputs": [
        {
          "name": "",
          "type": "uint256"
        }
      ],
      "payable": false,
      "stateMutability": "view",
      "type": "function"
    },
    {
      "constant": true,
      "inputs": [],
      "name": "promoPause",
      "outputs": [
        {
          "name": "",
          "type": "bool"
        }
      ],
      "payable": false,
      "stateMutability": "view",
      "type": "function"
    },
    {
      "constant": true,
      "inputs": [
        {
          "name": "",
          "type": "uint32"
        },
        {
          "name": "",
          "type": "uint256"
        }
      ],
      "name": "rabbitMother",
      "outputs": [
        {
          "name": "",
          "type": "uint32"
        }
      ],
      "payable": false,
      "stateMutability": "view",
      "type": "function"
    },
    {
      "constant": true,
      "inputs": [
        {
          "name": "",
          "type": "uint32"
        }
      ],
      "name": "motherCount",
      "outputs": [
        {
          "name": "",
          "type": "uint256"
        }
      ],
      "payable": false,
      "stateMutability": "view",
      "type": "function"
    },
    {
      "constant": false,
      "inputs": [
        {
          "name": "_promoGen0",
          "type": "uint256"
        }
      ],
      "name": "setPromoGen0",
      "outputs": [],
      "payable": false,
      "stateMutability": "nonpayable",
      "type": "function"
    },
    {
      "constant": true,
      "inputs": [
        {
          "name": "",
          "type": "uint32"
        }
      ],
      "name": "rabbitToOwner",
      "outputs": [
        {
          "name": "",
          "type": "address"
        }
      ],
      "payable": false,
      "stateMutability": "view",
      "type": "function"
    },
    {
      "constant": true,
      "inputs": [],
      "name": "totalSupply",
      "outputs": [
        {
          "name": "total",
          "type": "uint256"
        }
      ],
      "payable": false,
      "stateMutability": "view",
      "type": "function"
    },
    {
      "constant": true,
      "inputs": [
        {
          "name": "_bunnyid",
          "type": "uint32"
        }
      ],
      "name": "getGiffBlock",
      "outputs": [
        {
          "name": "",
          "type": "bool"
        }
      ],
      "payable": false,
      "stateMutability": "view",
      "type": "function"
    },
    {
      "constant": true,
      "inputs": [],
      "name": "myAddr_test",
      "outputs": [
        {
          "name": "",
          "type": "address"
        }
      ],
      "payable": false,
      "stateMutability": "view",
      "type": "function"
    },
    {
      "constant": true,
      "inputs": [
        {
          "name": "_mother",
          "type": "uint32"
        }
      ],
      "name": "getMotherCount",
      "outputs": [
        {
          "name": "",
          "type": "uint256"
        }
      ],
      "payable": false,
      "stateMutability": "view",
      "type": "function"
    },
    {
      "constant": true,
      "inputs": [
        {
          "name": "_tokenId",
          "type": "uint32"
        }
      ],
      "name": "ownerOf",
      "outputs": [
        {
          "name": "owner",
          "type": "address"
        }
      ],
      "payable": false,
      "stateMutability": "view",
      "type": "function"
    },
    {
      "constant": true,
      "inputs": [
        {
          "name": "",
          "type": "uint256"
        },
        {
          "name": "",
          "type": "uint256"
        }
      ],
      "name": "sireGenom",
      "outputs": [
        {
          "name": "",
          "type": "uint32"
        }
      ],
      "payable": false,
      "stateMutability": "view",
      "type": "function"
    },
    {
      "constant": true,
      "inputs": [
        {
          "name": "mother",
          "type": "uint32"
        }
      ],
      "name": "getRabbitMotherSumm",
      "outputs": [
        {
          "name": "count",
          "type": "uint256"
        }
      ],
      "payable": false,
      "stateMutability": "view",
      "type": "function"
    },
    {
      "constant": true,
      "inputs": [
        {
          "name": "_bunny",
          "type": "uint32"
        }
      ],
      "name": "getTotalSalaryBunny",
      "outputs": [
        {
          "name": "",
          "type": "uint256"
        }
      ],
      "payable": false,
      "stateMutability": "view",
      "type": "function"
    },
    {
      "constant": false,
      "inputs": [],
      "name": "setPauseSave",
      "outputs": [
        {
          "name": "",
          "type": "bool"
        }
      ],
      "payable": false,
      "stateMutability": "nonpayable",
      "type": "function"
    },
    {
      "constant": true,
      "inputs": [],
      "name": "timeRangeCreateGen0",
      "outputs": [
        {
          "name": "",
          "type": "uint256"
        }
      ],
      "payable": false,
      "stateMutability": "view",
      "type": "function"
    },
    {
      "constant": false,
      "inputs": [
        {
          "name": "_sec",
          "type": "uint256"
        }
      ],
      "name": "setTimeRangeGen0",
      "outputs": [],
      "payable": false,
      "stateMutability": "nonpayable",
      "type": "function"
    },
    {
      "constant": true,
      "inputs": [
        {
          "name": "_bunny",
          "type": "uint32"
        }
      ],
      "name": "getBreed",
      "outputs": [
        {
          "name": "interbreed",
          "type": "bool"
        }
      ],
      "payable": false,
      "stateMutability": "view",
      "type": "function"
    },
    {
      "constant": true,
      "inputs": [
        {
          "name": "_tokenId",
          "type": "uint32"
        }
      ],
      "name": "getSirePrice",
      "outputs": [
        {
          "name": "",
          "type": "uint256"
        }
      ],
      "payable": false,
      "stateMutability": "view",
      "type": "function"
    },
    {
      "constant": false,
      "inputs": [
        {
          "name": "_privAddress",
          "type": "address"
        }
      ],
      "name": "setPriv",
      "outputs": [
        {
          "name": "",
          "type": "bool"
        }
      ],
      "payable": false,
      "stateMutability": "nonpayable",
      "type": "function"
    },
    {
      "constant": true,
      "inputs": [
        {
          "name": "bunnyid",
          "type": "uint32"
        }
      ],
      "name": "getRabbitDNK",
      "outputs": [
        {
          "name": "",
          "type": "uint256"
        }
      ],
      "payable": false,
      "stateMutability": "view",
      "type": "function"
    },
    {
      "constant": true,
      "inputs": [
        {
          "name": "",
          "type": "uint256"
        }
      ],
      "name": "rabbits",
      "outputs": [
        {
          "name": "mother",
          "type": "uint32"
        },
        {
          "name": "sire",
          "type": "uint32"
        },
        {
          "name": "birthblock",
          "type": "uint256"
        },
        {
          "name": "birthCount",
          "type": "uint256"
        },
        {
          "name": "birthLastTime",
          "type": "uint256"
        },
        {
          "name": "role",
          "type": "uint256"
        },
        {
          "name": "genome",
          "type": "uint256"
        }
      ],
      "payable": false,
      "stateMutability": "view",
      "type": "function"
    },
    {
      "constant": true,
      "inputs": [],
      "name": "isPromoPause",
      "outputs": [
        {
          "name": "",
          "type": "bool"
        }
      ],
      "payable": false,
      "stateMutability": "view",
      "type": "function"
    },
    {
      "constant": true,
      "inputs": [],
      "name": "getOwnerMoney",
      "outputs": [
        {
          "name": "",
          "type": "address"
        }
      ],
      "payable": false,
      "stateMutability": "view",
      "type": "function"
    },
    {
      "constant": true,
      "inputs": [
        {
          "name": "",
          "type": "uint32"
        }
      ],
      "name": "totalSalaryBunny",
      "outputs": [
        {
          "name": "",
          "type": "uint256"
        }
      ],
      "payable": false,
      "stateMutability": "view",
      "type": "function"
    },
    {
      "constant": true,
      "inputs": [
        {
          "name": "_owner",
          "type": "address"
        }
      ],
      "name": "balanceOf",
      "outputs": [
        {
          "name": "",
          "type": "uint256"
        }
      ],
      "payable": false,
      "stateMutability": "view",
      "type": "function"
    },
    {
      "constant": true,
      "inputs": [
        {
          "name": "_bunny",
          "type": "uint32"
        }
      ],
      "name": "getBunny",
      "outputs": [
        {
          "name": "mother",
          "type": "uint32"
        },
        {
          "name": "sire",
          "type": "uint32"
        },
        {
          "name": "birthblock",
          "type": "uint256"
        },
        {
          "name": "birthCount",
          "type": "uint256"
        },
        {
          "name": "birthLastTime",
          "type": "uint256"
        },
        {
          "name": "role",
          "type": "uint256"
        },
        {
          "name": "genome",
          "type": "uint256"
        },
        {
          "name": "interbreed",
          "type": "bool"
        },
        {
          "name": "leftTime",
          "type": "uint256"
        },
        {
          "name": "lastTime",
          "type": "uint256"
        },
        {
          "name": "price",
          "type": "uint256"
        },
        {
          "name": "motherSumm",
          "type": "uint256"
        }
      ],
      "payable": false,
      "stateMutability": "view",
      "type": "function"
    },
    {
      "constant": true,
      "inputs": [],
      "name": "promoGen0",
      "outputs": [
        {
          "name": "",
          "type": "uint256"
        }
      ],
      "payable": false,
      "stateMutability": "view",
      "type": "function"
    },
    {
      "constant": true,
      "inputs": [],
      "name": "isUIntPublic",
      "outputs": [
        {
          "name": "",
          "type": "bool"
        }
      ],
      "payable": false,
      "stateMutability": "pure",
      "type": "function"
    },
    {
      "constant": true,
      "inputs": [],
      "name": "totalGen0",
      "outputs": [
        {
          "name": "",
          "type": "uint256"
        }
      ],
      "payable": false,
      "stateMutability": "view",
      "type": "function"
    },
    {
      "constant": true,
      "inputs": [],
      "name": "lastIdGen0",
      "outputs": [
        {
          "name": "",
          "type": "uint32"
        }
      ],
      "payable": false,
      "stateMutability": "view",
      "type": "function"
    },
    {
      "constant": true,
      "inputs": [],
      "name": "fcontr",
      "outputs": [
        {
          "name": "",
          "type": "bool"
        }
      ],
      "payable": false,
      "stateMutability": "view",
      "type": "function"
    },
    {
      "constant": true,
      "inputs": [
        {
          "name": "",
          "type": "uint32"
        }
      ],
      "name": "rabbitBreedCount",
      "outputs": [
        {
          "name": "",
          "type": "uint256"
        }
      ],
      "payable": false,
      "stateMutability": "view",
      "type": "function"
    },
    {
      "constant": true,
      "inputs": [],
      "name": "isPauseSave",
      "outputs": [
        {
          "name": "",
          "type": "bool"
        }
      ],
      "payable": false,
      "stateMutability": "view",
      "type": "function"
    },
    {
      "constant": true,
      "inputs": [],
      "name": "isPriv",
      "outputs": [
        {
          "name": "",
          "type": "bool"
        }
      ],
      "payable": false,
      "stateMutability": "view",
      "type": "function"
    },
    {
      "constant": true,
      "inputs": [
        {
          "name": "_to",
          "type": "address"
        }
      ],
      "name": "getOwnerGennezise",
      "outputs": [
        {
          "name": "",
          "type": "bool"
        }
      ],
      "payable": false,
      "stateMutability": "view",
      "type": "function"
    },
    {
      "constant": false,
      "inputs": [
        {
          "name": "_to",
          "type": "address"
        },
        {
          "name": "_tokenId",
          "type": "uint32"
        }
      ],
      "name": "transfer",
      "outputs": [],
      "payable": false,
      "stateMutability": "nonpayable",
      "type": "function"
    },
    {
      "constant": true,
      "inputs": [],
      "name": "lastTimeGen0",
      "outputs": [
        {
          "name": "",
          "type": "uint256"
        }
      ],
      "payable": false,
      "stateMutability": "view",
      "type": "function"
    },
    {
      "constant": false,
      "inputs": [
        {
          "name": "_from",
          "type": "address"
        },
        {
          "name": "_to",
          "type": "address"
        },
        {
          "name": "_tokenId",
          "type": "uint32"
        }
      ],
      "name": "transferFrom",
      "outputs": [
        {
          "name": "",
          "type": "bool"
        }
      ],
      "payable": false,
      "stateMutability": "nonpayable",
      "type": "function"
    },
    {
      "constant": true,
      "inputs": [],
      "name": "totalBunny",
      "outputs": [
        {
          "name": "",
          "type": "uint256"
        }
      ],
      "payable": false,
      "stateMutability": "view",
      "type": "function"
    },
    {
      "constant": false,
      "inputs": [
        {
          "name": "add",
          "type": "address"
        }
      ],
      "name": "transferOwnershipTechnical",
      "outputs": [],
      "payable": false,
      "stateMutability": "nonpayable",
      "type": "function"
    },
    {
      "constant": true,
      "inputs": [],
      "name": "symbol",
      "outputs": [
        {
          "name": "",
          "type": "string"
        }
      ],
      "payable": false,
      "stateMutability": "view",
      "type": "function"
    },
    {
      "constant": true,
      "inputs": [
        {
          "name": "",
          "type": "uint256"
        }
      ],
      "name": "cooldowns",
      "outputs": [
        {
          "name": "",
          "type": "uint32"
        }
      ],
      "payable": false,
      "stateMutability": "view",
      "type": "function"
    },
    {
      "constant": false,
      "inputs": [
        {
          "name": "_to",
          "type": "address"
        },
        {
          "name": "_tokenId",
          "type": "uint32"
        }
      ],
      "name": "approve",
      "outputs": [
        {
          "name": "",
          "type": "bool"
        }
      ],
      "payable": false,
      "stateMutability": "nonpayable",
      "type": "function"
    },
    {
      "constant": true,
      "inputs": [],
      "name": "promoMoney",
      "outputs": [
        {
          "name": "",
          "type": "uint256"
        }
      ],
      "payable": false,
      "stateMutability": "view",
      "type": "function"
    },
    {
      "constant": true,
      "inputs": [],
      "name": "ownerCEO",
      "outputs": [
        {
          "name": "",
          "type": "address"
        }
      ],
      "payable": false,
      "stateMutability": "view",
      "type": "function"
    },
    {
      "constant": true,
      "inputs": [],
      "name": "getOwnerTech",
      "outputs": [
        {
          "name": "",
          "type": "address"
        }
      ],
      "payable": false,
      "stateMutability": "view",
      "type": "function"
    },
    {
      "constant": true,
      "inputs": [
        {
          "name": "",
          "type": "address"
        },
        {
          "name": "",
          "type": "uint256"
        }
      ],
      "name": "ownerBunnies",
      "outputs": [
        {
          "name": "",
          "type": "uint32"
        }
      ],
      "payable": false,
      "stateMutability": "view",
      "type": "function"
    },
    {
      "constant": true,
      "inputs": [
        {
          "name": "owner",
          "type": "address"
        }
      ],
      "name": "getTokenOwner",
      "outputs": [
        {
          "name": "total",
          "type": "uint256"
        },
        {
          "name": "list",
          "type": "uint32[]"
        }
      ],
      "payable": false,
      "stateMutability": "view",
      "type": "function"
    },
    {
      "constant": true,
      "inputs": [
        {
          "name": "mother",
          "type": "uint32"
        }
      ],
      "name": "getRabbitMother",
      "outputs": [
        {
          "name": "",
          "type": "uint32[5]"
        }
      ],
      "payable": false,
      "stateMutability": "view",
      "type": "function"
    },
    {
      "constant": false,
      "inputs": [
        {
          "name": "_promoMoney",
          "type": "uint256"
        }
      ],
      "name": "setPromoMoney",
      "outputs": [],
      "payable": false,
      "stateMutability": "nonpayable",
      "type": "function"
    },
    {
      "constant": false,
      "inputs": [
        {
          "name": "add",
          "type": "address"
        }
      ],
      "name": "transferOwnership",
      "outputs": [],
      "payable": false,
      "stateMutability": "nonpayable",
      "type": "function"
    },
    {
      "constant": true,
      "inputs": [],
      "name": "getOwnerServer",
      "outputs": [
        {
          "name": "",
          "type": "address"
        }
      ],
      "payable": false,
      "stateMutability": "view",
      "type": "function"
    },
    {
      "constant": true,
      "inputs": [],
      "name": "commission_system",
      "outputs": [
        {
          "name": "",
          "type": "uint256"
        }
      ],
      "payable": false,
      "stateMutability": "view",
      "type": "function"
    },
    {
      "constant": true,
      "inputs": [],
      "name": "totalClosedBID",
      "outputs": [
        {
          "name": "",
          "type": "uint256"
        }
      ],
      "payable": false,
      "stateMutability": "view",
      "type": "function"
    },
    {
      "constant": false,
      "inputs": [],
      "name": "setPromoPause",
      "outputs": [],
      "payable": false,
      "stateMutability": "nonpayable",
      "type": "function"
    },
    {
      "constant": false,
      "inputs": [
        {
          "name": "_ownerMoney",
          "type": "address"
        }
      ],
      "name": "transferOwnerMoney",
      "outputs": [],
      "payable": false,
      "stateMutability": "nonpayable",
      "type": "function"
    },
    {
      "anonymous": false,
      "inputs": [
        {
          "indexed": false,
          "name": "newOwnerBunny",
          "type": "address"
        },
        {
          "indexed": false,
          "name": "bunnyId",
          "type": "uint32"
        }
      ],
      "name": "SendBunny",
      "type": "event"
    },
    {
      "anonymous": false,
      "inputs": [
        {
          "indexed": false,
          "name": "bunnyId",
          "type": "uint32"
        }
      ],
      "name": "StopMarket",
      "type": "event"
    },
    {
      "anonymous": false,
      "inputs": [
        {
          "indexed": false,
          "name": "bunnyId",
          "type": "uint32"
        },
        {
          "indexed": false,
          "name": "money",
          "type": "uint256"
        }
      ],
      "name": "StartMarket",
      "type": "event"
    },
    {
      "anonymous": false,
      "inputs": [
        {
          "indexed": false,
          "name": "bunnyId",
          "type": "uint32"
        },
        {
          "indexed": false,
          "name": "money",
          "type": "uint256"
        }
      ],
      "name": "BunnyBuy",
      "type": "event"
    },
    {
      "anonymous": false,
      "inputs": [
        {
          "indexed": false,
          "name": "_mother",
          "type": "uint32"
        },
        {
          "indexed": false,
          "name": "summ",
          "type": "uint256"
        }
      ],
      "name": "EmotherCount",
      "type": "event"
    },
    {
      "anonymous": false,
      "inputs": [
        {
          "indexed": false,
          "name": "from",
          "type": "address"
        },
        {
          "indexed": false,
          "name": "to",
          "type": "address"
        },
        {
          "indexed": false,
          "name": "tokenId",
          "type": "uint32"
        }
      ],
      "name": "Transfer",
      "type": "event"
    },
    {
      "anonymous": false,
      "inputs": [
        {
          "indexed": false,
          "name": "owner",
          "type": "address"
        },
        {
          "indexed": false,
          "name": "approved",
          "type": "address"
        },
        {
          "indexed": false,
          "name": "tokenId",
          "type": "uint32"
        }
      ],
      "name": "Approval",
      "type": "event"
    },
    {
      "anonymous": false,
      "inputs": [
        {
          "indexed": false,
          "name": "owner",
          "type": "address"
        },
        {
          "indexed": false,
          "name": "tokenId",
          "type": "uint32"
        }
      ],
      "name": "OwnerBunnies",
      "type": "event"
    },
    {
      "constant": false,
      "inputs": [
        {
          "name": "money",
          "type": "uint256"
        }
      ],
      "name": "setStepMoney",
      "outputs": [],
      "payable": false,
      "stateMutability": "nonpayable",
      "type": "function"
    },
    {
      "constant": false,
      "inputs": [
        {
          "name": "period",
          "type": "uint256"
        }
      ],
      "name": "setDayPeriod",
      "outputs": [
        {
          "name": "",
          "type": "uint256"
        }
      ],
      "payable": false,
      "stateMutability": "nonpayable",
      "type": "function"
    },
    {
      "constant": false,
      "inputs": [
        {
          "name": "_money",
          "type": "uint256"
        }
      ],
      "name": "setMoneyRange",
      "outputs": [],
      "payable": false,
      "stateMutability": "nonpayable",
      "type": "function"
    },
    {
      "constant": true,
      "inputs": [
        {
          "name": "_bunnyid",
          "type": "uint32"
        }
      ],
      "name": "currentPrice",
      "outputs": [
        {
          "name": "",
          "type": "uint256"
        }
      ],
      "payable": false,
      "stateMutability": "view",
      "type": "function"
    },
    {
      "constant": false,
      "inputs": [
        {
          "name": "_bunnyid",
          "type": "uint32"
        },
        {
          "name": "_money",
          "type": "uint256"
        }
      ],
      "name": "startMarket",
      "outputs": [
        {
          "name": "",
          "type": "uint256"
        }
      ],
      "payable": false,
      "stateMutability": "nonpayable",
      "type": "function"
    },
    {
      "constant": false,
      "inputs": [
        {
          "name": "_bunnyid",
          "type": "uint32"
        }
      ],
      "name": "stopMarket",
      "outputs": [
        {
          "name": "",
          "type": "uint256"
        }
      ],
      "payable": false,
      "stateMutability": "nonpayable",
      "type": "function"
    },
    {
      "constant": false,
      "inputs": [
        {
          "name": "_bunnyid",
          "type": "uint32"
        }
      ],
      "name": "buyBunny",
      "outputs": [],
      "payable": true,
      "stateMutability": "payable",
      "type": "function"
    },
    {
      "constant": true,
      "inputs": [
        {
          "name": "rabbitid",
          "type": "uint256"
        }
      ],
      "name": "deleteRabbitMarket",
      "outputs": [],
      "payable": false,
      "stateMutability": "pure",
      "type": "function"
    },
    {
      "constant": true,
      "inputs": [
        {
          "name": "rabbitid",
          "type": "uint32"
        },
        {
          "name": "step",
          "type": "uint256"
        }
      ],
      "name": "bidMarket",
      "outputs": [],
      "payable": false,
      "stateMutability": "view",
      "type": "function"
    },
    {
      "constant": false,
      "inputs": [
        {
          "name": "bunnyid",
          "type": "uint32"
        },
        {
          "name": "add",
          "type": "address"
        }
      ],
      "name": "giff",
      "outputs": [],
      "payable": false,
      "stateMutability": "nonpayable",
      "type": "function"
    },
    {
      "constant": true,
      "inputs": [],
      "name": "getMarketCount",
      "outputs": [
        {
          "name": "",
          "type": "uint256"
        }
      ],
      "payable": false,
      "stateMutability": "view",
      "type": "function"
    }
  ],
  "bytecode": "0x6005805460a060020a60ff0219600160a060020a0319909116733dd39b55fcaae9067a3383d3c065b3c71ed4477b171681556601c6bf52634000600681905560079190915560006009556001600b556109c4600c55600d55600e805460ff19169055610260604052603c6080908152607860a05260f060c0526101e060e08190526103c06101005261078061012052610e1061014052611c2061016052613840610180526170806101a05261e1006101c0526201518090526202a30061020052620546006102205262093a8061024052620000df90601690600f620001e0565b506000601f8190556020805460a060020a60ff0219169055611c2060215560228190556001602381905560248190556025805460ff1916601417905560288190556029829055602b829055602d8290558154600160a060020a03338116600160a060020a03199283168117909455600280548316851790556003805483168517905582549091169092179055600554620001839116640100000000620001b1810204565b506020805460a060020a60ff02191674010000000000000000000000000000000000000000179055620002aa565b60048054600160a060020a03909216600160a060020a0319928316811790915560208054909216179055600090565b600283019183908215620002715791602002820160005b838211156200023d57835183826101000a81548163ffffffff021916908363ffffffff1602179055509260200192600401602081600301049283019260010302620001f7565b80156200026f5782816101000a81549063ffffffff02191690556004016020816003010492830192600103026200023d565b505b506200027f92915062000283565b5090565b620002a791905b808211156200027f57805463ffffffff191681556001016200028a565b90565b6124e280620002ba6000396000f30060806040526004361061034d5763ffffffff7c010000000000000000000000000000000000000000000000000000000060003504166303602e9e811461035257806305caca6c1461038357806306873418146103a657806306fdde03146103e25780630847c7a21461046c57806309828a471461049c57806312448c32146104c5578063146c1b5e146104ff57806314c588de1461051d57806314f1cf0c1461053557806318160ddd14610553578063193d5b77146105685780631e923f1b146105865780631ee550801461059b57806323b7ec3b146105b95780632573751f146105d757806327904ee0146105f25780632a335c1714610610578063308c00651461062e578063335061151461064c5780633c9ff012146106615780633ec27c4a14610676578063433bd9241461068e5780634b72bbaf146106ac5780634e2fd44e146106ca5780634fd839c6146106eb578063553fd0431461070957806359dc2eec1461072157806359e4eec91461077a5780635ceb8bc81461079b57806362075af4146107b0578063625101d5146107da5780636b533057146107ef57806370a082311461080d57806370a7e2dd1461082e57806370d4d7b4146108b65780637214d6c3146108cb5780637230ef7f146108e0578063731f49b7146108f557806374479db01461090a5780637759187f1461091f5780637878b66a1461093d5780637cbd5444146109525780637ea2bbac1461096757806380097484146109885780638231ee98146109b257806384269ed9146109c7578063847ec2de146109f757806384fcfb3414610a0c5780638638fc3c14610a2457806395d89b4114610a455780639d6fac6f14610a5a5780639fa0fe1014610a72578063a210a67614610a93578063a7e9454214610aa4578063ad5a157d14610ace578063c17c045614610ae3578063c7191bc714610af8578063d00dbcb014610b0d578063dc17c9ca14610b31578063df4b297014610bad578063e8defac714610c03578063eea23d8a14610c1b578063ef229dc714610c33578063f2fde38b14610c4b578063f3cee12914610c6c578063f628842214610c81578063f65045df14610c96578063fae8c29e14610cab578063fb6c2b6f14610cc0578063fd69f3c214610cde578063fdaacf1b14610cf3575b600080fd5b34801561035e57600080fd5b50610367610d14565b60408051600160a060020a039092168252519081900360200190f35b34801561038f57600080fd5b506103a4600160a060020a0360043516610d41565b005b3480156103b257600080fd5b506103c463ffffffff60043516610d97565b60408051938452602084019290925282820152519081900360600190f35b3480156103ee57600080fd5b506103f7610e56565b6040805160208082528351818301528351919283929083019185019080838360005b83811015610431578181015183820152602001610419565b50505050905090810190601f16801561045e5780820380516001836020036101000a031916815260200191505b509250505060405180910390f35b34801561047857600080fd5b5061048a63ffffffff60043516610e8d565b60408051918252519081900360200190f35b3480156104a857600080fd5b506104b1610e9f565b604080519115158252519081900360200190f35b3480156104d157600080fd5b506104e663ffffffff60043516602435610ea8565b6040805163ffffffff9092168252519081900360200190f35b34801561050b57600080fd5b5061048a63ffffffff60043516610ee4565b34801561052957600080fd5b506103a4600435610ef6565b34801561054157600080fd5b5061036763ffffffff60043516610f16565b34801561055f57600080fd5b5061048a610f31565b34801561057457600080fd5b506104b163ffffffff60043516610f37565b34801561059257600080fd5b50610367610f53565b3480156105a757600080fd5b5061048a63ffffffff60043516610f62565b3480156105c557600080fd5b5061036763ffffffff60043516610f7a565b3480156105e357600080fd5b506104e6600435602435610f9b565b3480156105fe57600080fd5b5061048a63ffffffff60043516610fe3565b34801561061c57600080fd5b5061048a63ffffffff60043516611047565b34801561063a57600080fd5b5061048a63ffffffff6004351661105f565b34801561065857600080fd5b506104b16110be565b34801561066d57600080fd5b5061048a611120565b34801561068257600080fd5b506103a4600435611126565b34801561069a57600080fd5b506104b163ffffffff60043516611161565b3480156106b857600080fd5b5061048a63ffffffff6004351661125c565b3480156106d657600080fd5b506104b1600160a060020a0360043516611320565b3480156106f757600080fd5b5061048a63ffffffff6004351661135c565b34801561071557600080fd5b506103a4600435611374565b34801561072d57600080fd5b506107396004356113af565b6040805163ffffffff9889168152969097166020870152858701949094526060850192909252608084015260a083015260c082015290519081900360e00190f35b34801561078657600080fd5b5061048a63ffffffff60043516602435611409565b3480156107a757600080fd5b506104b16114bf565b3480156107bc57600080fd5b506103a463ffffffff60043516600160a060020a0360243516611507565b3480156107e657600080fd5b50610367611568565b3480156107fb57600080fd5b5061048a63ffffffff60043516611594565b34801561081957600080fd5b5061048a600160a060020a03600435166115a6565b34801561083a57600080fd5b5061084c63ffffffff600435166115c1565b6040805163ffffffff9d8e1681529b909c1660208c01528a8c019990995260608a0197909752608089019590955260a088019390935260c0870191909152151560e08601526101008501526101208401526101408301526101608201529051908190036101800190f35b3480156108c257600080fd5b5061048a6117ae565b3480156108d757600080fd5b506104b16117b4565b3480156108ec57600080fd5b5061048a6117b9565b34801561090157600080fd5b506104e66117bf565b34801561091657600080fd5b506104b16117cb565b34801561092b57600080fd5b5061048a63ffffffff600435166117ec565b34801561094957600080fd5b506104b16117fe565b34801561095e57600080fd5b506104b1611820565b34801561097357600080fd5b506104b1600160a060020a03600435166118af565b34801561099457600080fd5b506103a4600160a060020a036004351663ffffffff602435166118cd565b3480156109be57600080fd5b5061048a611995565b3480156109d357600080fd5b506104b1600160a060020a036004358116906024351663ffffffff6044351661199b565b348015610a0357600080fd5b5061048a611a66565b348015610a1857600080fd5b506103a4600435610d94565b348015610a3057600080fd5b506103a4600160a060020a0360043516611a6c565b348015610a5157600080fd5b506103f7611ac3565b348015610a6657600080fd5b506104e6600435611afa565b348015610a7e57600080fd5b506103a463ffffffff60043516602435611b27565b6103a463ffffffff60043516611b3e565b348015610ab057600080fd5b506104b1600160a060020a036004351663ffffffff60243516611c9c565b348015610ada57600080fd5b5061048a611ca4565b348015610aef57600080fd5b50610367611caa565b348015610b0457600080fd5b50610367611cb9565b348015610b1957600080fd5b506104e6600160a060020a0360043516602435611ce5565b348015610b3d57600080fd5b50610b52600160a060020a0360043516611d00565b6040518083815260200180602001828103825283818151815260200191508051906020019060200280838360005b83811015610b98578181015183820152602001610b80565b50505050905001935050505060405180910390f35b348015610bb957600080fd5b50610bcb63ffffffff60043516611d9d565b604051808260a080838360005b83811015610bf0578181015183820152602001610bd8565b5050505090500191505060405180910390f35b348015610c0f57600080fd5b5061048a600435611e16565b348015610c2757600080fd5b506103a4600435611e62565b348015610c3f57600080fd5b506103a4600435611e82565b348015610c5757600080fd5b506103a4600160a060020a0360043516611ebd565b348015610c7857600080fd5b50610367611f14565b348015610c8d57600080fd5b5061048a611f40565b348015610ca257600080fd5b5061048a611f46565b348015610cb757600080fd5b506103a4611f4c565b348015610ccc57600080fd5b5061048a63ffffffff60043516611f7b565b348015610cea57600080fd5b5061048a61201c565b348015610cff57600080fd5b506103a4600160a060020a0360043516612022565b6000805433600160a060020a03908116911614610d3057600080fd5b50600454600160a060020a03165b90565b60005433600160a060020a03908116911614610d5c57600080fd5b600160a060020a03811615610d94576003805473ffffffffffffffffffffffffffffffffffffffff1916600160a060020a0383161790555b50565b600080600060186001850363ffffffff16815481101515610db457fe5b9060005260206000209060060201600201549150600e821115610dd657600e91505b6018805463ffffffff600019870116908110610dee57fe5b906000526020600020906006020160030154601683600f81101515610e0f57fe5b600891828204019190066004029054906101000a900463ffffffff1663ffffffff1601925042831115610e4f57610e4c834263ffffffff61206c16565b90505b9193909250565b60408051808201909152600d81527f43727970746f5261626269747300000000000000000000000000000000000000602082015281565b60136020526000908152604090205481565b600e5460ff1681565b60106020526000828152604090208160058110610ec157fe5b60089182820401919006600402915091509054906101000a900463ffffffff1681565b60116020526000908152604090205481565b60005433600160a060020a03908116911614610f1157600080fd5b600c55565b601960205260009081526040902054600160a060020a031681565b601f5490565b63ffffffff166000908152601d602052604090205460ff161590565b600554600160a060020a031681565b63ffffffff1660009081526011602052604090205490565b63ffffffff16600090815260196020526040902054600160a060020a031690565b601460205281600052604060002081815481101515610fb657fe5b9060005260206000209060089182820401919006600402915091509054906101000a900463ffffffff1681565b6000805b60058110156110415763ffffffff83166000908152601060205260409020816005811061101057fe5b60088104919091015460079091166004026101000a900463ffffffff1615611039576001909101905b600101610fe7565b50919050565b63ffffffff166000908152600f602052604090205490565b63ffffffff81166000908152602e602052604081205481808211156110b75761108f82606463ffffffff61207e16565b90506110a281600563ffffffff61209a16565b90506110b4828263ffffffff6120cc16565b92505b5050919050565b6000805433600160a060020a039081169116146110da57600080fd5b506005805474ff0000000000000000000000000000000000000000198116740100000000000000000000000000000000000000009182900460ff16159182021790915590565b600b5481565b60025433600160a060020a0390811691161480611151575060005433600160a060020a039081169116145b151561115c57600080fd5b600b55565b60001901600080808063ffffffff8516151561117c57611254565b6018805463ffffffff871690811061119057fe5b906000526020600020906006020160030154925060188563ffffffff168154811015156111b957fe5b9060005260206000209060060201600201549150601682600f811015156111dc57fe5b600891828204019190066004029054906101000a900463ffffffff1663ffffffff16905061121383826120cc90919063ffffffff16565b905042811115801561124a57506018805463ffffffff871690811061123457fe5b9060005260206000209060060201600401546000145b1561125457600193505b505050919050565b60008060008060186001860363ffffffff1681548110151561127a57fe5b906000526020600020906006020160040154600114156113175763ffffffff85166000908152601360205260409020546064900492506112c183601963ffffffff61209a16565b91506112d86007548461209a90919063ffffffff16565b63ffffffff8087166000908152601360205260409020549192506112fe9184916120cc16565b9150611310828263ffffffff6120cc16565b9350611254565b60009350611254565b60048054600160a060020a0390921673ffffffffffffffffffffffffffffffffffffffff19928316811790915560208054909216179055600090565b63ffffffff1660009081526015602052604090205490565b60025433600160a060020a039081169116148061139f575060005433600160a060020a039081169116145b15156113aa57600080fd5b602a55565b60188054829081106113bd57fe5b600091825260209091206006909102018054600182015460028301546003840154600485015460059095015463ffffffff80861697506401000000009095049094169492939192909187565b60006114136117fe565b151561141e57600080fd5b60065482101561142d57600080fd5b63ffffffff831660009081526019602052604090205433600160a060020a0390811691161461145b57600080fd5b63ffffffff83166000818152602e60209081526040918290208590558151928352820184905280517fae8365010d3a77defa2d2909289a7792338a008a7be42c339b0162045093a9629281900390910190a150602280546001810190915592915050565b60035460009033600160a060020a03908116911614806114ed575060005433600160a060020a039081169116145b156114fa57506001610d3e565b50600e5460ff1615610d3e565b63ffffffff821660009081526019602052604090205433600160a060020a0390811691161461153557600080fd5b63ffffffff82166000908152601d602052604090205460ff161561155857600080fd5b61156333828461199b565b505050565b6000805433600160a060020a0390811691161461158457600080fd5b50600154600160a060020a031690565b600f6020526000908152604090205481565b600160a060020a03166000908152601a602052604090205490565b6000806000806000806000806000806000806115dc8d61125c565b915060018d039c5060188d63ffffffff168154811015156115f957fe5b60009182526020909120600690910201546018805463ffffffff9283169e5090918f1690811061162557fe5b60009182526020909120600690910201546018805463ffffffff64010000000090930483169d5090918f1690811061165957fe5b906000526020600020906006020160010154995060188d63ffffffff1681548110151561168257fe5b906000526020600020906006020160020154985060188d63ffffffff168154811015156116ab57fe5b906000526020600020906006020160030154975060188d63ffffffff168154811015156116d457fe5b906000526020600020906006020160040154965060188d63ffffffff168154811015156116fd57fe5b9060005260206000209060060201600501549550600e89111561171f57600e98505b5063ffffffff8c16600090815260116020526040902054601689600f811061174357fe5b600891828204019190066004029054906101000a900463ffffffff1663ffffffff16925061177a88846120cc90919063ffffffff16565b925042831161178c576001945061179f565b61179c834263ffffffff61206c16565b93505b91939597999b5091939597999b565b600c5481565b600190565b60095481565b60085463ffffffff1681565b60205474010000000000000000000000000000000000000000900460ff1681565b60126020526000908152604090205481565b60055474010000000000000000000000000000000000000000900460ff161590565b60208054604080517fccb0893d0000000000000000000000000000000000000000000000000000000081529051600093600160a060020a039093169263ccb0893d926004808201939182900301818787803b15801561187e57600080fd5b505af1158015611892573d6000803e3d6000fd5b505050506040513d60208110156118a857600080fd5b5051905090565b600160a060020a03166000908152601e602052604090205460ff1690565b63ffffffff81166000908152601960205260409020543390600160a060020a0390811690821681146118fe57600080fd5b600160a060020a03828116908516141561191757600080fd5b600160a060020a038416151561192c57600080fd5b61193681846120db565b6119408484612307565b60408051600160a060020a0380841682528616602082015263ffffffff85168183015290517f0daf680c3f528a8760b5142fe1f6f80d5f4ea18bb76f347a7a44a2d565c2b7dc9181900360600190a150505050565b600a5481565b63ffffffff8116600090815260196020526040812054600160a060020a0390811690851681146119ca57600080fd5b600160a060020a0381811690851614156119e357600080fd5b600160a060020a03841615156119f857600080fd5b611a0281846120db565b611a0c8484612307565b60408051600160a060020a0380841682528616602082015263ffffffff85168183015290517f0daf680c3f528a8760b5142fe1f6f80d5f4ea18bb76f347a7a44a2d565c2b7dc9181900360600190a1506001949350505050565b601f5481565b60005433600160a060020a03908116911614611a8757600080fd5b600160a060020a03811615610d945760028054600160a060020a03831673ffffffffffffffffffffffffffffffffffffffff1990911617905550565b60408051808201909152600381527f4352420000000000000000000000000000000000000000000000000000000000602082015281565b601681600f8110611b0757fe5b60089182820401919006600402915054906101000a900463ffffffff1681565b611b2f6117fe565b1515611b3a57600080fd5b5050565b6000611b486117fe565b1515611b5357600080fd5b63ffffffff821660009081526019602052604090205433600160a060020a0390811691161415611b8257600080fd5b611b8b8261105f565b9050803410158015611b9c57508015155b1515611ba757600080fd5b602d8054600101905563ffffffff8216600090815260196020526040902054611bd990600160a060020a0316346123d4565b63ffffffff8216600090815260196020526040902054611c0390600160a060020a0316338461199b565b50611c0d82611f7b565b506040805163ffffffff841681526020810183905281517faa8b4456e402faf0f19bd69217f4f33657a1be47890a1c1130fba16e233d04c0929181900390910190a160408051600160a060020a033316815263ffffffff8416602082015281517fbe094b3f5b6f49f63819500ee3f9149336c47d4b6d3c809583c9ed3b5a458b3e929181900390910190a15050565b600092915050565b600d5481565b600054600160a060020a031681565b6000805433600160a060020a03908116911614611cd557600080fd5b50600254600160a060020a031690565b601a60205281600052604060002081815481101515610fb657fe5b600160a060020a0381166000908152601a60209081526040918290208054835181840281018401909452808452926060929091908490830182828015611d9157602002820191906000526020600020906000905b82829054906101000a900463ffffffff1663ffffffff1681526020019060040190602082600301049283019260010382029150808411611d545790505b50505050509050915091565b611da561244f565b63ffffffff8216600090815260106020526040808220815160a08101928390529290916005918390855b82829054906101000a900463ffffffff1663ffffffff1681526020019060040190602082600301049283019260010382029150808411611dcf575094979650505050505050565b60025460009033600160a060020a0390811691161480611e44575060005433600160a060020a039081169116145b1515611e4f57600080fd5b5060238190556201518002602481905590565b60005433600160a060020a03908116911614611e7d57600080fd5b600d55565b60025433600160a060020a0390811691161480611ead575060005433600160a060020a039081169116145b1515611eb857600080fd5b602155565b60005433600160a060020a03908116911614611ed857600080fd5b600160a060020a03811615610d945760008054600160a060020a03831673ffffffffffffffffffffffffffffffffffffffff1990911617905550565b6000805433600160a060020a03908116911614611f3057600080fd5b50600354600160a060020a031690565b60075481565b602d5481565b60005433600160a060020a03908116911614611f6757600080fd5b600e805460ff19811660ff90911615179055565b6000611f856117fe565b1515611f9057600080fd5b63ffffffff821660009081526019602052604090205433600160a060020a03908116911614611fbe57600080fd5b63ffffffff82166000818152602e6020908152604080832092909255815192835290517ff58a4f70d4c7b287095adb658be31ce93550932214806e2535581c2c4d7f30bd9281900390910190a1505060228054600019810190915590565b60225490565b60005433600160a060020a0390811691161461203d57600080fd5b6001805473ffffffffffffffffffffffffffffffffffffffff1916600160a060020a0392909216919091179055565b60008282111561207857fe5b50900390565b600080828481151561208c57fe5b0490508091505b5092915050565b6000808315156120ad5760009150612093565b508282028284828115156120bd57fe5b04146120c557fe5b9392505050565b6000828201838110156120c557fe5b600160a060020a0382166000908152601a6020526040812054905b8181101561230157600160a060020a0384166000908152601a60205260409020805463ffffffff851691908390811061212b57fe5b6000918252602090912060088204015460079091166004026101000a900463ffffffff1614156122f957600160a060020a0384166000908152601a6020526040902080548290811061217957fe5b90600052602060002090600891828204019190066004026101000a81549063ffffffff02191690556000821180156121b45750600181038214155b156122ca57600160a060020a0384166000908152601a60205260409020805460001984019081106121e157fe5b90600052602060002090600891828204019190066004029054906101000a900463ffffffff16601a600086600160a060020a0316600160a060020a031681526020019081526020016000208281548110151561223957fe5b90600052602060002090600891828204019190066004026101000a81548163ffffffff021916908363ffffffff160217905550601a600085600160a060020a0316600160a060020a03168152602001908152602001600020600183038154811015156122a157fe5b90600052602060002090600891828204019190066004026101000a81549063ffffffff02191690555b600160a060020a0384166000908152601a602052604090208054906122f390600019830161246e565b50612301565b6001016120f6565b50505050565b600160a060020a0382166000818152601a602090815260408083208054600181018255908452928290206008840401805463ffffffff80881660046007909716969096026101000a86810291021990911617905580519384529083019190915280517ffa8e2129ea92b2ced664f0497f946a9596ced2af4bd0950bfccd6c6e2078103a9281900390910190a163ffffffff166000908152601960205260409020805473ffffffffffffffffffffffffffffffffffffffff1916600160a060020a0392909216919091179055565b604051600160a060020a03831690605f606484040280156108fc02916000818181858888f1935050505015801561240f573d6000803e3d6000fd5b50600154604051600160a060020a03909116906005606484040280156108fc02916000818181858888f19350505050158015611563573d6000803e3d6000fd5b60a0604051908101604052806005906020820280388339509192915050565b8154818355818111156115635760008381526020902061156391610d3e9160086007928301819004820192860104015b808211156124b2576000815560010161249e565b50905600a165627a7a723058202bcaadc0ced67c4aadfba544dbf8986b4cd97e50a4e961c05803cc51c13c3a7e0029",
  "source": "pragma solidity ^0.4.23;\nimport \"./BodyRabbit.sol\"; \n\n/**\n* sale and bye Rabbits\n*/\ncontract RabbitMarket is BodyRabbit {\n\n    event SendBunny(address newOwnerBunny, uint32 bunnyId);\n    event StopMarket(uint32 bunnyId);\n    event StartMarket(uint32 bunnyId, uint money);\n    event BunnyBuy(uint32 bunnyId, uint money);\n \n\n // Long time\n    uint stepMoney = 2*60*60;\n           \n    function setStepMoney(uint money) public onlyTech {\n        stepMoney = money;\n    }\n    /**\n    * @dev number of rabbits participating in the auction\n    */\n    uint marketCount = 0; \n\n    uint daysperiod = 1;\n    uint sec = 1;\n    //          \n    uint8 middlelast = 20;\n    \n    /***\n    * @param period      \n    */\n    function setDayPeriod(uint period) public onlyTech returns(uint256) {\n        daysperiod = period;\n        sec = daysperiod * 24*60*60;\n        return  sec;\n    }\n     \n     \n    //        \n    mapping(uint32 => uint256[]) internal marketRabbits;\n    //     \n    \n    /**\n    */\n    struct Clisedbid {\n        uint32 rabbitID;\n        address rabbitSeller;\n        uint64 timeBid; \n    }\n    \n    Clisedbid[] clisedbidRabbits;\n     \n    \n    //    \n    uint256 middlePriceMoney = 1;\n    //   \n    uint256 middleSaleTime = 0; \n    //     \n    uint moneyRange;\n\n    /**\n    * @param _money  \n     */\n    function setMoneyRange(uint _money) public onlyTech {\n        moneyRange = _money;\n    }\n     \n    // the last cost of a sold seal\n    uint lastmoney = 0;  \n    // the time which was spent on the sale of the cat\n    uint lastTimeGen0;\n\n \n    /**\n    * @param  money;\n    * @param  timeStart; \n    * @param  timeFinish; \n    */\n  //  struct BidClosed {\n     //   uint money;\n     //   uint timeRange;  \n  //  }\n    /**\n    * @param  BidClosed \n    */\n   // mapping(uint=>BidClosed) sellerOfRabbit;\n \n    //how many closed auctions\n    uint public totalClosedBID = 0;\n     \n    mapping (uint32 => uint) bunnyCost; \n    mapping(uint32 => uint) bidsIndex;\n \n\n    /**\n    * @dev get rabbit price\n    */\n    function currentPrice(uint32 _bunnyid) public view returns(uint) {\n\n        uint money = bunnyCost[_bunnyid];\n        if (money > 0) {\n            uint moneyComs = money.div(100);\n            moneyComs = moneyComs.mul(5);\n            return money.add(moneyComs);\n        }\n    }\n\n\n\n  function startMarket(uint32 _bunnyid, uint _money) public returns (uint) {\n        require(isPauseSave());\n        require(_money >= bigPrice);\n        require(rabbitToOwner[_bunnyid] ==  msg.sender);\n        bunnyCost[_bunnyid] = _money;\n        emit StartMarket(_bunnyid, _money);\n        return marketCount++;\n    }\n\n\n\n\n\n\n    // https://ethereum.stackexchange.com/questions/1527/how-to-delete-an-element-at-a-certain-index-in-an-array\n    function stopMarket(uint32 _bunnyid) public returns(uint) {\n        require(isPauseSave());\n        require(rabbitToOwner[_bunnyid] == msg.sender);  \n        bunnyCost[_bunnyid] = 0;\n        emit StopMarket(_bunnyid);\n        return marketCount--;\n    }\n \n \n\n    /**\n    * @dev Acquisition of a rabbit from another user\n    * @param _bunnyid  Bunny\n     */\n    function buyBunny(uint32 _bunnyid) public payable {\n        require(isPauseSave());\n        require(rabbitToOwner[_bunnyid] != msg.sender);\n        uint price = currentPrice(_bunnyid);\n\n        require(msg.value >= price && 0 != price);\n\n        // stop trading on the current rabbit\n        totalClosedBID++;\n        // Sending money to the old user\n        sendMoney(rabbitToOwner[_bunnyid], msg.value);\n        // is sent to the new owner of the bought rabbit\n        transferFrom(rabbitToOwner[_bunnyid], msg.sender, _bunnyid); \n        stopMarket(_bunnyid); \n\n        emit BunnyBuy(_bunnyid, price);\n        emit SendBunny (msg.sender, _bunnyid);\n    }\n \n \n\n    /**\n    * @dev removal from the market rabbit\n    */\n    function deleteRabbitMarket(uint rabbitid) public pure { \n        rabbitid; \n    } \n\n    /**\n    * @param rabbitid rabbit in relation to whom reduce the cost\n    */\n    function bidMarket(uint32 rabbitid, uint step) public view { \n        require(isPauseSave());\n        rabbitid;\n        step;\n    }\n\n    \n    /**\n    * @dev give a rabbit to a specific user\n    * @param add new address owner rabbits\n    */\n    function giff(uint32 bunnyid, address add) public {\n        require(rabbitToOwner[bunnyid] == msg.sender);\n        // a rabbit taken for free can not be given\n        require(!(giffblock[bunnyid]));\n        transferFrom(msg.sender, add, bunnyid);\n    }\n\n    function getMarketCount() public view returns(uint) {\n        return marketCount;\n    }\n}\n",
  "sourcePath": "/home/koras/contracts/publicRabbit/pub/contracts/RabbitMarket.sol",
  "compiler": {
    "name": "solc",
    "version": "0.4.23+commit.124ca40d.Emscripten.clang"
  },
  "schemaVersion": "2.0.0",
  "updatedAt": "2018-06-28T21:33:24.546Z"
}