{
  "contractName": "RabbitMarket",
  "abi": [
    {
      "constant": true,
      "inputs": [],
      "name": "getPrivAddress",
      "outputs": [
        {
          "name": "",
          "type": "address"
        }
      ],
      "payable": false,
      "stateMutability": "view",
      "type": "function"
    },
    {
      "constant": false,
      "inputs": [
        {
          "name": "add",
          "type": "address"
        }
      ],
      "name": "transferOwnershipServer",
      "outputs": [],
      "payable": false,
      "stateMutability": "nonpayable",
      "type": "function"
    },
    {
      "constant": true,
      "inputs": [
        {
          "name": "_mother",
          "type": "uint32"
        }
      ],
      "name": "getcoolduwn",
      "outputs": [
        {
          "name": "lastTime",
          "type": "uint256"
        },
        {
          "name": "cd",
          "type": "uint256"
        },
        {
          "name": "lefttime",
          "type": "uint256"
        }
      ],
      "payable": false,
      "stateMutability": "view",
      "type": "function"
    },
    {
      "constant": true,
      "inputs": [],
      "name": "name",
      "outputs": [
        {
          "name": "",
          "type": "string"
        }
      ],
      "payable": false,
      "stateMutability": "view",
      "type": "function"
    },
    {
      "constant": true,
      "inputs": [
        {
          "name": "",
          "type": "uint32"
        }
      ],
      "name": "rabbitSirePrice",
      "outputs": [
        {
          "name": "",
          "type": "uint256"
        }
      ],
      "payable": false,
      "stateMutability": "view",
      "type": "function"
    },
    {
      "constant": true,
      "inputs": [
        {
          "name": "",
          "type": "uint32"
        },
        {
          "name": "",
          "type": "uint256"
        }
      ],
      "name": "rabbitMother",
      "outputs": [
        {
          "name": "",
          "type": "uint32"
        }
      ],
      "payable": false,
      "stateMutability": "view",
      "type": "function"
    },
    {
      "constant": false,
      "inputs": [
        {
          "name": "_promoGen0",
          "type": "uint256"
        }
      ],
      "name": "setPromoGen0",
      "outputs": [],
      "payable": false,
      "stateMutability": "nonpayable",
      "type": "function"
    },
    {
      "constant": true,
      "inputs": [
        {
          "name": "",
          "type": "uint32"
        }
      ],
      "name": "rabbitToOwner",
      "outputs": [
        {
          "name": "",
          "type": "address"
        }
      ],
      "payable": false,
      "stateMutability": "view",
      "type": "function"
    },
    {
      "constant": true,
      "inputs": [],
      "name": "totalSupply",
      "outputs": [
        {
          "name": "total",
          "type": "uint32"
        }
      ],
      "payable": false,
      "stateMutability": "view",
      "type": "function"
    },
    {
      "constant": true,
      "inputs": [
        {
          "name": "_bunnyid",
          "type": "uint32"
        }
      ],
      "name": "getGiffBlock",
      "outputs": [
        {
          "name": "",
          "type": "bool"
        }
      ],
      "payable": false,
      "stateMutability": "view",
      "type": "function"
    },
    {
      "constant": true,
      "inputs": [],
      "name": "myAddr_test",
      "outputs": [
        {
          "name": "",
          "type": "address"
        }
      ],
      "payable": false,
      "stateMutability": "view",
      "type": "function"
    },
    {
      "constant": true,
      "inputs": [
        {
          "name": "_tokenId",
          "type": "uint32"
        }
      ],
      "name": "ownerOf",
      "outputs": [
        {
          "name": "owner",
          "type": "address"
        }
      ],
      "payable": false,
      "stateMutability": "view",
      "type": "function"
    },
    {
      "constant": false,
      "inputs": [],
      "name": "setPauseSave",
      "outputs": [
        {
          "name": "",
          "type": "bool"
        }
      ],
      "payable": false,
      "stateMutability": "nonpayable",
      "type": "function"
    },
    {
      "constant": true,
      "inputs": [],
      "name": "timeRangeCreateGen0",
      "outputs": [
        {
          "name": "",
          "type": "uint256"
        }
      ],
      "payable": false,
      "stateMutability": "view",
      "type": "function"
    },
    {
      "constant": false,
      "inputs": [
        {
          "name": "_sec",
          "type": "uint256"
        }
      ],
      "name": "setTimeRangeGen0",
      "outputs": [],
      "payable": false,
      "stateMutability": "nonpayable",
      "type": "function"
    },
    {
      "constant": true,
      "inputs": [
        {
          "name": "_bunny",
          "type": "uint32"
        }
      ],
      "name": "getBreed",
      "outputs": [
        {
          "name": "interbreed",
          "type": "bool"
        }
      ],
      "payable": false,
      "stateMutability": "view",
      "type": "function"
    },
    {
      "constant": true,
      "inputs": [
        {
          "name": "",
          "type": "uint256"
        }
      ],
      "name": "bidsArray",
      "outputs": [
        {
          "name": "rabbitID",
          "type": "uint32"
        },
        {
          "name": "startMoney",
          "type": "uint256"
        },
        {
          "name": "timeStart",
          "type": "uint256"
        }
      ],
      "payable": false,
      "stateMutability": "view",
      "type": "function"
    },
    {
      "constant": true,
      "inputs": [
        {
          "name": "_tokenId",
          "type": "uint32"
        }
      ],
      "name": "getSirePrice",
      "outputs": [
        {
          "name": "",
          "type": "uint256"
        }
      ],
      "payable": false,
      "stateMutability": "view",
      "type": "function"
    },
    {
      "constant": false,
      "inputs": [
        {
          "name": "_privAddress",
          "type": "address"
        }
      ],
      "name": "setPriv",
      "outputs": [
        {
          "name": "",
          "type": "bool"
        }
      ],
      "payable": false,
      "stateMutability": "nonpayable",
      "type": "function"
    },
    {
      "constant": true,
      "inputs": [
        {
          "name": "bunnyid",
          "type": "uint32"
        }
      ],
      "name": "getRabbitDNK",
      "outputs": [
        {
          "name": "",
          "type": "uint256"
        }
      ],
      "payable": false,
      "stateMutability": "view",
      "type": "function"
    },
    {
      "constant": true,
      "inputs": [
        {
          "name": "",
          "type": "uint256"
        }
      ],
      "name": "rabbits",
      "outputs": [
        {
          "name": "mother",
          "type": "uint32"
        },
        {
          "name": "sire",
          "type": "uint32"
        },
        {
          "name": "birthblock",
          "type": "uint256"
        },
        {
          "name": "birthCount",
          "type": "uint256"
        },
        {
          "name": "birthLastTime",
          "type": "uint256"
        },
        {
          "name": "role",
          "type": "uint256"
        },
        {
          "name": "genome",
          "type": "uint256"
        }
      ],
      "payable": false,
      "stateMutability": "view",
      "type": "function"
    },
    {
      "constant": true,
      "inputs": [],
      "name": "getOwnerMoney",
      "outputs": [
        {
          "name": "",
          "type": "address"
        }
      ],
      "payable": false,
      "stateMutability": "view",
      "type": "function"
    },
    {
      "constant": true,
      "inputs": [
        {
          "name": "",
          "type": "uint32"
        }
      ],
      "name": "totalSalaryBunny",
      "outputs": [
        {
          "name": "",
          "type": "uint256"
        }
      ],
      "payable": false,
      "stateMutability": "view",
      "type": "function"
    },
    {
      "constant": true,
      "inputs": [
        {
          "name": "_owner",
          "type": "address"
        }
      ],
      "name": "balanceOf",
      "outputs": [
        {
          "name": "",
          "type": "uint256"
        }
      ],
      "payable": false,
      "stateMutability": "view",
      "type": "function"
    },
    {
      "constant": true,
      "inputs": [
        {
          "name": "_bunny",
          "type": "uint32"
        }
      ],
      "name": "getBunny",
      "outputs": [
        {
          "name": "mother",
          "type": "uint32"
        },
        {
          "name": "sire",
          "type": "uint32"
        },
        {
          "name": "birthblock",
          "type": "uint256"
        },
        {
          "name": "birthCount",
          "type": "uint256"
        },
        {
          "name": "birthLastTime",
          "type": "uint256"
        },
        {
          "name": "role",
          "type": "uint256"
        },
        {
          "name": "genome",
          "type": "uint256"
        },
        {
          "name": "interbreed",
          "type": "bool"
        },
        {
          "name": "leftTime",
          "type": "uint256"
        },
        {
          "name": "lastTime",
          "type": "uint256"
        },
        {
          "name": "price",
          "type": "uint256"
        }
      ],
      "payable": false,
      "stateMutability": "view",
      "type": "function"
    },
    {
      "constant": true,
      "inputs": [],
      "name": "promoGen0",
      "outputs": [
        {
          "name": "",
          "type": "uint256"
        }
      ],
      "payable": false,
      "stateMutability": "view",
      "type": "function"
    },
    {
      "constant": true,
      "inputs": [],
      "name": "isUIntPublic",
      "outputs": [
        {
          "name": "",
          "type": "bool"
        }
      ],
      "payable": false,
      "stateMutability": "pure",
      "type": "function"
    },
    {
      "constant": true,
      "inputs": [],
      "name": "totalGen0",
      "outputs": [
        {
          "name": "",
          "type": "uint256"
        }
      ],
      "payable": false,
      "stateMutability": "view",
      "type": "function"
    },
    {
      "constant": true,
      "inputs": [],
      "name": "lastIdGen0",
      "outputs": [
        {
          "name": "",
          "type": "uint32"
        }
      ],
      "payable": false,
      "stateMutability": "view",
      "type": "function"
    },
    {
      "constant": true,
      "inputs": [],
      "name": "fcontr",
      "outputs": [
        {
          "name": "",
          "type": "bool"
        }
      ],
      "payable": false,
      "stateMutability": "view",
      "type": "function"
    },
    {
      "constant": true,
      "inputs": [],
      "name": "isPauseSave",
      "outputs": [
        {
          "name": "",
          "type": "bool"
        }
      ],
      "payable": false,
      "stateMutability": "view",
      "type": "function"
    },
    {
      "constant": false,
      "inputs": [
        {
          "name": "children",
          "type": "uint32"
        },
        {
          "name": "mother",
          "type": "uint32"
        }
      ],
      "name": "setRabbitMother",
      "outputs": [
        {
          "name": "start",
          "type": "uint256"
        }
      ],
      "payable": false,
      "stateMutability": "nonpayable",
      "type": "function"
    },
    {
      "constant": true,
      "inputs": [],
      "name": "isPriv",
      "outputs": [
        {
          "name": "",
          "type": "bool"
        }
      ],
      "payable": false,
      "stateMutability": "view",
      "type": "function"
    },
    {
      "constant": true,
      "inputs": [
        {
          "name": "_to",
          "type": "address"
        }
      ],
      "name": "getOwnerGennezise",
      "outputs": [
        {
          "name": "",
          "type": "bool"
        }
      ],
      "payable": false,
      "stateMutability": "view",
      "type": "function"
    },
    {
      "constant": true,
      "inputs": [],
      "name": "lastTimeGen0",
      "outputs": [
        {
          "name": "",
          "type": "uint256"
        }
      ],
      "payable": false,
      "stateMutability": "view",
      "type": "function"
    },
    {
      "constant": true,
      "inputs": [],
      "name": "totalBunny",
      "outputs": [
        {
          "name": "",
          "type": "uint32"
        }
      ],
      "payable": false,
      "stateMutability": "view",
      "type": "function"
    },
    {
      "constant": false,
      "inputs": [
        {
          "name": "add",
          "type": "address"
        }
      ],
      "name": "transferOwnershipTechnical",
      "outputs": [],
      "payable": false,
      "stateMutability": "nonpayable",
      "type": "function"
    },
    {
      "constant": true,
      "inputs": [],
      "name": "symbol",
      "outputs": [
        {
          "name": "",
          "type": "string"
        }
      ],
      "payable": false,
      "stateMutability": "view",
      "type": "function"
    },
    {
      "constant": true,
      "inputs": [
        {
          "name": "",
          "type": "uint256"
        }
      ],
      "name": "cooldowns",
      "outputs": [
        {
          "name": "",
          "type": "uint32"
        }
      ],
      "payable": false,
      "stateMutability": "view",
      "type": "function"
    },
    {
      "constant": false,
      "inputs": [
        {
          "name": "_to",
          "type": "address"
        },
        {
          "name": "_tokenId",
          "type": "uint32"
        }
      ],
      "name": "approve",
      "outputs": [],
      "payable": false,
      "stateMutability": "nonpayable",
      "type": "function"
    },
    {
      "constant": true,
      "inputs": [
        {
          "name": "mother",
          "type": "uint32"
        }
      ],
      "name": "getRabbitMotherCount",
      "outputs": [
        {
          "name": "count",
          "type": "uint256"
        }
      ],
      "payable": false,
      "stateMutability": "view",
      "type": "function"
    },
    {
      "constant": true,
      "inputs": [],
      "name": "promoMoney",
      "outputs": [
        {
          "name": "",
          "type": "uint256"
        }
      ],
      "payable": false,
      "stateMutability": "view",
      "type": "function"
    },
    {
      "constant": true,
      "inputs": [],
      "name": "ownerCEO",
      "outputs": [
        {
          "name": "",
          "type": "address"
        }
      ],
      "payable": false,
      "stateMutability": "view",
      "type": "function"
    },
    {
      "constant": true,
      "inputs": [],
      "name": "getOwnerTech",
      "outputs": [
        {
          "name": "",
          "type": "address"
        }
      ],
      "payable": false,
      "stateMutability": "view",
      "type": "function"
    },
    {
      "constant": true,
      "inputs": [
        {
          "name": "",
          "type": "address"
        },
        {
          "name": "",
          "type": "uint256"
        }
      ],
      "name": "ownerBunnies",
      "outputs": [
        {
          "name": "",
          "type": "uint32"
        }
      ],
      "payable": false,
      "stateMutability": "view",
      "type": "function"
    },
    {
      "constant": true,
      "inputs": [
        {
          "name": "owner",
          "type": "address"
        }
      ],
      "name": "getTokenOwner",
      "outputs": [
        {
          "name": "total",
          "type": "uint256"
        },
        {
          "name": "list",
          "type": "uint32[]"
        }
      ],
      "payable": false,
      "stateMutability": "view",
      "type": "function"
    },
    {
      "constant": true,
      "inputs": [
        {
          "name": "mother",
          "type": "uint32"
        }
      ],
      "name": "getRabbitMother",
      "outputs": [
        {
          "name": "",
          "type": "uint32[10]"
        }
      ],
      "payable": false,
      "stateMutability": "view",
      "type": "function"
    },
    {
      "constant": false,
      "inputs": [
        {
          "name": "_promoMoney",
          "type": "uint256"
        }
      ],
      "name": "setPromoMoney",
      "outputs": [],
      "payable": false,
      "stateMutability": "nonpayable",
      "type": "function"
    },
    {
      "constant": false,
      "inputs": [
        {
          "name": "add",
          "type": "address"
        }
      ],
      "name": "transferOwnership",
      "outputs": [],
      "payable": false,
      "stateMutability": "nonpayable",
      "type": "function"
    },
    {
      "constant": true,
      "inputs": [],
      "name": "getOwnerServer",
      "outputs": [
        {
          "name": "",
          "type": "address"
        }
      ],
      "payable": false,
      "stateMutability": "view",
      "type": "function"
    },
    {
      "constant": true,
      "inputs": [],
      "name": "totalClosedBID",
      "outputs": [
        {
          "name": "",
          "type": "uint256"
        }
      ],
      "payable": false,
      "stateMutability": "view",
      "type": "function"
    },
    {
      "constant": false,
      "inputs": [
        {
          "name": "_ownerMoney",
          "type": "address"
        }
      ],
      "name": "transferOwnerMoney",
      "outputs": [],
      "payable": false,
      "stateMutability": "nonpayable",
      "type": "function"
    },
    {
      "anonymous": false,
      "inputs": [
        {
          "indexed": false,
          "name": "newOwnerBunny",
          "type": "address"
        },
        {
          "indexed": false,
          "name": "bunnyId",
          "type": "uint32"
        }
      ],
      "name": "SendBunny",
      "type": "event"
    },
    {
      "anonymous": false,
      "inputs": [
        {
          "indexed": false,
          "name": "from",
          "type": "address"
        },
        {
          "indexed": false,
          "name": "to",
          "type": "address"
        },
        {
          "indexed": false,
          "name": "tokenId",
          "type": "uint32"
        }
      ],
      "name": "Transfer",
      "type": "event"
    },
    {
      "anonymous": false,
      "inputs": [
        {
          "indexed": false,
          "name": "owner",
          "type": "address"
        },
        {
          "indexed": false,
          "name": "approved",
          "type": "address"
        },
        {
          "indexed": false,
          "name": "tokenId",
          "type": "uint32"
        }
      ],
      "name": "Approval",
      "type": "event"
    },
    {
      "constant": false,
      "inputs": [
        {
          "name": "money",
          "type": "uint256"
        }
      ],
      "name": "setStepMoney",
      "outputs": [],
      "payable": false,
      "stateMutability": "nonpayable",
      "type": "function"
    },
    {
      "constant": false,
      "inputs": [
        {
          "name": "period",
          "type": "uint256"
        }
      ],
      "name": "setDayPeriod",
      "outputs": [
        {
          "name": "",
          "type": "uint256"
        }
      ],
      "payable": false,
      "stateMutability": "nonpayable",
      "type": "function"
    },
    {
      "constant": false,
      "inputs": [
        {
          "name": "_money",
          "type": "uint256"
        }
      ],
      "name": "setMoneyRange",
      "outputs": [],
      "payable": false,
      "stateMutability": "nonpayable",
      "type": "function"
    },
    {
      "constant": false,
      "inputs": [
        {
          "name": "_bunnyid",
          "type": "uint32"
        },
        {
          "name": "_money",
          "type": "uint256"
        }
      ],
      "name": "startMarket",
      "outputs": [
        {
          "name": "",
          "type": "uint256"
        }
      ],
      "payable": false,
      "stateMutability": "nonpayable",
      "type": "function"
    },
    {
      "constant": true,
      "inputs": [
        {
          "name": "_bunnyid",
          "type": "uint32"
        }
      ],
      "name": "currentPrice",
      "outputs": [
        {
          "name": "",
          "type": "uint256"
        }
      ],
      "payable": false,
      "stateMutability": "view",
      "type": "function"
    },
    {
      "constant": false,
      "inputs": [
        {
          "name": "_bunnyid",
          "type": "uint32"
        }
      ],
      "name": "stopMarket2",
      "outputs": [
        {
          "name": "",
          "type": "uint256"
        }
      ],
      "payable": false,
      "stateMutability": "nonpayable",
      "type": "function"
    },
    {
      "constant": false,
      "inputs": [
        {
          "name": "_bunnyid",
          "type": "uint32"
        }
      ],
      "name": "stopMarket",
      "outputs": [
        {
          "name": "",
          "type": "uint256"
        }
      ],
      "payable": false,
      "stateMutability": "nonpayable",
      "type": "function"
    },
    {
      "constant": false,
      "inputs": [
        {
          "name": "_bunnyid",
          "type": "uint32"
        }
      ],
      "name": "buyBunny",
      "outputs": [],
      "payable": true,
      "stateMutability": "payable",
      "type": "function"
    },
    {
      "constant": true,
      "inputs": [
        {
          "name": "rabbitid",
          "type": "uint256"
        }
      ],
      "name": "deleteRabbitMarket",
      "outputs": [],
      "payable": false,
      "stateMutability": "pure",
      "type": "function"
    },
    {
      "constant": true,
      "inputs": [
        {
          "name": "rabbitid",
          "type": "uint32"
        },
        {
          "name": "step",
          "type": "uint256"
        }
      ],
      "name": "bidMarket",
      "outputs": [],
      "payable": false,
      "stateMutability": "view",
      "type": "function"
    },
    {
      "constant": true,
      "inputs": [
        {
          "name": "page",
          "type": "uint256"
        }
      ],
      "name": "getBids",
      "outputs": [
        {
          "name": "rabbitID",
          "type": "uint32[12]"
        },
        {
          "name": "rabbitSeller",
          "type": "address[12]"
        },
        {
          "name": "startMoneyBids",
          "type": "uint256[12]"
        },
        {
          "name": "timeStartBids",
          "type": "uint256[12]"
        },
        {
          "name": "currentPriceBids",
          "type": "uint256[12]"
        },
        {
          "name": "elementEnd",
          "type": "uint256"
        },
        {
          "name": "elementTotal",
          "type": "uint256"
        }
      ],
      "payable": false,
      "stateMutability": "view",
      "type": "function"
    },
    {
      "constant": false,
      "inputs": [
        {
          "name": "bunnyid",
          "type": "uint32"
        },
        {
          "name": "add",
          "type": "address"
        }
      ],
      "name": "giff",
      "outputs": [],
      "payable": false,
      "stateMutability": "nonpayable",
      "type": "function"
    },
    {
      "constant": true,
      "inputs": [
        {
          "name": "page",
          "type": "uint256"
        },
        {
          "name": "owner",
          "type": "address"
        }
      ],
      "name": "getTokenList",
      "outputs": [
        {
          "name": "bunnys",
          "type": "uint32[12]"
        },
        {
          "name": "bunnyBreed",
          "type": "uint256[12]"
        },
        {
          "name": "bunnyRole",
          "type": "uint256[12]"
        },
        {
          "name": "sirePrice",
          "type": "uint256[12]"
        },
        {
          "name": "bunnyMarketPrice",
          "type": "uint256[12]"
        },
        {
          "name": "elementEnd",
          "type": "uint256"
        },
        {
          "name": "elementTotal",
          "type": "uint256"
        },
        {
          "name": "startArray",
          "type": "uint256"
        }
      ],
      "payable": false,
      "stateMutability": "view",
      "type": "function"
    },
    {
      "constant": true,
      "inputs": [],
      "name": "getMarketCount",
      "outputs": [
        {
          "name": "",
          "type": "uint256"
        }
      ],
      "payable": false,
      "stateMutability": "view",
      "type": "function"
    }
  ],
  "bytecode": "0x6004805460a060020a60ff0219169055655af3107a40006005819055600060075560016009556109c4600a55600b55610260604052603c6080908152607860a05260f060c0526101e060e08190526103c06101005261078061012052610e1061014052611c2061016052613840610180526170806101a05261e1006101c0526201518090526202a30061020052620546006102205262093a8061024052620000ac90601090600f620001fb565b506019805463ffffffff60c060020a60ff020119169055601a8054600160a060020a0319908116730d38bb34eee8e4c041beb61783ac038b8957233a1791829055611c20601b556001601c819055601d819055601e819055601f805460ff1916601417905560228190556000602381905560258190556028819055805433600160a060020a039081169185168217909255600280548516821790556003805485168217905582549093169092179055620001709116640100000000620001a2810204565b506019805460c060020a60ff0219167801000000000000000000000000000000000000000000000000179055620002c5565b60048054600160a060020a031916600160a060020a03929092169182179055601980547fffffffffffffffff0000000000000000000000000000000000000000ffffffff16640100000000909202919091179055600090565b6002830191839082156200028c5791602002820160005b838211156200025857835183826101000a81548163ffffffff021916908363ffffffff160217905550926020019260040160208160030104928301926001030262000212565b80156200028a5782816101000a81549063ffffffff021916905560040160208160030104928301926001030262000258565b505b506200029a9291506200029e565b5090565b620002c291905b808211156200029a57805463ffffffff19168155600101620002a5565b90565b612c8a80620002d56000396000f30060806040526004361061030b5763ffffffff7c010000000000000000000000000000000000000000000000000000000060003504166303602e9e811461031057806305caca6c14610341578063068734181461036457806306fdde03146103a05780630847c7a21461042a57806312448c321461045a578063131d9a271461049457806314c588de146105a357806314f1cf0c146105bb57806318160ddd146105d9578063193d5b77146105ee5780631e923f1b1461062057806323b7ec3b14610635578063308c00651461065357806333506115146106715780633c9ff012146106865780633ec27c4a1461069b578063433bd924146106b3578063480892a9146106d15780634b72bbaf1461070e5780634e2fd44e1461072c5780634fd839c61461074d578063553fd0431461076b57806359dc2eec1461078357806359e4eec9146107dc57806362075af4146107fd578063625101d5146108275780636b5330571461083c57806370a082311461085a57806370a7e2dd1461087b57806370d4d7b4146108fa5780637214d6c31461090f5780637230ef7f14610924578063731f49b71461093957806374479db01461094e5780637878b66a1461096357806379ded380146109785780637cbd54441461099c5780637ea2bbac146109b15780638231ee98146109d2578063847ec2de146109e757806384fcfb34146109fc5780638638fc3c14610a145780638fe521c814610a3557806395d89b4114610b575780639d6fac6f14610b6c5780639fa0fe1014610b84578063a01f6fcb14610ba5578063a210a67614610bc3578063a7e9454214610bd4578063aced96f914610bfe578063ad5a157d14610c1c578063c17c045614610c31578063c7191bc714610c46578063d00dbcb014610c5b578063dc17c9ca14610c7f578063df4b297014610cfb578063e8defac714610d52578063eea23d8a14610d6a578063ef229dc714610d82578063f2fde38b14610d9a578063f3cee12914610dbb578063f65045df14610dd0578063fb6c2b6f14610de5578063fd69f3c214610e03578063fdaacf1b14610e18575b600080fd5b34801561031c57600080fd5b50610325610e39565b60408051600160a060020a039092168252519081900360200190f35b34801561034d57600080fd5b50610362600160a060020a0360043516610e66565b005b34801561037057600080fd5b5061038263ffffffff60043516610ebc565b60408051938452602084019290925282820152519081900360600190f35b3480156103ac57600080fd5b506103b5610f7b565b6040805160208082528351818301528351919283929083019185019080838360005b838110156103ef5781810151838201526020016103d7565b50505050905090810190601f16801561041c5780820380516001836020036101000a031916815260200191505b509250505060405180910390f35b34801561043657600080fd5b5061044863ffffffff60043516610fb2565b60408051918252519081900360200190f35b34801561046657600080fd5b5061047b63ffffffff60043516602435610fc4565b6040805163ffffffff9092168252519081900360200190f35b3480156104a057600080fd5b506104ac600435611000565b604051808861018080838360005b838110156104d25781810151838201526020016104ba565b5050505090500187600c60200280838360005b838110156104fd5781810151838201526020016104e5565b5050505090500186600c60200280838360005b83811015610528578181015183820152602001610510565b5050505090500185600c60200280838360005b8381101561055357818101518382015260200161053b565b5050505090500184600c60200280838360005b8381101561057e578181015183820152602001610566565b5050505090500183815260200182815260200197505050505050505060405180910390f35b3480156105af57600080fd5b50610362600435611174565b3480156105c757600080fd5b5061032563ffffffff60043516611194565b3480156105e557600080fd5b5061047b6111af565b3480156105fa57600080fd5b5061060c63ffffffff600435166111bb565b604080519115158252519081900360200190f35b34801561062c57600080fd5b506103256111d7565b34801561064157600080fd5b5061032563ffffffff600435166111e6565b34801561065f57600080fd5b5061044863ffffffff60043516611207565b34801561067d57600080fd5b5061060c6112b8565b34801561069257600080fd5b5061044861131a565b3480156106a757600080fd5b50610362600435611320565b3480156106bf57600080fd5b5061060c63ffffffff6004351661135b565b3480156106dd57600080fd5b506106e9600435611456565b6040805163ffffffff9094168452602084019290925282820152519081900360600190f35b34801561071a57600080fd5b5061044863ffffffff6004351661147e565b34801561073857600080fd5b5061060c600160a060020a03600435166114dc565b34801561075957600080fd5b5061044863ffffffff6004351661153b565b34801561077757600080fd5b50610362600435611553565b34801561078f57600080fd5b5061079b60043561158e565b6040805163ffffffff9889168152969097166020870152858701949094526060850192909252608084015260a083015260c082015290519081900360e00190f35b3480156107e857600080fd5b5061044863ffffffff600435166024356115e8565b34801561080957600080fd5b5061036263ffffffff60043516600160a060020a03602435166116cb565b34801561083357600080fd5b5061032561172b565b34801561084857600080fd5b5061044863ffffffff60043516611757565b34801561086657600080fd5b50610448600160a060020a0360043516611769565b34801561088757600080fd5b5061089963ffffffff60043516611784565b6040805163ffffffff9c8d1681529a909b1660208b0152898b01989098526060890196909652608088019490945260a087019290925260c0860152151560e08501526101008401526101208301526101408201529051908190036101600190f35b34801561090657600080fd5b5061044861196b565b34801561091b57600080fd5b5061060c611971565b34801561093057600080fd5b50610448611976565b34801561094557600080fd5b5061047b61197c565b34801561095a57600080fd5b5061060c611988565b34801561096f57600080fd5b5061060c6119ad565b34801561098457600080fd5b5061044863ffffffff600435811690602435166119cf565b3480156109a857600080fd5b5061060c611bff565b3480156109bd57600080fd5b5061060c600160a060020a0360043516611c9e565b3480156109de57600080fd5b50610448611cbc565b3480156109f357600080fd5b5061047b611cc2565b348015610a0857600080fd5b50610362600435610eb9565b348015610a2057600080fd5b50610362600160a060020a0360043516611cce565b348015610a4157600080fd5b50610a59600435600160a060020a0360243516611d25565b604051808961018080838360005b83811015610a7f578181015183820152602001610a67565b5050505090500188600c60200280838360005b83811015610aaa578181015183820152602001610a92565b5050505090500187600c60200280838360005b83811015610ad5578181015183820152602001610abd565b5050505090500186600c60200280838360005b83811015610b00578181015183820152602001610ae8565b5050505090500185600c60200280838360005b83811015610b2b578181015183820152602001610b13565b505050509050018481526020018381526020018281526020019850505050505050505060405180910390f35b348015610b6357600080fd5b506103b5611f1e565b348015610b7857600080fd5b5061047b600435611f55565b348015610b9057600080fd5b5061036263ffffffff60043516602435611f82565b348015610bb157600080fd5b5061044863ffffffff60043516611f95565b61036263ffffffff600435166120e1565b348015610be057600080fd5b50610362600160a060020a036004351663ffffffff60243516611727565b348015610c0a57600080fd5b5061044863ffffffff60043516612247565b348015610c2857600080fd5b506104486122a5565b348015610c3d57600080fd5b506103256122ab565b348015610c5257600080fd5b506103256122ba565b348015610c6757600080fd5b5061047b600160a060020a03600435166024356122e6565b348015610c8b57600080fd5b50610ca0600160a060020a036004351661232e565b6040518083815260200180602001828103825283818151815260200191508051906020019060200280838360005b83811015610ce6578181015183820152602001610cce565b50505050905001935050505060405180910390f35b348015610d0757600080fd5b50610d1963ffffffff600435166123cb565b604051808261014080838360005b83811015610d3f578181015183820152602001610d27565b5050505090500191505060405180910390f35b348015610d5e57600080fd5b50610448600435612445565b348015610d7657600080fd5b50610362600435612491565b348015610d8e57600080fd5b506103626004356124b1565b348015610da657600080fd5b50610362600160a060020a03600435166124ec565b348015610dc757600080fd5b50610325612543565b348015610ddc57600080fd5b5061044861256f565b348015610df157600080fd5b5061044863ffffffff60043516612575565b348015610e0f57600080fd5b506104486126f8565b348015610e2457600080fd5b50610362600160a060020a03600435166126fe565b6000805433600160a060020a03908116911614610e5557600080fd5b50600454600160a060020a03165b90565b60005433600160a060020a03908116911614610e8157600080fd5b600160a060020a03811615610eb9576003805473ffffffffffffffffffffffffffffffffffffffff1916600160a060020a0383161790555b50565b600080600060126001850363ffffffff16815481101515610ed957fe5b9060005260206000209060060201600201549150600e821115610efb57600e91505b6012805463ffffffff600019870116908110610f1357fe5b906000526020600020906006020160030154601083600f81101515610f3457fe5b600891828204019190066004029054906101000a900463ffffffff1663ffffffff1601925042831115610f7457610f71834263ffffffff61274816565b90505b9193909250565b60408051808201909152600d81527f43727970746f5261626269747300000000000000000000000000000000000000602082015281565b600e6020526000908152604090205481565b600d60205260008281526040902081600a8110610fdd57fe5b60089182820401919006600402915091509054906101000a900463ffffffff1681565b611008612b8e565b611010612b8e565b611018612b8e565b611020612b8e565b611028612b8e565b60008080600c818060018c101561103e5760019b505b61104e8c8463ffffffff61275a16565b9550601c5486111561106057601c5495505b50601c5493506000198b0182026001015b856001018110156111655760008181526029602052604090205463ffffffff169350838b83600c81106110a057fe5b63ffffffff92831660209182029290920191909152908516600090815260139091526040902054600160a060020a03168a83600c81106110dc57fe5b600160a060020a03909216602092830291909101526000828152602990915260409020600101548983600c811061110f57fe5b602090810291909101919091526000828152602990915260409020600201548883600c811061113a57fe5b602002015261114884611207565b8783600c811061115457fe5b602002015260019182019101611071565b50505050919395979092949650565b60005433600160a060020a0390811691161461118f57600080fd5b600a55565b601360205260009081526040902054600160a060020a031681565b60195463ffffffff1690565b63ffffffff1660009081526017602052604090205460ff161590565b601a54600160a060020a031681565b63ffffffff16600090815260136020526040902054600160a060020a031690565b60008080808080808063ffffffff8916151561122657600097506112ac565b63ffffffff89166000908152602a6020908152604080832054808452602990925282206002810154600190910154601b54929a509098509650909450428790039350156112a857601b548381151561127a57fe5b049150811580159061128b57508415155b156112a4576103e88504905080600a02850393506112a8565b8493505b8397505b50505050505050919050565b6000805433600160a060020a039081169116146112d457600080fd5b506004805474ff0000000000000000000000000000000000000000198116740100000000000000000000000000000000000000009182900460ff16159182021790915590565b60095481565b60025433600160a060020a039081169116148061134b575060005433600160a060020a039081169116145b151561135657600080fd5b600955565b60001901600080808063ffffffff851615156113765761144e565b6012805463ffffffff871690811061138a57fe5b906000526020600020906006020160030154925060128563ffffffff168154811015156113b357fe5b9060005260206000209060060201600201549150601082600f811015156113d657fe5b600891828204019190066004029054906101000a900463ffffffff1663ffffffff16905061140d838261278c90919063ffffffff16565b905042811115801561144457506012805463ffffffff871690811061142e57fe5b9060005260206000209060060201600401546000145b1561144e57600193505b505050919050565b60296020526000908152604090208054600182015460029092015463ffffffff909116919083565b63ffffffff81166000908152600e602052604081205481906064900490506114ad81601963ffffffff61275a16565b63ffffffff8085166000908152600e60205260409020549192506114d391839161278c16565b91505b50919050565b6004805473ffffffffffffffffffffffffffffffffffffffff1916600160a060020a039290921691821790556019805477ffffffffffffffffffffffffffffffffffffffff000000001916640100000000909202919091179055600090565b63ffffffff166000908152600f602052604090205490565b60025433600160a060020a039081169116148061157e575060005433600160a060020a039081169116145b151561158957600080fd5b602455565b601280548290811061159c57fe5b600091825260209091206006909102018054600182015460028301546003840154600485015460059095015463ffffffff80861697506401000000009095049094169492939192909187565b60006115f2612bae565b6115fa6119ad565b151561160557600080fd5b60055483101561161457600080fd5b63ffffffff841660009081526013602052604090205433600160a060020a0390811691161461164257600080fd5b61164b84612575565b50506040805160608101825263ffffffff858116808352602080840187815242858701908152601c80546000908152602985528881208851815463ffffffff19169816979097178755925160018088019190915591516002909601959095558454938252602a9092529490942081905592830190559091505b5092915050565b63ffffffff821660009081526013602052604090205433600160a060020a039081169116146116f957600080fd5b63ffffffff821660009081526017602052604090205460ff161561171c57600080fd5b61172733828461279b565b5050565b6000805433600160a060020a0390811691161461174757600080fd5b50600154600160a060020a031690565b600c6020526000908152604090205481565b600160a060020a031660009081526014602052604090205490565b600080600080600080600080600080600061179e8c61147e565b600019909c019b905063ffffffff8c1615156117b95761195c565b6012805463ffffffff8e169081106117cd57fe5b60009182526020909120600690910201546012805463ffffffff9283169d5090918e169081106117f957fe5b60009182526020909120600690910201546012805463ffffffff64010000000090930483169c5090918e1690811061182d57fe5b906000526020600020906006020160010154985060128c63ffffffff1681548110151561185657fe5b906000526020600020906006020160020154975060128c63ffffffff1681548110151561187f57fe5b906000526020600020906006020160030154965060128c63ffffffff168154811015156118a857fe5b906000526020600020906006020160040154955060128c63ffffffff168154811015156118d157fe5b9060005260206000209060060201600501549450600e8811156118f357600e97505b601088600f811061190057fe5b600891828204019190066004029054906101000a900463ffffffff1663ffffffff169150611937878361278c90919063ffffffff16565b9150428211611949576001935061195c565b611959824263ffffffff61274816565b92505b91939597999b90929496989a50565b600a5481565b600190565b60075481565b60065463ffffffff1681565b6019547801000000000000000000000000000000000000000000000000900460ff1681565b60045474010000000000000000000000000000000000000000900460ff161590565b60006119d9612bd6565b6000805b600a821015611ae05763ffffffff85166000908152600d6020526040902082600a8110611a0657fe5b60088104919091015460079091166004026101000a900463ffffffff1615611ad55763ffffffff85166000908152600d6020526040902082600a8110611a4857fe5b600891828204019190066004029054906101000a900463ffffffff168385600b81101515611a7257fe5b63ffffffff928316602091820292909201919091529086166000908152600d9091526040812083600a8110611aa357fe5b600891828204019190066004026101000a81548163ffffffff021916908363ffffffff16021790555083806001019450505b6001909101906119dd565b858385600b8110611aed57fe5b63ffffffff90921660209290920201525060019092019160005b600a811015611bf657600a841115611b87578260018201600b8110611b2857fe5b6020020151600d60008763ffffffff1663ffffffff16815260200190815260200160002082600a81101515611b5957fe5b600891828204019190066004026101000a81548163ffffffff021916908363ffffffff160217905550611bee565b8281600b8110611b9357fe5b6020020151600d60008763ffffffff1663ffffffff16815260200190815260200160002082600a81101515611bc457fe5b600891828204019190066004026101000a81548163ffffffff021916908363ffffffff1602179055505b600101611b07565b50505092915050565b6000601960049054906101000a9004600160a060020a0316600160a060020a031663ccb0893d6040518163ffffffff167c0100000000000000000000000000000000000000000000000000000000028152600401602060405180830381600087803b158015611c6d57600080fd5b505af1158015611c81573d6000803e3d6000fd5b505050506040513d6020811015611c9757600080fd5b5051905090565b600160a060020a031660009081526018602052604090205460ff1690565b60085481565b60195463ffffffff1681565b60005433600160a060020a03908116911614611ce957600080fd5b600160a060020a03811615610eb95760028054600160a060020a03831673ffffffffffffffffffffffffffffffffffffffff1990911617905550565b611d2d612b8e565b611d35612b8e565b611d3d612b8e565b611d45612b8e565b611d4d612b8e565b6000808080808060018d1015611d625760019c505b600160a060020a038c166000908152601460205260409020549450611d8e8d600c63ffffffff61275a16565b955084861115611d9c578495505b600160a060020a038c16600090815260146020526040902054600c6000198f010260010194501515611dcd57611f0e565b50825b85600101811015611f0e57600160a060020a038c16600090815260146020526040902080546000198301908110611e0357fe5b6000918252602090912060088204015460079091166004026101000a900463ffffffff1692508215611f0257828b83600c8110611e3c57fe5b602002019063ffffffff16908163ffffffff168152505060126001840363ffffffff16815481101515611e6b57fe5b9060005260206000209060060201600501548a83600c81101515611e8b57fe5b60200201526012805463ffffffff600019860116908110611ea857fe5b9060005260206000209060060201600401548983600c81101515611ec857fe5b6020020152611ed68361147e565b8883600c8110611ee257fe5b6020020152611ef083611207565b8783600c8110611efc57fe5b60200201525b60019182019101611dd0565b5050509295985092959890939650565b60408051808201909152600381527f4352420000000000000000000000000000000000000000000000000000000000602082015281565b601081600f8110611f6257fe5b60089182820401919006600402915054906101000a900463ffffffff1681565b611f8a6119ad565b151561172757600080fd5b600080600080611fa36119ad565b1515611fae57600080fd5b63ffffffff851660009081526013602052604090205433600160a060020a03908116911614611fdc57600080fd5b50505063ffffffff8281166000908152602a6020908152604080832080548085526029909352908320805491849055805463ffffffff1916815560018101849055600201839055601c549193169183911180156120395750600083115b801561204a575060018303601c5414155b156120cc57601c805460001990810160009081526029602081815260408084208985528185208154815463ffffffff1990811663ffffffff9283161783556001848101548482015560029485015493850193909355908b168752602a85528387208a905597549096018552929091528220805490941684559183018190559101555b5050601c805460001981019091559392505050565b60006120eb6119ad565b15156120f657600080fd5b63ffffffff821660009081526013602052604090205433600160a060020a039081169116141561212557600080fd5b61212e82611207565b905080341015801561213f57508015155b151561214a57600080fd5b60288054600101905563ffffffff821660009081526013602052604090205461217c90600160a060020a031634612861565b63ffffffff82166000908152601360205260409020546121a690600160a060020a0316338461279b565b6121af82612575565b5060408051808201825282815263ffffffff84166000818152602a602090815284822054825260298152848220600201544203818501908152602854835260278252918590209351845590516001909301929092558251600160a060020a03331681529182015281517fbe094b3f5b6f49f63819500ee3f9149336c47d4b6d3c809583c9ed3b5a458b3e929181900390910190a15050565b6000805b600a8110156114d65763ffffffff83166000908152600d6020526040902081600a811061227457fe5b60088104919091015460079091166004026101000a900463ffffffff161561229d576001909101905b60010161224b565b600b5481565b600054600160a060020a031681565b6000805433600160a060020a039081169116146122d657600080fd5b50600254600160a060020a031690565b60146020528160005260406000208181548110151561230157fe5b9060005260206000209060089182820401919006600402915091509054906101000a900463ffffffff1681565b600160a060020a03811660009081526014602090815260409182902080548351818402810184019094528084529260609290919084908301828280156123bf57602002820191906000526020600020906000905b82829054906101000a900463ffffffff1663ffffffff16815260200190600401906020826003010492830192600103820291508084116123825790505b50505050509050915091565b6123d3612bf6565b63ffffffff82166000908152600d60205260408082208151610140810192839052929091600a918390855b82829054906101000a900463ffffffff1663ffffffff16815260200190600401906020826003010492830192600103820291508084116123fe575094979650505050505050565b60025460009033600160a060020a0390811691161480612473575060005433600160a060020a039081169116145b151561247e57600080fd5b50601d8190556201518002601e81905590565b60005433600160a060020a039081169116146124ac57600080fd5b600b55565b60025433600160a060020a03908116911614806124dc575060005433600160a060020a039081169116145b15156124e757600080fd5b601b55565b60005433600160a060020a0390811691161461250757600080fd5b600160a060020a03811615610eb95760008054600160a060020a03831673ffffffffffffffffffffffffffffffffffffffff1990911617905550565b6000805433600160a060020a0390811691161461255f57600080fd5b50600354600160a060020a031690565b60285481565b6000806000806125836119ad565b151561258e57600080fd5b63ffffffff851660009081526013602052604090205433600160a060020a039081169116146125bc57600080fd5b63ffffffff8086166000818152602a602090815260408083205480845260299092529091205490955090911614156126ec5763ffffffff85166000908152602a6020908152604080832080549084905586845260299092528220805463ffffffff1916815560018101839055600201829055601c549093501180156126415750600083115b8015612652575060018303601c5414155b156126d95750601c805460001990810160009081526029602081815260408084208885528185208154815463ffffffff1990811663ffffffff928316178084556001858101548582015560029586015494860194909455909116808852602a86528488208b9055985490970186529390925283208054909416845590830182905591909101555b601c80546000198101909155935061144e565b5050601c549392505050565b601c5490565b60005433600160a060020a0390811691161461271957600080fd5b6001805473ffffffffffffffffffffffffffffffffffffffff1916600160a060020a0392909216919091179055565b60008282111561275457fe5b50900390565b60008083151561276d57600091506116c4565b5082820282848281151561277d57fe5b041461278557fe5b9392505050565b60008282018381101561278557fe5b63ffffffff8116600090815260136020526040902054600160a060020a0390811690841681146127ca57600080fd5b600160a060020a0381811690841614156127e357600080fd5b600160a060020a03831615156127f857600080fd5b61280281836128e1565b61280c8383612b0d565b60408051600160a060020a0380841682528516602082015263ffffffff84168183015290517f0daf680c3f528a8760b5142fe1f6f80d5f4ea18bb76f347a7a44a2d565c2b7dc9181900360600190a150505050565b604051600160a060020a03831690605f606484040280156108fc02916000818181858888f1935050505015801561289c573d6000803e3d6000fd5b50600154604051600160a060020a03909116906005606484040280156108fc02916000818181858888f193505050501580156128dc573d6000803e3d6000fd5b505050565b600160a060020a038216600090815260146020526040812054905b81811015612b0757600160a060020a0384166000908152601460205260409020805463ffffffff851691908390811061293157fe5b6000918252602090912060088204015460079091166004026101000a900463ffffffff161415612aff57600160a060020a038416600090815260146020526040902080548290811061297f57fe5b90600052602060002090600891828204019190066004026101000a81549063ffffffff02191690556000821180156129ba5750600181038214155b15612ad057600160a060020a0384166000908152601460205260409020805460001984019081106129e757fe5b90600052602060002090600891828204019190066004029054906101000a900463ffffffff166014600086600160a060020a0316600160a060020a0316815260200190815260200160002082815481101515612a3f57fe5b90600052602060002090600891828204019190066004026101000a81548163ffffffff021916908363ffffffff1602179055506014600085600160a060020a0316600160a060020a0316815260200190815260200160002060018303815481101515612aa757fe5b90600052602060002090600891828204019190066004026101000a81549063ffffffff02191690555b600160a060020a0384166000908152601460205260409020805490612af9906000198301612c16565b50612b07565b6001016128fc565b50505050565b600160a060020a03909116600081815260146020908152604080832080546001810182559084528284206008820401805463ffffffff97881660046007909416939093026101000a83810298021916969096179095559382526013905291909120805473ffffffffffffffffffffffffffffffffffffffff19169091179055565b61018060405190810160405280600c906020820280388339509192915050565b606060405190810160405280600063ffffffff16815260200160008152602001600081525090565b61016060405190810160405280600b906020820280388339509192915050565b61014060405190810160405280600a906020820280388339509192915050565b8154818355818111156128dc576000838152602090206128dc91610e639160086007928301819004820192860104015b80821115612c5a5760008155600101612c46565b50905600a165627a7a72305820fd925f78e21e634413bda37e14a34fab3df1dcf4971dc770aa62c9d8f646073d0029",
  "source": "pragma solidity ^0.4.23;\nimport \"./BodyRabbit.sol\"; \n\n/**\n* sale and bye Rabbits\n*/\ncontract RabbitMarket is BodyRabbit {\n\n    event SendBunny(address newOwnerBunny, uint32 bunnyId);\n\n // Long time\n    uint stepMoney = 2*60*60;\n           \n    function setStepMoney(uint money) public onlyTech {\n        stepMoney = money;\n    }\n    /**\n    * @dev number of rabbits participating in the auction\n    */\n    uint marketCount = 1; \n\n    uint daysperiod = 1;\n    uint sec = 1;\n    //          \n    uint8 middlelast = 20;\n    \n    /***\n    * @param period      \n    */\n    function setDayPeriod(uint period) public onlyTech returns(uint256) {\n        daysperiod = period;\n        sec = daysperiod * 24*60*60;\n        return  sec;\n    }\n     \n     \n    //        \n    mapping(uint32 => uint256[]) internal marketRabbits;\n    //     \n    \n    /**\n    */\n    struct Clisedbid {\n        uint32 rabbitID;\n        address rabbitSeller;\n        uint64 timeBid; \n    }\n    \n    Clisedbid[] clisedbidRabbits;\n     \n    \n    //    \n    uint256 middlePriceMoney = 1;\n    //   \n    uint256 middleSaleTime = 0; \n    //     \n    uint moneyRange;\n\n    /**\n    * @param _money  \n     */\n    function setMoneyRange(uint _money) public onlyTech {\n        moneyRange = _money;\n    }\n     \n    // the last cost of a sold seal\n    uint lastmoney = 0;  \n    // the time which was spent on the sale of the cat\n    uint lastTimeGen0;\n\n\n    // number of seals currently on sale\n  //  uint public bidCount = 0;\n\n     \n    /**\n    * @param  money;\n    * @param  timeStart; \n    * @param  timeFinish; \n    */\n    struct BidClosed {\n        uint money;\n        uint timeRange;  \n    }\n    /**\n    * @param  BidClosed \n    */\n    mapping(uint=>BidClosed) sellerOfRabbit;\n \n    //how many closed auctions\n    uint public totalClosedBID = 0;\n     \n     \n     \n    /**\n    * @param  _rabbitID;\n    * @param  _rabbitSeller;\n    * @param  startMoney;\n    */\n    struct Bids {\n        uint32 rabbitID; \n        uint  startMoney;\n        uint  timeStart;\n    }\n    mapping(uint=>Bids) public bidsArray;\n    mapping(uint32 => uint) bidsIndex;\n \n   // mapping (address => uint) sellerOfRabbit;\n     \n     /*** \n    */\n  \n\n \n \n\n    function startMarket(uint32 _bunnyid, uint _money) public returns (uint) {\n        require(isPauseSave());\n        require(_money >= bigPrice);\n        require(rabbitToOwner[_bunnyid] ==  msg.sender);\n       // _money =  _money;\n        stopMarket(_bunnyid); \n        Bids memory bid = Bids(_bunnyid, _money, now);\n        bidsArray[marketCount] = bid;\n        bidsIndex[_bunnyid] = marketCount;\n        return marketCount++; \n    }\n\n    /**\n    * @dev get rabbit price\n    */\n    function currentPrice(uint32 _bunnyid) public view returns(uint) {\n        if (_bunnyid == 0) {\n            return 0;\n        }\n        uint index = bidsIndex[_bunnyid];\n        uint timeStart = bidsArray[index].timeStart;\n        uint startMoney = bidsArray[index].startMoney;\n        uint resMoney = 0;\n        uint rangeTime = now - timeStart;\n        if(stepMoney != 0) { \n            uint iter = rangeTime / stepMoney;\n            if(iter != 0 && startMoney != 0) {\n                uint range = startMoney / 1000;\n                resMoney = startMoney - range*10;\n             }else{\n                 resMoney = startMoney;\n             }\n        }\n        \n        return resMoney;\n    }\n\n         // https://ethereum.stackexchange.com/questions/1527/how-to-delete-an-element-at-a-certain-index-in-an-array\n    function stopMarket2(uint32 _bunnyid) public returns(uint) {\n        require(isPauseSave());\n        require(rabbitToOwner[_bunnyid] == msg.sender);  \n        uint i = bidsIndex[_bunnyid];\n\n        uint32 _bunny = bidsArray[i].rabbitID;\n\n       // if (bidsArray[i].rabbitID == _bunnyid) {\n            uint indexOld = bidsIndex[_bunnyid];\n            delete bidsIndex[_bunnyid];\n            delete bidsArray[i];\n\n            if (marketCount > 0 && i > 0 && marketCount != (i-1)) {\n                bidsArray[i] = bidsArray[(marketCount-1)];\n            //    uint32 b = bidsArray[i].rabbitID;\n                bidsIndex[_bunny] = indexOld;\n                    \n            delete  bidsArray[(marketCount-1)];\n            }\n            return marketCount--;\n           // }\n       // }\n        //return marketCount;\n    }\n \n\n         // https://ethereum.stackexchange.com/questions/1527/how-to-delete-an-element-at-a-certain-index-in-an-array\n    function stopMarket(uint32 _bunnyid) public returns(uint) {\n        require(isPauseSave());\n        require(rabbitToOwner[_bunnyid] == msg.sender);  \n            uint i = bidsIndex[_bunnyid];\n            if (bidsArray[i].rabbitID == _bunnyid) {\n                uint indexOld = bidsIndex[_bunnyid];\n                delete bidsIndex[_bunnyid];\n                delete bidsArray[i];\n                if (marketCount > 0 && i > 0 && marketCount != (i-1)) {\n                    bidsArray[i] = bidsArray[(marketCount-1)];\n                    uint32 b = bidsArray[i].rabbitID;\n                    bidsIndex[b] = indexOld;\n                    \n                delete  bidsArray[(marketCount-1)];\n                }\n                return marketCount--;\n            }\n        return marketCount;\n    }\n \n \n\n\n    function buyBunny(uint32 _bunnyid) public payable {\n        require(isPauseSave());\n        require(rabbitToOwner[_bunnyid] != msg.sender);\n        uint price = currentPrice(_bunnyid);\n\n        require(msg.value >= price && 0 != price);\n\n        //     \n        \n        \n        totalClosedBID++;\n        // Sending money to the old user\n        sendMoney(rabbitToOwner[_bunnyid], msg.value);\n        // is sent to the new owner of the bought rabbit\n        transferFrom(rabbitToOwner[_bunnyid], msg.sender, _bunnyid); \n        stopMarket(_bunnyid); \n        sellerOfRabbit[totalClosedBID] = BidClosed(price, (now - bidsArray[bidsIndex[_bunnyid]].timeStart ));\n        emit SendBunny (msg.sender, _bunnyid);\n    }\n \n \n\n    /**\n    * @dev removal from the market rabbit\n    */\n    function deleteRabbitMarket(uint rabbitid) public pure { \n        rabbitid; \n    } \n    /**\n    * @param rabbitid rabbit in relation to whom reduce the cost\n    */\n    function bidMarket(uint32 rabbitid, uint step) public view { \n        require(isPauseSave());\n        rabbitid;\n        step;\n    }\n    /**\n    * @dev Get the cost of the zeroth gene necessary to add to the store\n    */\n    function getpricegen0() internal returns(uint _money) {\n        if (totalGen0 <= promoGen0) { \n           return _money = promoMoney;\n        }\n        uint _time = 0;\n        uint lostmoney = 0;\n        uint losttime = 0;\n        uint losttimerange = 0;\n        if ((totalClosedBID-middlelast) > 0) {\n            for (uint32 i = uint32(totalClosedBID-middlelast); i > totalClosedBID; i++) {\n\n                lostmoney = sellerOfRabbit[i].money + lostmoney;\n                losttimerange = sellerOfRabbit[i].timeRange;\n                losttime = losttime + losttimerange;\n            }\n            _money = lostmoney / middlelast;\n            _time = losttime / middlelast;\n             \n            if (middleSaleTime >= _time) {\n                _money = _money.add(_money.div(3));\n            } else {\n                _money = _money.sub(_money.div(3));\n            }\n            middleSaleTime = _time;\n        }\n        return  _money;\n    } \n\n    \n    \n\n\n\n    // https://ethereum.stackexchange.com/questions/1527/how-to-delete-an-element-at-a-certain-index-in-an-array\n    function getBids(uint page) \n            public view returns(\n                uint32[12] rabbitID, \n                address[12]rabbitSeller, \n                uint[12]startMoneyBids, \n                uint[12]timeStartBids, \n                uint[12]currentPriceBids,\n                uint elementEnd,\n                uint elementTotal\n                ) {\n\n                uint32 bunnyID = 0;\n                uint pagecount = 12;\n                uint start = 0;\n\n                if (page < 1) {\n                    page = 1;\n                }\n                \n                elementEnd = page.mul(pagecount);\n\n                if (elementEnd > marketCount) {\n                    elementEnd = marketCount;\n                }\n\n                elementTotal = marketCount;\n              //  uint startArray = (((page-1)*pagecount)+1);\n                for (uint i = (((page-1)*pagecount)+1); i < (elementEnd+1); i++) {\n                    bunnyID = uint32(bidsArray[i].rabbitID);\n                    rabbitID[start] = bunnyID;\n                    rabbitSeller[start] = rabbitToOwner[bunnyID]; \n                    startMoneyBids[start] = bidsArray[i].startMoney; \n                    timeStartBids[start] = bidsArray[i].timeStart;\n                    currentPriceBids[start] = currentPrice(bunnyID);\n                    start++;\n                }\n            }\n\n\n\n    /**\n    * @dev give a rabbit to a specific user\n    * @param add new address owner rabbits\n    */\n    function giff(uint32 bunnyid, address add) public {\n        require(rabbitToOwner[bunnyid] == msg.sender);\n        // a rabbit taken for free can not be given\n        require(!(giffblock[bunnyid]));\n        transferFrom(msg.sender, add, bunnyid);\n    }\n\n    function getTokenList(uint page, address owner) public view returns(\n   \n                uint32[12] bunnys, \n                uint[12] bunnyBreed, \n                uint[12] bunnyRole,\n                uint[12] sirePrice,\n                uint[12] bunnyMarketPrice,\n                uint elementEnd,\n                uint elementTotal,\n                uint startArray\n                ) {\n\n                uint32 _bunnyID = 0;\n                //uint pagecount = 12;\n                uint start = 0;\n\n                if (page < 1) {\n                    page = 1;\n                }\n                \n                elementTotal = ownerBunnies[owner].length;\n                elementEnd = page.mul(12);\n\n                if (elementEnd > elementTotal) {\n                    elementEnd = elementTotal;\n                }\n \n                startArray = (((page-1)*12)+1);\n\n                if(ownerBunnies[owner].length == 0) {\n                    return;\n                }\n                for (uint i = startArray; i < (elementEnd+1); ++i) {\n\n                    _bunnyID = ownerBunnies[owner][(i-1)];\n                   // bunnys[start] = _bunnyID;\n\n                    if(_bunnyID != 0) {  \n                        bunnys[start] = _bunnyID; \n                        bunnyBreed[start] = rabbits[(_bunnyID-1)].genome; \n                        bunnyRole[start] = rabbits[(_bunnyID-1)].role;\n                        sirePrice[start] = getSirePrice(_bunnyID); \n                        bunnyMarketPrice[start] = currentPrice(_bunnyID);\n     \n                    }\n                    start++;\n                }\n\n      //  return ownerBunnies[owner].length;\n    }\n\n\n \n\n    function getMarketCount() public view returns(uint) {\n        return marketCount;\n    }\n}\n",
  "sourcePath": "/home/koras/contracts/publicRabbit/pub/contracts/RabbitMarket.sol",
  "compiler": {
    "name": "solc",
    "version": "0.4.23+commit.124ca40d.Emscripten.clang"
  },
  "schemaVersion": "2.0.0",
  "updatedAt": "2018-06-08T19:30:44.775Z"
}