{
  "contractName": "RabbitMarket",
  "abi": [
    {
      "constant": true,
      "inputs": [],
      "name": "getPrivAddress",
      "outputs": [
        {
          "name": "",
          "type": "address"
        }
      ],
      "payable": false,
      "stateMutability": "view",
      "type": "function"
    },
    {
      "constant": false,
      "inputs": [
        {
          "name": "add",
          "type": "address"
        }
      ],
      "name": "transferOwnershipServer",
      "outputs": [],
      "payable": false,
      "stateMutability": "nonpayable",
      "type": "function"
    },
    {
      "constant": true,
      "inputs": [
        {
          "name": "_mother",
          "type": "uint32"
        }
      ],
      "name": "getcoolduwn",
      "outputs": [
        {
          "name": "lastTime",
          "type": "uint256"
        },
        {
          "name": "cd",
          "type": "uint256"
        },
        {
          "name": "lefttime",
          "type": "uint256"
        }
      ],
      "payable": false,
      "stateMutability": "view",
      "type": "function"
    },
    {
      "constant": true,
      "inputs": [],
      "name": "name",
      "outputs": [
        {
          "name": "",
          "type": "string"
        }
      ],
      "payable": false,
      "stateMutability": "view",
      "type": "function"
    },
    {
      "constant": true,
      "inputs": [
        {
          "name": "",
          "type": "uint32"
        }
      ],
      "name": "rabbitSirePrice",
      "outputs": [
        {
          "name": "",
          "type": "uint256"
        }
      ],
      "payable": false,
      "stateMutability": "view",
      "type": "function"
    },
    {
      "constant": true,
      "inputs": [],
      "name": "promoPause",
      "outputs": [
        {
          "name": "",
          "type": "bool"
        }
      ],
      "payable": false,
      "stateMutability": "view",
      "type": "function"
    },
    {
      "constant": true,
      "inputs": [
        {
          "name": "",
          "type": "uint32"
        },
        {
          "name": "",
          "type": "uint256"
        }
      ],
      "name": "rabbitMother",
      "outputs": [
        {
          "name": "",
          "type": "uint32"
        }
      ],
      "payable": false,
      "stateMutability": "view",
      "type": "function"
    },
    {
      "constant": true,
      "inputs": [
        {
          "name": "",
          "type": "uint32"
        }
      ],
      "name": "motherCount",
      "outputs": [
        {
          "name": "",
          "type": "uint256"
        }
      ],
      "payable": false,
      "stateMutability": "view",
      "type": "function"
    },
    {
      "constant": false,
      "inputs": [
        {
          "name": "_promoGen0",
          "type": "uint256"
        }
      ],
      "name": "setPromoGen0",
      "outputs": [],
      "payable": false,
      "stateMutability": "nonpayable",
      "type": "function"
    },
    {
      "constant": true,
      "inputs": [
        {
          "name": "",
          "type": "uint32"
        }
      ],
      "name": "rabbitToOwner",
      "outputs": [
        {
          "name": "",
          "type": "address"
        }
      ],
      "payable": false,
      "stateMutability": "view",
      "type": "function"
    },
    {
      "constant": true,
      "inputs": [],
      "name": "totalSupply",
      "outputs": [
        {
          "name": "total",
          "type": "uint256"
        }
      ],
      "payable": false,
      "stateMutability": "view",
      "type": "function"
    },
    {
      "constant": true,
      "inputs": [
        {
          "name": "_bunnyid",
          "type": "uint32"
        }
      ],
      "name": "getGiffBlock",
      "outputs": [
        {
          "name": "",
          "type": "bool"
        }
      ],
      "payable": false,
      "stateMutability": "view",
      "type": "function"
    },
    {
      "constant": true,
      "inputs": [],
      "name": "myAddr_test",
      "outputs": [
        {
          "name": "",
          "type": "address"
        }
      ],
      "payable": false,
      "stateMutability": "view",
      "type": "function"
    },
    {
      "constant": true,
      "inputs": [
        {
          "name": "_mother",
          "type": "uint32"
        }
      ],
      "name": "getMotherCount",
      "outputs": [
        {
          "name": "",
          "type": "uint256"
        }
      ],
      "payable": false,
      "stateMutability": "view",
      "type": "function"
    },
    {
      "constant": true,
      "inputs": [
        {
          "name": "_tokenId",
          "type": "uint32"
        }
      ],
      "name": "ownerOf",
      "outputs": [
        {
          "name": "owner",
          "type": "address"
        }
      ],
      "payable": false,
      "stateMutability": "view",
      "type": "function"
    },
    {
      "constant": true,
      "inputs": [
        {
          "name": "",
          "type": "uint256"
        },
        {
          "name": "",
          "type": "uint256"
        }
      ],
      "name": "sireGenom",
      "outputs": [
        {
          "name": "",
          "type": "uint32"
        }
      ],
      "payable": false,
      "stateMutability": "view",
      "type": "function"
    },
    {
      "constant": true,
      "inputs": [
        {
          "name": "mother",
          "type": "uint32"
        }
      ],
      "name": "getRabbitMotherSumm",
      "outputs": [
        {
          "name": "count",
          "type": "uint256"
        }
      ],
      "payable": false,
      "stateMutability": "view",
      "type": "function"
    },
    {
      "constant": true,
      "inputs": [
        {
          "name": "_bunny",
          "type": "uint32"
        }
      ],
      "name": "getTotalSalaryBunny",
      "outputs": [
        {
          "name": "",
          "type": "uint256"
        }
      ],
      "payable": false,
      "stateMutability": "view",
      "type": "function"
    },
    {
      "constant": false,
      "inputs": [],
      "name": "setPauseSave",
      "outputs": [
        {
          "name": "",
          "type": "bool"
        }
      ],
      "payable": false,
      "stateMutability": "nonpayable",
      "type": "function"
    },
    {
      "constant": true,
      "inputs": [],
      "name": "timeRangeCreateGen0",
      "outputs": [
        {
          "name": "",
          "type": "uint256"
        }
      ],
      "payable": false,
      "stateMutability": "view",
      "type": "function"
    },
    {
      "constant": false,
      "inputs": [
        {
          "name": "_sec",
          "type": "uint256"
        }
      ],
      "name": "setTimeRangeGen0",
      "outputs": [],
      "payable": false,
      "stateMutability": "nonpayable",
      "type": "function"
    },
    {
      "constant": true,
      "inputs": [
        {
          "name": "_bunny",
          "type": "uint32"
        }
      ],
      "name": "getBreed",
      "outputs": [
        {
          "name": "interbreed",
          "type": "bool"
        }
      ],
      "payable": false,
      "stateMutability": "view",
      "type": "function"
    },
    {
      "constant": true,
      "inputs": [
        {
          "name": "_tokenId",
          "type": "uint32"
        }
      ],
      "name": "getSirePrice",
      "outputs": [
        {
          "name": "",
          "type": "uint256"
        }
      ],
      "payable": false,
      "stateMutability": "view",
      "type": "function"
    },
    {
      "constant": false,
      "inputs": [
        {
          "name": "_privAddress",
          "type": "address"
        }
      ],
      "name": "setPriv",
      "outputs": [
        {
          "name": "",
          "type": "bool"
        }
      ],
      "payable": false,
      "stateMutability": "nonpayable",
      "type": "function"
    },
    {
      "constant": true,
      "inputs": [
        {
          "name": "bunnyid",
          "type": "uint32"
        }
      ],
      "name": "getRabbitDNK",
      "outputs": [
        {
          "name": "",
          "type": "uint256"
        }
      ],
      "payable": false,
      "stateMutability": "view",
      "type": "function"
    },
    {
      "constant": true,
      "inputs": [
        {
          "name": "",
          "type": "uint256"
        }
      ],
      "name": "rabbits",
      "outputs": [
        {
          "name": "mother",
          "type": "uint32"
        },
        {
          "name": "sire",
          "type": "uint32"
        },
        {
          "name": "birthblock",
          "type": "uint256"
        },
        {
          "name": "birthCount",
          "type": "uint256"
        },
        {
          "name": "birthLastTime",
          "type": "uint256"
        },
        {
          "name": "role",
          "type": "uint256"
        },
        {
          "name": "genome",
          "type": "uint256"
        }
      ],
      "payable": false,
      "stateMutability": "view",
      "type": "function"
    },
    {
      "constant": true,
      "inputs": [],
      "name": "isPromoPause",
      "outputs": [
        {
          "name": "",
          "type": "bool"
        }
      ],
      "payable": false,
      "stateMutability": "view",
      "type": "function"
    },
    {
      "constant": true,
      "inputs": [],
      "name": "getOwnerMoney",
      "outputs": [
        {
          "name": "",
          "type": "address"
        }
      ],
      "payable": false,
      "stateMutability": "view",
      "type": "function"
    },
    {
      "constant": true,
      "inputs": [
        {
          "name": "",
          "type": "uint32"
        }
      ],
      "name": "totalSalaryBunny",
      "outputs": [
        {
          "name": "",
          "type": "uint256"
        }
      ],
      "payable": false,
      "stateMutability": "view",
      "type": "function"
    },
    {
      "constant": true,
      "inputs": [
        {
          "name": "_owner",
          "type": "address"
        }
      ],
      "name": "balanceOf",
      "outputs": [
        {
          "name": "",
          "type": "uint256"
        }
      ],
      "payable": false,
      "stateMutability": "view",
      "type": "function"
    },
    {
      "constant": true,
      "inputs": [
        {
          "name": "_bunny",
          "type": "uint32"
        }
      ],
      "name": "getBunny",
      "outputs": [
        {
          "name": "mother",
          "type": "uint32"
        },
        {
          "name": "sire",
          "type": "uint32"
        },
        {
          "name": "birthblock",
          "type": "uint256"
        },
        {
          "name": "birthCount",
          "type": "uint256"
        },
        {
          "name": "birthLastTime",
          "type": "uint256"
        },
        {
          "name": "role",
          "type": "uint256"
        },
        {
          "name": "genome",
          "type": "uint256"
        },
        {
          "name": "interbreed",
          "type": "bool"
        },
        {
          "name": "leftTime",
          "type": "uint256"
        },
        {
          "name": "lastTime",
          "type": "uint256"
        },
        {
          "name": "price",
          "type": "uint256"
        },
        {
          "name": "motherSumm",
          "type": "uint256"
        }
      ],
      "payable": false,
      "stateMutability": "view",
      "type": "function"
    },
    {
      "constant": true,
      "inputs": [],
      "name": "promoGen0",
      "outputs": [
        {
          "name": "",
          "type": "uint256"
        }
      ],
      "payable": false,
      "stateMutability": "view",
      "type": "function"
    },
    {
      "constant": true,
      "inputs": [],
      "name": "isUIntPublic",
      "outputs": [
        {
          "name": "",
          "type": "bool"
        }
      ],
      "payable": false,
      "stateMutability": "pure",
      "type": "function"
    },
    {
      "constant": true,
      "inputs": [],
      "name": "totalGen0",
      "outputs": [
        {
          "name": "",
          "type": "uint256"
        }
      ],
      "payable": false,
      "stateMutability": "view",
      "type": "function"
    },
    {
      "constant": true,
      "inputs": [],
      "name": "lastIdGen0",
      "outputs": [
        {
          "name": "",
          "type": "uint32"
        }
      ],
      "payable": false,
      "stateMutability": "view",
      "type": "function"
    },
    {
      "constant": true,
      "inputs": [],
      "name": "fcontr",
      "outputs": [
        {
          "name": "",
          "type": "bool"
        }
      ],
      "payable": false,
      "stateMutability": "view",
      "type": "function"
    },
    {
      "constant": true,
      "inputs": [
        {
          "name": "",
          "type": "uint32"
        }
      ],
      "name": "rabbitBreedCount",
      "outputs": [
        {
          "name": "",
          "type": "uint256"
        }
      ],
      "payable": false,
      "stateMutability": "view",
      "type": "function"
    },
    {
      "constant": true,
      "inputs": [],
      "name": "isPauseSave",
      "outputs": [
        {
          "name": "",
          "type": "bool"
        }
      ],
      "payable": false,
      "stateMutability": "view",
      "type": "function"
    },
    {
      "constant": true,
      "inputs": [],
      "name": "isPriv",
      "outputs": [
        {
          "name": "",
          "type": "bool"
        }
      ],
      "payable": false,
      "stateMutability": "view",
      "type": "function"
    },
    {
      "constant": true,
      "inputs": [
        {
          "name": "_to",
          "type": "address"
        }
      ],
      "name": "getOwnerGennezise",
      "outputs": [
        {
          "name": "",
          "type": "bool"
        }
      ],
      "payable": false,
      "stateMutability": "view",
      "type": "function"
    },
    {
      "constant": false,
      "inputs": [
        {
          "name": "_to",
          "type": "address"
        },
        {
          "name": "_tokenId",
          "type": "uint32"
        }
      ],
      "name": "transfer",
      "outputs": [],
      "payable": false,
      "stateMutability": "nonpayable",
      "type": "function"
    },
    {
      "constant": true,
      "inputs": [],
      "name": "lastTimeGen0",
      "outputs": [
        {
          "name": "",
          "type": "uint256"
        }
      ],
      "payable": false,
      "stateMutability": "view",
      "type": "function"
    },
    {
      "constant": false,
      "inputs": [
        {
          "name": "_from",
          "type": "address"
        },
        {
          "name": "_to",
          "type": "address"
        },
        {
          "name": "_tokenId",
          "type": "uint32"
        }
      ],
      "name": "transferFrom",
      "outputs": [
        {
          "name": "",
          "type": "bool"
        }
      ],
      "payable": false,
      "stateMutability": "nonpayable",
      "type": "function"
    },
    {
      "constant": true,
      "inputs": [],
      "name": "totalBunny",
      "outputs": [
        {
          "name": "",
          "type": "uint256"
        }
      ],
      "payable": false,
      "stateMutability": "view",
      "type": "function"
    },
    {
      "constant": true,
      "inputs": [],
      "name": "symbol",
      "outputs": [
        {
          "name": "",
          "type": "string"
        }
      ],
      "payable": false,
      "stateMutability": "view",
      "type": "function"
    },
    {
      "constant": true,
      "inputs": [
        {
          "name": "",
          "type": "uint256"
        }
      ],
      "name": "cooldowns",
      "outputs": [
        {
          "name": "",
          "type": "uint32"
        }
      ],
      "payable": false,
      "stateMutability": "view",
      "type": "function"
    },
    {
      "constant": false,
      "inputs": [
        {
          "name": "_to",
          "type": "address"
        },
        {
          "name": "_tokenId",
          "type": "uint32"
        }
      ],
      "name": "approve",
      "outputs": [
        {
          "name": "",
          "type": "bool"
        }
      ],
      "payable": false,
      "stateMutability": "nonpayable",
      "type": "function"
    },
    {
      "constant": true,
      "inputs": [],
      "name": "promoMoney",
      "outputs": [
        {
          "name": "",
          "type": "uint256"
        }
      ],
      "payable": false,
      "stateMutability": "view",
      "type": "function"
    },
    {
      "constant": true,
      "inputs": [],
      "name": "ownerCEO",
      "outputs": [
        {
          "name": "",
          "type": "address"
        }
      ],
      "payable": false,
      "stateMutability": "view",
      "type": "function"
    },
    {
      "constant": true,
      "inputs": [
        {
          "name": "",
          "type": "address"
        },
        {
          "name": "",
          "type": "uint256"
        }
      ],
      "name": "ownerBunnies",
      "outputs": [
        {
          "name": "",
          "type": "uint32"
        }
      ],
      "payable": false,
      "stateMutability": "view",
      "type": "function"
    },
    {
      "constant": true,
      "inputs": [
        {
          "name": "owner",
          "type": "address"
        }
      ],
      "name": "getTokenOwner",
      "outputs": [
        {
          "name": "total",
          "type": "uint256"
        },
        {
          "name": "list",
          "type": "uint32[]"
        }
      ],
      "payable": false,
      "stateMutability": "view",
      "type": "function"
    },
    {
      "constant": true,
      "inputs": [
        {
          "name": "mother",
          "type": "uint32"
        }
      ],
      "name": "getRabbitMother",
      "outputs": [
        {
          "name": "",
          "type": "uint32[5]"
        }
      ],
      "payable": false,
      "stateMutability": "view",
      "type": "function"
    },
    {
      "constant": false,
      "inputs": [
        {
          "name": "_promoMoney",
          "type": "uint256"
        }
      ],
      "name": "setPromoMoney",
      "outputs": [],
      "payable": false,
      "stateMutability": "nonpayable",
      "type": "function"
    },
    {
      "constant": false,
      "inputs": [
        {
          "name": "add",
          "type": "address"
        }
      ],
      "name": "transferOwnership",
      "outputs": [],
      "payable": false,
      "stateMutability": "nonpayable",
      "type": "function"
    },
    {
      "constant": true,
      "inputs": [],
      "name": "getOwnerServer",
      "outputs": [
        {
          "name": "",
          "type": "address"
        }
      ],
      "payable": false,
      "stateMutability": "view",
      "type": "function"
    },
    {
      "constant": true,
      "inputs": [],
      "name": "commission_system",
      "outputs": [
        {
          "name": "",
          "type": "uint256"
        }
      ],
      "payable": false,
      "stateMutability": "view",
      "type": "function"
    },
    {
      "constant": true,
      "inputs": [],
      "name": "totalClosedBID",
      "outputs": [
        {
          "name": "",
          "type": "uint256"
        }
      ],
      "payable": false,
      "stateMutability": "view",
      "type": "function"
    },
    {
      "constant": false,
      "inputs": [],
      "name": "setPromoPause",
      "outputs": [],
      "payable": false,
      "stateMutability": "nonpayable",
      "type": "function"
    },
    {
      "constant": false,
      "inputs": [
        {
          "name": "_ownerMoney",
          "type": "address"
        }
      ],
      "name": "transferOwnerMoney",
      "outputs": [],
      "payable": false,
      "stateMutability": "nonpayable",
      "type": "function"
    },
    {
      "anonymous": false,
      "inputs": [
        {
          "indexed": false,
          "name": "newOwnerBunny",
          "type": "address"
        },
        {
          "indexed": false,
          "name": "bunnyId",
          "type": "uint32"
        }
      ],
      "name": "SendBunny",
      "type": "event"
    },
    {
      "anonymous": false,
      "inputs": [
        {
          "indexed": false,
          "name": "bunnyId",
          "type": "uint32"
        }
      ],
      "name": "StopMarket",
      "type": "event"
    },
    {
      "anonymous": false,
      "inputs": [
        {
          "indexed": false,
          "name": "bunnyId",
          "type": "uint32"
        },
        {
          "indexed": false,
          "name": "money",
          "type": "uint256"
        }
      ],
      "name": "StartMarket",
      "type": "event"
    },
    {
      "anonymous": false,
      "inputs": [
        {
          "indexed": false,
          "name": "bunnyId",
          "type": "uint32"
        },
        {
          "indexed": false,
          "name": "money",
          "type": "uint256"
        }
      ],
      "name": "BunnyBuy",
      "type": "event"
    },
    {
      "anonymous": false,
      "inputs": [
        {
          "indexed": false,
          "name": "mother",
          "type": "uint32"
        },
        {
          "indexed": false,
          "name": "summ",
          "type": "uint256"
        }
      ],
      "name": "EmotherCount",
      "type": "event"
    },
    {
      "anonymous": false,
      "inputs": [
        {
          "indexed": false,
          "name": "bunnyId",
          "type": "uint32"
        },
        {
          "indexed": false,
          "name": "dnk",
          "type": "uint256"
        },
        {
          "indexed": false,
          "name": "blocknumber",
          "type": "uint256"
        },
        {
          "indexed": false,
          "name": "breed",
          "type": "uint256"
        }
      ],
      "name": "NewBunny",
      "type": "event"
    },
    {
      "anonymous": false,
      "inputs": [
        {
          "indexed": false,
          "name": "bunnyId",
          "type": "uint32"
        },
        {
          "indexed": false,
          "name": "sex",
          "type": "bool"
        },
        {
          "indexed": false,
          "name": "price",
          "type": "uint256"
        }
      ],
      "name": "ChengeSex",
      "type": "event"
    },
    {
      "anonymous": false,
      "inputs": [
        {
          "indexed": false,
          "name": "bunnyId",
          "type": "uint32"
        },
        {
          "indexed": false,
          "name": "cost",
          "type": "uint256"
        }
      ],
      "name": "SalaryBunny",
      "type": "event"
    },
    {
      "anonymous": false,
      "inputs": [
        {
          "indexed": false,
          "name": "matron",
          "type": "uint32"
        },
        {
          "indexed": false,
          "name": "sire",
          "type": "uint32"
        },
        {
          "indexed": false,
          "name": "child",
          "type": "uint32"
        }
      ],
      "name": "CreateChildren",
      "type": "event"
    },
    {
      "anonymous": false,
      "inputs": [
        {
          "indexed": false,
          "name": "bunnyId",
          "type": "uint32"
        },
        {
          "indexed": false,
          "name": "name",
          "type": "string"
        }
      ],
      "name": "BunnyName",
      "type": "event"
    },
    {
      "anonymous": false,
      "inputs": [
        {
          "indexed": false,
          "name": "bunnyId",
          "type": "uint32"
        },
        {
          "indexed": false,
          "name": "name",
          "type": "string"
        }
      ],
      "name": "BunnyDescription",
      "type": "event"
    },
    {
      "anonymous": false,
      "inputs": [
        {
          "indexed": false,
          "name": "bunnyId",
          "type": "uint32"
        },
        {
          "indexed": false,
          "name": "num",
          "type": "uint256"
        }
      ],
      "name": "CoolduwnMother",
      "type": "event"
    },
    {
      "anonymous": false,
      "inputs": [
        {
          "indexed": false,
          "name": "from",
          "type": "address"
        },
        {
          "indexed": false,
          "name": "to",
          "type": "address"
        },
        {
          "indexed": false,
          "name": "tokenId",
          "type": "uint32"
        }
      ],
      "name": "Transfer",
      "type": "event"
    },
    {
      "anonymous": false,
      "inputs": [
        {
          "indexed": false,
          "name": "owner",
          "type": "address"
        },
        {
          "indexed": false,
          "name": "approved",
          "type": "address"
        },
        {
          "indexed": false,
          "name": "tokenId",
          "type": "uint32"
        }
      ],
      "name": "Approval",
      "type": "event"
    },
    {
      "anonymous": false,
      "inputs": [
        {
          "indexed": false,
          "name": "owner",
          "type": "address"
        },
        {
          "indexed": false,
          "name": "tokenId",
          "type": "uint32"
        }
      ],
      "name": "OwnerBunnies",
      "type": "event"
    },
    {
      "constant": false,
      "inputs": [
        {
          "name": "money",
          "type": "uint256"
        }
      ],
      "name": "setStepMoney",
      "outputs": [],
      "payable": false,
      "stateMutability": "nonpayable",
      "type": "function"
    },
    {
      "constant": false,
      "inputs": [
        {
          "name": "_money",
          "type": "uint256"
        }
      ],
      "name": "setMoneyRange",
      "outputs": [],
      "payable": false,
      "stateMutability": "nonpayable",
      "type": "function"
    },
    {
      "constant": true,
      "inputs": [
        {
          "name": "_bunnyid",
          "type": "uint32"
        }
      ],
      "name": "currentPrice",
      "outputs": [
        {
          "name": "",
          "type": "uint256"
        }
      ],
      "payable": false,
      "stateMutability": "view",
      "type": "function"
    },
    {
      "constant": false,
      "inputs": [
        {
          "name": "_bunnyid",
          "type": "uint32"
        },
        {
          "name": "_money",
          "type": "uint256"
        }
      ],
      "name": "startMarket",
      "outputs": [
        {
          "name": "",
          "type": "uint256"
        }
      ],
      "payable": false,
      "stateMutability": "nonpayable",
      "type": "function"
    },
    {
      "constant": false,
      "inputs": [
        {
          "name": "_bunnyid",
          "type": "uint32"
        }
      ],
      "name": "stopMarket",
      "outputs": [
        {
          "name": "",
          "type": "uint256"
        }
      ],
      "payable": false,
      "stateMutability": "nonpayable",
      "type": "function"
    },
    {
      "constant": false,
      "inputs": [
        {
          "name": "_bunnyid",
          "type": "uint32"
        }
      ],
      "name": "buyBunny",
      "outputs": [],
      "payable": true,
      "stateMutability": "payable",
      "type": "function"
    },
    {
      "constant": false,
      "inputs": [
        {
          "name": "bunnyid",
          "type": "uint32"
        },
        {
          "name": "add",
          "type": "address"
        }
      ],
      "name": "giff",
      "outputs": [],
      "payable": false,
      "stateMutability": "nonpayable",
      "type": "function"
    },
    {
      "constant": true,
      "inputs": [],
      "name": "getMarketCount",
      "outputs": [
        {
          "name": "",
          "type": "uint256"
        }
      ],
      "payable": false,
      "stateMutability": "view",
      "type": "function"
    }
  ],
  "bytecode": "0x608060405273982a49414fd95e3268d3559540a67b03e40acd64600460006101000a81548173ffffffffffffffffffffffffffffffffffffffff021916908373ffffffffffffffffffffffffffffffffffffffff1602179055506000600460146101000a81548160ff0219169083151502179055506601c6bf52634000600555600560065560006008556001600a556109c4600b55600554600102600c556000600d60006101000a81548160ff02191690831515021790555061018060405190810160405280603c63ffffffff1663ffffffff168152602001607863ffffffff1663ffffffff16815260200160f063ffffffff1663ffffffff1681526020016101e063ffffffff1663ffffffff1681526020016103c063ffffffff1663ffffffff16815260200161078063ffffffff1663ffffffff168152602001610e1063ffffffff1663ffffffff168152602001611c2063ffffffff1663ffffffff16815260200161384063ffffffff1663ffffffff16815260200161708063ffffffff1663ffffffff16815260200161e10063ffffffff1663ffffffff1681526020016201518063ffffffff1663ffffffff16815250601590600c620001c3929190620003d2565b506000601e556000601f60146101000a81548160ff021916908315150217905550611c206020556000602155600160225560016023556014602460006101000a81548160ff021916908360ff1602179055506001602655600060275560006029556000602b55336000806101000a81548173ffffffffffffffffffffffffffffffffffffffff021916908373ffffffffffffffffffffffffffffffffffffffff16021790555033600260006101000a81548173ffffffffffffffffffffffffffffffffffffffff021916908373ffffffffffffffffffffffffffffffffffffffff16021790555033600160006101000a81548173ffffffffffffffffffffffffffffffffffffffff021916908373ffffffffffffffffffffffffffffffffffffffff16021790555062000327600460009054906101000a900473ffffffffffffffffffffffffffffffffffffffff1662000349640100000000026401000000009004565b506001601f60146101000a81548160ff021916908315150217905550620004b2565b600081600360006101000a81548173ffffffffffffffffffffffffffffffffffffffff021916908373ffffffffffffffffffffffffffffffffffffffff16021790555081601f60006101000a81548173ffffffffffffffffffffffffffffffffffffffff021916908373ffffffffffffffffffffffffffffffffffffffff160217905550919050565b82600c600701600890048101928215620004695791602002820160005b838211156200043557835183826101000a81548163ffffffff021916908363ffffffff1602179055509260200192600401602081600301049283019260010302620003ef565b8015620004675782816101000a81549063ffffffff021916905560040160208160030104928301926001030262000435565b505b5090506200047891906200047c565b5090565b620004af91905b80821115620004ab57600081816101000a81549063ffffffff02191690555060010162000483565b5090565b90565b613bc780620004c26000396000f300608060405260043610610317576000357c0100000000000000000000000000000000000000000000000000000000900463ffffffff16806303602e9e1461031c57806305caca6c1461037357806306873418146103b657806306fdde031461040b5780630847c7a21461049b57806309828a47146104e257806312448c3214610511578063146c1b5e1461056e57806314c588de146105b557806314f1cf0c146105e257806318160ddd14610655578063193d5b77146106805780631e923f1b146106cb5780631ee550801461072257806323b7ec3b146107695780632573751f146107dc57806327904ee0146108335780632a335c171461087a578063308c0065146108c157806333506115146109085780633c9ff012146109375780633ec27c4a14610962578063433bd9241461098f5780634b72bbaf146109da5780634e2fd44e14610a215780634fd839c614610a7c578063553fd04314610ac357806359dc2eec14610af057806359e4eec914610b735780635ceb8bc814610bc457806362075af414610bf3578063625101d514610c465780636b53305714610c9d57806370a0823114610ce457806370a7e2dd14610d3b57806370d4d7b414610deb5780637214d6c314610e165780637230ef7f14610e45578063731f49b714610e7057806374479db014610ea75780637759187f14610ed65780637878b66a14610f1d5780637cbd544414610f4c5780637ea2bbac14610f7b5780638009748414610fd65780638231ee981461102957806384269ed914611054578063847ec2de146110df57806395d89b411461110a5780639d6fac6f1461119a578063a210a676146111e7578063a7e945421461120d578063ad5a157d14611278578063c17c0456146112a3578063d00dbcb0146112fa578063dc17c9ca14611367578063df4b297014611406578063eea23d8a14611475578063ef229dc7146114a2578063f2fde38b146114cf578063f3cee12914611512578063f628842214611569578063f65045df14611594578063fae8c29e146115bf578063fb6c2b6f146115d6578063fd69f3c21461161d578063fdaacf1b14611648575b600080fd5b34801561032857600080fd5b5061033161168b565b604051808273ffffffffffffffffffffffffffffffffffffffff1673ffffffffffffffffffffffffffffffffffffffff16815260200191505060405180910390f35b34801561037f57600080fd5b506103b4600480360381019080803573ffffffffffffffffffffffffffffffffffffffff169060200190929190505050611710565b005b3480156103c257600080fd5b506103e7600480360381019080803563ffffffff1690602001909291905050506117e6565b60405180848152602001838152602001828152602001935050505060405180910390f35b34801561041757600080fd5b506104206118a8565b6040518080602001828103825283818151815260200191508051906020019080838360005b83811015610460578082015181840152602081019050610445565b50505050905090810190601f16801561048d5780820380516001836020036101000a031916815260200191505b509250505060405180910390f35b3480156104a757600080fd5b506104cc600480360381019080803563ffffffff1690602001909291905050506118e1565b6040518082815260200191505060405180910390f35b3480156104ee57600080fd5b506104f76118f9565b604051808215151515815260200191505060405180910390f35b34801561051d57600080fd5b5061054c600480360381019080803563ffffffff1690602001909291908035906020019092919050505061190c565b604051808263ffffffff1663ffffffff16815260200191505060405180910390f35b34801561057a57600080fd5b5061059f600480360381019080803563ffffffff16906020019092919050505061194a565b6040518082815260200191505060405180910390f35b3480156105c157600080fd5b506105e060048036038101908080359060200190929190505050611962565b005b3480156105ee57600080fd5b50610613600480360381019080803563ffffffff1690602001909291905050506119c7565b604051808273ffffffffffffffffffffffffffffffffffffffff1673ffffffffffffffffffffffffffffffffffffffff16815260200191505060405180910390f35b34801561066157600080fd5b5061066a6119fa565b6040518082815260200191505060405180910390f35b34801561068c57600080fd5b506106b1600480360381019080803563ffffffff169060200190929190505050611a04565b604051808215151515815260200191505060405180910390f35b3480156106d757600080fd5b506106e0611a3b565b604051808273ffffffffffffffffffffffffffffffffffffffff1673ffffffffffffffffffffffffffffffffffffffff16815260200191505060405180910390f35b34801561072e57600080fd5b50610753600480360381019080803563ffffffff169060200190929190505050611a61565b6040518082815260200191505060405180910390f35b34801561077557600080fd5b5061079a600480360381019080803563ffffffff169060200190929190505050611a8a565b604051808273ffffffffffffffffffffffffffffffffffffffff1673ffffffffffffffffffffffffffffffffffffffff16815260200191505060405180910390f35b3480156107e857600080fd5b506108116004803603810190808035906020019092919080359060200190929190505050611ad3565b604051808263ffffffff1663ffffffff16815260200191505060405180910390f35b34801561083f57600080fd5b50610864600480360381019080803563ffffffff169060200190929190505050611b1b565b6040518082815260200191505060405180910390f35b34801561088657600080fd5b506108ab600480360381019080803563ffffffff169060200190929190505050611b9f565b6040518082815260200191505060405180910390f35b3480156108cd57600080fd5b506108f2600480360381019080803563ffffffff169060200190929190505050611bc8565b6040518082815260200191505060405180910390f35b34801561091457600080fd5b5061091d611c46565b604051808215151515815260200191505060405180910390f35b34801561094357600080fd5b5061094c611cd1565b6040518082815260200191505060405180910390f35b34801561096e57600080fd5b5061098d60048036038101908080359060200190929190505050611cd7565b005b34801561099b57600080fd5b506109c0600480360381019080803563ffffffff169060200190929190505050611d3c565b604051808215151515815260200191505060405180910390f35b3480156109e657600080fd5b50610a0b600480360381019080803563ffffffff169060200190929190505050611e3f565b6040518082815260200191505060405180910390f35b348015610a2d57600080fd5b50610a62600480360381019080803573ffffffffffffffffffffffffffffffffffffffff169060200190929190505050611f2d565b604051808215151515815260200191505060405180910390f35b348015610a8857600080fd5b50610aad600480360381019080803563ffffffff169060200190929190505050611fb6565b6040518082815260200191505060405180910390f35b348015610acf57600080fd5b50610aee60048036038101908080359060200190929190505050611fdf565b005b348015610afc57600080fd5b50610b1b60048036038101908080359060200190929190505050612044565b604051808863ffffffff1663ffffffff1681526020018763ffffffff1663ffffffff16815260200186815260200185815260200184815260200183815260200182815260200197505050505050505060405180910390f35b348015610b7f57600080fd5b50610bae600480360381019080803563ffffffff169060200190929190803590602001909291905050506120b5565b6040518082815260200191505060405180910390f35b348015610bd057600080fd5b50610bd96121dc565b604051808215151515815260200191505060405180910390f35b348015610bff57600080fd5b50610c44600480360381019080803563ffffffff169060200190929190803573ffffffffffffffffffffffffffffffffffffffff1690602001909291905050506122ab565b005b348015610c5257600080fd5b50610c5b61236d565b604051808273ffffffffffffffffffffffffffffffffffffffff1673ffffffffffffffffffffffffffffffffffffffff16815260200191505060405180910390f35b348015610ca957600080fd5b50610cce600480360381019080803563ffffffff1690602001909291905050506123f2565b6040518082815260200191505060405180910390f35b348015610cf057600080fd5b50610d25600480360381019080803573ffffffffffffffffffffffffffffffffffffffff16906020019092919050505061240a565b6040518082815260200191505060405180910390f35b348015610d4757600080fd5b50610d6c600480360381019080803563ffffffff169060200190929190505050612456565b604051808d63ffffffff1663ffffffff1681526020018c63ffffffff1663ffffffff1681526020018b81526020018a8152602001898152602001888152602001878152602001861515151581526020018581526020018481526020018381526020018281526020019c5050505050505050505050505060405180910390f35b348015610df757600080fd5b50610e00612667565b6040518082815260200191505060405180910390f35b348015610e2257600080fd5b50610e2b61266d565b604051808215151515815260200191505060405180910390f35b348015610e5157600080fd5b50610e5a612676565b6040518082815260200191505060405180910390f35b348015610e7c57600080fd5b50610e8561267c565b604051808263ffffffff1663ffffffff16815260200191505060405180910390f35b348015610eb357600080fd5b50610ebc612692565b604051808215151515815260200191505060405180910390f35b348015610ee257600080fd5b50610f07600480360381019080803563ffffffff1690602001909291905050506126a5565b6040518082815260200191505060405180910390f35b348015610f2957600080fd5b50610f326126bd565b604051808215151515815260200191505060405180910390f35b348015610f5857600080fd5b50610f616126d5565b604051808215151515815260200191505060405180910390f35b348015610f8757600080fd5b50610fbc600480360381019080803573ffffffffffffffffffffffffffffffffffffffff16906020019092919050505061279d565b604051808215151515815260200191505060405180910390f35b348015610fe257600080fd5b50611027600480360381019080803573ffffffffffffffffffffffffffffffffffffffff169060200190929190803563ffffffff1690602001909291905050506127f3565b005b34801561103557600080fd5b5061103e6129f0565b6040518082815260200191505060405180910390f35b34801561106057600080fd5b506110c5600480360381019080803573ffffffffffffffffffffffffffffffffffffffff169060200190929190803573ffffffffffffffffffffffffffffffffffffffff169060200190929190803563ffffffff1690602001909291905050506129f6565b604051808215151515815260200191505060405180910390f35b3480156110eb57600080fd5b506110f4612bb7565b6040518082815260200191505060405180910390f35b34801561111657600080fd5b5061111f612bbd565b6040518080602001828103825283818151815260200191508051906020019080838360005b8381101561115f578082015181840152602081019050611144565b50505050905090810190601f16801561118c5780820380516001836020036101000a031916815260200191505b509250505060405180910390f35b3480156111a657600080fd5b506111c560048036038101908080359060200190929190505050612bf6565b604051808263ffffffff1663ffffffff16815260200191505060405180910390f35b61120b600480360381019080803563ffffffff169060200190929190505050612c25565b005b34801561121957600080fd5b5061125e600480360381019080803573ffffffffffffffffffffffffffffffffffffffff169060200190929190803563ffffffff169060200190929190505050612e51565b604051808215151515815260200191505060405180910390f35b34801561128457600080fd5b5061128d612e5c565b6040518082815260200191505060405180910390f35b3480156112af57600080fd5b506112b8612e62565b604051808273ffffffffffffffffffffffffffffffffffffffff1673ffffffffffffffffffffffffffffffffffffffff16815260200191505060405180910390f35b34801561130657600080fd5b50611345600480360381019080803573ffffffffffffffffffffffffffffffffffffffff16906020019092919080359060200190929190505050612e87565b604051808263ffffffff1663ffffffff16815260200191505060405180910390f35b34801561137357600080fd5b506113a8600480360381019080803573ffffffffffffffffffffffffffffffffffffffff169060200190929190505050612ecf565b6040518083815260200180602001828103825283818151815260200191508051906020019060200280838360005b838110156113f15780820151818401526020810190506113d6565b50505050905001935050505060405180910390f35b34801561141257600080fd5b50611437600480360381019080803563ffffffff169060200190929190505050612fd9565b6040518082600560200280838360005b83811015611462578082015181840152602081019050611447565b5050505090500191505060405180910390f35b34801561148157600080fd5b506114a06004803603810190808035906020019092919050505061306f565b005b3480156114ae57600080fd5b506114cd600480360381019080803590602001909291905050506130d4565b005b3480156114db57600080fd5b50611510600480360381019080803573ffffffffffffffffffffffffffffffffffffffff169060200190929190505050613139565b005b34801561151e57600080fd5b5061152761320e565b604051808273ffffffffffffffffffffffffffffffffffffffff1673ffffffffffffffffffffffffffffffffffffffff16815260200191505060405180910390f35b34801561157557600080fd5b5061157e613293565b6040518082815260200191505060405180910390f35b3480156115a057600080fd5b506115a9613299565b6040518082815260200191505060405180910390f35b3480156115cb57600080fd5b506115d461329f565b005b3480156115e257600080fd5b50611607600480360381019080803563ffffffff169060200190929190505050613326565b6040518082815260200191505060405180910390f35b34801561162957600080fd5b50611632613435565b6040518082815260200191505060405180910390f35b34801561165457600080fd5b50611689600480360381019080803573ffffffffffffffffffffffffffffffffffffffff16906020019092919050505061343f565b005b60008060009054906101000a900473ffffffffffffffffffffffffffffffffffffffff1673ffffffffffffffffffffffffffffffffffffffff163373ffffffffffffffffffffffffffffffffffffffff161415156116e857600080fd5b600360009054906101000a900473ffffffffffffffffffffffffffffffffffffffff16905090565b6000809054906101000a900473ffffffffffffffffffffffffffffffffffffffff1673ffffffffffffffffffffffffffffffffffffffff163373ffffffffffffffffffffffffffffffffffffffff1614151561176b57600080fd5b600073ffffffffffffffffffffffffffffffffffffffff168173ffffffffffffffffffffffffffffffffffffffff161415156117e35780600260006101000a81548173ffffffffffffffffffffffffffffffffffffffff021916908373ffffffffffffffffffffffffffffffffffffffff1602179055505b50565b600080600060176001850363ffffffff1681548110151561180357fe5b9060005260206000209060060201600201549150600e82111561182557600e91505b60176001850363ffffffff1681548110151561183d57fe5b906000526020600020906006020160030154601583600c8110151561185e57fe5b600891828204019190066004029054906101000a900463ffffffff1663ffffffff16019250428311156118a15761189e428461351590919063ffffffff16565b90505b9193909250565b6040805190810160405280600d81526020017f43727970746f526162626974730000000000000000000000000000000000000081525081565b60126020528060005260406000206000915090505481565b600d60009054906101000a900460ff1681565b600f6020528160005260406000208160058110151561192757fe5b60089182820401919006600402915091509054906101000a900463ffffffff1681565b60106020528060005260406000206000915090505481565b6000809054906101000a900473ffffffffffffffffffffffffffffffffffffffff1673ffffffffffffffffffffffffffffffffffffffff163373ffffffffffffffffffffffffffffffffffffffff161415156119bd57600080fd5b80600b8190555050565b60186020528060005260406000206000915054906101000a900473ffffffffffffffffffffffffffffffffffffffff1681565b6000601e54905090565b6000601c60008363ffffffff1663ffffffff16815260200190815260200160002060009054906101000a900460ff16159050919050565b600460009054906101000a900473ffffffffffffffffffffffffffffffffffffffff1681565b6000601060008363ffffffff1663ffffffff168152602001908152602001600020549050919050565b6000601860008363ffffffff1663ffffffff16815260200190815260200160002060009054906101000a900473ffffffffffffffffffffffffffffffffffffffff169050919050565b601360205281600052604060002081815481101515611aee57fe5b9060005260206000209060089182820401919006600402915091509054906101000a900463ffffffff1681565b600080600090505b6005811015611b99576000600f60008563ffffffff1663ffffffff16815260200190815260200160002082600581101515611b5a57fe5b600891828204019190066004029054906101000a900463ffffffff1663ffffffff16141515611b8c5781806001019250505b8080600101915050611b23565b50919050565b6000600e60008363ffffffff1663ffffffff168152602001908152602001600020549050919050565b6000806000602c60008563ffffffff1663ffffffff1681526020019081526020016000205491506000821115611c3e57611c0c60648361352e90919063ffffffff16565b9050611c2260058261354990919063ffffffff16565b9050611c37818361358490919063ffffffff16565b9250611c3f565b5b5050919050565b60008060009054906101000a900473ffffffffffffffffffffffffffffffffffffffff1673ffffffffffffffffffffffffffffffffffffffff163373ffffffffffffffffffffffffffffffffffffffff16141515611ca357600080fd5b600460149054906101000a900460ff1615600460146101000a81548160ff0219169083151502179055905090565b600a5481565b6000809054906101000a900473ffffffffffffffffffffffffffffffffffffffff1673ffffffffffffffffffffffffffffffffffffffff163373ffffffffffffffffffffffffffffffffffffffff16141515611d3257600080fd5b80600a8190555050565b60008060008060018503945060008563ffffffff161415611d5c57611e37565b60178563ffffffff16815481101515611d7157fe5b906000526020600020906006020160030154925060178563ffffffff16815481101515611d9a57fe5b9060005260206000209060060201600201549150601582600c81101515611dbd57fe5b600891828204019190066004029054906101000a900463ffffffff1663ffffffff169050611df4838261358490919063ffffffff16565b9050428111158015611e2c5750600060178663ffffffff16815481101515611e1857fe5b906000526020600020906006020160040154145b15611e3657600193505b5b505050919050565b600080600080600160176001870363ffffffff16815481101515611e5f57fe5b9060005260206000209060060201600401541415611f20576064601260008763ffffffff1663ffffffff16815260200190815260200160002054811515611ea257fe5b049250611eb960198461354990919063ffffffff16565b9150611ed06006548461354990919063ffffffff16565b9050611f04601260008763ffffffff1663ffffffff168152602001908152602001600020548361358490919063ffffffff16565b9150611f19818361358490919063ffffffff16565b9350611f25565b600093505b505050919050565b600081600360006101000a81548173ffffffffffffffffffffffffffffffffffffffff021916908373ffffffffffffffffffffffffffffffffffffffff16021790555081601f60006101000a81548173ffffffffffffffffffffffffffffffffffffffff021916908373ffffffffffffffffffffffffffffffffffffffff160217905550919050565b6000601460008363ffffffff1663ffffffff168152602001908152602001600020549050919050565b6000809054906101000a900473ffffffffffffffffffffffffffffffffffffffff1673ffffffffffffffffffffffffffffffffffffffff163373ffffffffffffffffffffffffffffffffffffffff1614151561203a57600080fd5b8060288190555050565b60178181548110151561205357fe5b90600052602060002090600602016000915090508060000160009054906101000a900463ffffffff16908060000160049054906101000a900463ffffffff16908060010154908060020154908060030154908060040154908060050154905087565b60006120bf6126bd565b15156120ca57600080fd5b60055482101515156120db57600080fd5b3373ffffffffffffffffffffffffffffffffffffffff16601860008563ffffffff1663ffffffff16815260200190815260200160002060009054906101000a900473ffffffffffffffffffffffffffffffffffffffff1673ffffffffffffffffffffffffffffffffffffffff1614151561215457600080fd5b81602c60008563ffffffff1663ffffffff168152602001908152602001600020819055507fae8365010d3a77defa2d2909289a7792338a008a7be42c339b0162045093a9628383604051808363ffffffff1663ffffffff1681526020018281526020019250505060405180910390a16021600081548092919060010191905055905092915050565b6000600260009054906101000a900473ffffffffffffffffffffffffffffffffffffffff1673ffffffffffffffffffffffffffffffffffffffff163373ffffffffffffffffffffffffffffffffffffffff16148061228657506000809054906101000a900473ffffffffffffffffffffffffffffffffffffffff1673ffffffffffffffffffffffffffffffffffffffff163373ffffffffffffffffffffffffffffffffffffffff16145b1561229457600190506122a8565b600d60009054906101000a900460ff161590505b90565b3373ffffffffffffffffffffffffffffffffffffffff16601860008463ffffffff1663ffffffff16815260200190815260200160002060009054906101000a900473ffffffffffffffffffffffffffffffffffffffff1673ffffffffffffffffffffffffffffffffffffffff1614151561232457600080fd5b601c60008363ffffffff1663ffffffff16815260200190815260200160002060009054906101000a900460ff1615151561235d57600080fd5b6123683382846129f6565b505050565b60008060009054906101000a900473ffffffffffffffffffffffffffffffffffffffff1673ffffffffffffffffffffffffffffffffffffffff163373ffffffffffffffffffffffffffffffffffffffff161415156123ca57600080fd5b600160009054906101000a900473ffffffffffffffffffffffffffffffffffffffff16905090565b600e6020528060005260406000206000915090505481565b6000601960008373ffffffffffffffffffffffffffffffffffffffff1673ffffffffffffffffffffffffffffffffffffffff168152602001908152602001600020805490509050919050565b6000806000806000806000806000806000806124718d611e3f565b915060018d039c5060178d63ffffffff1681548110151561248e57fe5b906000526020600020906006020160000160009054906101000a900463ffffffff169b5060178d63ffffffff168154811015156124c757fe5b906000526020600020906006020160000160049054906101000a900463ffffffff169a5060178d63ffffffff1681548110151561250057fe5b906000526020600020906006020160010154995060178d63ffffffff1681548110151561252957fe5b906000526020600020906006020160020154985060178d63ffffffff1681548110151561255257fe5b906000526020600020906006020160030154975060178d63ffffffff1681548110151561257b57fe5b906000526020600020906006020160040154965060178d63ffffffff168154811015156125a457fe5b9060005260206000209060060201600501549550600e8911156125c657600e98505b601060008e63ffffffff1663ffffffff168152602001908152602001600020549050601589600c811015156125f757fe5b600891828204019190066004029054906101000a900463ffffffff1663ffffffff16925061262e888461358490919063ffffffff16565b925042831115156126425760019450612658565b612655428461351590919063ffffffff16565b93505b91939597999b5091939597999b565b600b5481565b60006001905090565b60085481565b600760009054906101000a900463ffffffff1681565b601f60149054906101000a900460ff1681565b60116020528060005260406000206000915090505481565b6000600460149054906101000a900460ff1615905090565b6000601f60009054906101000a900473ffffffffffffffffffffffffffffffffffffffff1673ffffffffffffffffffffffffffffffffffffffff1663ccb0893d6040518163ffffffff167c0100000000000000000000000000000000000000000000000000000000028152600401602060405180830381600087803b15801561275d57600080fd5b505af1158015612771573d6000803e3d6000fd5b505050506040513d602081101561278757600080fd5b8101908080519060200190929190505050905090565b6000601d60008373ffffffffffffffffffffffffffffffffffffffff1673ffffffffffffffffffffffffffffffffffffffff16815260200190815260200160002060009054906101000a900460ff169050919050565b600080339150601860008463ffffffff1663ffffffff16815260200190815260200160002060009054906101000a900473ffffffffffffffffffffffffffffffffffffffff1690503373ffffffffffffffffffffffffffffffffffffffff16601860008563ffffffff1663ffffffff16815260200190815260200160002060009054906101000a900473ffffffffffffffffffffffffffffffffffffffff1673ffffffffffffffffffffffffffffffffffffffff161415156128b457600080fd5b8373ffffffffffffffffffffffffffffffffffffffff168273ffffffffffffffffffffffffffffffffffffffff16141515156128ef57600080fd5b600073ffffffffffffffffffffffffffffffffffffffff168473ffffffffffffffffffffffffffffffffffffffff161415151561292b57600080fd5b61293581846135a2565b61293f84846138e0565b7f0daf680c3f528a8760b5142fe1f6f80d5f4ea18bb76f347a7a44a2d565c2b7dc818585604051808473ffffffffffffffffffffffffffffffffffffffff1673ffffffffffffffffffffffffffffffffffffffff1681526020018373ffffffffffffffffffffffffffffffffffffffff1673ffffffffffffffffffffffffffffffffffffffff1681526020018263ffffffff1663ffffffff168152602001935050505060405180910390a150505050565b60095481565b600080601860008463ffffffff1663ffffffff16815260200190815260200160002060009054906101000a900473ffffffffffffffffffffffffffffffffffffffff1690508473ffffffffffffffffffffffffffffffffffffffff168173ffffffffffffffffffffffffffffffffffffffff16141515612a7557600080fd5b8373ffffffffffffffffffffffffffffffffffffffff168173ffffffffffffffffffffffffffffffffffffffff1614151515612ab057600080fd5b600073ffffffffffffffffffffffffffffffffffffffff168473ffffffffffffffffffffffffffffffffffffffff1614151515612aec57600080fd5b612af681846135a2565b612b0084846138e0565b7f0daf680c3f528a8760b5142fe1f6f80d5f4ea18bb76f347a7a44a2d565c2b7dc818585604051808473ffffffffffffffffffffffffffffffffffffffff1673ffffffffffffffffffffffffffffffffffffffff1681526020018373ffffffffffffffffffffffffffffffffffffffff1673ffffffffffffffffffffffffffffffffffffffff1681526020018263ffffffff1663ffffffff168152602001935050505060405180910390a160019150509392505050565b601e5481565b6040805190810160405280600381526020017f435242000000000000000000000000000000000000000000000000000000000081525081565b601581600c81101515612c0557fe5b60089182820401919006600402915054906101000a900463ffffffff1681565b6000612c2f6126bd565b1515612c3a57600080fd5b3373ffffffffffffffffffffffffffffffffffffffff16601860008463ffffffff1663ffffffff16815260200190815260200160002060009054906101000a900473ffffffffffffffffffffffffffffffffffffffff1673ffffffffffffffffffffffffffffffffffffffff1614151515612cb457600080fd5b612cbd82611bc8565b9050803410158015612cd0575080600014155b1515612cdb57600080fd5b602b60008154809291906001019190505550612d36601860008463ffffffff1663ffffffff16815260200190815260200160002060009054906101000a900473ffffffffffffffffffffffffffffffffffffffff1634613a47565b612d80601860008463ffffffff1663ffffffff16815260200190815260200160002060009054906101000a900473ffffffffffffffffffffffffffffffffffffffff1633846129f6565b50612d8a82613326565b507faa8b4456e402faf0f19bd69217f4f33657a1be47890a1c1130fba16e233d04c08282604051808363ffffffff1663ffffffff1681526020018281526020019250505060405180910390a17fbe094b3f5b6f49f63819500ee3f9149336c47d4b6d3c809583c9ed3b5a458b3e3383604051808373ffffffffffffffffffffffffffffffffffffffff1673ffffffffffffffffffffffffffffffffffffffff1681526020018263ffffffff1663ffffffff1681526020019250505060405180910390a15050565b600080905092915050565b600c5481565b6000809054906101000a900473ffffffffffffffffffffffffffffffffffffffff1681565b601960205281600052604060002081815481101515612ea257fe5b9060005260206000209060089182820401919006600402915091509054906101000a900463ffffffff1681565b60006060601960008473ffffffffffffffffffffffffffffffffffffffff1673ffffffffffffffffffffffffffffffffffffffff168152602001908152602001600020805490509150601960008473ffffffffffffffffffffffffffffffffffffffff1673ffffffffffffffffffffffffffffffffffffffff168152602001908152602001600020805480602002602001604051908101604052809291908181526020018280548015612fcd57602002820191906000526020600020906000905b82829054906101000a900463ffffffff1663ffffffff1681526020019060040190602082600301049283019260010382029150808411612f905790505b50505050509050915091565b612fe1613b19565b600f60008363ffffffff1663ffffffff168152602001908152602001600020600580602002604051908101604052809291908260058015613063576020028201916000905b82829054906101000a900463ffffffff1663ffffffff16815260200190600401906020826003010492830192600103820291508084116130265790505b50505050509050919050565b6000809054906101000a900473ffffffffffffffffffffffffffffffffffffffff1673ffffffffffffffffffffffffffffffffffffffff163373ffffffffffffffffffffffffffffffffffffffff161415156130ca57600080fd5b80600c8190555050565b6000809054906101000a900473ffffffffffffffffffffffffffffffffffffffff1673ffffffffffffffffffffffffffffffffffffffff163373ffffffffffffffffffffffffffffffffffffffff1614151561312f57600080fd5b8060208190555050565b6000809054906101000a900473ffffffffffffffffffffffffffffffffffffffff1673ffffffffffffffffffffffffffffffffffffffff163373ffffffffffffffffffffffffffffffffffffffff1614151561319457600080fd5b600073ffffffffffffffffffffffffffffffffffffffff168173ffffffffffffffffffffffffffffffffffffffff1614151561320b57806000806101000a81548173ffffffffffffffffffffffffffffffffffffffff021916908373ffffffffffffffffffffffffffffffffffffffff1602179055505b50565b60008060009054906101000a900473ffffffffffffffffffffffffffffffffffffffff1673ffffffffffffffffffffffffffffffffffffffff163373ffffffffffffffffffffffffffffffffffffffff1614151561326b57600080fd5b600260009054906101000a900473ffffffffffffffffffffffffffffffffffffffff16905090565b60065481565b602b5481565b6000809054906101000a900473ffffffffffffffffffffffffffffffffffffffff1673ffffffffffffffffffffffffffffffffffffffff163373ffffffffffffffffffffffffffffffffffffffff161415156132fa57600080fd5b600d60009054906101000a900460ff1615600d60006101000a81548160ff021916908315150217905550565b60006133306126bd565b151561333b57600080fd5b3373ffffffffffffffffffffffffffffffffffffffff16601860008463ffffffff1663ffffffff16815260200190815260200160002060009054906101000a900473ffffffffffffffffffffffffffffffffffffffff1673ffffffffffffffffffffffffffffffffffffffff161415156133b457600080fd5b6000602c60008463ffffffff1663ffffffff168152602001908152602001600020819055507ff58a4f70d4c7b287095adb658be31ce93550932214806e2535581c2c4d7f30bd82604051808263ffffffff1663ffffffff16815260200191505060405180910390a16021600081548092919060019003919050559050919050565b6000602154905090565b6000809054906101000a900473ffffffffffffffffffffffffffffffffffffffff1673ffffffffffffffffffffffffffffffffffffffff163373ffffffffffffffffffffffffffffffffffffffff1614151561349a57600080fd5b600073ffffffffffffffffffffffffffffffffffffffff168173ffffffffffffffffffffffffffffffffffffffff161415156135125780600160006101000a81548173ffffffffffffffffffffffffffffffffffffffff021916908373ffffffffffffffffffffffffffffffffffffffff1602179055505b50565b600082821115151561352357fe5b818303905092915050565b600080828481151561353c57fe5b0490508091505092915050565b600080600084141561355e576000915061357d565b828402905082848281151561356f57fe5b0414151561357957fe5b8091505b5092915050565b600080828401905083811015151561359857fe5b8091505092915050565b600080601960008573ffffffffffffffffffffffffffffffffffffffff1673ffffffffffffffffffffffffffffffffffffffff168152602001908152602001600020805490509150600090505b818110156138d9578263ffffffff16601960008673ffffffffffffffffffffffffffffffffffffffff1673ffffffffffffffffffffffffffffffffffffffff1681526020019081526020016000208281548110151561364a57fe5b90600052602060002090600891828204019190066004029054906101000a900463ffffffff1663ffffffff1614156138cc57601960008573ffffffffffffffffffffffffffffffffffffffff1673ffffffffffffffffffffffffffffffffffffffff168152602001908152602001600020818154811015156136c857fe5b90600052602060002090600891828204019190066004026101000a81549063ffffffff02191690556000821180156137035750600181038214155b1561387457601960008573ffffffffffffffffffffffffffffffffffffffff1673ffffffffffffffffffffffffffffffffffffffff1681526020019081526020016000206001830381548110151561375757fe5b90600052602060002090600891828204019190066004029054906101000a900463ffffffff16601960008673ffffffffffffffffffffffffffffffffffffffff1673ffffffffffffffffffffffffffffffffffffffff168152602001908152602001600020828154811015156137c957fe5b90600052602060002090600891828204019190066004026101000a81548163ffffffff021916908363ffffffff160217905550601960008573ffffffffffffffffffffffffffffffffffffffff1673ffffffffffffffffffffffffffffffffffffffff1681526020019081526020016000206001830381548110151561384b57fe5b90600052602060002090600891828204019190066004026101000a81549063ffffffff02191690555b601960008573ffffffffffffffffffffffffffffffffffffffff1673ffffffffffffffffffffffffffffffffffffffff1681526020019081526020016000208054809190600190036138c69190613b3c565b506138da565b80806001019150506135ef565b5b50505050565b601960008373ffffffffffffffffffffffffffffffffffffffff1673ffffffffffffffffffffffffffffffffffffffff16815260200190815260200160002081908060018154018082558091505090600182039060005260206000209060089182820401919006600402909192909190916101000a81548163ffffffff021916908363ffffffff160217905550507ffa8e2129ea92b2ced664f0497f946a9596ced2af4bd0950bfccd6c6e2078103a8282604051808373ffffffffffffffffffffffffffffffffffffffff1673ffffffffffffffffffffffffffffffffffffffff1681526020018263ffffffff1663ffffffff1681526020019250505060405180910390a181601860008363ffffffff1663ffffffff16815260200190815260200160002060006101000a81548173ffffffffffffffffffffffffffffffffffffffff021916908373ffffffffffffffffffffffffffffffffffffffff1602179055505050565b8173ffffffffffffffffffffffffffffffffffffffff166108fc605f606484811515613a6f57fe5b04029081150290604051600060405180830381858888f19350505050158015613a9c573d6000803e3d6000fd5b50600160009054906101000a900473ffffffffffffffffffffffffffffffffffffffff1673ffffffffffffffffffffffffffffffffffffffff166108fc6005606484811515613ae757fe5b04029081150290604051600060405180830381858888f19350505050158015613b14573d6000803e3d6000fd5b505050565b60a060405190810160405280600590602082028038833980820191505090505090565b815481835581811115613b71576007016008900481600701600890048360005260206000209182019101613b709190613b76565b5b505050565b613b9891905b80821115613b94576000816000905550600101613b7c565b5090565b905600a165627a7a72305820005e3cdd49d1efb6929dc5484c86dbcb5d368f9612c2b50b7ab8718b036848860029",
  "source": "pragma solidity ^0.4.23;\nimport \"./BodyRabbit.sol\"; \n\n/**\n* sale and bye Rabbits\n*/\ncontract RabbitMarket is BodyRabbit {\n \n // Long time\n    uint stepMoney = 2*60*60;\n           \n    function setStepMoney(uint money) public onlyOwner {\n        stepMoney = money;\n    }\n    /**\n    * @dev number of rabbits participating in the auction\n    */\n    uint marketCount = 0; \n\n    uint daysperiod = 1;\n    uint sec = 1;\n    // how many last sales to take into account in the contract before the formation of the price\n    uint8 middlelast = 20;\n    \n   \n     \n    //        \n    mapping(uint32 => uint256[]) internal marketRabbits;\n    //     \n     \n    \n    //    \n    uint256 middlePriceMoney = 1;\n    //   \n    uint256 middleSaleTime = 0; \n    //     \n    uint moneyRange;\n\n    /**\n    * @param _money  \n     */\n    function setMoneyRange(uint _money) public onlyOwner {\n        moneyRange = _money;\n    }\n     \n    // the last cost of a sold seal\n    uint lastmoney = 0;  \n    // the time which was spent on the sale of the cat\n    uint lastTimeGen0;\n\n    //how many closed auctions\n    uint public totalClosedBID = 0;\n    mapping (uint32 => uint) bunnyCost; \n    mapping(uint32 => uint) bidsIndex;\n \n\n    /**\n    * @dev get rabbit price\n    */\n    function currentPrice(uint32 _bunnyid) public view returns(uint) {\n\n        uint money = bunnyCost[_bunnyid];\n        if (money > 0) {\n            uint moneyComs = money.div(100);\n            moneyComs = moneyComs.mul(5);\n            return money.add(moneyComs);\n        }\n    }\n    /**\n    * @dev We are selling rabbit for sale\n    * @param _bunnyid - whose rabbit we exhibit \n    * @param _money - sale amount \n    */\n  function startMarket(uint32 _bunnyid, uint _money) public returns (uint) {\n        require(isPauseSave());\n        require(_money >= bigPrice);\n        require(rabbitToOwner[_bunnyid] ==  msg.sender);\n        bunnyCost[_bunnyid] = _money;\n        emit StartMarket(_bunnyid, _money);\n        return marketCount++;\n    }\n\n\n    /**\n    * @dev remove from sale rabbit\n    * @param _bunnyid - a rabbit that is removed from sale \n    */\n    function stopMarket(uint32 _bunnyid) public returns(uint) {\n        require(isPauseSave());\n        require(rabbitToOwner[_bunnyid] == msg.sender);  \n        bunnyCost[_bunnyid] = 0;\n        emit StopMarket(_bunnyid);\n        return marketCount--;\n    }\n\n    /**\n    * @dev Acquisition of a rabbit from another user\n    * @param _bunnyid  Bunny\n     */\n    function buyBunny(uint32 _bunnyid) public payable {\n        require(isPauseSave());\n        require(rabbitToOwner[_bunnyid] != msg.sender);\n        uint price = currentPrice(_bunnyid);\n\n        require(msg.value >= price && 0 != price);\n        // stop trading on the current rabbit\n        totalClosedBID++;\n        // Sending money to the old user\n        sendMoney(rabbitToOwner[_bunnyid], msg.value);\n        // is sent to the new owner of the bought rabbit\n        transferFrom(rabbitToOwner[_bunnyid], msg.sender, _bunnyid); \n        stopMarket(_bunnyid); \n\n        emit BunnyBuy(_bunnyid, price);\n        emit SendBunny (msg.sender, _bunnyid);\n    } \n\n    /**\n    * @dev give a rabbit to a specific user\n    * @param add new address owner rabbits\n    */\n    function giff(uint32 bunnyid, address add) public {\n        require(rabbitToOwner[bunnyid] == msg.sender);\n        // a rabbit taken for free can not be given\n        require(!(giffblock[bunnyid]));\n        transferFrom(msg.sender, add, bunnyid);\n    }\n\n    function getMarketCount() public view returns(uint) {\n        return marketCount;\n    }\n}\n",
  "sourcePath": "/home/koras/contracts/publicRabbit/pub/contracts/RabbitMarket.sol",
  "compiler": {
    "name": "solc",
    "version": "0.4.23+commit.124ca40d.Emscripten.clang"
  },
  "schemaVersion": "2.0.0",
  "updatedAt": "2018-08-18T15:23:05.052Z"
}