{
  "contractName": "RabbitMarket",
  "abi": [
    {
      "constant": true,
      "inputs": [],
      "name": "getPrivAddress",
      "outputs": [
        {
          "name": "",
          "type": "address"
        }
      ],
      "payable": false,
      "stateMutability": "view",
      "type": "function"
    },
    {
      "constant": false,
      "inputs": [
        {
          "name": "add",
          "type": "address"
        }
      ],
      "name": "transferOwnershipServer",
      "outputs": [],
      "payable": false,
      "stateMutability": "nonpayable",
      "type": "function"
    },
    {
      "constant": true,
      "inputs": [],
      "name": "name",
      "outputs": [
        {
          "name": "",
          "type": "string"
        }
      ],
      "payable": false,
      "stateMutability": "view",
      "type": "function"
    },
    {
      "constant": true,
      "inputs": [
        {
          "name": "",
          "type": "uint32"
        }
      ],
      "name": "rabbitSirePrice",
      "outputs": [
        {
          "name": "",
          "type": "uint256"
        }
      ],
      "payable": false,
      "stateMutability": "view",
      "type": "function"
    },
    {
      "constant": true,
      "inputs": [],
      "name": "ownerTech",
      "outputs": [
        {
          "name": "",
          "type": "address"
        }
      ],
      "payable": false,
      "stateMutability": "view",
      "type": "function"
    },
    {
      "constant": true,
      "inputs": [
        {
          "name": "",
          "type": "uint32"
        },
        {
          "name": "",
          "type": "uint256"
        }
      ],
      "name": "rabbitMother",
      "outputs": [
        {
          "name": "",
          "type": "uint32"
        }
      ],
      "payable": false,
      "stateMutability": "view",
      "type": "function"
    },
    {
      "constant": false,
      "inputs": [
        {
          "name": "_promoGen0",
          "type": "uint256"
        }
      ],
      "name": "setPromoGen0",
      "outputs": [],
      "payable": false,
      "stateMutability": "nonpayable",
      "type": "function"
    },
    {
      "constant": true,
      "inputs": [
        {
          "name": "",
          "type": "uint32"
        }
      ],
      "name": "rabbitToOwner",
      "outputs": [
        {
          "name": "",
          "type": "address"
        }
      ],
      "payable": false,
      "stateMutability": "view",
      "type": "function"
    },
    {
      "constant": true,
      "inputs": [],
      "name": "totalSupply",
      "outputs": [
        {
          "name": "total",
          "type": "uint32"
        }
      ],
      "payable": false,
      "stateMutability": "view",
      "type": "function"
    },
    {
      "constant": true,
      "inputs": [],
      "name": "myAddr_test",
      "outputs": [
        {
          "name": "",
          "type": "address"
        }
      ],
      "payable": false,
      "stateMutability": "view",
      "type": "function"
    },
    {
      "constant": true,
      "inputs": [
        {
          "name": "_tokenId",
          "type": "uint32"
        }
      ],
      "name": "ownerOf",
      "outputs": [
        {
          "name": "owner",
          "type": "address"
        }
      ],
      "payable": false,
      "stateMutability": "view",
      "type": "function"
    },
    {
      "constant": false,
      "inputs": [],
      "name": "setPauseSave",
      "outputs": [
        {
          "name": "",
          "type": "bool"
        }
      ],
      "payable": false,
      "stateMutability": "nonpayable",
      "type": "function"
    },
    {
      "constant": true,
      "inputs": [
        {
          "name": "",
          "type": "uint32"
        }
      ],
      "name": "rabbitRole",
      "outputs": [
        {
          "name": "",
          "type": "uint256"
        }
      ],
      "payable": false,
      "stateMutability": "view",
      "type": "function"
    },
    {
      "constant": true,
      "inputs": [
        {
          "name": "",
          "type": "uint32"
        }
      ],
      "name": "rabbitDescription",
      "outputs": [
        {
          "name": "",
          "type": "string"
        }
      ],
      "payable": false,
      "stateMutability": "view",
      "type": "function"
    },
    {
      "constant": true,
      "inputs": [],
      "name": "timeRangeCreateGen0",
      "outputs": [
        {
          "name": "",
          "type": "uint256"
        }
      ],
      "payable": false,
      "stateMutability": "view",
      "type": "function"
    },
    {
      "constant": false,
      "inputs": [
        {
          "name": "_sec",
          "type": "uint256"
        }
      ],
      "name": "setTimeRangeGen0",
      "outputs": [],
      "payable": false,
      "stateMutability": "nonpayable",
      "type": "function"
    },
    {
      "constant": true,
      "inputs": [
        {
          "name": "",
          "type": "uint256"
        }
      ],
      "name": "bidsArray",
      "outputs": [
        {
          "name": "rabbitID",
          "type": "uint32"
        },
        {
          "name": "startMoney",
          "type": "uint256"
        },
        {
          "name": "timeStart",
          "type": "uint256"
        }
      ],
      "payable": false,
      "stateMutability": "view",
      "type": "function"
    },
    {
      "constant": false,
      "inputs": [
        {
          "name": "_privAddress",
          "type": "address"
        }
      ],
      "name": "setPriv",
      "outputs": [
        {
          "name": "",
          "type": "bool"
        }
      ],
      "payable": false,
      "stateMutability": "nonpayable",
      "type": "function"
    },
    {
      "constant": true,
      "inputs": [
        {
          "name": "bunnyid",
          "type": "uint32"
        }
      ],
      "name": "getRabbitDNK",
      "outputs": [
        {
          "name": "",
          "type": "uint256"
        }
      ],
      "payable": false,
      "stateMutability": "view",
      "type": "function"
    },
    {
      "constant": true,
      "inputs": [
        {
          "name": "",
          "type": "uint256"
        }
      ],
      "name": "rabbits",
      "outputs": [
        {
          "name": "mother",
          "type": "uint32"
        },
        {
          "name": "sire",
          "type": "uint32"
        },
        {
          "name": "birthblock",
          "type": "uint256"
        },
        {
          "name": "birthCount",
          "type": "uint256"
        },
        {
          "name": "birthLastTime",
          "type": "uint256"
        }
      ],
      "payable": false,
      "stateMutability": "view",
      "type": "function"
    },
    {
      "constant": true,
      "inputs": [],
      "name": "getOwnerMoney",
      "outputs": [
        {
          "name": "",
          "type": "address"
        }
      ],
      "payable": false,
      "stateMutability": "view",
      "type": "function"
    },
    {
      "constant": true,
      "inputs": [
        {
          "name": "",
          "type": "uint32"
        }
      ],
      "name": "totalSalaryBunny",
      "outputs": [
        {
          "name": "",
          "type": "uint256"
        }
      ],
      "payable": false,
      "stateMutability": "view",
      "type": "function"
    },
    {
      "constant": true,
      "inputs": [
        {
          "name": "_owner",
          "type": "address"
        }
      ],
      "name": "balanceOf",
      "outputs": [
        {
          "name": "",
          "type": "uint256"
        }
      ],
      "payable": false,
      "stateMutability": "view",
      "type": "function"
    },
    {
      "constant": true,
      "inputs": [],
      "name": "promoGen0",
      "outputs": [
        {
          "name": "",
          "type": "uint256"
        }
      ],
      "payable": false,
      "stateMutability": "view",
      "type": "function"
    },
    {
      "constant": true,
      "inputs": [],
      "name": "isUIntPublic",
      "outputs": [
        {
          "name": "",
          "type": "bool"
        }
      ],
      "payable": false,
      "stateMutability": "pure",
      "type": "function"
    },
    {
      "constant": true,
      "inputs": [],
      "name": "totalGen0",
      "outputs": [
        {
          "name": "",
          "type": "uint256"
        }
      ],
      "payable": false,
      "stateMutability": "view",
      "type": "function"
    },
    {
      "constant": true,
      "inputs": [],
      "name": "lastIdGen0",
      "outputs": [
        {
          "name": "",
          "type": "uint32"
        }
      ],
      "payable": false,
      "stateMutability": "view",
      "type": "function"
    },
    {
      "constant": true,
      "inputs": [],
      "name": "fcontr",
      "outputs": [
        {
          "name": "",
          "type": "bool"
        }
      ],
      "payable": false,
      "stateMutability": "view",
      "type": "function"
    },
    {
      "constant": true,
      "inputs": [],
      "name": "isPauseSave",
      "outputs": [
        {
          "name": "",
          "type": "bool"
        }
      ],
      "payable": false,
      "stateMutability": "view",
      "type": "function"
    },
    {
      "constant": true,
      "inputs": [],
      "name": "isPriv",
      "outputs": [
        {
          "name": "",
          "type": "bool"
        }
      ],
      "payable": false,
      "stateMutability": "view",
      "type": "function"
    },
    {
      "constant": true,
      "inputs": [],
      "name": "ownerMoney",
      "outputs": [
        {
          "name": "",
          "type": "address"
        }
      ],
      "payable": false,
      "stateMutability": "view",
      "type": "function"
    },
    {
      "constant": true,
      "inputs": [],
      "name": "lastTimeGen0",
      "outputs": [
        {
          "name": "",
          "type": "uint256"
        }
      ],
      "payable": false,
      "stateMutability": "view",
      "type": "function"
    },
    {
      "constant": true,
      "inputs": [],
      "name": "totalBunny",
      "outputs": [
        {
          "name": "",
          "type": "uint32"
        }
      ],
      "payable": false,
      "stateMutability": "view",
      "type": "function"
    },
    {
      "constant": false,
      "inputs": [
        {
          "name": "add",
          "type": "address"
        }
      ],
      "name": "transferOwnershipTechnical",
      "outputs": [],
      "payable": false,
      "stateMutability": "nonpayable",
      "type": "function"
    },
    {
      "constant": true,
      "inputs": [],
      "name": "symbol",
      "outputs": [
        {
          "name": "",
          "type": "string"
        }
      ],
      "payable": false,
      "stateMutability": "view",
      "type": "function"
    },
    {
      "constant": true,
      "inputs": [
        {
          "name": "",
          "type": "uint256"
        }
      ],
      "name": "cooldowns",
      "outputs": [
        {
          "name": "",
          "type": "uint32"
        }
      ],
      "payable": false,
      "stateMutability": "view",
      "type": "function"
    },
    {
      "constant": false,
      "inputs": [
        {
          "name": "_to",
          "type": "address"
        },
        {
          "name": "_tokenId",
          "type": "uint32"
        }
      ],
      "name": "approve",
      "outputs": [],
      "payable": false,
      "stateMutability": "nonpayable",
      "type": "function"
    },
    {
      "constant": true,
      "inputs": [],
      "name": "privAddress",
      "outputs": [
        {
          "name": "",
          "type": "address"
        }
      ],
      "payable": false,
      "stateMutability": "view",
      "type": "function"
    },
    {
      "constant": true,
      "inputs": [],
      "name": "promoMoney",
      "outputs": [
        {
          "name": "",
          "type": "uint256"
        }
      ],
      "payable": false,
      "stateMutability": "view",
      "type": "function"
    },
    {
      "constant": true,
      "inputs": [],
      "name": "ownerCEO",
      "outputs": [
        {
          "name": "",
          "type": "address"
        }
      ],
      "payable": false,
      "stateMutability": "view",
      "type": "function"
    },
    {
      "constant": true,
      "inputs": [],
      "name": "getOwnerTech",
      "outputs": [
        {
          "name": "",
          "type": "address"
        }
      ],
      "payable": false,
      "stateMutability": "view",
      "type": "function"
    },
    {
      "constant": true,
      "inputs": [
        {
          "name": "",
          "type": "address"
        },
        {
          "name": "",
          "type": "uint256"
        }
      ],
      "name": "ownerBunnies",
      "outputs": [
        {
          "name": "",
          "type": "uint32"
        }
      ],
      "payable": false,
      "stateMutability": "view",
      "type": "function"
    },
    {
      "constant": true,
      "inputs": [
        {
          "name": "owner",
          "type": "address"
        }
      ],
      "name": "getTokenList",
      "outputs": [
        {
          "name": "",
          "type": "uint32[]"
        }
      ],
      "payable": false,
      "stateMutability": "view",
      "type": "function"
    },
    {
      "constant": true,
      "inputs": [],
      "name": "ownerServer",
      "outputs": [
        {
          "name": "",
          "type": "address"
        }
      ],
      "payable": false,
      "stateMutability": "view",
      "type": "function"
    },
    {
      "constant": false,
      "inputs": [
        {
          "name": "_promoMoney",
          "type": "uint256"
        }
      ],
      "name": "setPromoMoney",
      "outputs": [],
      "payable": false,
      "stateMutability": "nonpayable",
      "type": "function"
    },
    {
      "constant": false,
      "inputs": [
        {
          "name": "add",
          "type": "address"
        }
      ],
      "name": "transferOwnership",
      "outputs": [],
      "payable": false,
      "stateMutability": "nonpayable",
      "type": "function"
    },
    {
      "constant": true,
      "inputs": [],
      "name": "getOwnerServer",
      "outputs": [
        {
          "name": "",
          "type": "address"
        }
      ],
      "payable": false,
      "stateMutability": "view",
      "type": "function"
    },
    {
      "constant": true,
      "inputs": [
        {
          "name": "",
          "type": "uint32"
        }
      ],
      "name": "rabbitName",
      "outputs": [
        {
          "name": "",
          "type": "string"
        }
      ],
      "payable": false,
      "stateMutability": "view",
      "type": "function"
    },
    {
      "constant": true,
      "inputs": [],
      "name": "totalClosedBID",
      "outputs": [
        {
          "name": "",
          "type": "uint256"
        }
      ],
      "payable": false,
      "stateMutability": "view",
      "type": "function"
    },
    {
      "constant": false,
      "inputs": [
        {
          "name": "_ownerMoney",
          "type": "address"
        }
      ],
      "name": "transferOwnerMoney",
      "outputs": [],
      "payable": false,
      "stateMutability": "nonpayable",
      "type": "function"
    },
    {
      "anonymous": false,
      "inputs": [
        {
          "indexed": false,
          "name": "newOwnerBunny",
          "type": "address"
        },
        {
          "indexed": false,
          "name": "bunnyId",
          "type": "uint32"
        }
      ],
      "name": "SendBunny",
      "type": "event"
    },
    {
      "anonymous": false,
      "inputs": [
        {
          "indexed": false,
          "name": "from",
          "type": "address"
        },
        {
          "indexed": false,
          "name": "to",
          "type": "address"
        },
        {
          "indexed": false,
          "name": "tokenId",
          "type": "uint32"
        }
      ],
      "name": "Transfer",
      "type": "event"
    },
    {
      "anonymous": false,
      "inputs": [
        {
          "indexed": false,
          "name": "owner",
          "type": "address"
        },
        {
          "indexed": false,
          "name": "approved",
          "type": "address"
        },
        {
          "indexed": false,
          "name": "tokenId",
          "type": "uint32"
        }
      ],
      "name": "Approval",
      "type": "event"
    },
    {
      "constant": false,
      "inputs": [
        {
          "name": "money",
          "type": "uint256"
        }
      ],
      "name": "setStepMoney",
      "outputs": [],
      "payable": false,
      "stateMutability": "nonpayable",
      "type": "function"
    },
    {
      "constant": false,
      "inputs": [
        {
          "name": "period",
          "type": "uint256"
        }
      ],
      "name": "setDayPeriod",
      "outputs": [
        {
          "name": "",
          "type": "uint256"
        }
      ],
      "payable": false,
      "stateMutability": "nonpayable",
      "type": "function"
    },
    {
      "constant": false,
      "inputs": [
        {
          "name": "_money",
          "type": "uint256"
        }
      ],
      "name": "setMoneyRange",
      "outputs": [],
      "payable": false,
      "stateMutability": "nonpayable",
      "type": "function"
    },
    {
      "constant": false,
      "inputs": [
        {
          "name": "_bunnyid",
          "type": "uint32"
        },
        {
          "name": "_money",
          "type": "uint256"
        }
      ],
      "name": "setMarket",
      "outputs": [],
      "payable": false,
      "stateMutability": "nonpayable",
      "type": "function"
    },
    {
      "constant": true,
      "inputs": [
        {
          "name": "bunnyid",
          "type": "uint32"
        }
      ],
      "name": "currentPrice",
      "outputs": [
        {
          "name": "",
          "type": "uint256"
        }
      ],
      "payable": false,
      "stateMutability": "view",
      "type": "function"
    },
    {
      "constant": false,
      "inputs": [
        {
          "name": "_bunnyid",
          "type": "uint32"
        }
      ],
      "name": "buyBunny",
      "outputs": [],
      "payable": true,
      "stateMutability": "payable",
      "type": "function"
    },
    {
      "constant": true,
      "inputs": [
        {
          "name": "rabbitid",
          "type": "uint256"
        }
      ],
      "name": "deleteRabbitMarket",
      "outputs": [],
      "payable": false,
      "stateMutability": "pure",
      "type": "function"
    },
    {
      "constant": true,
      "inputs": [
        {
          "name": "rabbitid",
          "type": "uint32"
        },
        {
          "name": "step",
          "type": "uint256"
        }
      ],
      "name": "bidMarket",
      "outputs": [],
      "payable": false,
      "stateMutability": "view",
      "type": "function"
    },
    {
      "constant": false,
      "inputs": [
        {
          "name": "bunnyid",
          "type": "uint32"
        },
        {
          "name": "add",
          "type": "address"
        }
      ],
      "name": "giff",
      "outputs": [],
      "payable": false,
      "stateMutability": "nonpayable",
      "type": "function"
    },
    {
      "constant": true,
      "inputs": [
        {
          "name": "page",
          "type": "uint256"
        }
      ],
      "name": "getBids",
      "outputs": [
        {
          "name": "rabbitID",
          "type": "uint32[12]"
        },
        {
          "name": "rabbitSeller",
          "type": "address[12]"
        },
        {
          "name": "startMoneyBids",
          "type": "uint256[12]"
        },
        {
          "name": "timeStartBids",
          "type": "uint256[12]"
        },
        {
          "name": "currentPriceBids",
          "type": "uint256[12]"
        },
        {
          "name": "elementEnd",
          "type": "uint256"
        },
        {
          "name": "elementTotal",
          "type": "uint256"
        }
      ],
      "payable": false,
      "stateMutability": "view",
      "type": "function"
    },
    {
      "constant": false,
      "inputs": [
        {
          "name": "_bunnyID",
          "type": "uint32"
        }
      ],
      "name": "stopMarket",
      "outputs": [
        {
          "name": "",
          "type": "uint256"
        }
      ],
      "payable": false,
      "stateMutability": "nonpayable",
      "type": "function"
    },
    {
      "constant": true,
      "inputs": [],
      "name": "getMarketCount",
      "outputs": [
        {
          "name": "",
          "type": "uint256"
        }
      ],
      "payable": false,
      "stateMutability": "view",
      "type": "function"
    }
  ],
  "bytecode": "0x6004805460a060020a60ff0219169055655af3107a4000600555600060075560016009556109c4600a55633b9aca00600b55610260604052603c6080908152607860a05260f060c0526101e060e08190526103c06101005261078061012052610e1061014052611c2061016052613840610180526170806101a05261e1006101c0526201518090526202a30061020052620546006102205262093a8061024052620000af90601090600f620001fe565b506017805463ffffffff60c060020a60ff02011916905560188054600160a060020a0319908116738d6086910c66465be6aa2dba55a51f13734270fc1791829055611c206019556001601a819055601c819055601d819055601e805460ff1916601417905560218190556000602281905560248190556027819055805433600160a060020a039081169185168217909255600280548516821790556003805485168217905582549093169092179055620001739116640100000000620001a5810204565b506017805460c060020a60ff0219167801000000000000000000000000000000000000000000000000179055620002c8565b60048054600160a060020a031916600160a060020a03929092169182179055601780547fffffffffffffffff0000000000000000000000000000000000000000ffffffff16640100000000909202919091179055600090565b6002830191839082156200028f5791602002820160005b838211156200025b57835183826101000a81548163ffffffff021916908363ffffffff160217905550926020019260040160208160030104928301926001030262000215565b80156200028d5782816101000a81549063ffffffff02191690556004016020816003010492830192600103026200025b565b505b506200029d929150620002a1565b5090565b620002c591905b808211156200029d57805463ffffffff19168155600101620002a8565b90565b611f0e80620002d86000396000f3006080604052600436106102df5763ffffffff7c010000000000000000000000000000000000000000000000000000000060003504166303602e9e81146102e457806305caca6c1461031557806306fdde03146103385780630847c7a2146103c25780630b336eab146103f257806312448c3214610407578063131d9a271461044157806314c588de1461055057806314f1cf0c1461056857806318160ddd146105865780631e923f1b1461059b57806323b7ec3b146105b0578063308c0065146105ce57806333506115146105ec5780633721026c146106155780633b23f9c0146106335780633c9ff012146106515780633ec27c4a14610666578063480892a91461067e5780634e2fd44e146106bb5780634fd839c6146106dc578063553fd043146106fa57806359dc2eec1461071257806362075af41461075e578063625101d5146107885780636b5330571461079d57806370a08231146107bb57806370d4d7b4146107dc5780637214d6c3146107f15780637230ef7f14610806578063731f49b71461081b57806373edbc221461083057806374479db0146108515780637878b66a146108665780637cbd54441461087b57806381310d09146108905780638231ee98146108a5578063847ec2de146108ba57806384fcfb34146108cf5780638638fc3c146108e757806395d89b41146109085780639d6fac6f1461091d5780639fa0fe1014610935578063a210a67614610956578063a7e9454214610967578063a94beee214610991578063ad5a157d146109a6578063c17c0456146109bb578063c7191bc7146109d0578063d00dbcb0146109e5578063d8a3073214610a09578063de3bb65414610a7a578063e8defac714610a8f578063eea23d8a14610aa7578063ef229dc714610abf578063f2fde38b14610ad7578063f3cee12914610af8578063f46b888e14610b0d578063f65045df14610b2b578063fb6c2b6f14610b40578063fd69f3c214610b5e578063fdaacf1b14610b73575b600080fd5b3480156102f057600080fd5b506102f9610b94565b60408051600160a060020a039092168252519081900360200190f35b34801561032157600080fd5b50610336600160a060020a0360043516610bc1565b005b34801561034457600080fd5b5061034d610c17565b6040805160208082528351818301528351919283929083019185019080838360005b8381101561038757818101518382015260200161036f565b50505050905090810190601f1680156103b45780820380516001836020036101000a031916815260200191505b509250505060405180910390f35b3480156103ce57600080fd5b506103e063ffffffff60043516610c4e565b60408051918252519081900360200190f35b3480156103fe57600080fd5b506102f9610c60565b34801561041357600080fd5b5061042863ffffffff60043516602435610c6f565b6040805163ffffffff9092168252519081900360200190f35b34801561044d57600080fd5b50610459600435610cb7565b604051808861018080838360005b8381101561047f578181015183820152602001610467565b5050505090500187600c60200280838360005b838110156104aa578181015183820152602001610492565b5050505090500186600c60200280838360005b838110156104d55781810151838201526020016104bd565b5050505090500185600c60200280838360005b838110156105005781810151838201526020016104e8565b5050505090500184600c60200280838360005b8381101561052b578181015183820152602001610513565b5050505090500183815260200182815260200197505050505050505060405180910390f35b34801561055c57600080fd5b50610336600435610e22565b34801561057457600080fd5b506102f963ffffffff60043516610e42565b34801561059257600080fd5b50610428610e5d565b3480156105a757600080fd5b506102f9610e69565b3480156105bc57600080fd5b506102f963ffffffff60043516610e78565b3480156105da57600080fd5b506103e063ffffffff60043516610e99565b3480156105f857600080fd5b50610601610f22565b604080519115158252519081900360200190f35b34801561062157600080fd5b506103e063ffffffff60043516610f84565b34801561063f57600080fd5b5061034d63ffffffff60043516610f96565b34801561065d57600080fd5b506103e0611031565b34801561067257600080fd5b50610336600435611037565b34801561068a57600080fd5b50610696600435611072565b6040805163ffffffff9094168452602084019290925282820152519081900360600190f35b3480156106c757600080fd5b50610601600160a060020a036004351661109a565b3480156106e857600080fd5b506103e063ffffffff600435166110f9565b34801561070657600080fd5b50610336600435611111565b34801561071e57600080fd5b5061072a60043561114c565b6040805163ffffffff9687168152949095166020850152838501929092526060830152608082015290519081900360a00190f35b34801561076a57600080fd5b5061033663ffffffff60043516600160a060020a0360243516611198565b34801561079457600080fd5b506102f96111d5565b3480156107a957600080fd5b506103e063ffffffff60043516611201565b3480156107c757600080fd5b506103e0600160a060020a0360043516611213565b3480156107e857600080fd5b506103e061122e565b3480156107fd57600080fd5b50610601611234565b34801561081257600080fd5b506103e0611239565b34801561082757600080fd5b5061042861123f565b34801561083c57600080fd5b5061033663ffffffff6004351660243561124b565b34801561085d57600080fd5b5061060161130c565b34801561087257600080fd5b50610601611331565b34801561088757600080fd5b50610601611353565b34801561089c57600080fd5b506102f96113f2565b3480156108b157600080fd5b506103e0611401565b3480156108c657600080fd5b50610428611407565b3480156108db57600080fd5b50610336600435610c14565b3480156108f357600080fd5b50610336600160a060020a0360043516611413565b34801561091457600080fd5b5061034d61146a565b34801561092957600080fd5b506104286004356114a1565b34801561094157600080fd5b5061033663ffffffff600435166024356114ce565b61033663ffffffff600435166114e1565b34801561097357600080fd5b50610336600160a060020a036004351663ffffffff602435166111d1565b34801561099d57600080fd5b506102f9611647565b3480156109b257600080fd5b506103e0611656565b3480156109c757600080fd5b506102f961165c565b3480156109dc57600080fd5b506102f961166b565b3480156109f157600080fd5b50610428600160a060020a0360043516602435611697565b348015610a1557600080fd5b50610a2a600160a060020a03600435166116b2565b60408051602080825283518183015283519192839290830191858101910280838360005b83811015610a66578181015183820152602001610a4e565b505050509050019250505060405180910390f35b348015610a8657600080fd5b506102f961174a565b348015610a9b57600080fd5b506103e0600435611759565b348015610ab357600080fd5b506103366004356117a5565b348015610acb57600080fd5b506103366004356117c5565b348015610ae357600080fd5b50610336600160a060020a0360043516611800565b348015610b0457600080fd5b506102f9611857565b348015610b1957600080fd5b5061034d63ffffffff60043516611883565b348015610b3757600080fd5b506103e06118eb565b348015610b4c57600080fd5b506103e063ffffffff600435166118f1565b348015610b6a57600080fd5b506103e0611a0f565b348015610b7f57600080fd5b50610336600160a060020a0360043516611a15565b6000805433600160a060020a03908116911614610bb057600080fd5b50600454600160a060020a03165b90565b60005433600160a060020a03908116911614610bdc57600080fd5b600160a060020a03811615610c14576003805473ffffffffffffffffffffffffffffffffffffffff1916600160a060020a0383161790555b50565b60408051808201909152600d81527f43727970746f5261626269747300000000000000000000000000000000000000602082015281565b601b6020526000908152604090205481565b600254600160a060020a031681565b600d60205281600052604060002081815481101515610c8a57fe5b9060005260206000209060089182820401919006600402915091509054906101000a900463ffffffff1681565b610cbf611e52565b610cc7611e52565b610ccf611e52565b610cd7611e52565b610cdf611e52565b60008080600c81808060018d1015610cf65760019c505b838d029650601a54871115610d0b57601a5496505b5050601a5493506000198b018202600101805b86600101811015610e125760008181526028602052604090205463ffffffff169450848c84600c8110610d4d57fe5b63ffffffff92831660209182029290920191909152908616600090815260139091526040902054600160a060020a03168b84600c8110610d8957fe5b600160a060020a03909216602092830291909101526000828152602890915260409020600101548a84600c8110610dbc57fe5b602090810291909101919091526000828152602890915260409020600201548984600c8110610de757fe5b6020020152610df585610e99565b8884600c8110610e0157fe5b602002015260019283019201610d1e565b5050505050919395979092949650565b60005433600160a060020a03908116911614610e3d57600080fd5b600a55565b601360205260009081526040902054600160a060020a031681565b60175463ffffffff1690565b601854600160a060020a031681565b63ffffffff16600090815260136020526040902054600160a060020a031690565b63ffffffff8116600090815260296020908152604080832054808452602890925282206002810154600190910154601954849042849003908290819015610f155760195483811515610ee757fe5b0491508115801590610ef857508415155b15610f11576103e88504905080600a0285039350610f15565b8493505b5091979650505050505050565b6000805433600160a060020a03908116911614610f3e57600080fd5b506004805474ff0000000000000000000000000000000000000000198116740100000000000000000000000000000000000000009182900460ff16159182021790915590565b600e6020526000908152604090205481565b60156020908152600091825260409182902080548351601f6002600019610100600186161502019093169290920491820184900484028101840190945280845290918301828280156110295780601f10610ffe57610100808354040283529160200191611029565b820191906000526020600020905b81548152906001019060200180831161100c57829003601f168201915b505050505081565b60095481565b60025433600160a060020a0390811691161480611062575060005433600160a060020a039081169116145b151561106d57600080fd5b600955565b60286020526000908152604090208054600182015460029092015463ffffffff909116919083565b6004805473ffffffffffffffffffffffffffffffffffffffff1916600160a060020a039290921691821790556017805477ffffffffffffffffffffffffffffffffffffffff000000001916640100000000909202919091179055600090565b63ffffffff166000908152600f602052604090205490565b60025433600160a060020a039081169116148061113c575060005433600160a060020a039081169116145b151561114757600080fd5b602355565b601280548290811061115a57fe5b6000918252602090912060049091020180546001820154600283015460039093015463ffffffff808416955064010000000090930490921692909185565b63ffffffff821660009081526013602052604090205433600160a060020a039081169116146111c657600080fd5b6111d1338284611a5f565b5050565b6000805433600160a060020a039081169116146111f157600080fd5b50600154600160a060020a031690565b600c6020526000908152604090205481565b600160a060020a031660009081526014602052604090205490565b600a5481565b600190565b60075481565b60065463ffffffff1681565b611253611e72565b61125b611331565b151561126657600080fd5b63ffffffff831660009081526013602052604090205433600160a060020a0390811691161461129457600080fd5b506005546040805160608101825263ffffffff94851680825293909202602080840191825242848401908152601a80546000908152602884528581209651875463ffffffff19169916989098178655925160018087019190915590516002909501949094558154948652602990529320829055019055565b6017547801000000000000000000000000000000000000000000000000900460ff1681565b60045474010000000000000000000000000000000000000000900460ff161590565b6000601760049054906101000a9004600160a060020a0316600160a060020a031663ccb0893d6040518163ffffffff167c0100000000000000000000000000000000000000000000000000000000028152600401602060405180830381600087803b1580156113c157600080fd5b505af11580156113d5573d6000803e3d6000fd5b505050506040513d60208110156113eb57600080fd5b5051905090565b600154600160a060020a031681565b60085481565b60175463ffffffff1681565b60005433600160a060020a0390811691161461142e57600080fd5b600160a060020a03811615610c145760028054600160a060020a03831673ffffffffffffffffffffffffffffffffffffffff1990911617905550565b60408051808201909152600381527f4352420000000000000000000000000000000000000000000000000000000000602082015281565b601081600f81106114ae57fe5b60089182820401919006600402915054906101000a900463ffffffff1681565b6114d6611331565b15156111d157600080fd5b60006114eb611331565b15156114f657600080fd5b63ffffffff821660009081526013602052604090205433600160a060020a039081169116141561152557600080fd5b61152e82610e99565b905080341015801561153f57508015155b151561154a57600080fd5b611553826118f1565b5060278054600101905563ffffffff821660009081526013602052604090205461158790600160a060020a03163384611a5f565b63ffffffff82166000908152601360205260409020546115b090600160a060020a031634611b25565b60408051808201825282815263ffffffff841660008181526029602090815284822054825260288152848220600201544203818501908152602754835260268252918590209351845590516001909301929092558251600160a060020a03331681529182015281517fbe094b3f5b6f49f63819500ee3f9149336c47d4b6d3c809583c9ed3b5a458b3e929181900390910190a15050565b600454600160a060020a031681565b600b5481565b600054600160a060020a031681565b6000805433600160a060020a0390811691161461168757600080fd5b50600254600160a060020a031690565b601460205281600052604060002081815481101515610c8a57fe5b600160a060020a03811660009081526014602090815260409182902080548351818402810184019094528084526060939283018282801561173e57602002820191906000526020600020906000905b82829054906101000a900463ffffffff1663ffffffff16815260200190600401906020826003010492830192600103820291508084116117015790505b50505050509050919050565b600354600160a060020a031681565b60025460009033600160a060020a0390811691161480611787575060005433600160a060020a039081169116145b151561179257600080fd5b50601c8190556201518002601d81905590565b60005433600160a060020a039081169116146117c057600080fd5b600b55565b60025433600160a060020a03908116911614806117f0575060005433600160a060020a039081169116145b15156117fb57600080fd5b601955565b60005433600160a060020a0390811691161461181b57600080fd5b600160a060020a03811615610c145760008054600160a060020a03831673ffffffffffffffffffffffffffffffffffffffff1990911617905550565b6000805433600160a060020a0390811691161461187357600080fd5b50600354600160a060020a031690565b60166020908152600091825260409182902080548351601f6002600019610100600186161502019093169290920491820184900484028101840190945280845290918301828280156110295780601f10610ffe57610100808354040283529160200191611029565b60275481565b6000806118fc611331565b151561190757600080fd5b5060005b601a548111611a035760008181526028602052604090205463ffffffff848116911614156119fb576000818152602860205260408120805463ffffffff1916815560018101829055600201819055601a541180156119695750600081115b801561197a575060018103601a5414155b156119e857601a80546000199081016000908152602860205260408082208583528183208154815463ffffffff90911663ffffffff19918216178255600180840154818401556002938401549284019290925595549094018352908220805490941684559183018190559101555b601a805460001981019091559150611a09565b60010161190b565b601a5491505b50919050565b601a5490565b60005433600160a060020a03908116911614611a3057600080fd5b6001805473ffffffffffffffffffffffffffffffffffffffff1916600160a060020a0392909216919091179055565b63ffffffff8116600090815260136020526040902054600160a060020a039081169084168114611a8e57600080fd5b600160a060020a038181169084161415611aa757600080fd5b600160a060020a0383161515611abc57600080fd5b611ac68183611ba5565b611ad08383611dd1565b60408051600160a060020a0380841682528516602082015263ffffffff84168183015290517f0daf680c3f528a8760b5142fe1f6f80d5f4ea18bb76f347a7a44a2d565c2b7dc9181900360600190a150505050565b604051600160a060020a03831690605f606484040280156108fc02916000818181858888f19350505050158015611b60573d6000803e3d6000fd5b50600154604051600160a060020a03909116906005606484040280156108fc02916000818181858888f19350505050158015611ba0573d6000803e3d6000fd5b505050565b600160a060020a038216600090815260146020526040812054905b81811015611dcb57600160a060020a0384166000908152601460205260409020805463ffffffff8516919083908110611bf557fe5b6000918252602090912060088204015460079091166004026101000a900463ffffffff161415611dc357600160a060020a0384166000908152601460205260409020805482908110611c4357fe5b90600052602060002090600891828204019190066004026101000a81549063ffffffff0219169055600082118015611c7e5750600181038214155b15611d9457600160a060020a038416600090815260146020526040902080546000198401908110611cab57fe5b90600052602060002090600891828204019190066004029054906101000a900463ffffffff166014600086600160a060020a0316600160a060020a0316815260200190815260200160002082815481101515611d0357fe5b90600052602060002090600891828204019190066004026101000a81548163ffffffff021916908363ffffffff1602179055506014600085600160a060020a0316600160a060020a0316815260200190815260200160002060018303815481101515611d6b57fe5b90600052602060002090600891828204019190066004026101000a81549063ffffffff02191690555b600160a060020a0384166000908152601460205260409020805490611dbd906000198301611e9a565b50611dcb565b600101611bc0565b50505050565b600160a060020a03909116600081815260146020908152604080832080546001810182559084528284206008820401805463ffffffff97881660046007909416939093026101000a83810298021916969096179095559382526013905291909120805473ffffffffffffffffffffffffffffffffffffffff19169091179055565b61018060405190810160405280600c906020820280388339509192915050565b606060405190810160405280600063ffffffff16815260200160008152602001600081525090565b815481835581811115611ba057600083815260209020611ba091610bbe9160086007928301819004820192860104015b80821115611ede5760008155600101611eca565b50905600a165627a7a72305820a9f1796d860f30a7c5659365278fb3015b287a2978c44fd9807062460d7656850029",
  "source": "pragma solidity ^0.4.23;\nimport \"./BodyRabbit.sol\"; \n\n/**\n* sale and bye Rabbits\n*/\ncontract RabbitMarket is BodyRabbit {\n\n    event SendBunny(address newOwnerBunny, uint32 bunnyId);\n\n // Long time\n    uint stepMoney = 2*60*60;\n           \n    function setStepMoney(uint money) public onlyTech {\n        stepMoney = money;\n    }\n    /**\n    * @dev number of rabbits participating in the auction\n    */\n    uint marketCount = 1;\n    \n    mapping(uint32 => uint) public rabbitSirePrice;\n\n    uint daysperiod = 1;\n    uint sec = 1;\n    //          \n    uint8 middlelast = 20;\n    \n    /***\n    * @param period      \n    */\n    function setDayPeriod(uint period) public onlyTech returns(uint256) {\n        daysperiod = period;\n        sec = daysperiod * 24*60*60;\n        return  sec;\n    }\n     \n     \n    //        \n    mapping(uint32 => uint256[]) internal marketRabbits;\n    //     \n    \n    /**\n    */\n    struct Clisedbid {\n        uint32 rabbitID;\n        address rabbitSeller;\n        uint64 timeBid; \n    }\n    \n    Clisedbid[] clisedbidRabbits;\n     \n    \n    //    \n    uint256 middlePriceMoney = 1;\n    //   \n    uint256 middleSaleTime = 0; \n    //     \n    uint moneyRange;\n\n    /**\n    * @param _money  \n     */\n    function setMoneyRange(uint _money) public onlyTech {\n        moneyRange = _money;\n    }\n     \n    // the last cost of a sold seal\n    uint lastmoney = 0;  \n    // the time which was spent on the sale of the cat\n    uint lastTimeGen0;\n\n\n    // number of seals currently on sale\n  //  uint public bidCount = 0;\n\n     \n    /**\n    * @param  money;\n    * @param  timeStart; \n    * @param  timeFinish; \n    */\n    struct BidClosed {\n        uint money;\n        uint timeRange;  \n    }\n    /**\n    * @param  BidClosed \n    */\n    mapping(uint=>BidClosed) sellerOfRabbit;\n \n    //how many closed auctions\n    uint public totalClosedBID = 0;\n     \n     \n     \n    /**\n    * @param  _rabbitID;\n    * @param  _rabbitSeller;\n    * @param  startMoney;\n    */\n    struct Bids {\n        uint32 rabbitID; \n        uint  startMoney;\n        uint  timeStart;\n    }\n    mapping(uint=>Bids) public bidsArray;\n\n    mapping(uint32 => uint) bidsIndex;\n \n   // mapping (address => uint) sellerOfRabbit;\n     \n     /*** \n    */\n    function setMarket( uint32 _bunnyid, uint _money) public  {\n        require(isPauseSave());\n        require(rabbitToOwner[_bunnyid] == msg.sender);\n        _money = bigPrice*_money;\n        Bids memory bid = Bids(_bunnyid, _money, now);\n        bidsArray[marketCount] = bid;\n        bidsIndex[_bunnyid] = marketCount;\n        marketCount++; \n    }\n\n \n    \n\n        /**\n    * @dev get rabbit price\n    */\n    function currentPrice(uint32 bunnyid) public view returns(uint) {\n        uint index = bidsIndex[bunnyid];\n\n        uint timeStart = bidsArray[index].timeStart;\n        uint startMoney = bidsArray[index].startMoney;\n\n        uint resMoney = 0;\n        uint rangeTime = now - timeStart;\n        if(stepMoney != 0) { \n            uint iter = rangeTime / stepMoney;\n            if(iter != 0 && startMoney != 0) {\n                uint range = startMoney / 1000;\n                resMoney = startMoney - range*10;\n             }else{\n                 resMoney = startMoney;\n             }\n        }\n        return resMoney;\n    }\n    \n\n    function buyBunny(uint32 _bunnyid) public payable {\n\n        require(isPauseSave());\n        require(rabbitToOwner[_bunnyid] != msg.sender);\n        uint price = currentPrice(_bunnyid);\n      //  require(0 != price);\n        require(msg.value >= price && 0 != price);\n        \n        //     \n        stopMarket(_bunnyid); \n        totalClosedBID++;\n\n        //     \n        transferFrom( rabbitToOwner[_bunnyid], msg.sender, _bunnyid);\n        sendMoney(rabbitToOwner[_bunnyid], msg.value);\n   \n        sellerOfRabbit[totalClosedBID] = BidClosed(price, (now - bidsArray[bidsIndex[_bunnyid]].timeStart ));\n        emit SendBunny (msg.sender, _bunnyid);\n    }\n\n\n\n\n\n\n\n\n    /**\n    * @dev removal from the market rabbit\n    */\n    function deleteRabbitMarket(uint rabbitid) public pure { \n        rabbitid; \n    } \n\n \n    \n    /**\n    * @param rabbitid rabbit in relation to whom reduce the cost\n    */\n    function bidMarket(uint32 rabbitid, uint step) public view { \n        require(isPauseSave());\n\n        rabbitid;\n        step;\n    }\n    \n    \n \n    \n    /**\n    * @dev give a rabbit to a specific user\n    * @param add new address owner rabbits\n    */\n\n    function giff(uint32 bunnyid, address add) public  {\n        require(rabbitToOwner[bunnyid] == msg.sender);\n        transferFrom(msg.sender, add, bunnyid);\n    }\n    \n    \n    /**\n    * @dev Get the cost of the zeroth gene necessary to add to the store\n    */\n\n    function getpricegen0() internal returns(uint _money) {\n        if (totalGen0 <= promoGen0) { \n           return _money = promoMoney;\n        }\n        uint _time = 0;\n        uint lostmoney = 0;\n        uint losttime = 0;\n        uint losttimerange = 0;\n        if ((totalClosedBID-middlelast) > 0) {\n            for (uint32 i = uint32(totalClosedBID-middlelast); i > totalClosedBID; i++) {\n\n                lostmoney = sellerOfRabbit[i].money + lostmoney;\n                losttimerange = sellerOfRabbit[i].timeRange;\n                losttime = losttime + losttimerange;\n            }\n            _money = lostmoney / middlelast;\n            _time = losttime / middlelast;\n             \n            if (middleSaleTime >= _time) {\n                _money = _money + (_money / 3);\n            } else {\n                _money = _money - (_money / 3);\n            }\n            middleSaleTime = _time;\n        }\n        return  _money;\n    } \n\n\n\n    // https://ethereum.stackexchange.com/questions/1527/how-to-delete-an-element-at-a-certain-index-in-an-array\n    function getBids(uint page) \n            public view returns(\n                uint32[12] rabbitID, \n                address[12]rabbitSeller, \n                uint[12]startMoneyBids, \n                uint[12]timeStartBids, \n                uint[12]currentPriceBids,\n                uint elementEnd,\n                uint elementTotal\n                ) {\n                \n                uint32 bunnyID = 0;\n                uint pagecount = 12;\n                uint start = 0;\n\n                if (page < 1) {\n                    page = 1;\n                }\n                \n                elementEnd = page * pagecount;\n                if (elementEnd > marketCount) {\n                    elementEnd = marketCount;\n                }\n                elementTotal = marketCount;\n                uint startArray = (((page-1)*pagecount)+1);\n\n                for (uint i = startArray; i < (elementEnd+1); i++) {\n\n                    bunnyID = uint32(bidsArray[i].rabbitID);\n                    rabbitID[start] = uint32(bidsArray[i].rabbitID);\n\n                    rabbitSeller[start] = rabbitToOwner[bunnyID]; \n\n                    startMoneyBids[start] = bidsArray[i].startMoney; \n                    timeStartBids[start] = bidsArray[i].timeStart;\n                    currentPriceBids[start] = currentPrice(bunnyID);\n                    start++;\n                }\n            }\n\n     // https://ethereum.stackexchange.com/questions/1527/how-to-delete-an-element-at-a-certain-index-in-an-array\n    function stopMarket(uint32 _bunnyID) public returns(uint) {\n        require(isPauseSave());\n        // require(rabbitToOwner[_bunnyID] == msg.sender); //dev\n        for (uint i = 0; i <= marketCount; i++) {\n            if (bidsArray[i].rabbitID == _bunnyID) {\n                delete bidsArray[i];\n                if (marketCount > 0 && i > 0 && marketCount != (i-1)) {\n                    bidsArray[i] = bidsArray[(marketCount-1)];\n                delete  bidsArray[(marketCount-1)];\n                }\n                return marketCount--;\n            }\n        }\n        return marketCount;\n    }\n    \n\n    function getMarketCount() public view returns(uint) {\n        return marketCount;\n    }\n}\n",
  "sourcePath": "/home/koras/contracts/publicRabbit/pub/contracts/RabbitMarket.sol",
  "compiler": {
    "name": "solc",
    "version": "0.4.23+commit.124ca40d.Emscripten.clang"
  },
  "schemaVersion": "2.0.0",
  "updatedAt": "2018-05-14T17:15:42.091Z"
}